{
	"source/ExStorage.sol": {
		"ExStorage": {
			"abi": [
				{
					"inputs": [
						{
							"internalType": "address",
							"name": "_mainStorage",
							"type": "address"
						}
					],
					"stateMutability": "nonpayable",
					"type": "constructor"
				},
				{
					"inputs": [
						{
							"internalType": "string",
							"name": "_scopeKey",
							"type": "string"
						}
					],
					"name": "clearScopeData",
					"outputs": [],
					"stateMutability": "nonpayable",
					"type": "function"
				},
				{
					"inputs": [
						{
							"internalType": "string",
							"name": "_scopeKey",
							"type": "string"
						}
					],
					"name": "getScopeData",
					"outputs": [
						{
							"components": [
								{
									"internalType": "string",
									"name": "key",
									"type": "string"
								},
								{
									"internalType": "string",
									"name": "info",
									"type": "string"
								}
							],
							"internalType": "struct ExStorage.ScopeKeyData[]",
							"name": "",
							"type": "tuple[]"
						}
					],
					"stateMutability": "view",
					"type": "function"
				},
				{
					"inputs": [
						{
							"internalType": "string",
							"name": "_scopeKey",
							"type": "string"
						},
						{
							"internalType": "string",
							"name": "_key",
							"type": "string"
						}
					],
					"name": "getScopeKeyData",
					"outputs": [
						{
							"internalType": "string",
							"name": "",
							"type": "string"
						}
					],
					"stateMutability": "view",
					"type": "function"
				},
				{
					"inputs": [],
					"name": "mainStorage",
					"outputs": [
						{
							"internalType": "contract IStorage",
							"name": "",
							"type": "address"
						}
					],
					"stateMutability": "view",
					"type": "function"
				},
				{
					"inputs": [
						{
							"internalType": "string",
							"name": "_scopeKey",
							"type": "string"
						},
						{
							"internalType": "string",
							"name": "_key",
							"type": "string"
						},
						{
							"internalType": "string",
							"name": "_data",
							"type": "string"
						}
					],
					"name": "setScopeKeyData",
					"outputs": [],
					"stateMutability": "nonpayable",
					"type": "function"
				},
				{
					"inputs": [
						{
							"internalType": "string",
							"name": "_scopeKey",
							"type": "string"
						},
						{
							"components": [
								{
									"internalType": "string",
									"name": "key",
									"type": "string"
								},
								{
									"internalType": "string",
									"name": "info",
									"type": "string"
								}
							],
							"internalType": "struct ExStorage.ScopeKeyData[]",
							"name": "_keyToData",
							"type": "tuple[]"
						}
					],
					"name": "setScopeKeysData",
					"outputs": [],
					"stateMutability": "nonpayable",
					"type": "function"
				}
			],
			"devdoc": {
				"kind": "dev",
				"methods": {},
				"version": 1
			},
			"evm": {
				"assembly": "    /* \"source/ExStorage.sol\":240:3832  contract ExStorage {... */\n  mstore(0x40, 0x80)\n    /* \"source/ExStorage.sol\":1138:1227  constructor(address _mainStorage) {... */\n  callvalue\n  dup1\n  iszero\n  tag_1\n  jumpi\n  0x00\n  dup1\n  revert\ntag_1:\n  pop\n  mload(0x40)\n  sub(codesize, bytecodeSize)\n  dup1\n  bytecodeSize\n  dup4\n  codecopy\n  dup2\n  add\n  0x40\n  dup2\n  swap1\n  mstore\n  tag_2\n  swap2\n  tag_3\n  jump\t// in\ntag_2:\n    /* \"source/ExStorage.sol\":1183:1194  mainStorage */\n  0x00\n    /* \"source/ExStorage.sol\":1183:1219  mainStorage = IStorage(_mainStorage) */\n  dup1\n  sload\n  not(sub(shl(0xa0, 0x01), 0x01))\n  and\n  sub(shl(0xa0, 0x01), 0x01)\n  swap3\n  swap1\n  swap3\n  and\n  swap2\n  swap1\n  swap2\n  or\n  swap1\n  sstore\n    /* \"source/ExStorage.sol\":240:3832  contract ExStorage {... */\n  jump(tag_7)\n    /* \"#utility.yul\":14:304   */\ntag_3:\n    /* \"#utility.yul\":84:90   */\n  0x00\n    /* \"#utility.yul\":137:139   */\n  0x20\n    /* \"#utility.yul\":125:134   */\n  dup3\n    /* \"#utility.yul\":116:123   */\n  dup5\n    /* \"#utility.yul\":112:135   */\n  sub\n    /* \"#utility.yul\":108:140   */\n  slt\n    /* \"#utility.yul\":105:157   */\n  iszero\n  tag_9\n  jumpi\n    /* \"#utility.yul\":153:154   */\n  0x00\n    /* \"#utility.yul\":150:151   */\n  dup1\n    /* \"#utility.yul\":143:155   */\n  revert\n    /* \"#utility.yul\":105:157   */\ntag_9:\n    /* \"#utility.yul\":179:195   */\n  dup2\n  mload\n  sub(shl(0xa0, 0x01), 0x01)\n    /* \"#utility.yul\":224:255   */\n  dup2\n  and\n    /* \"#utility.yul\":214:256   */\n  dup2\n  eq\n    /* \"#utility.yul\":204:274   */\n  tag_10\n  jumpi\n    /* \"#utility.yul\":270:271   */\n  0x00\n    /* \"#utility.yul\":267:268   */\n  dup1\n    /* \"#utility.yul\":260:272   */\n  revert\n    /* \"#utility.yul\":204:274   */\ntag_10:\n    /* \"#utility.yul\":293:298   */\n  swap4\n    /* \"#utility.yul\":14:304   */\n  swap3\n  pop\n  pop\n  pop\n  jump\t// out\ntag_7:\n    /* \"source/ExStorage.sol\":240:3832  contract ExStorage {... */\n  dataSize(sub_0)\n  dup1\n  dataOffset(sub_0)\n  0x00\n  codecopy\n  0x00\n  return\nstop\n\nsub_0: assembly {\n        /* \"source/ExStorage.sol\":240:3832  contract ExStorage {... */\n      mstore(0x40, 0x80)\n      callvalue\n      dup1\n      iszero\n      tag_1\n      jumpi\n      0x00\n      dup1\n      revert\n    tag_1:\n      pop\n      jumpi(tag_2, lt(calldatasize, 0x04))\n      shr(0xe0, calldataload(0x00))\n      dup1\n      0xcc3d6185\n      gt\n      tag_9\n      jumpi\n      dup1\n      0xcc3d6185\n      eq\n      tag_6\n      jumpi\n      dup1\n      0xe19d2ac3\n      eq\n      tag_7\n      jumpi\n      dup1\n      0xfa8d9672\n      eq\n      tag_8\n      jumpi\n      0x00\n      dup1\n      revert\n    tag_9:\n      dup1\n      0x52495b8b\n      eq\n      tag_3\n      jumpi\n      dup1\n      0xb4ce4f3c\n      eq\n      tag_4\n      jumpi\n      dup1\n      0xc9c711c9\n      eq\n      tag_5\n      jumpi\n    tag_2:\n      0x00\n      dup1\n      revert\n        /* \"source/ExStorage.sol\":2533:3016  function setScopeKeyData(... */\n    tag_3:\n      tag_10\n      tag_11\n      calldatasize\n      0x04\n      tag_12\n      jump\t// in\n    tag_11:\n      tag_13\n      jump\t// in\n    tag_10:\n      stop\n        /* \"source/ExStorage.sol\":1686:2247  function getScopeData(string memory _scopeKey)... */\n    tag_4:\n      tag_14\n      tag_15\n      calldatasize\n      0x04\n      tag_16\n      jump\t// in\n    tag_15:\n      tag_17\n      jump\t// in\n    tag_14:\n      mload(0x40)\n      tag_18\n      swap2\n      swap1\n      tag_19\n      jump\t// in\n    tag_18:\n      mload(0x40)\n      dup1\n      swap2\n      sub\n      swap1\n      return\n        /* \"source/ExStorage.sol\":1235:1678  function clearScopeData(string memory _scopeKey)... */\n    tag_5:\n      tag_10\n      tag_21\n      calldatasize\n      0x04\n      tag_16\n      jump\t// in\n    tag_21:\n      tag_22\n      jump\t// in\n        /* \"source/ExStorage.sol\":3024:3829  function setScopeKeysData(... */\n    tag_6:\n      tag_10\n      tag_24\n      calldatasize\n      0x04\n      tag_25\n      jump\t// in\n    tag_24:\n      tag_26\n      jump\t// in\n        /* \"source/ExStorage.sol\":266:293  IStorage public mainStorage */\n    tag_7:\n      sload(0x00)\n      tag_27\n      swap1\n      0xffffffffffffffffffffffffffffffffffffffff\n      and\n      dup2\n      jump\n    tag_27:\n      mload(0x40)\n        /* \"#utility.yul\":7026:7068   */\n      0xffffffffffffffffffffffffffffffffffffffff\n        /* \"#utility.yul\":7014:7069   */\n      swap1\n      swap2\n      and\n        /* \"#utility.yul\":6996:7070   */\n      dup2\n      mstore\n        /* \"#utility.yul\":6984:6986   */\n      0x20\n        /* \"#utility.yul\":6969:6987   */\n      add\n        /* \"source/ExStorage.sol\":266:293  IStorage public mainStorage */\n      tag_18\n        /* \"#utility.yul\":6835:7076   */\n      jump\n        /* \"source/ExStorage.sol\":2255:2525  function getScopeKeyData(... */\n    tag_8:\n      tag_31\n      tag_32\n      calldatasize\n      0x04\n      tag_33\n      jump\t// in\n    tag_32:\n      tag_34\n      jump\t// in\n    tag_31:\n      mload(0x40)\n      tag_18\n      swap2\n      swap1\n      tag_36\n      jump\t// in\n        /* \"source/ExStorage.sol\":2533:3016  function setScopeKeyData(... */\n    tag_13:\n        /* \"source/ExStorage.sol\":489:505  byteValue.length */\n      dup3\n      mload\n        /* \"source/ExStorage.sol\":2692:2701  _scopeKey */\n      dup4\n      swap1\n      dup2\n      swap1\n        /* \"source/ExStorage.sol\":481:523  require(byteValue.length != 0, 'NO_VALUE') */\n      tag_38\n      jumpi\n      mload(0x40)\n      0x08c379a000000000000000000000000000000000000000000000000000000000\n      dup2\n      mstore\n        /* \"#utility.yul\":8056:8058   */\n      0x20\n        /* \"source/ExStorage.sol\":481:523  require(byteValue.length != 0, 'NO_VALUE') */\n      0x04\n      dup3\n      add\n        /* \"#utility.yul\":8038:8059   */\n      mstore\n        /* \"#utility.yul\":8095:8096   */\n      0x08\n        /* \"#utility.yul\":8075:8093   */\n      0x24\n      dup3\n      add\n        /* \"#utility.yul\":8068:8097   */\n      mstore\n        /* \"#utility.yul\":8133:8143   */\n      0x4e4f5f56414c5545000000000000000000000000000000000000000000000000\n        /* \"#utility.yul\":8113:8131   */\n      0x44\n      dup3\n      add\n        /* \"#utility.yul\":8106:8144   */\n      mstore\n        /* \"#utility.yul\":8161:8179   */\n      0x64\n      add\n        /* \"source/ExStorage.sol\":481:523  require(byteValue.length != 0, 'NO_VALUE') */\n    tag_39:\n      mload(0x40)\n      dup1\n      swap2\n      sub\n      swap1\n      revert\n    tag_38:\n        /* \"source/ExStorage.sol\":489:505  byteValue.length */\n      dup4\n      mload\n        /* \"source/ExStorage.sol\":2721:2725  _key */\n      dup5\n      swap1\n      dup2\n      swap1\n        /* \"source/ExStorage.sol\":481:523  require(byteValue.length != 0, 'NO_VALUE') */\n      tag_42\n      jumpi\n      mload(0x40)\n      0x08c379a000000000000000000000000000000000000000000000000000000000\n      dup2\n      mstore\n        /* \"#utility.yul\":8056:8058   */\n      0x20\n        /* \"source/ExStorage.sol\":481:523  require(byteValue.length != 0, 'NO_VALUE') */\n      0x04\n      dup3\n      add\n        /* \"#utility.yul\":8038:8059   */\n      mstore\n        /* \"#utility.yul\":8095:8096   */\n      0x08\n        /* \"#utility.yul\":8075:8093   */\n      0x24\n      dup3\n      add\n        /* \"#utility.yul\":8068:8097   */\n      mstore\n        /* \"#utility.yul\":8133:8143   */\n      0x4e4f5f56414c5545000000000000000000000000000000000000000000000000\n        /* \"#utility.yul\":8113:8131   */\n      0x44\n      dup3\n      add\n        /* \"#utility.yul\":8106:8144   */\n      mstore\n        /* \"#utility.yul\":8161:8179   */\n      0x64\n      add\n        /* \"source/ExStorage.sol\":481:523  require(byteValue.length != 0, 'NO_VALUE') */\n      tag_39\n        /* \"#utility.yul\":7854:8185   */\n      jump\n        /* \"source/ExStorage.sol\":481:523  require(byteValue.length != 0, 'NO_VALUE') */\n    tag_42:\n        /* \"source/ExStorage.sol\":489:505  byteValue.length */\n      dup5\n      mload\n        /* \"source/ExStorage.sol\":2745:2750  _data */\n      dup6\n      swap1\n      dup2\n      swap1\n        /* \"source/ExStorage.sol\":481:523  require(byteValue.length != 0, 'NO_VALUE') */\n      tag_45\n      jumpi\n      mload(0x40)\n      0x08c379a000000000000000000000000000000000000000000000000000000000\n      dup2\n      mstore\n        /* \"#utility.yul\":8056:8058   */\n      0x20\n        /* \"source/ExStorage.sol\":481:523  require(byteValue.length != 0, 'NO_VALUE') */\n      0x04\n      dup3\n      add\n        /* \"#utility.yul\":8038:8059   */\n      mstore\n        /* \"#utility.yul\":8095:8096   */\n      0x08\n        /* \"#utility.yul\":8075:8093   */\n      0x24\n      dup3\n      add\n        /* \"#utility.yul\":8068:8097   */\n      mstore\n        /* \"#utility.yul\":8133:8143   */\n      0x4e4f5f56414c5545000000000000000000000000000000000000000000000000\n        /* \"#utility.yul\":8113:8131   */\n      0x44\n      dup3\n      add\n        /* \"#utility.yul\":8106:8144   */\n      mstore\n        /* \"#utility.yul\":8161:8179   */\n      0x64\n      add\n        /* \"source/ExStorage.sol\":481:523  require(byteValue.length != 0, 'NO_VALUE') */\n      tag_39\n        /* \"#utility.yul\":7854:8185   */\n      jump\n        /* \"source/ExStorage.sol\":481:523  require(byteValue.length != 0, 'NO_VALUE') */\n    tag_45:\n        /* \"source/ExStorage.sol\":611:642  IStorage.Data memory _scopeInfo */\n      0x00\n        /* \"source/ExStorage.sol\":645:656  mainStorage */\n      dup1\n      sload\n        /* \"source/ExStorage.sol\":645:675  mainStorage.getData(_scopeKey) */\n      mload(0x40)\n      0xae55c88800000000000000000000000000000000000000000000000000000000\n      dup2\n      mstore\n        /* \"source/ExStorage.sol\":2776:2785  _scopeKey */\n      dup12\n      swap3\n        /* \"source/ExStorage.sol\":611:642  IStorage.Data memory _scopeInfo */\n      swap2\n        /* \"source/ExStorage.sol\":645:656  mainStorage */\n      0xffffffffffffffffffffffffffffffffffffffff\n      and\n      swap1\n        /* \"source/ExStorage.sol\":645:664  mainStorage.getData */\n      0xae55c888\n      swap1\n        /* \"source/ExStorage.sol\":645:675  mainStorage.getData(_scopeKey) */\n      tag_48\n      swap1\n        /* \"source/ExStorage.sol\":2776:2785  _scopeKey */\n      dup6\n      swap1\n        /* \"source/ExStorage.sol\":645:675  mainStorage.getData(_scopeKey) */\n      0x04\n      add\n      tag_36\n      jump\t// in\n    tag_48:\n      0x00\n      mload(0x40)\n      dup1\n      dup4\n      sub\n      dup2\n      dup7\n      gas\n      staticcall\n      iszero\n      dup1\n      iszero\n      tag_50\n      jumpi\n      returndatasize\n      0x00\n      dup1\n      returndatacopy\n      revert(0x00, returndatasize)\n    tag_50:\n      pop\n      pop\n      pop\n      pop\n      mload(0x40)\n      returndatasize\n      0x00\n      dup3\n      returndatacopy\n      0x1f\n      returndatasize\n      swap1\n      dup2\n      add\n      0xffffffffffffffffffffffffffffffffffffffffffffffffffffffffffffffe0\n      and\n      dup3\n      add\n      0x40\n      mstore\n      tag_51\n      swap2\n      swap1\n      dup2\n      add\n      swap1\n      tag_52\n      jump\t// in\n    tag_51:\n        /* \"source/ExStorage.sol\":690:706  _scopeInfo.owner */\n      dup1\n      mload\n        /* \"source/ExStorage.sol\":611:675  IStorage.Data memory _scopeInfo = mainStorage.getData(_scopeKey) */\n      swap1\n      swap2\n      pop\n        /* \"source/ExStorage.sol\":690:720  _scopeInfo.owner != address(0) */\n      0xffffffffffffffffffffffffffffffffffffffff\n      and\n      iszero\n        /* \"source/ExStorage.sol\":686:901  if (_scopeInfo.owner != address(0)) {... */\n      tag_53\n      jumpi\n        /* \"source/ExStorage.sol\":759:775  _scopeInfo.owner */\n      dup1\n      mload\n        /* \"source/ExStorage.sol\":745:775  msg.sender == _scopeInfo.owner */\n      0xffffffffffffffffffffffffffffffffffffffff\n      and\n        /* \"source/ExStorage.sol\":745:755  msg.sender */\n      caller\n        /* \"source/ExStorage.sol\":745:775  msg.sender == _scopeInfo.owner */\n      eq\n        /* \"source/ExStorage.sol\":737:789  require(msg.sender == _scopeInfo.owner, 'FORBIDDEN') */\n      tag_54\n      jumpi\n      mload(0x40)\n      0x08c379a000000000000000000000000000000000000000000000000000000000\n      dup2\n      mstore\n        /* \"#utility.yul\":9516:9518   */\n      0x20\n        /* \"source/ExStorage.sol\":737:789  require(msg.sender == _scopeInfo.owner, 'FORBIDDEN') */\n      0x04\n      dup3\n      add\n        /* \"#utility.yul\":9498:9519   */\n      mstore\n        /* \"#utility.yul\":9555:9556   */\n      0x09\n        /* \"#utility.yul\":9535:9553   */\n      0x24\n      dup3\n      add\n        /* \"#utility.yul\":9528:9557   */\n      mstore\n        /* \"#utility.yul\":9593:9604   */\n      0x464f5242494444454e0000000000000000000000000000000000000000000000\n        /* \"#utility.yul\":9573:9591   */\n      0x44\n      dup3\n      add\n        /* \"#utility.yul\":9566:9605   */\n      mstore\n        /* \"#utility.yul\":9622:9640   */\n      0x64\n      add\n        /* \"source/ExStorage.sol\":737:789  require(msg.sender == _scopeInfo.owner, 'FORBIDDEN') */\n      tag_39\n        /* \"#utility.yul\":9314:9646   */\n      jump\n        /* \"source/ExStorage.sol\":737:789  require(msg.sender == _scopeInfo.owner, 'FORBIDDEN') */\n    tag_54:\n        /* \"source/ExStorage.sol\":686:901  if (_scopeInfo.owner != address(0)) {... */\n      jump(tag_58)\n    tag_53:\n        /* \"source/ExStorage.sol\":830:840  msg.sender */\n      caller\n        /* \"source/ExStorage.sol\":830:854  msg.sender == address(0) */\n      iszero\n        /* \"source/ExStorage.sol\":822:889  require(msg.sender == address(0), 'NOT CONFIGURED IN MAIN STORAGE') */\n      tag_58\n      jumpi\n      mload(0x40)\n      0x08c379a000000000000000000000000000000000000000000000000000000000\n      dup2\n      mstore\n        /* \"#utility.yul\":9853:9855   */\n      0x20\n        /* \"source/ExStorage.sol\":822:889  require(msg.sender == address(0), 'NOT CONFIGURED IN MAIN STORAGE') */\n      0x04\n      dup3\n      add\n        /* \"#utility.yul\":9835:9856   */\n      mstore\n        /* \"#utility.yul\":9892:9894   */\n      0x1e\n        /* \"#utility.yul\":9872:9890   */\n      0x24\n      dup3\n      add\n        /* \"#utility.yul\":9865:9895   */\n      mstore\n        /* \"#utility.yul\":9931:9963   */\n      0x4e4f5420434f4e4649475552454420494e204d41494e2053544f524147450000\n        /* \"#utility.yul\":9911:9929   */\n      0x44\n      dup3\n      add\n        /* \"#utility.yul\":9904:9964   */\n      mstore\n        /* \"#utility.yul\":9981:9999   */\n      0x64\n      add\n        /* \"source/ExStorage.sol\":822:889  require(msg.sender == address(0), 'NOT CONFIGURED IN MAIN STORAGE') */\n      tag_39\n        /* \"#utility.yul\":9651:10005   */\n      jump\n        /* \"source/ExStorage.sol\":822:889  require(msg.sender == address(0), 'NOT CONFIGURED IN MAIN STORAGE') */\n    tag_58:\n        /* \"source/ExStorage.sol\":2832:2837  _data */\n      dup9\n        /* \"source/ExStorage.sol\":2803:2812  scopeData */\n      0x01\n        /* \"source/ExStorage.sol\":2813:2822  _scopeKey */\n      dup13\n        /* \"source/ExStorage.sol\":2803:2823  scopeData[_scopeKey] */\n      mload(0x40)\n      tag_62\n      swap2\n      swap1\n      tag_63\n      jump\t// in\n    tag_62:\n      swap1\n      dup2\n      mstore\n      0x20\n      add\n      mload(0x40)\n      dup1\n      swap2\n      sub\n      swap1\n      keccak256\n        /* \"source/ExStorage.sol\":2824:2828  _key */\n      dup12\n        /* \"source/ExStorage.sol\":2803:2829  scopeData[_scopeKey][_key] */\n      mload(0x40)\n      tag_64\n      swap2\n      swap1\n      tag_63\n      jump\t// in\n    tag_64:\n      swap1\n      dup2\n      mstore\n      0x20\n      add\n      mload(0x40)\n      dup1\n      swap2\n      sub\n      swap1\n      keccak256\n        /* \"source/ExStorage.sol\":2803:2837  scopeData[_scopeKey][_key] = _data */\n      swap1\n      dup1\n      mload\n      swap1\n      0x20\n      add\n      swap1\n      tag_65\n      swap3\n      swap2\n      swap1\n      tag_66\n      jump\t// in\n    tag_65:\n      pop\n        /* \"source/ExStorage.sol\":2853:2871  scopeDataKeyExists */\n      0x03\n        /* \"source/ExStorage.sol\":2872:2881  _scopeKey */\n      dup12\n        /* \"source/ExStorage.sol\":2853:2882  scopeDataKeyExists[_scopeKey] */\n      mload(0x40)\n      tag_67\n      swap2\n      swap1\n      tag_63\n      jump\t// in\n    tag_67:\n      swap1\n      dup2\n      mstore\n      0x20\n      add\n      mload(0x40)\n      dup1\n      swap2\n      sub\n      swap1\n      keccak256\n        /* \"source/ExStorage.sol\":2883:2887  _key */\n      dup11\n        /* \"source/ExStorage.sol\":2853:2888  scopeDataKeyExists[_scopeKey][_key] */\n      mload(0x40)\n      tag_68\n      swap2\n      swap1\n      tag_63\n      jump\t// in\n    tag_68:\n      swap1\n      dup2\n      mstore\n      mload(0x40)\n      swap1\n      dup2\n      swap1\n      sub\n      0x20\n      add\n      swap1\n      keccak256\n      sload\n      0xff\n      and\n        /* \"source/ExStorage.sol\":2848:3009  if (!scopeDataKeyExists[_scopeKey][_key]) {... */\n      tag_69\n      jumpi\n        /* \"source/ExStorage.sol\":2943:2947  true */\n      0x01\n        /* \"source/ExStorage.sol\":2905:2923  scopeDataKeyExists */\n      0x03\n        /* \"source/ExStorage.sol\":2924:2933  _scopeKey */\n      dup13\n        /* \"source/ExStorage.sol\":2905:2934  scopeDataKeyExists[_scopeKey] */\n      mload(0x40)\n      tag_70\n      swap2\n      swap1\n      tag_63\n      jump\t// in\n    tag_70:\n      swap1\n      dup2\n      mstore\n      0x20\n      add\n      mload(0x40)\n      dup1\n      swap2\n      sub\n      swap1\n      keccak256\n        /* \"source/ExStorage.sol\":2935:2939  _key */\n      dup12\n        /* \"source/ExStorage.sol\":2905:2940  scopeDataKeyExists[_scopeKey][_key] */\n      mload(0x40)\n      tag_71\n      swap2\n      swap1\n      tag_63\n      jump\t// in\n    tag_71:\n      swap1\n      dup2\n      mstore\n      mload(0x40)\n      swap1\n      dup2\n      swap1\n      sub\n      0x20\n      add\n      dup2\n      keccak256\n        /* \"source/ExStorage.sol\":2905:2947  scopeDataKeyExists[_scopeKey][_key] = true */\n      dup1\n      sload\n      swap3\n      iszero\n      iszero\n      0xffffffffffffffffffffffffffffffffffffffffffffffffffffffffffffff00\n      swap1\n      swap4\n      and\n      swap3\n      swap1\n      swap3\n      or\n      swap1\n      swap2\n      sstore\n        /* \"source/ExStorage.sol\":2962:2975  scopeDataKeys */\n      0x02\n      swap1\n        /* \"source/ExStorage.sol\":2962:2986  scopeDataKeys[_scopeKey] */\n      tag_72\n      swap1\n        /* \"source/ExStorage.sol\":2976:2985  _scopeKey */\n      dup14\n      swap1\n        /* \"source/ExStorage.sol\":2962:2986  scopeDataKeys[_scopeKey] */\n      tag_63\n      jump\t// in\n    tag_72:\n      swap1\n      dup2\n      mstore\n      mload(0x40)\n      0x20\n      swap2\n      dup2\n      swap1\n      sub\n      dup3\n      add\n      swap1\n      keccak256\n        /* \"source/ExStorage.sol\":2962:2997  scopeDataKeys[_scopeKey].push(_key) */\n      dup1\n      sload\n      0x01\n      dup2\n      add\n      dup3\n      sstore\n      0x00\n      swap2\n      dup3\n      mstore\n      swap1\n      dup3\n      swap1\n      keccak256\n      dup13\n      mload\n      tag_74\n      swap4\n      swap2\n      swap1\n      swap3\n      add\n      swap2\n      swap1\n      dup14\n      add\n      swap1\n      tag_66\n      jump\t// in\n    tag_74:\n      pop\n        /* \"source/ExStorage.sol\":2848:3009  if (!scopeDataKeyExists[_scopeKey][_key]) {... */\n    tag_69:\n        /* \"source/ExStorage.sol\":600:920  {... */\n      pop\n        /* \"source/ExStorage.sol\":534:535  _ */\n      pop\n        /* \"source/ExStorage.sol\":421:543  {... */\n      pop\n        /* \"source/ExStorage.sol\":534:535  _ */\n      pop\n        /* \"source/ExStorage.sol\":421:543  {... */\n      pop\n        /* \"source/ExStorage.sol\":534:535  _ */\n      pop\n        /* \"source/ExStorage.sol\":421:543  {... */\n      pop\n        /* \"source/ExStorage.sol\":2533:3016  function setScopeKeyData(... */\n      pop\n      pop\n      pop\n      pop\n      jump\t// out\n        /* \"source/ExStorage.sol\":1686:2247  function getScopeData(string memory _scopeKey)... */\n    tag_17:\n        /* \"source/ExStorage.sol\":489:505  byteValue.length */\n      dup1\n      mload\n        /* \"source/ExStorage.sol\":1809:1830  ScopeKeyData[] memory */\n      0x60\n      swap1\n        /* \"source/ExStorage.sol\":1781:1790  _scopeKey */\n      dup3\n      swap1\n      dup2\n      swap1\n        /* \"source/ExStorage.sol\":481:523  require(byteValue.length != 0, 'NO_VALUE') */\n      tag_76\n      jumpi\n      mload(0x40)\n      0x08c379a000000000000000000000000000000000000000000000000000000000\n      dup2\n      mstore\n        /* \"#utility.yul\":8056:8058   */\n      0x20\n        /* \"source/ExStorage.sol\":481:523  require(byteValue.length != 0, 'NO_VALUE') */\n      0x04\n      dup3\n      add\n        /* \"#utility.yul\":8038:8059   */\n      mstore\n        /* \"#utility.yul\":8095:8096   */\n      0x08\n        /* \"#utility.yul\":8075:8093   */\n      0x24\n      dup3\n      add\n        /* \"#utility.yul\":8068:8097   */\n      mstore\n        /* \"#utility.yul\":8133:8143   */\n      0x4e4f5f56414c5545000000000000000000000000000000000000000000000000\n        /* \"#utility.yul\":8113:8131   */\n      0x44\n      dup3\n      add\n        /* \"#utility.yul\":8106:8144   */\n      mstore\n        /* \"#utility.yul\":8161:8179   */\n      0x64\n      add\n        /* \"source/ExStorage.sol\":481:523  require(byteValue.length != 0, 'NO_VALUE') */\n      tag_39\n        /* \"#utility.yul\":7854:8185   */\n      jump\n        /* \"source/ExStorage.sol\":481:523  require(byteValue.length != 0, 'NO_VALUE') */\n    tag_76:\n        /* \"source/ExStorage.sol\":1848:1877  ScopeKeyData[] memory retData */\n      0x00\n        /* \"source/ExStorage.sol\":1899:1912  scopeDataKeys */\n      0x02\n        /* \"source/ExStorage.sol\":1913:1922  _scopeKey */\n      dup6\n        /* \"source/ExStorage.sol\":1899:1923  scopeDataKeys[_scopeKey] */\n      mload(0x40)\n      tag_79\n      swap2\n      swap1\n      tag_63\n      jump\t// in\n    tag_79:\n      swap1\n      dup2\n      mstore\n      mload(0x40)\n      swap1\n      dup2\n      swap1\n      sub\n      0x20\n      add\n      swap1\n      keccak256\n        /* \"source/ExStorage.sol\":1899:1930  scopeDataKeys[_scopeKey].length */\n      sload\n        /* \"source/ExStorage.sol\":1880:1931  new ScopeKeyData[](scopeDataKeys[_scopeKey].length) */\n      0xffffffffffffffff\n      dup2\n      gt\n      iszero\n      tag_81\n      jumpi\n      tag_81\n      tag_82\n      jump\t// in\n    tag_81:\n      mload(0x40)\n      swap1\n      dup1\n      dup3\n      mstore\n      dup1\n      0x20\n      mul\n      0x20\n      add\n      dup3\n      add\n      0x40\n      mstore\n      dup1\n      iszero\n      tag_83\n      jumpi\n      dup2\n      0x20\n      add\n    tag_84:\n      0x40\n      dup1\n      mload\n      dup1\n      dup3\n      add\n      swap1\n      swap2\n      mstore\n      0x60\n      dup1\n      dup3\n      mstore\n      0x20\n      dup3\n      add\n      mstore\n      dup2\n      mstore\n      0x20\n      add\n      swap1\n      0x01\n      swap1\n      sub\n      swap1\n      dup2\n      tag_84\n      jumpi\n      swap1\n      pop\n    tag_83:\n      pop\n        /* \"source/ExStorage.sol\":1848:1931  ScopeKeyData[] memory retData = new ScopeKeyData[](scopeDataKeys[_scopeKey].length) */\n      swap1\n      pop\n        /* \"source/ExStorage.sol\":1947:1961  uint256 kIndex */\n      0x00\n        /* \"source/ExStorage.sol\":1942:2215  for (uint256 kIndex = 0; kIndex < scopeDataKeys[_scopeKey].length; kIndex++) {... */\n    tag_87:\n        /* \"source/ExStorage.sol\":1976:1989  scopeDataKeys */\n      0x02\n        /* \"source/ExStorage.sol\":1990:1999  _scopeKey */\n      dup7\n        /* \"source/ExStorage.sol\":1976:2000  scopeDataKeys[_scopeKey] */\n      mload(0x40)\n      tag_90\n      swap2\n      swap1\n      tag_63\n      jump\t// in\n    tag_90:\n      swap1\n      dup2\n      mstore\n      mload(0x40)\n      swap1\n      dup2\n      swap1\n      sub\n      0x20\n      add\n      swap1\n      keccak256\n        /* \"source/ExStorage.sol\":1976:2007  scopeDataKeys[_scopeKey].length */\n      sload\n        /* \"source/ExStorage.sol\":1967:2007  kIndex < scopeDataKeys[_scopeKey].length */\n      dup2\n      lt\n        /* \"source/ExStorage.sol\":1942:2215  for (uint256 kIndex = 0; kIndex < scopeDataKeys[_scopeKey].length; kIndex++) {... */\n      iszero\n      tag_88\n      jumpi\n        /* \"source/ExStorage.sol\":2052:2203  ScopeKeyData(... */\n      mload(0x40)\n      dup1\n      0x40\n      add\n      0x40\n      mstore\n      dup1\n        /* \"source/ExStorage.sol\":2083:2096  scopeDataKeys */\n      0x02\n        /* \"source/ExStorage.sol\":2097:2106  _scopeKey */\n      dup9\n        /* \"source/ExStorage.sol\":2083:2107  scopeDataKeys[_scopeKey] */\n      mload(0x40)\n      tag_91\n      swap2\n      swap1\n      tag_63\n      jump\t// in\n    tag_91:\n      swap1\n      dup2\n      mstore\n      0x20\n      add\n      mload(0x40)\n      dup1\n      swap2\n      sub\n      swap1\n      keccak256\n        /* \"source/ExStorage.sol\":2108:2114  kIndex */\n      dup4\n        /* \"source/ExStorage.sol\":2083:2115  scopeDataKeys[_scopeKey][kIndex] */\n      dup2\n      sload\n      dup2\n      lt\n      tag_93\n      jumpi\n      tag_93\n      tag_94\n      jump\t// in\n    tag_93:\n      swap1\n      0x00\n      mstore\n      keccak256(0x00, 0x20)\n      add\n        /* \"source/ExStorage.sol\":2052:2203  ScopeKeyData(... */\n      dup1\n      sload\n      tag_96\n      swap1\n      tag_97\n      jump\t// in\n    tag_96:\n      dup1\n      0x1f\n      add\n      0x20\n      dup1\n      swap2\n      div\n      mul\n      0x20\n      add\n      mload(0x40)\n      swap1\n      dup2\n      add\n      0x40\n      mstore\n      dup1\n      swap3\n      swap2\n      swap1\n      dup2\n      dup2\n      mstore\n      0x20\n      add\n      dup3\n      dup1\n      sload\n      tag_98\n      swap1\n      tag_97\n      jump\t// in\n    tag_98:\n      dup1\n      iszero\n      tag_99\n      jumpi\n      dup1\n      0x1f\n      lt\n      tag_100\n      jumpi\n      0x0100\n      dup1\n      dup4\n      sload\n      div\n      mul\n      dup4\n      mstore\n      swap2\n      0x20\n      add\n      swap2\n      jump(tag_99)\n    tag_100:\n      dup3\n      add\n      swap2\n      swap1\n      0x00\n      mstore\n      keccak256(0x00, 0x20)\n      swap1\n    tag_101:\n      dup2\n      sload\n      dup2\n      mstore\n      swap1\n      0x01\n      add\n      swap1\n      0x20\n      add\n      dup1\n      dup4\n      gt\n      tag_101\n      jumpi\n      dup3\n      swap1\n      sub\n      0x1f\n      and\n      dup3\n      add\n      swap2\n    tag_99:\n      pop\n      pop\n      pop\n      pop\n      pop\n      dup2\n      mstore\n      0x20\n      add\n        /* \"source/ExStorage.sol\":2134:2143  scopeData */\n      0x01\n        /* \"source/ExStorage.sol\":2144:2153  _scopeKey */\n      dup9\n        /* \"source/ExStorage.sol\":2134:2154  scopeData[_scopeKey] */\n      mload(0x40)\n      tag_102\n      swap2\n      swap1\n      tag_63\n      jump\t// in\n    tag_102:\n      swap1\n      dup2\n      mstore\n      0x20\n      add\n      mload(0x40)\n      dup1\n      swap2\n      sub\n      swap1\n      keccak256\n        /* \"source/ExStorage.sol\":2155:2168  scopeDataKeys */\n      0x02\n        /* \"source/ExStorage.sol\":2169:2178  _scopeKey */\n      dup10\n        /* \"source/ExStorage.sol\":2155:2179  scopeDataKeys[_scopeKey] */\n      mload(0x40)\n      tag_103\n      swap2\n      swap1\n      tag_63\n      jump\t// in\n    tag_103:\n      swap1\n      dup2\n      mstore\n      0x20\n      add\n      mload(0x40)\n      dup1\n      swap2\n      sub\n      swap1\n      keccak256\n        /* \"source/ExStorage.sol\":2180:2186  kIndex */\n      dup5\n        /* \"source/ExStorage.sol\":2155:2187  scopeDataKeys[_scopeKey][kIndex] */\n      dup2\n      sload\n      dup2\n      lt\n      tag_105\n      jumpi\n      tag_105\n      tag_94\n      jump\t// in\n    tag_105:\n      swap1\n      0x00\n      mstore\n      keccak256(0x00, 0x20)\n      add\n        /* \"source/ExStorage.sol\":2134:2188  scopeData[_scopeKey][scopeDataKeys[_scopeKey][kIndex]] */\n      mload(0x40)\n      tag_107\n      swap2\n      swap1\n      tag_108\n      jump\t// in\n    tag_107:\n      swap1\n      dup2\n      mstore\n      0x20\n      add\n      mload(0x40)\n      dup1\n      swap2\n      sub\n      swap1\n      keccak256\n        /* \"source/ExStorage.sol\":2052:2203  ScopeKeyData(... */\n      dup1\n      sload\n      tag_109\n      swap1\n      tag_97\n      jump\t// in\n    tag_109:\n      dup1\n      0x1f\n      add\n      0x20\n      dup1\n      swap2\n      div\n      mul\n      0x20\n      add\n      mload(0x40)\n      swap1\n      dup2\n      add\n      0x40\n      mstore\n      dup1\n      swap3\n      swap2\n      swap1\n      dup2\n      dup2\n      mstore\n      0x20\n      add\n      dup3\n      dup1\n      sload\n      tag_110\n      swap1\n      tag_97\n      jump\t// in\n    tag_110:\n      dup1\n      iszero\n      tag_111\n      jumpi\n      dup1\n      0x1f\n      lt\n      tag_112\n      jumpi\n      0x0100\n      dup1\n      dup4\n      sload\n      div\n      mul\n      dup4\n      mstore\n      swap2\n      0x20\n      add\n      swap2\n      jump(tag_111)\n    tag_112:\n      dup3\n      add\n      swap2\n      swap1\n      0x00\n      mstore\n      keccak256(0x00, 0x20)\n      swap1\n    tag_113:\n      dup2\n      sload\n      dup2\n      mstore\n      swap1\n      0x01\n      add\n      swap1\n      0x20\n      add\n      dup1\n      dup4\n      gt\n      tag_113\n      jumpi\n      dup3\n      swap1\n      sub\n      0x1f\n      and\n      dup3\n      add\n      swap2\n    tag_111:\n      pop\n      pop\n      pop\n      pop\n      pop\n      dup2\n      mstore\n      pop\n        /* \"source/ExStorage.sol\":2034:2041  retData */\n      dup3\n        /* \"source/ExStorage.sol\":2042:2048  kIndex */\n      dup3\n        /* \"source/ExStorage.sol\":2034:2049  retData[kIndex] */\n      dup2\n      mload\n      dup2\n      lt\n      tag_115\n      jumpi\n      tag_115\n      tag_94\n      jump\t// in\n    tag_115:\n      0x20\n      mul\n      0x20\n      add\n      add\n        /* \"source/ExStorage.sol\":2034:2203  retData[kIndex] = ScopeKeyData(... */\n      dup2\n      swap1\n      mstore\n      pop\n        /* \"source/ExStorage.sol\":2009:2017  kIndex++ */\n      dup1\n      dup1\n      tag_116\n      swap1\n      tag_117\n      jump\t// in\n    tag_116:\n      swap2\n      pop\n      pop\n        /* \"source/ExStorage.sol\":1942:2215  for (uint256 kIndex = 0; kIndex < scopeDataKeys[_scopeKey].length; kIndex++) {... */\n      jump(tag_87)\n    tag_88:\n      pop\n        /* \"source/ExStorage.sol\":2232:2239  retData */\n      swap5\n        /* \"source/ExStorage.sol\":1686:2247  function getScopeData(string memory _scopeKey)... */\n      swap4\n      pop\n      pop\n      pop\n      pop\n      jump\t// out\n        /* \"source/ExStorage.sol\":1235:1678  function clearScopeData(string memory _scopeKey)... */\n    tag_22:\n        /* \"source/ExStorage.sol\":489:505  byteValue.length */\n      dup1\n      mload\n        /* \"source/ExStorage.sol\":1318:1327  _scopeKey */\n      dup2\n      swap1\n      dup2\n      swap1\n        /* \"source/ExStorage.sol\":481:523  require(byteValue.length != 0, 'NO_VALUE') */\n      tag_119\n      jumpi\n      mload(0x40)\n      0x08c379a000000000000000000000000000000000000000000000000000000000\n      dup2\n      mstore\n        /* \"#utility.yul\":8056:8058   */\n      0x20\n        /* \"source/ExStorage.sol\":481:523  require(byteValue.length != 0, 'NO_VALUE') */\n      0x04\n      dup3\n      add\n        /* \"#utility.yul\":8038:8059   */\n      mstore\n        /* \"#utility.yul\":8095:8096   */\n      0x08\n        /* \"#utility.yul\":8075:8093   */\n      0x24\n      dup3\n      add\n        /* \"#utility.yul\":8068:8097   */\n      mstore\n        /* \"#utility.yul\":8133:8143   */\n      0x4e4f5f56414c5545000000000000000000000000000000000000000000000000\n        /* \"#utility.yul\":8113:8131   */\n      0x44\n      dup3\n      add\n        /* \"#utility.yul\":8106:8144   */\n      mstore\n        /* \"#utility.yul\":8161:8179   */\n      0x64\n      add\n        /* \"source/ExStorage.sol\":481:523  require(byteValue.length != 0, 'NO_VALUE') */\n      tag_39\n        /* \"#utility.yul\":7854:8185   */\n      jump\n        /* \"source/ExStorage.sol\":481:523  require(byteValue.length != 0, 'NO_VALUE') */\n    tag_119:\n        /* \"source/ExStorage.sol\":611:642  IStorage.Data memory _scopeInfo */\n      0x00\n        /* \"source/ExStorage.sol\":645:656  mainStorage */\n      dup1\n      sload\n        /* \"source/ExStorage.sol\":645:675  mainStorage.getData(_scopeKey) */\n      mload(0x40)\n      0xae55c88800000000000000000000000000000000000000000000000000000000\n      dup2\n      mstore\n        /* \"source/ExStorage.sol\":1353:1362  _scopeKey */\n      dup6\n      swap3\n        /* \"source/ExStorage.sol\":611:642  IStorage.Data memory _scopeInfo */\n      swap2\n        /* \"source/ExStorage.sol\":645:656  mainStorage */\n      0xffffffffffffffffffffffffffffffffffffffff\n      and\n      swap1\n        /* \"source/ExStorage.sol\":645:664  mainStorage.getData */\n      0xae55c888\n      swap1\n        /* \"source/ExStorage.sol\":645:675  mainStorage.getData(_scopeKey) */\n      tag_122\n      swap1\n        /* \"source/ExStorage.sol\":1353:1362  _scopeKey */\n      dup6\n      swap1\n        /* \"source/ExStorage.sol\":645:675  mainStorage.getData(_scopeKey) */\n      0x04\n      add\n      tag_36\n      jump\t// in\n    tag_122:\n      0x00\n      mload(0x40)\n      dup1\n      dup4\n      sub\n      dup2\n      dup7\n      gas\n      staticcall\n      iszero\n      dup1\n      iszero\n      tag_124\n      jumpi\n      returndatasize\n      0x00\n      dup1\n      returndatacopy\n      revert(0x00, returndatasize)\n    tag_124:\n      pop\n      pop\n      pop\n      pop\n      mload(0x40)\n      returndatasize\n      0x00\n      dup3\n      returndatacopy\n      0x1f\n      returndatasize\n      swap1\n      dup2\n      add\n      0xffffffffffffffffffffffffffffffffffffffffffffffffffffffffffffffe0\n      and\n      dup3\n      add\n      0x40\n      mstore\n      tag_125\n      swap2\n      swap1\n      dup2\n      add\n      swap1\n      tag_52\n      jump\t// in\n    tag_125:\n        /* \"source/ExStorage.sol\":690:706  _scopeInfo.owner */\n      dup1\n      mload\n        /* \"source/ExStorage.sol\":611:675  IStorage.Data memory _scopeInfo = mainStorage.getData(_scopeKey) */\n      swap1\n      swap2\n      pop\n        /* \"source/ExStorage.sol\":690:720  _scopeInfo.owner != address(0) */\n      0xffffffffffffffffffffffffffffffffffffffff\n      and\n      iszero\n        /* \"source/ExStorage.sol\":686:901  if (_scopeInfo.owner != address(0)) {... */\n      tag_126\n      jumpi\n        /* \"source/ExStorage.sol\":759:775  _scopeInfo.owner */\n      dup1\n      mload\n        /* \"source/ExStorage.sol\":745:775  msg.sender == _scopeInfo.owner */\n      0xffffffffffffffffffffffffffffffffffffffff\n      and\n        /* \"source/ExStorage.sol\":745:755  msg.sender */\n      caller\n        /* \"source/ExStorage.sol\":745:775  msg.sender == _scopeInfo.owner */\n      eq\n        /* \"source/ExStorage.sol\":737:789  require(msg.sender == _scopeInfo.owner, 'FORBIDDEN') */\n      tag_127\n      jumpi\n      mload(0x40)\n      0x08c379a000000000000000000000000000000000000000000000000000000000\n      dup2\n      mstore\n        /* \"#utility.yul\":9516:9518   */\n      0x20\n        /* \"source/ExStorage.sol\":737:789  require(msg.sender == _scopeInfo.owner, 'FORBIDDEN') */\n      0x04\n      dup3\n      add\n        /* \"#utility.yul\":9498:9519   */\n      mstore\n        /* \"#utility.yul\":9555:9556   */\n      0x09\n        /* \"#utility.yul\":9535:9553   */\n      0x24\n      dup3\n      add\n        /* \"#utility.yul\":9528:9557   */\n      mstore\n        /* \"#utility.yul\":9593:9604   */\n      0x464f5242494444454e0000000000000000000000000000000000000000000000\n        /* \"#utility.yul\":9573:9591   */\n      0x44\n      dup3\n      add\n        /* \"#utility.yul\":9566:9605   */\n      mstore\n        /* \"#utility.yul\":9622:9640   */\n      0x64\n      add\n        /* \"source/ExStorage.sol\":737:789  require(msg.sender == _scopeInfo.owner, 'FORBIDDEN') */\n      tag_39\n        /* \"#utility.yul\":9314:9646   */\n      jump\n        /* \"source/ExStorage.sol\":737:789  require(msg.sender == _scopeInfo.owner, 'FORBIDDEN') */\n    tag_127:\n        /* \"source/ExStorage.sol\":686:901  if (_scopeInfo.owner != address(0)) {... */\n      jump(tag_130)\n    tag_126:\n        /* \"source/ExStorage.sol\":830:840  msg.sender */\n      caller\n        /* \"source/ExStorage.sol\":830:854  msg.sender == address(0) */\n      iszero\n        /* \"source/ExStorage.sol\":822:889  require(msg.sender == address(0), 'NOT CONFIGURED IN MAIN STORAGE') */\n      tag_130\n      jumpi\n      mload(0x40)\n      0x08c379a000000000000000000000000000000000000000000000000000000000\n      dup2\n      mstore\n        /* \"#utility.yul\":9853:9855   */\n      0x20\n        /* \"source/ExStorage.sol\":822:889  require(msg.sender == address(0), 'NOT CONFIGURED IN MAIN STORAGE') */\n      0x04\n      dup3\n      add\n        /* \"#utility.yul\":9835:9856   */\n      mstore\n        /* \"#utility.yul\":9892:9894   */\n      0x1e\n        /* \"#utility.yul\":9872:9890   */\n      0x24\n      dup3\n      add\n        /* \"#utility.yul\":9865:9895   */\n      mstore\n        /* \"#utility.yul\":9931:9963   */\n      0x4e4f5420434f4e4649475552454420494e204d41494e2053544f524147450000\n        /* \"#utility.yul\":9911:9929   */\n      0x44\n      dup3\n      add\n        /* \"#utility.yul\":9904:9964   */\n      mstore\n        /* \"#utility.yul\":9981:9999   */\n      0x64\n      add\n        /* \"source/ExStorage.sol\":822:889  require(msg.sender == address(0), 'NOT CONFIGURED IN MAIN STORAGE') */\n      tag_39\n        /* \"#utility.yul\":9651:10005   */\n      jump\n        /* \"source/ExStorage.sol\":822:889  require(msg.sender == address(0), 'NOT CONFIGURED IN MAIN STORAGE') */\n    tag_130:\n        /* \"source/ExStorage.sol\":1385:1399  uint256 kIndex */\n      0x00\n        /* \"source/ExStorage.sol\":1380:1629  for (uint256 kIndex = 0; kIndex < scopeDataKeys[_scopeKey].length; kIndex++) {... */\n    tag_133:\n        /* \"source/ExStorage.sol\":1414:1427  scopeDataKeys */\n      0x02\n        /* \"source/ExStorage.sol\":1428:1437  _scopeKey */\n      dup7\n        /* \"source/ExStorage.sol\":1414:1438  scopeDataKeys[_scopeKey] */\n      mload(0x40)\n      tag_136\n      swap2\n      swap1\n      tag_63\n      jump\t// in\n    tag_136:\n      swap1\n      dup2\n      mstore\n      mload(0x40)\n      swap1\n      dup2\n      swap1\n      sub\n      0x20\n      add\n      swap1\n      keccak256\n        /* \"source/ExStorage.sol\":1414:1445  scopeDataKeys[_scopeKey].length */\n      sload\n        /* \"source/ExStorage.sol\":1405:1445  kIndex < scopeDataKeys[_scopeKey].length */\n      dup2\n      lt\n        /* \"source/ExStorage.sol\":1380:1629  for (uint256 kIndex = 0; kIndex < scopeDataKeys[_scopeKey].length; kIndex++) {... */\n      iszero\n      tag_134\n      jumpi\n        /* \"source/ExStorage.sol\":1538:1543  false */\n      0x00\n        /* \"source/ExStorage.sol\":1472:1490  scopeDataKeyExists */\n      0x03\n        /* \"source/ExStorage.sol\":1491:1500  _scopeKey */\n      dup8\n        /* \"source/ExStorage.sol\":1472:1501  scopeDataKeyExists[_scopeKey] */\n      mload(0x40)\n      tag_137\n      swap2\n      swap1\n      tag_63\n      jump\t// in\n    tag_137:\n      swap1\n      dup2\n      mstore\n      0x20\n      add\n      mload(0x40)\n      dup1\n      swap2\n      sub\n      swap1\n      keccak256\n        /* \"source/ExStorage.sol\":1502:1515  scopeDataKeys */\n      0x02\n        /* \"source/ExStorage.sol\":1516:1525  _scopeKey */\n      dup9\n        /* \"source/ExStorage.sol\":1502:1526  scopeDataKeys[_scopeKey] */\n      mload(0x40)\n      tag_138\n      swap2\n      swap1\n      tag_63\n      jump\t// in\n    tag_138:\n      swap1\n      dup2\n      mstore\n      0x20\n      add\n      mload(0x40)\n      dup1\n      swap2\n      sub\n      swap1\n      keccak256\n        /* \"source/ExStorage.sol\":1527:1533  kIndex */\n      dup4\n        /* \"source/ExStorage.sol\":1502:1534  scopeDataKeys[_scopeKey][kIndex] */\n      dup2\n      sload\n      dup2\n      lt\n      tag_140\n      jumpi\n      tag_140\n      tag_94\n      jump\t// in\n    tag_140:\n      swap1\n      0x00\n      mstore\n      keccak256(0x00, 0x20)\n      add\n        /* \"source/ExStorage.sol\":1472:1535  scopeDataKeyExists[_scopeKey][scopeDataKeys[_scopeKey][kIndex]] */\n      mload(0x40)\n      tag_142\n      swap2\n      swap1\n      tag_108\n      jump\t// in\n    tag_142:\n      swap1\n      dup2\n      mstore\n      0x40\n      dup1\n      mload\n      0x20\n      swap3\n      dup2\n      swap1\n      sub\n      dup4\n      add\n      dup2\n      keccak256\n        /* \"source/ExStorage.sol\":1472:1543  scopeDataKeyExists[_scopeKey][scopeDataKeys[_scopeKey][kIndex]] = false */\n      dup1\n      sload\n      0xffffffffffffffffffffffffffffffffffffffffffffffffffffffffffffff00\n      and\n      swap5\n      iszero\n      iszero\n      swap5\n      swap1\n      swap5\n      or\n      swap1\n      swap4\n      sstore\n        /* \"source/ExStorage.sol\":1558:1617  scopeData[_scopeKey][scopeDataKeys[_scopeKey][kIndex]] = \"\" */\n      swap1\n      dup3\n      add\n      dup2\n      mstore\n      0x00\n      dup3\n      mstore\n        /* \"source/ExStorage.sol\":1558:1578  scopeData[_scopeKey] */\n      mload\n      0x01\n      swap1\n      tag_143\n      swap1\n        /* \"source/ExStorage.sol\":1568:1577  _scopeKey */\n      dup10\n      swap1\n        /* \"source/ExStorage.sol\":1558:1578  scopeData[_scopeKey] */\n      tag_63\n      jump\t// in\n    tag_143:\n      swap1\n      dup2\n      mstore\n      0x20\n      add\n      mload(0x40)\n      dup1\n      swap2\n      sub\n      swap1\n      keccak256\n        /* \"source/ExStorage.sol\":1579:1592  scopeDataKeys */\n      0x02\n        /* \"source/ExStorage.sol\":1593:1602  _scopeKey */\n      dup9\n        /* \"source/ExStorage.sol\":1579:1603  scopeDataKeys[_scopeKey] */\n      mload(0x40)\n      tag_144\n      swap2\n      swap1\n      tag_63\n      jump\t// in\n    tag_144:\n      swap1\n      dup2\n      mstore\n      0x20\n      add\n      mload(0x40)\n      dup1\n      swap2\n      sub\n      swap1\n      keccak256\n        /* \"source/ExStorage.sol\":1604:1610  kIndex */\n      dup4\n        /* \"source/ExStorage.sol\":1579:1611  scopeDataKeys[_scopeKey][kIndex] */\n      dup2\n      sload\n      dup2\n      lt\n      tag_146\n      jumpi\n      tag_146\n      tag_94\n      jump\t// in\n    tag_146:\n      swap1\n      0x00\n      mstore\n      keccak256(0x00, 0x20)\n      add\n        /* \"source/ExStorage.sol\":1558:1612  scopeData[_scopeKey][scopeDataKeys[_scopeKey][kIndex]] */\n      mload(0x40)\n      tag_148\n      swap2\n      swap1\n      tag_108\n      jump\t// in\n    tag_148:\n      swap1\n      dup2\n      mstore\n      0x20\n      add\n      mload(0x40)\n      dup1\n      swap2\n      sub\n      swap1\n      keccak256\n        /* \"source/ExStorage.sol\":1558:1617  scopeData[_scopeKey][scopeDataKeys[_scopeKey][kIndex]] = \"\" */\n      swap1\n      dup1\n      mload\n      swap1\n      0x20\n      add\n      swap1\n      tag_149\n      swap3\n      swap2\n      swap1\n      tag_66\n      jump\t// in\n    tag_149:\n      pop\n        /* \"source/ExStorage.sol\":1447:1455  kIndex++ */\n      dup1\n      tag_150\n      dup2\n      tag_117\n      jump\t// in\n    tag_150:\n      swap2\n      pop\n      pop\n        /* \"source/ExStorage.sol\":1380:1629  for (uint256 kIndex = 0; kIndex < scopeDataKeys[_scopeKey].length; kIndex++) {... */\n      jump(tag_133)\n    tag_134:\n      pop\n        /* \"source/ExStorage.sol\":1646:1659  scopeDataKeys */\n      0x02\n        /* \"source/ExStorage.sol\":1660:1669  _scopeKey */\n      dup6\n        /* \"source/ExStorage.sol\":1646:1670  scopeDataKeys[_scopeKey] */\n      mload(0x40)\n      tag_151\n      swap2\n      swap1\n      tag_63\n      jump\t// in\n    tag_151:\n      swap1\n      dup2\n      mstore\n      0x20\n      add\n      mload(0x40)\n      dup1\n      swap2\n      sub\n      swap1\n      keccak256\n      0x00\n        /* \"source/ExStorage.sol\":1639:1670  delete scopeDataKeys[_scopeKey] */\n      tag_152\n      swap2\n      swap1\n      tag_153\n      jump\t// in\n    tag_152:\n        /* \"source/ExStorage.sol\":600:920  {... */\n      pop\n        /* \"source/ExStorage.sol\":534:535  _ */\n      pop\n        /* \"source/ExStorage.sol\":421:543  {... */\n      pop\n        /* \"source/ExStorage.sol\":1235:1678  function clearScopeData(string memory _scopeKey)... */\n      pop\n      pop\n      jump\t// out\n        /* \"source/ExStorage.sol\":3024:3829  function setScopeKeysData(... */\n    tag_26:\n        /* \"source/ExStorage.sol\":489:505  byteValue.length */\n      dup2\n      mload\n        /* \"source/ExStorage.sol\":3168:3177  _scopeKey */\n      dup3\n      swap1\n      dup2\n      swap1\n        /* \"source/ExStorage.sol\":481:523  require(byteValue.length != 0, 'NO_VALUE') */\n      tag_155\n      jumpi\n      mload(0x40)\n      0x08c379a000000000000000000000000000000000000000000000000000000000\n      dup2\n      mstore\n        /* \"#utility.yul\":8056:8058   */\n      0x20\n        /* \"source/ExStorage.sol\":481:523  require(byteValue.length != 0, 'NO_VALUE') */\n      0x04\n      dup3\n      add\n        /* \"#utility.yul\":8038:8059   */\n      mstore\n        /* \"#utility.yul\":8095:8096   */\n      0x08\n        /* \"#utility.yul\":8075:8093   */\n      0x24\n      dup3\n      add\n        /* \"#utility.yul\":8068:8097   */\n      mstore\n        /* \"#utility.yul\":8133:8143   */\n      0x4e4f5f56414c5545000000000000000000000000000000000000000000000000\n        /* \"#utility.yul\":8113:8131   */\n      0x44\n      dup3\n      add\n        /* \"#utility.yul\":8106:8144   */\n      mstore\n        /* \"#utility.yul\":8161:8179   */\n      0x64\n      add\n        /* \"source/ExStorage.sol\":481:523  require(byteValue.length != 0, 'NO_VALUE') */\n      tag_39\n        /* \"#utility.yul\":7854:8185   */\n      jump\n        /* \"source/ExStorage.sol\":481:523  require(byteValue.length != 0, 'NO_VALUE') */\n    tag_155:\n        /* \"source/ExStorage.sol\":611:642  IStorage.Data memory _scopeInfo */\n      0x00\n        /* \"source/ExStorage.sol\":645:656  mainStorage */\n      dup1\n      sload\n        /* \"source/ExStorage.sol\":645:675  mainStorage.getData(_scopeKey) */\n      mload(0x40)\n      0xae55c88800000000000000000000000000000000000000000000000000000000\n      dup2\n      mstore\n        /* \"source/ExStorage.sol\":3203:3212  _scopeKey */\n      dup7\n      swap3\n        /* \"source/ExStorage.sol\":611:642  IStorage.Data memory _scopeInfo */\n      swap2\n        /* \"source/ExStorage.sol\":645:656  mainStorage */\n      0xffffffffffffffffffffffffffffffffffffffff\n      and\n      swap1\n        /* \"source/ExStorage.sol\":645:664  mainStorage.getData */\n      0xae55c888\n      swap1\n        /* \"source/ExStorage.sol\":645:675  mainStorage.getData(_scopeKey) */\n      tag_158\n      swap1\n        /* \"source/ExStorage.sol\":3203:3212  _scopeKey */\n      dup6\n      swap1\n        /* \"source/ExStorage.sol\":645:675  mainStorage.getData(_scopeKey) */\n      0x04\n      add\n      tag_36\n      jump\t// in\n    tag_158:\n      0x00\n      mload(0x40)\n      dup1\n      dup4\n      sub\n      dup2\n      dup7\n      gas\n      staticcall\n      iszero\n      dup1\n      iszero\n      tag_160\n      jumpi\n      returndatasize\n      0x00\n      dup1\n      returndatacopy\n      revert(0x00, returndatasize)\n    tag_160:\n      pop\n      pop\n      pop\n      pop\n      mload(0x40)\n      returndatasize\n      0x00\n      dup3\n      returndatacopy\n      0x1f\n      returndatasize\n      swap1\n      dup2\n      add\n      0xffffffffffffffffffffffffffffffffffffffffffffffffffffffffffffffe0\n      and\n      dup3\n      add\n      0x40\n      mstore\n      tag_161\n      swap2\n      swap1\n      dup2\n      add\n      swap1\n      tag_52\n      jump\t// in\n    tag_161:\n        /* \"source/ExStorage.sol\":690:706  _scopeInfo.owner */\n      dup1\n      mload\n        /* \"source/ExStorage.sol\":611:675  IStorage.Data memory _scopeInfo = mainStorage.getData(_scopeKey) */\n      swap1\n      swap2\n      pop\n        /* \"source/ExStorage.sol\":690:720  _scopeInfo.owner != address(0) */\n      0xffffffffffffffffffffffffffffffffffffffff\n      and\n      iszero\n        /* \"source/ExStorage.sol\":686:901  if (_scopeInfo.owner != address(0)) {... */\n      tag_162\n      jumpi\n        /* \"source/ExStorage.sol\":759:775  _scopeInfo.owner */\n      dup1\n      mload\n        /* \"source/ExStorage.sol\":745:775  msg.sender == _scopeInfo.owner */\n      0xffffffffffffffffffffffffffffffffffffffff\n      and\n        /* \"source/ExStorage.sol\":745:755  msg.sender */\n      caller\n        /* \"source/ExStorage.sol\":745:775  msg.sender == _scopeInfo.owner */\n      eq\n        /* \"source/ExStorage.sol\":737:789  require(msg.sender == _scopeInfo.owner, 'FORBIDDEN') */\n      tag_163\n      jumpi\n      mload(0x40)\n      0x08c379a000000000000000000000000000000000000000000000000000000000\n      dup2\n      mstore\n        /* \"#utility.yul\":9516:9518   */\n      0x20\n        /* \"source/ExStorage.sol\":737:789  require(msg.sender == _scopeInfo.owner, 'FORBIDDEN') */\n      0x04\n      dup3\n      add\n        /* \"#utility.yul\":9498:9519   */\n      mstore\n        /* \"#utility.yul\":9555:9556   */\n      0x09\n        /* \"#utility.yul\":9535:9553   */\n      0x24\n      dup3\n      add\n        /* \"#utility.yul\":9528:9557   */\n      mstore\n        /* \"#utility.yul\":9593:9604   */\n      0x464f5242494444454e0000000000000000000000000000000000000000000000\n        /* \"#utility.yul\":9573:9591   */\n      0x44\n      dup3\n      add\n        /* \"#utility.yul\":9566:9605   */\n      mstore\n        /* \"#utility.yul\":9622:9640   */\n      0x64\n      add\n        /* \"source/ExStorage.sol\":737:789  require(msg.sender == _scopeInfo.owner, 'FORBIDDEN') */\n      tag_39\n        /* \"#utility.yul\":9314:9646   */\n      jump\n        /* \"source/ExStorage.sol\":737:789  require(msg.sender == _scopeInfo.owner, 'FORBIDDEN') */\n    tag_163:\n        /* \"source/ExStorage.sol\":686:901  if (_scopeInfo.owner != address(0)) {... */\n      jump(tag_166)\n    tag_162:\n        /* \"source/ExStorage.sol\":830:840  msg.sender */\n      caller\n        /* \"source/ExStorage.sol\":830:854  msg.sender == address(0) */\n      iszero\n        /* \"source/ExStorage.sol\":822:889  require(msg.sender == address(0), 'NOT CONFIGURED IN MAIN STORAGE') */\n      tag_166\n      jumpi\n      mload(0x40)\n      0x08c379a000000000000000000000000000000000000000000000000000000000\n      dup2\n      mstore\n        /* \"#utility.yul\":9853:9855   */\n      0x20\n        /* \"source/ExStorage.sol\":822:889  require(msg.sender == address(0), 'NOT CONFIGURED IN MAIN STORAGE') */\n      0x04\n      dup3\n      add\n        /* \"#utility.yul\":9835:9856   */\n      mstore\n        /* \"#utility.yul\":9892:9894   */\n      0x1e\n        /* \"#utility.yul\":9872:9890   */\n      0x24\n      dup3\n      add\n        /* \"#utility.yul\":9865:9895   */\n      mstore\n        /* \"#utility.yul\":9931:9963   */\n      0x4e4f5420434f4e4649475552454420494e204d41494e2053544f524147450000\n        /* \"#utility.yul\":9911:9929   */\n      0x44\n      dup3\n      add\n        /* \"#utility.yul\":9904:9964   */\n      mstore\n        /* \"#utility.yul\":9981:9999   */\n      0x64\n      add\n        /* \"source/ExStorage.sol\":822:889  require(msg.sender == address(0), 'NOT CONFIGURED IN MAIN STORAGE') */\n      tag_39\n        /* \"#utility.yul\":9651:10005   */\n      jump\n        /* \"source/ExStorage.sol\":822:889  require(msg.sender == address(0), 'NOT CONFIGURED IN MAIN STORAGE') */\n    tag_166:\n        /* \"source/ExStorage.sol\":3238:3255  _keyToData.length */\n      dup5\n      mload\n        /* \"source/ExStorage.sol\":3230:3275  require(_keyToData.length != 0, 'EMPTY DATA') */\n      tag_169\n      jumpi\n      mload(0x40)\n      0x08c379a000000000000000000000000000000000000000000000000000000000\n      dup2\n      mstore\n        /* \"#utility.yul\":12823:12825   */\n      0x20\n        /* \"source/ExStorage.sol\":3230:3275  require(_keyToData.length != 0, 'EMPTY DATA') */\n      0x04\n      dup3\n      add\n        /* \"#utility.yul\":12805:12826   */\n      mstore\n        /* \"#utility.yul\":12862:12864   */\n      0x0a\n        /* \"#utility.yul\":12842:12860   */\n      0x24\n      dup3\n      add\n        /* \"#utility.yul\":12835:12865   */\n      mstore\n        /* \"#utility.yul\":12901:12913   */\n      0x454d505459204441544100000000000000000000000000000000000000000000\n        /* \"#utility.yul\":12881:12899   */\n      0x44\n      dup3\n      add\n        /* \"#utility.yul\":12874:12914   */\n      mstore\n        /* \"#utility.yul\":12931:12949   */\n      0x64\n      add\n        /* \"source/ExStorage.sol\":3230:3275  require(_keyToData.length != 0, 'EMPTY DATA') */\n      tag_39\n        /* \"#utility.yul\":12621:12955   */\n      jump\n        /* \"source/ExStorage.sol\":3230:3275  require(_keyToData.length != 0, 'EMPTY DATA') */\n    tag_169:\n        /* \"source/ExStorage.sol\":3290:3307  uint256 dataIndex */\n      0x00\n        /* \"source/ExStorage.sol\":3286:3822  for(uint256 dataIndex = 0; dataIndex < _keyToData.length; dataIndex++) {... */\n    tag_172:\n        /* \"source/ExStorage.sol\":3325:3335  _keyToData */\n      dup6\n        /* \"source/ExStorage.sol\":3325:3342  _keyToData.length */\n      mload\n        /* \"source/ExStorage.sol\":3313:3322  dataIndex */\n      dup2\n        /* \"source/ExStorage.sol\":3313:3342  dataIndex < _keyToData.length */\n      lt\n        /* \"source/ExStorage.sol\":3286:3822  for(uint256 dataIndex = 0; dataIndex < _keyToData.length; dataIndex++) {... */\n      iszero\n      tag_173\n      jumpi\n        /* \"source/ExStorage.sol\":3454:3464  _keyToData */\n      dup6\n        /* \"source/ExStorage.sol\":3465:3474  dataIndex */\n      dup2\n        /* \"source/ExStorage.sol\":3454:3475  _keyToData[dataIndex] */\n      dup2\n      mload\n      dup2\n      lt\n      tag_176\n      jumpi\n      tag_176\n      tag_94\n      jump\t// in\n    tag_176:\n      0x20\n      mul\n      0x20\n      add\n      add\n      mload\n        /* \"source/ExStorage.sol\":3454:3480  _keyToData[dataIndex].info */\n      0x20\n      add\n      mload\n        /* \"source/ExStorage.sol\":3372:3381  scopeData */\n      0x01\n        /* \"source/ExStorage.sol\":3382:3391  _scopeKey */\n      dup9\n        /* \"source/ExStorage.sol\":3372:3392  scopeData[_scopeKey] */\n      mload(0x40)\n      tag_177\n      swap2\n      swap1\n      tag_63\n      jump\t// in\n    tag_177:\n      swap1\n      dup2\n      mstore\n      0x20\n      add\n      mload(0x40)\n      dup1\n      swap2\n      sub\n      swap1\n      keccak256\n        /* \"source/ExStorage.sol\":3411:3421  _keyToData */\n      dup8\n        /* \"source/ExStorage.sol\":3422:3431  dataIndex */\n      dup4\n        /* \"source/ExStorage.sol\":3411:3432  _keyToData[dataIndex] */\n      dup2\n      mload\n      dup2\n      lt\n      tag_179\n      jumpi\n      tag_179\n      tag_94\n      jump\t// in\n    tag_179:\n      0x20\n      mul\n      0x20\n      add\n      add\n      mload\n        /* \"source/ExStorage.sol\":3411:3436  _keyToData[dataIndex].key */\n      0x00\n      add\n      mload\n        /* \"source/ExStorage.sol\":3372:3451  scopeData[_scopeKey][... */\n      mload(0x40)\n      tag_180\n      swap2\n      swap1\n      tag_63\n      jump\t// in\n    tag_180:\n      swap1\n      dup2\n      mstore\n      0x20\n      add\n      mload(0x40)\n      dup1\n      swap2\n      sub\n      swap1\n      keccak256\n        /* \"source/ExStorage.sol\":3372:3480  scopeData[_scopeKey][... */\n      swap1\n      dup1\n      mload\n      swap1\n      0x20\n      add\n      swap1\n      tag_181\n      swap3\n      swap2\n      swap1\n      tag_66\n      jump\t// in\n    tag_181:\n      pop\n        /* \"source/ExStorage.sol\":3500:3518  scopeDataKeyExists */\n      0x03\n        /* \"source/ExStorage.sol\":3519:3528  _scopeKey */\n      dup8\n        /* \"source/ExStorage.sol\":3500:3529  scopeDataKeyExists[_scopeKey] */\n      mload(0x40)\n      tag_182\n      swap2\n      swap1\n      tag_63\n      jump\t// in\n    tag_182:\n      swap1\n      dup2\n      mstore\n      0x20\n      add\n      mload(0x40)\n      dup1\n      swap2\n      sub\n      swap1\n      keccak256\n        /* \"source/ExStorage.sol\":3530:3540  _keyToData */\n      dup7\n        /* \"source/ExStorage.sol\":3541:3550  dataIndex */\n      dup3\n        /* \"source/ExStorage.sol\":3530:3551  _keyToData[dataIndex] */\n      dup2\n      mload\n      dup2\n      lt\n      tag_184\n      jumpi\n      tag_184\n      tag_94\n      jump\t// in\n    tag_184:\n      0x20\n      mul\n      0x20\n      add\n      add\n      mload\n        /* \"source/ExStorage.sol\":3530:3555  _keyToData[dataIndex].key */\n      0x00\n      add\n      mload\n        /* \"source/ExStorage.sol\":3500:3556  scopeDataKeyExists[_scopeKey][_keyToData[dataIndex].key] */\n      mload(0x40)\n      tag_185\n      swap2\n      swap1\n      tag_63\n      jump\t// in\n    tag_185:\n      swap1\n      dup2\n      mstore\n      mload(0x40)\n      swap1\n      dup2\n      swap1\n      sub\n      0x20\n      add\n      swap1\n      keccak256\n      sload\n      0xff\n      and\n        /* \"source/ExStorage.sol\":3495:3811  if (!scopeDataKeyExists[_scopeKey][_keyToData[dataIndex].key]) {... */\n      tag_186\n      jumpi\n        /* \"source/ExStorage.sol\":3676:3680  true */\n      0x01\n        /* \"source/ExStorage.sol\":3577:3595  scopeDataKeyExists */\n      0x03\n        /* \"source/ExStorage.sol\":3596:3605  _scopeKey */\n      dup9\n        /* \"source/ExStorage.sol\":3577:3606  scopeDataKeyExists[_scopeKey] */\n      mload(0x40)\n      tag_187\n      swap2\n      swap1\n      tag_63\n      jump\t// in\n    tag_187:\n      swap1\n      dup2\n      mstore\n      0x20\n      add\n      mload(0x40)\n      dup1\n      swap2\n      sub\n      swap1\n      keccak256\n        /* \"source/ExStorage.sol\":3629:3639  _keyToData */\n      dup8\n        /* \"source/ExStorage.sol\":3640:3649  dataIndex */\n      dup4\n        /* \"source/ExStorage.sol\":3629:3650  _keyToData[dataIndex] */\n      dup2\n      mload\n      dup2\n      lt\n      tag_189\n      jumpi\n      tag_189\n      tag_94\n      jump\t// in\n    tag_189:\n      0x20\n      mul\n      0x20\n      add\n      add\n      mload\n        /* \"source/ExStorage.sol\":3629:3654  _keyToData[dataIndex].key */\n      0x00\n      add\n      mload\n        /* \"source/ExStorage.sol\":3577:3673  scopeDataKeyExists[_scopeKey][... */\n      mload(0x40)\n      tag_190\n      swap2\n      swap1\n      tag_63\n      jump\t// in\n    tag_190:\n      swap1\n      dup2\n      mstore\n      mload(0x40)\n      swap1\n      dup2\n      swap1\n      sub\n      0x20\n      add\n      dup2\n      keccak256\n        /* \"source/ExStorage.sol\":3577:3680  scopeDataKeyExists[_scopeKey][... */\n      dup1\n      sload\n      swap3\n      iszero\n      iszero\n      0xffffffffffffffffffffffffffffffffffffffffffffffffffffffffffffff00\n      swap1\n      swap4\n      and\n      swap3\n      swap1\n      swap3\n      or\n      swap1\n      swap2\n      sstore\n        /* \"source/ExStorage.sol\":3699:3712  scopeDataKeys */\n      0x02\n      swap1\n        /* \"source/ExStorage.sol\":3699:3723  scopeDataKeys[_scopeKey] */\n      tag_191\n      swap1\n        /* \"source/ExStorage.sol\":3713:3722  _scopeKey */\n      dup10\n      swap1\n        /* \"source/ExStorage.sol\":3699:3723  scopeDataKeys[_scopeKey] */\n      tag_63\n      jump\t// in\n    tag_191:\n      swap1\n      dup2\n      mstore\n      0x20\n      add\n      mload(0x40)\n      dup1\n      swap2\n      sub\n      swap1\n      keccak256\n        /* \"source/ExStorage.sol\":3751:3761  _keyToData */\n      dup7\n        /* \"source/ExStorage.sol\":3762:3771  dataIndex */\n      dup3\n        /* \"source/ExStorage.sol\":3751:3772  _keyToData[dataIndex] */\n      dup2\n      mload\n      dup2\n      lt\n      tag_193\n      jumpi\n      tag_193\n      tag_94\n      jump\t// in\n    tag_193:\n      0x20\n      swap1\n      dup2\n      mul\n      swap2\n      swap1\n      swap2\n      add\n      dup2\n      add\n      mload\n        /* \"source/ExStorage.sol\":3751:3776  _keyToData[dataIndex].key */\n      mload\n        /* \"source/ExStorage.sol\":3699:3795  scopeDataKeys[_scopeKey].push(... */\n      dup3\n      sload\n      0x01\n      dup2\n      add\n      dup5\n      sstore\n        /* \"source/ExStorage.sol\":3751:3776  _keyToData[dataIndex].key */\n      0x00\n        /* \"source/ExStorage.sol\":3699:3795  scopeDataKeys[_scopeKey].push(... */\n      swap4\n      dup5\n      mstore\n      swap3\n      dup3\n      swap1\n      keccak256\n      dup2\n      mload\n      tag_195\n      swap5\n      swap2\n      swap1\n      swap2\n      add\n      swap3\n      swap2\n      swap1\n      swap2\n      add\n      swap1\n      tag_66\n      jump\t// in\n    tag_195:\n      pop\n        /* \"source/ExStorage.sol\":3495:3811  if (!scopeDataKeyExists[_scopeKey][_keyToData[dataIndex].key]) {... */\n    tag_186:\n        /* \"source/ExStorage.sol\":3344:3355  dataIndex++ */\n      dup1\n      tag_196\n      dup2\n      tag_117\n      jump\t// in\n    tag_196:\n      swap2\n      pop\n      pop\n        /* \"source/ExStorage.sol\":3286:3822  for(uint256 dataIndex = 0; dataIndex < _keyToData.length; dataIndex++) {... */\n      jump(tag_172)\n    tag_173:\n      pop\n        /* \"source/ExStorage.sol\":600:920  {... */\n      pop\n        /* \"source/ExStorage.sol\":534:535  _ */\n      pop\n        /* \"source/ExStorage.sol\":421:543  {... */\n      pop\n        /* \"source/ExStorage.sol\":3024:3829  function setScopeKeysData(... */\n      pop\n      pop\n      pop\n      jump\t// out\n        /* \"source/ExStorage.sol\":2255:2525  function getScopeKeyData(... */\n    tag_34:\n        /* \"source/ExStorage.sol\":489:505  byteValue.length */\n      dup2\n      mload\n        /* \"source/ExStorage.sol\":2451:2464  string memory */\n      0x60\n      swap1\n        /* \"source/ExStorage.sol\":2398:2407  _scopeKey */\n      dup4\n      swap1\n      dup2\n      swap1\n        /* \"source/ExStorage.sol\":481:523  require(byteValue.length != 0, 'NO_VALUE') */\n      tag_198\n      jumpi\n      mload(0x40)\n      0x08c379a000000000000000000000000000000000000000000000000000000000\n      dup2\n      mstore\n        /* \"#utility.yul\":8056:8058   */\n      0x20\n        /* \"source/ExStorage.sol\":481:523  require(byteValue.length != 0, 'NO_VALUE') */\n      0x04\n      dup3\n      add\n        /* \"#utility.yul\":8038:8059   */\n      mstore\n        /* \"#utility.yul\":8095:8096   */\n      0x08\n        /* \"#utility.yul\":8075:8093   */\n      0x24\n      dup3\n      add\n        /* \"#utility.yul\":8068:8097   */\n      mstore\n        /* \"#utility.yul\":8133:8143   */\n      0x4e4f5f56414c5545000000000000000000000000000000000000000000000000\n        /* \"#utility.yul\":8113:8131   */\n      0x44\n      dup3\n      add\n        /* \"#utility.yul\":8106:8144   */\n      mstore\n        /* \"#utility.yul\":8161:8179   */\n      0x64\n      add\n        /* \"source/ExStorage.sol\":481:523  require(byteValue.length != 0, 'NO_VALUE') */\n      tag_39\n        /* \"#utility.yul\":7854:8185   */\n      jump\n        /* \"source/ExStorage.sol\":481:523  require(byteValue.length != 0, 'NO_VALUE') */\n    tag_198:\n        /* \"source/ExStorage.sol\":489:505  byteValue.length */\n      dup4\n      mload\n        /* \"source/ExStorage.sol\":2427:2431  _key */\n      dup5\n      swap1\n      dup2\n      swap1\n        /* \"source/ExStorage.sol\":481:523  require(byteValue.length != 0, 'NO_VALUE') */\n      tag_201\n      jumpi\n      mload(0x40)\n      0x08c379a000000000000000000000000000000000000000000000000000000000\n      dup2\n      mstore\n        /* \"#utility.yul\":8056:8058   */\n      0x20\n        /* \"source/ExStorage.sol\":481:523  require(byteValue.length != 0, 'NO_VALUE') */\n      0x04\n      dup3\n      add\n        /* \"#utility.yul\":8038:8059   */\n      mstore\n        /* \"#utility.yul\":8095:8096   */\n      0x08\n        /* \"#utility.yul\":8075:8093   */\n      0x24\n      dup3\n      add\n        /* \"#utility.yul\":8068:8097   */\n      mstore\n        /* \"#utility.yul\":8133:8143   */\n      0x4e4f5f56414c5545000000000000000000000000000000000000000000000000\n        /* \"#utility.yul\":8113:8131   */\n      0x44\n      dup3\n      add\n        /* \"#utility.yul\":8106:8144   */\n      mstore\n        /* \"#utility.yul\":8161:8179   */\n      0x64\n      add\n        /* \"source/ExStorage.sol\":481:523  require(byteValue.length != 0, 'NO_VALUE') */\n      tag_39\n        /* \"#utility.yul\":7854:8185   */\n      jump\n        /* \"source/ExStorage.sol\":481:523  require(byteValue.length != 0, 'NO_VALUE') */\n    tag_201:\n        /* \"source/ExStorage.sol\":2491:2500  scopeData */\n      0x01\n        /* \"source/ExStorage.sol\":2501:2510  _scopeKey */\n      dup8\n        /* \"source/ExStorage.sol\":2491:2511  scopeData[_scopeKey] */\n      mload(0x40)\n      tag_204\n      swap2\n      swap1\n      tag_63\n      jump\t// in\n    tag_204:\n      swap1\n      dup2\n      mstore\n      0x20\n      add\n      mload(0x40)\n      dup1\n      swap2\n      sub\n      swap1\n      keccak256\n        /* \"source/ExStorage.sol\":2512:2516  _key */\n      dup7\n        /* \"source/ExStorage.sol\":2491:2517  scopeData[_scopeKey][_key] */\n      mload(0x40)\n      tag_205\n      swap2\n      swap1\n      tag_63\n      jump\t// in\n    tag_205:\n      swap1\n      dup2\n      mstore\n      0x20\n      add\n      mload(0x40)\n      dup1\n      swap2\n      sub\n      swap1\n      keccak256\n        /* \"source/ExStorage.sol\":2484:2517  return scopeData[_scopeKey][_key] */\n      dup1\n      sload\n      tag_206\n      swap1\n      tag_97\n      jump\t// in\n    tag_206:\n      dup1\n      0x1f\n      add\n      0x20\n      dup1\n      swap2\n      div\n      mul\n      0x20\n      add\n      mload(0x40)\n      swap1\n      dup2\n      add\n      0x40\n      mstore\n      dup1\n      swap3\n      swap2\n      swap1\n      dup2\n      dup2\n      mstore\n      0x20\n      add\n      dup3\n      dup1\n      sload\n      tag_207\n      swap1\n      tag_97\n      jump\t// in\n    tag_207:\n      dup1\n      iszero\n      tag_208\n      jumpi\n      dup1\n      0x1f\n      lt\n      tag_209\n      jumpi\n      0x0100\n      dup1\n      dup4\n      sload\n      div\n      mul\n      dup4\n      mstore\n      swap2\n      0x20\n      add\n      swap2\n      jump(tag_208)\n    tag_209:\n      dup3\n      add\n      swap2\n      swap1\n      0x00\n      mstore\n      keccak256(0x00, 0x20)\n      swap1\n    tag_210:\n      dup2\n      sload\n      dup2\n      mstore\n      swap1\n      0x01\n      add\n      swap1\n      0x20\n      add\n      dup1\n      dup4\n      gt\n      tag_210\n      jumpi\n      dup3\n      swap1\n      sub\n      0x1f\n      and\n      dup3\n      add\n      swap2\n    tag_208:\n      pop\n      pop\n      pop\n      pop\n      pop\n      swap5\n      pop\n        /* \"source/ExStorage.sol\":421:543  {... */\n      pop\n        /* \"source/ExStorage.sol\":534:535  _ */\n      pop\n        /* \"source/ExStorage.sol\":421:543  {... */\n      pop\n        /* \"source/ExStorage.sol\":2255:2525  function getScopeKeyData(... */\n      pop\n      swap3\n      swap2\n      pop\n      pop\n      jump\t// out\n    tag_66:\n      dup3\n      dup1\n      sload\n      tag_211\n      swap1\n      tag_97\n      jump\t// in\n    tag_211:\n      swap1\n      0x00\n      mstore\n      keccak256(0x00, 0x20)\n      swap1\n      0x1f\n      add\n      0x20\n      swap1\n      div\n      dup2\n      add\n      swap3\n      dup3\n      tag_213\n      jumpi\n      0x00\n      dup6\n      sstore\n      jump(tag_216)\n    tag_213:\n      dup3\n      0x1f\n      lt\n      tag_214\n      jumpi\n      dup1\n      mload\n      not(0xff)\n      and\n      dup4\n      dup1\n      add\n      or\n      dup6\n      sstore\n      jump(tag_216)\n    tag_214:\n      dup3\n      dup1\n      add\n      0x01\n      add\n      dup6\n      sstore\n      dup3\n      iszero\n      tag_216\n      jumpi\n      swap2\n      dup3\n      add\n    tag_215:\n      dup3\n      dup2\n      gt\n      iszero\n      tag_216\n      jumpi\n      dup3\n      mload\n      dup3\n      sstore\n      swap2\n      0x20\n      add\n      swap2\n      swap1\n      0x01\n      add\n      swap1\n      jump(tag_215)\n    tag_216:\n      pop\n      tag_217\n      swap3\n      swap2\n      pop\n      tag_218\n      jump\t// in\n    tag_217:\n      pop\n      swap1\n      jump\t// out\n    tag_153:\n      pop\n      dup1\n      sload\n      0x00\n      dup3\n      sstore\n      swap1\n      0x00\n      mstore\n      keccak256(0x00, 0x20)\n      swap1\n      dup2\n      add\n      swap1\n      tag_220\n      swap2\n      swap1\n      tag_221\n      jump\t// in\n    tag_220:\n      pop\n      jump\t// out\n    tag_218:\n    tag_222:\n      dup1\n      dup3\n      gt\n      iszero\n      tag_217\n      jumpi\n      0x00\n      dup2\n      sstore\n      0x01\n      add\n      jump(tag_222)\n    tag_221:\n      dup1\n      dup3\n      gt\n      iszero\n      tag_217\n      jumpi\n      0x00\n      tag_226\n      dup3\n      dup3\n      tag_227\n      jump\t// in\n    tag_226:\n      pop\n      0x01\n      add\n      jump(tag_221)\n    tag_227:\n      pop\n      dup1\n      sload\n      tag_228\n      swap1\n      tag_97\n      jump\t// in\n    tag_228:\n      0x00\n      dup3\n      sstore\n      dup1\n      0x1f\n      lt\n      tag_230\n      jumpi\n      pop\n      pop\n      jump\t// out\n    tag_230:\n      0x1f\n      add\n      0x20\n      swap1\n      div\n      swap1\n      0x00\n      mstore\n      keccak256(0x00, 0x20)\n      swap1\n      dup2\n      add\n      swap1\n      tag_220\n      swap2\n      swap1\n      tag_218\n      jump\t// in\n        /* \"#utility.yul\":14:198   */\n    tag_82:\n        /* \"#utility.yul\":66:143   */\n      0x4e487b7100000000000000000000000000000000000000000000000000000000\n        /* \"#utility.yul\":63:64   */\n      0x00\n        /* \"#utility.yul\":56:144   */\n      mstore\n        /* \"#utility.yul\":163:167   */\n      0x41\n        /* \"#utility.yul\":160:161   */\n      0x04\n        /* \"#utility.yul\":153:168   */\n      mstore\n        /* \"#utility.yul\":187:191   */\n      0x24\n        /* \"#utility.yul\":184:185   */\n      0x00\n        /* \"#utility.yul\":177:192   */\n      revert\n        /* \"#utility.yul\":203:454   */\n    tag_232:\n        /* \"#utility.yul\":275:277   */\n      0x40\n        /* \"#utility.yul\":269:278   */\n      dup1\n      mload\n      swap1\n        /* \"#utility.yul\":305:320   */\n      dup2\n      add\n        /* \"#utility.yul\":350:368   */\n      0xffffffffffffffff\n        /* \"#utility.yul\":335:369   */\n      dup2\n      gt\n        /* \"#utility.yul\":371:393   */\n      dup3\n      dup3\n      lt\n        /* \"#utility.yul\":332:394   */\n      or\n        /* \"#utility.yul\":329:417   */\n      iszero\n      tag_244\n      jumpi\n        /* \"#utility.yul\":397:415   */\n      tag_244\n      tag_82\n      jump\t// in\n    tag_244:\n        /* \"#utility.yul\":433:435   */\n      0x40\n        /* \"#utility.yul\":426:448   */\n      mstore\n        /* \"#utility.yul\":203:454   */\n      swap1\n      jump\t// out\n        /* \"#utility.yul\":721:1055   */\n    tag_234:\n        /* \"#utility.yul\":792:794   */\n      0x40\n        /* \"#utility.yul\":786:795   */\n      mload\n        /* \"#utility.yul\":848:850   */\n      0x1f\n        /* \"#utility.yul\":838:851   */\n      dup3\n      add\n        /* \"#utility.yul\":853:919   */\n      0xffffffffffffffffffffffffffffffffffffffffffffffffffffffffffffffe0\n        /* \"#utility.yul\":834:920   */\n      and\n        /* \"#utility.yul\":822:921   */\n      dup2\n      add\n        /* \"#utility.yul\":951:969   */\n      0xffffffffffffffff\n        /* \"#utility.yul\":936:970   */\n      dup2\n      gt\n        /* \"#utility.yul\":972:994   */\n      dup3\n      dup3\n      lt\n        /* \"#utility.yul\":933:995   */\n      or\n        /* \"#utility.yul\":930:1018   */\n      iszero\n      tag_250\n      jumpi\n        /* \"#utility.yul\":998:1016   */\n      tag_250\n      tag_82\n      jump\t// in\n    tag_250:\n        /* \"#utility.yul\":1034:1036   */\n      0x40\n        /* \"#utility.yul\":1027:1049   */\n      mstore\n        /* \"#utility.yul\":721:1055   */\n      swap2\n      swap1\n      pop\n      jump\t// out\n        /* \"#utility.yul\":1060:1306   */\n    tag_235:\n        /* \"#utility.yul\":1109:1113   */\n      0x00\n        /* \"#utility.yul\":1142:1160   */\n      0xffffffffffffffff\n        /* \"#utility.yul\":1134:1140   */\n      dup3\n        /* \"#utility.yul\":1131:1161   */\n      gt\n        /* \"#utility.yul\":1128:1184   */\n      iszero\n      tag_253\n      jumpi\n        /* \"#utility.yul\":1164:1182   */\n      tag_253\n      tag_82\n      jump\t// in\n    tag_253:\n      pop\n        /* \"#utility.yul\":1221:1223   */\n      0x1f\n        /* \"#utility.yul\":1209:1224   */\n      add\n        /* \"#utility.yul\":1226:1292   */\n      0xffffffffffffffffffffffffffffffffffffffffffffffffffffffffffffffe0\n        /* \"#utility.yul\":1205:1293   */\n      and\n        /* \"#utility.yul\":1295:1299   */\n      0x20\n        /* \"#utility.yul\":1201:1300   */\n      add\n      swap1\n        /* \"#utility.yul\":1060:1306   */\n      jump\t// out\n        /* \"#utility.yul\":1311:1775   */\n    tag_236:\n        /* \"#utility.yul\":1354:1359   */\n      0x00\n        /* \"#utility.yul\":1407:1410   */\n      dup3\n        /* \"#utility.yul\":1400:1404   */\n      0x1f\n        /* \"#utility.yul\":1392:1398   */\n      dup4\n        /* \"#utility.yul\":1388:1405   */\n      add\n        /* \"#utility.yul\":1384:1411   */\n      slt\n        /* \"#utility.yul\":1374:1429   */\n      tag_255\n      jumpi\n        /* \"#utility.yul\":1425:1426   */\n      0x00\n        /* \"#utility.yul\":1422:1423   */\n      dup1\n        /* \"#utility.yul\":1415:1427   */\n      revert\n        /* \"#utility.yul\":1374:1429   */\n    tag_255:\n        /* \"#utility.yul\":1461:1467   */\n      dup2\n        /* \"#utility.yul\":1448:1468   */\n      calldataload\n        /* \"#utility.yul\":1492:1541   */\n      tag_256\n        /* \"#utility.yul\":1508:1540   */\n      tag_257\n        /* \"#utility.yul\":1537:1539   */\n      dup3\n        /* \"#utility.yul\":1508:1540   */\n      tag_235\n      jump\t// in\n    tag_257:\n        /* \"#utility.yul\":1492:1541   */\n      tag_234\n      jump\t// in\n    tag_256:\n        /* \"#utility.yul\":1566:1568   */\n      dup2\n        /* \"#utility.yul\":1557:1564   */\n      dup2\n        /* \"#utility.yul\":1550:1569   */\n      mstore\n        /* \"#utility.yul\":1612:1615   */\n      dup5\n        /* \"#utility.yul\":1605:1609   */\n      0x20\n        /* \"#utility.yul\":1600:1602   */\n      dup4\n        /* \"#utility.yul\":1592:1598   */\n      dup7\n        /* \"#utility.yul\":1588:1603   */\n      add\n        /* \"#utility.yul\":1584:1610   */\n      add\n        /* \"#utility.yul\":1581:1616   */\n      gt\n        /* \"#utility.yul\":1578:1633   */\n      iszero\n      tag_258\n      jumpi\n        /* \"#utility.yul\":1629:1630   */\n      0x00\n        /* \"#utility.yul\":1626:1627   */\n      dup1\n        /* \"#utility.yul\":1619:1631   */\n      revert\n        /* \"#utility.yul\":1578:1633   */\n    tag_258:\n        /* \"#utility.yul\":1694:1696   */\n      dup2\n        /* \"#utility.yul\":1687:1691   */\n      0x20\n        /* \"#utility.yul\":1679:1685   */\n      dup6\n        /* \"#utility.yul\":1675:1692   */\n      add\n        /* \"#utility.yul\":1668:1672   */\n      0x20\n        /* \"#utility.yul\":1659:1666   */\n      dup4\n        /* \"#utility.yul\":1655:1673   */\n      add\n        /* \"#utility.yul\":1642:1697   */\n      calldatacopy\n        /* \"#utility.yul\":1742:1743   */\n      0x00\n        /* \"#utility.yul\":1717:1733   */\n      swap2\n      dup2\n      add\n        /* \"#utility.yul\":1735:1739   */\n      0x20\n        /* \"#utility.yul\":1713:1740   */\n      add\n        /* \"#utility.yul\":1706:1744   */\n      swap2\n      swap1\n      swap2\n      mstore\n        /* \"#utility.yul\":1721:1728   */\n      swap4\n        /* \"#utility.yul\":1311:1775   */\n      swap3\n      pop\n      pop\n      pop\n      jump\t// out\n        /* \"#utility.yul\":1780:2523   */\n    tag_12:\n        /* \"#utility.yul\":1887:1893   */\n      0x00\n        /* \"#utility.yul\":1895:1901   */\n      dup1\n        /* \"#utility.yul\":1903:1909   */\n      0x00\n        /* \"#utility.yul\":1956:1958   */\n      0x60\n        /* \"#utility.yul\":1944:1953   */\n      dup5\n        /* \"#utility.yul\":1935:1942   */\n      dup7\n        /* \"#utility.yul\":1931:1954   */\n      sub\n        /* \"#utility.yul\":1927:1959   */\n      slt\n        /* \"#utility.yul\":1924:1976   */\n      iszero\n      tag_260\n      jumpi\n        /* \"#utility.yul\":1972:1973   */\n      0x00\n        /* \"#utility.yul\":1969:1970   */\n      dup1\n        /* \"#utility.yul\":1962:1974   */\n      revert\n        /* \"#utility.yul\":1924:1976   */\n    tag_260:\n        /* \"#utility.yul\":2012:2021   */\n      dup4\n        /* \"#utility.yul\":1999:2022   */\n      calldataload\n        /* \"#utility.yul\":2041:2059   */\n      0xffffffffffffffff\n        /* \"#utility.yul\":2082:2084   */\n      dup1\n        /* \"#utility.yul\":2074:2080   */\n      dup3\n        /* \"#utility.yul\":2071:2085   */\n      gt\n        /* \"#utility.yul\":2068:2102   */\n      iszero\n      tag_261\n      jumpi\n        /* \"#utility.yul\":2098:2099   */\n      0x00\n        /* \"#utility.yul\":2095:2096   */\n      dup1\n        /* \"#utility.yul\":2088:2100   */\n      revert\n        /* \"#utility.yul\":2068:2102   */\n    tag_261:\n        /* \"#utility.yul\":2121:2171   */\n      tag_262\n        /* \"#utility.yul\":2163:2170   */\n      dup8\n        /* \"#utility.yul\":2154:2160   */\n      dup4\n        /* \"#utility.yul\":2143:2152   */\n      dup9\n        /* \"#utility.yul\":2139:2161   */\n      add\n        /* \"#utility.yul\":2121:2171   */\n      tag_236\n      jump\t// in\n    tag_262:\n        /* \"#utility.yul\":2111:2171   */\n      swap5\n      pop\n        /* \"#utility.yul\":2224:2226   */\n      0x20\n        /* \"#utility.yul\":2213:2222   */\n      dup7\n        /* \"#utility.yul\":2209:2227   */\n      add\n        /* \"#utility.yul\":2196:2228   */\n      calldataload\n        /* \"#utility.yul\":2180:2228   */\n      swap2\n      pop\n        /* \"#utility.yul\":2253:2255   */\n      dup1\n        /* \"#utility.yul\":2243:2251   */\n      dup3\n        /* \"#utility.yul\":2240:2256   */\n      gt\n        /* \"#utility.yul\":2237:2273   */\n      iszero\n      tag_263\n      jumpi\n        /* \"#utility.yul\":2269:2270   */\n      0x00\n        /* \"#utility.yul\":2266:2267   */\n      dup1\n        /* \"#utility.yul\":2259:2271   */\n      revert\n        /* \"#utility.yul\":2237:2273   */\n    tag_263:\n        /* \"#utility.yul\":2292:2344   */\n      tag_264\n        /* \"#utility.yul\":2336:2343   */\n      dup8\n        /* \"#utility.yul\":2325:2333   */\n      dup4\n        /* \"#utility.yul\":2314:2323   */\n      dup9\n        /* \"#utility.yul\":2310:2334   */\n      add\n        /* \"#utility.yul\":2292:2344   */\n      tag_236\n      jump\t// in\n    tag_264:\n        /* \"#utility.yul\":2282:2344   */\n      swap4\n      pop\n        /* \"#utility.yul\":2397:2399   */\n      0x40\n        /* \"#utility.yul\":2386:2395   */\n      dup7\n        /* \"#utility.yul\":2382:2400   */\n      add\n        /* \"#utility.yul\":2369:2401   */\n      calldataload\n        /* \"#utility.yul\":2353:2401   */\n      swap2\n      pop\n        /* \"#utility.yul\":2426:2428   */\n      dup1\n        /* \"#utility.yul\":2416:2424   */\n      dup3\n        /* \"#utility.yul\":2413:2429   */\n      gt\n        /* \"#utility.yul\":2410:2446   */\n      iszero\n      tag_265\n      jumpi\n        /* \"#utility.yul\":2442:2443   */\n      0x00\n        /* \"#utility.yul\":2439:2440   */\n      dup1\n        /* \"#utility.yul\":2432:2444   */\n      revert\n        /* \"#utility.yul\":2410:2446   */\n    tag_265:\n      pop\n        /* \"#utility.yul\":2465:2517   */\n      tag_266\n        /* \"#utility.yul\":2509:2516   */\n      dup7\n        /* \"#utility.yul\":2498:2506   */\n      dup3\n        /* \"#utility.yul\":2487:2496   */\n      dup8\n        /* \"#utility.yul\":2483:2507   */\n      add\n        /* \"#utility.yul\":2465:2517   */\n      tag_236\n      jump\t// in\n    tag_266:\n        /* \"#utility.yul\":2455:2517   */\n      swap2\n      pop\n      pop\n        /* \"#utility.yul\":1780:2523   */\n      swap3\n      pop\n      swap3\n      pop\n      swap3\n      jump\t// out\n        /* \"#utility.yul\":2528:2850   */\n    tag_16:\n        /* \"#utility.yul\":2597:2603   */\n      0x00\n        /* \"#utility.yul\":2650:2652   */\n      0x20\n        /* \"#utility.yul\":2638:2647   */\n      dup3\n        /* \"#utility.yul\":2629:2636   */\n      dup5\n        /* \"#utility.yul\":2625:2648   */\n      sub\n        /* \"#utility.yul\":2621:2653   */\n      slt\n        /* \"#utility.yul\":2618:2670   */\n      iszero\n      tag_268\n      jumpi\n        /* \"#utility.yul\":2666:2667   */\n      0x00\n        /* \"#utility.yul\":2663:2664   */\n      dup1\n        /* \"#utility.yul\":2656:2668   */\n      revert\n        /* \"#utility.yul\":2618:2670   */\n    tag_268:\n        /* \"#utility.yul\":2706:2715   */\n      dup2\n        /* \"#utility.yul\":2693:2716   */\n      calldataload\n        /* \"#utility.yul\":2739:2757   */\n      0xffffffffffffffff\n        /* \"#utility.yul\":2731:2737   */\n      dup2\n        /* \"#utility.yul\":2728:2758   */\n      gt\n        /* \"#utility.yul\":2725:2775   */\n      iszero\n      tag_269\n      jumpi\n        /* \"#utility.yul\":2771:2772   */\n      0x00\n        /* \"#utility.yul\":2768:2769   */\n      dup1\n        /* \"#utility.yul\":2761:2773   */\n      revert\n        /* \"#utility.yul\":2725:2775   */\n    tag_269:\n        /* \"#utility.yul\":2794:2844   */\n      tag_270\n        /* \"#utility.yul\":2836:2843   */\n      dup5\n        /* \"#utility.yul\":2827:2833   */\n      dup3\n        /* \"#utility.yul\":2816:2825   */\n      dup6\n        /* \"#utility.yul\":2812:2834   */\n      add\n        /* \"#utility.yul\":2794:2844   */\n      tag_236\n      jump\t// in\n    tag_270:\n        /* \"#utility.yul\":2784:2844   */\n      swap5\n        /* \"#utility.yul\":2528:2850   */\n      swap4\n      pop\n      pop\n      pop\n      pop\n      jump\t// out\n        /* \"#utility.yul\":2855:3113   */\n    tag_237:\n        /* \"#utility.yul\":2927:2928   */\n      0x00\n        /* \"#utility.yul\":2937:3050   */\n    tag_272:\n        /* \"#utility.yul\":2951:2957   */\n      dup4\n        /* \"#utility.yul\":2948:2949   */\n      dup2\n        /* \"#utility.yul\":2945:2958   */\n      lt\n        /* \"#utility.yul\":2937:3050   */\n      iszero\n      tag_274\n      jumpi\n        /* \"#utility.yul\":3027:3038   */\n      dup2\n      dup2\n      add\n        /* \"#utility.yul\":3021:3039   */\n      mload\n        /* \"#utility.yul\":3008:3019   */\n      dup4\n      dup3\n      add\n        /* \"#utility.yul\":3001:3040   */\n      mstore\n        /* \"#utility.yul\":2973:2975   */\n      0x20\n        /* \"#utility.yul\":2966:2976   */\n      add\n        /* \"#utility.yul\":2937:3050   */\n      jump(tag_272)\n    tag_274:\n        /* \"#utility.yul\":3068:3074   */\n      dup4\n        /* \"#utility.yul\":3065:3066   */\n      dup2\n        /* \"#utility.yul\":3062:3075   */\n      gt\n        /* \"#utility.yul\":3059:3107   */\n      iszero\n      tag_275\n      jumpi\n        /* \"#utility.yul\":3103:3104   */\n      0x00\n        /* \"#utility.yul\":3094:3100   */\n      dup5\n        /* \"#utility.yul\":3089:3092   */\n      dup5\n        /* \"#utility.yul\":3085:3101   */\n      add\n        /* \"#utility.yul\":3078:3105   */\n      mstore\n        /* \"#utility.yul\":3059:3107   */\n    tag_275:\n      pop\n        /* \"#utility.yul\":2855:3113   */\n      pop\n      pop\n      pop\n      jump\t// out\n        /* \"#utility.yul\":3118:3435   */\n    tag_238:\n        /* \"#utility.yul\":3160:3163   */\n      0x00\n        /* \"#utility.yul\":3198:3203   */\n      dup2\n        /* \"#utility.yul\":3192:3204   */\n      mload\n        /* \"#utility.yul\":3225:3231   */\n      dup1\n        /* \"#utility.yul\":3220:3223   */\n      dup5\n        /* \"#utility.yul\":3213:3232   */\n      mstore\n        /* \"#utility.yul\":3241:3304   */\n      tag_277\n        /* \"#utility.yul\":3297:3303   */\n      dup2\n        /* \"#utility.yul\":3290:3294   */\n      0x20\n        /* \"#utility.yul\":3285:3288   */\n      dup7\n        /* \"#utility.yul\":3281:3295   */\n      add\n        /* \"#utility.yul\":3274:3278   */\n      0x20\n        /* \"#utility.yul\":3267:3272   */\n      dup7\n        /* \"#utility.yul\":3263:3279   */\n      add\n        /* \"#utility.yul\":3241:3304   */\n      tag_237\n      jump\t// in\n    tag_277:\n        /* \"#utility.yul\":3349:3351   */\n      0x1f\n        /* \"#utility.yul\":3337:3352   */\n      add\n        /* \"#utility.yul\":3354:3420   */\n      0xffffffffffffffffffffffffffffffffffffffffffffffffffffffffffffffe0\n        /* \"#utility.yul\":3333:3421   */\n      and\n        /* \"#utility.yul\":3324:3422   */\n      swap3\n      swap1\n      swap3\n      add\n        /* \"#utility.yul\":3424:3428   */\n      0x20\n        /* \"#utility.yul\":3320:3429   */\n      add\n      swap3\n        /* \"#utility.yul\":3118:3435   */\n      swap2\n      pop\n      pop\n      jump\t// out\n        /* \"#utility.yul\":3440:4654   */\n    tag_19:\n        /* \"#utility.yul\":3638:3642   */\n      0x00\n        /* \"#utility.yul\":3667:3669   */\n      0x20\n        /* \"#utility.yul\":3707:3709   */\n      dup1\n        /* \"#utility.yul\":3696:3705   */\n      dup4\n        /* \"#utility.yul\":3692:3710   */\n      add\n        /* \"#utility.yul\":3737:3739   */\n      dup2\n        /* \"#utility.yul\":3726:3735   */\n      dup5\n        /* \"#utility.yul\":3719:3740   */\n      mstore\n        /* \"#utility.yul\":3760:3766   */\n      dup1\n        /* \"#utility.yul\":3795:3801   */\n      dup6\n        /* \"#utility.yul\":3789:3802   */\n      mload\n        /* \"#utility.yul\":3826:3832   */\n      dup1\n        /* \"#utility.yul\":3818:3824   */\n      dup4\n        /* \"#utility.yul\":3811:3833   */\n      mstore\n        /* \"#utility.yul\":3852:3854   */\n      0x40\n        /* \"#utility.yul\":3842:3854   */\n      swap3\n      pop\n        /* \"#utility.yul\":3885:3887   */\n      dup3\n        /* \"#utility.yul\":3874:3883   */\n      dup7\n        /* \"#utility.yul\":3870:3888   */\n      add\n        /* \"#utility.yul\":3863:3888   */\n      swap2\n      pop\n        /* \"#utility.yul\":3947:3949   */\n      dup3\n        /* \"#utility.yul\":3937:3943   */\n      dup2\n        /* \"#utility.yul\":3934:3935   */\n      0x05\n        /* \"#utility.yul\":3930:3944   */\n      shl\n        /* \"#utility.yul\":3919:3928   */\n      dup8\n        /* \"#utility.yul\":3915:3945   */\n      add\n        /* \"#utility.yul\":3911:3950   */\n      add\n        /* \"#utility.yul\":3985:3987   */\n      dup5\n        /* \"#utility.yul\":3977:3983   */\n      dup9\n        /* \"#utility.yul\":3973:3988   */\n      add\n        /* \"#utility.yul\":4006:4007   */\n      0x00\n        /* \"#utility.yul\":4016:4625   */\n    tag_279:\n        /* \"#utility.yul\":4030:4036   */\n      dup4\n        /* \"#utility.yul\":4027:4028   */\n      dup2\n        /* \"#utility.yul\":4024:4037   */\n      lt\n        /* \"#utility.yul\":4016:4625   */\n      iszero\n      tag_281\n      jumpi\n        /* \"#utility.yul\":4119:4185   */\n      0xffffffffffffffffffffffffffffffffffffffffffffffffffffffffffffffc0\n        /* \"#utility.yul\":4107:4116   */\n      dup10\n        /* \"#utility.yul\":4099:4105   */\n      dup5\n        /* \"#utility.yul\":4095:4117   */\n      sub\n        /* \"#utility.yul\":4091:4186   */\n      add\n        /* \"#utility.yul\":4086:4089   */\n      dup6\n        /* \"#utility.yul\":4079:4187   */\n      mstore\n        /* \"#utility.yul\":4216:4222   */\n      dup2\n        /* \"#utility.yul\":4210:4223   */\n      mload\n        /* \"#utility.yul\":4262:4264   */\n      dup1\n        /* \"#utility.yul\":4256:4265   */\n      mload\n        /* \"#utility.yul\":4293:4295   */\n      dup8\n        /* \"#utility.yul\":4285:4291   */\n      dup6\n        /* \"#utility.yul\":4278:4296   */\n      mstore\n        /* \"#utility.yul\":4323:4371   */\n      tag_282\n        /* \"#utility.yul\":4367:4369   */\n      dup9\n        /* \"#utility.yul\":4359:4365   */\n      dup7\n        /* \"#utility.yul\":4355:4370   */\n      add\n        /* \"#utility.yul\":4341:4353   */\n      dup3\n        /* \"#utility.yul\":4323:4371   */\n      tag_238\n      jump\t// in\n    tag_282:\n        /* \"#utility.yul\":4412:4423   */\n      swap2\n      dup10\n      add\n        /* \"#utility.yul\":4406:4424   */\n      mload\n        /* \"#utility.yul\":4461:4480   */\n      dup6\n      dup4\n      sub\n        /* \"#utility.yul\":4444:4459   */\n      dup7\n      dup12\n      add\n        /* \"#utility.yul\":4437:4481   */\n      mstore\n        /* \"#utility.yul\":4406:4424   */\n      swap2\n        /* \"#utility.yul\":4309:4371   */\n      swap1\n      pop\n        /* \"#utility.yul\":4504:4545   */\n      tag_283\n        /* \"#utility.yul\":4309:4371   */\n      dup2\n        /* \"#utility.yul\":4406:4424   */\n      dup4\n        /* \"#utility.yul\":4504:4545   */\n      tag_238\n      jump\t// in\n    tag_283:\n        /* \"#utility.yul\":4603:4615   */\n      swap7\n      dup10\n      add\n      swap7\n        /* \"#utility.yul\":4494:4545   */\n      swap5\n      pop\n      pop\n      pop\n        /* \"#utility.yul\":4568:4583   */\n      swap1\n      dup7\n      add\n      swap1\n        /* \"#utility.yul\":4052:4053   */\n      0x01\n        /* \"#utility.yul\":4045:4054   */\n      add\n        /* \"#utility.yul\":4016:4625   */\n      jump(tag_279)\n    tag_281:\n      pop\n        /* \"#utility.yul\":4642:4648   */\n      swap1\n      swap9\n        /* \"#utility.yul\":3440:4654   */\n      swap8\n      pop\n      pop\n      pop\n      pop\n      pop\n      pop\n      pop\n      pop\n      jump\t// out\n        /* \"#utility.yul\":4659:6830   */\n    tag_25:\n        /* \"#utility.yul\":4790:4796   */\n      0x00\n        /* \"#utility.yul\":4798:4804   */\n      dup1\n        /* \"#utility.yul\":4829:4831   */\n      0x40\n        /* \"#utility.yul\":4872:4874   */\n      dup1\n        /* \"#utility.yul\":4860:4869   */\n      dup5\n        /* \"#utility.yul\":4851:4858   */\n      dup7\n        /* \"#utility.yul\":4847:4870   */\n      sub\n        /* \"#utility.yul\":4843:4875   */\n      slt\n        /* \"#utility.yul\":4840:4892   */\n      iszero\n      tag_285\n      jumpi\n        /* \"#utility.yul\":4888:4889   */\n      0x00\n        /* \"#utility.yul\":4885:4886   */\n      dup1\n        /* \"#utility.yul\":4878:4890   */\n      revert\n        /* \"#utility.yul\":4840:4892   */\n    tag_285:\n        /* \"#utility.yul\":4928:4937   */\n      dup4\n        /* \"#utility.yul\":4915:4938   */\n      calldataload\n        /* \"#utility.yul\":4957:4975   */\n      0xffffffffffffffff\n        /* \"#utility.yul\":4998:5000   */\n      dup1\n        /* \"#utility.yul\":4990:4996   */\n      dup3\n        /* \"#utility.yul\":4987:5001   */\n      gt\n        /* \"#utility.yul\":4984:5018   */\n      iszero\n      tag_286\n      jumpi\n        /* \"#utility.yul\":5014:5015   */\n      0x00\n        /* \"#utility.yul\":5011:5012   */\n      dup1\n        /* \"#utility.yul\":5004:5016   */\n      revert\n        /* \"#utility.yul\":4984:5018   */\n    tag_286:\n        /* \"#utility.yul\":5037:5087   */\n      tag_287\n        /* \"#utility.yul\":5079:5086   */\n      dup8\n        /* \"#utility.yul\":5070:5076   */\n      dup4\n        /* \"#utility.yul\":5059:5068   */\n      dup9\n        /* \"#utility.yul\":5055:5077   */\n      add\n        /* \"#utility.yul\":5037:5087   */\n      tag_236\n      jump\t// in\n    tag_287:\n        /* \"#utility.yul\":5027:5087   */\n      swap5\n      pop\n        /* \"#utility.yul\":5106:5108   */\n      0x20\n        /* \"#utility.yul\":5096:5108   */\n      swap2\n      pop\n        /* \"#utility.yul\":5161:5163   */\n      dup2\n        /* \"#utility.yul\":5150:5159   */\n      dup7\n        /* \"#utility.yul\":5146:5164   */\n      add\n        /* \"#utility.yul\":5133:5165   */\n      calldataload\n        /* \"#utility.yul\":5190:5192   */\n      dup2\n        /* \"#utility.yul\":5180:5188   */\n      dup2\n        /* \"#utility.yul\":5177:5193   */\n      gt\n        /* \"#utility.yul\":5174:5210   */\n      iszero\n      tag_288\n      jumpi\n        /* \"#utility.yul\":5206:5207   */\n      0x00\n        /* \"#utility.yul\":5203:5204   */\n      dup1\n        /* \"#utility.yul\":5196:5208   */\n      revert\n        /* \"#utility.yul\":5174:5210   */\n    tag_288:\n        /* \"#utility.yul\":5229:5253   */\n      dup7\n      add\n        /* \"#utility.yul\":5284:5288   */\n      0x1f\n        /* \"#utility.yul\":5276:5289   */\n      dup2\n      add\n        /* \"#utility.yul\":5272:5299   */\n      dup9\n      sgt\n        /* \"#utility.yul\":5262:5317   */\n      tag_289\n      jumpi\n        /* \"#utility.yul\":5313:5314   */\n      0x00\n        /* \"#utility.yul\":5310:5311   */\n      dup1\n        /* \"#utility.yul\":5303:5315   */\n      revert\n        /* \"#utility.yul\":5262:5317   */\n    tag_289:\n        /* \"#utility.yul\":5349:5351   */\n      dup1\n        /* \"#utility.yul\":5336:5352   */\n      calldataload\n        /* \"#utility.yul\":5371:5373   */\n      dup3\n        /* \"#utility.yul\":5367:5369   */\n      dup2\n        /* \"#utility.yul\":5364:5374   */\n      gt\n        /* \"#utility.yul\":5361:5397   */\n      iszero\n      tag_291\n      jumpi\n        /* \"#utility.yul\":5377:5395   */\n      tag_291\n      tag_82\n      jump\t// in\n    tag_291:\n        /* \"#utility.yul\":5423:5425   */\n      dup1\n        /* \"#utility.yul\":5420:5421   */\n      0x05\n        /* \"#utility.yul\":5416:5426   */\n      shl\n        /* \"#utility.yul\":5446:5474   */\n      tag_292\n        /* \"#utility.yul\":5470:5472   */\n      dup6\n        /* \"#utility.yul\":5466:5468   */\n      dup3\n        /* \"#utility.yul\":5462:5473   */\n      add\n        /* \"#utility.yul\":5446:5474   */\n      tag_234\n      jump\t// in\n    tag_292:\n        /* \"#utility.yul\":5508:5523   */\n      swap2\n      dup3\n      mstore\n        /* \"#utility.yul\":5578:5589   */\n      dup3\n      dup2\n      add\n        /* \"#utility.yul\":5574:5594   */\n      dup6\n      add\n      swap2\n        /* \"#utility.yul\":5539:5551   */\n      dup6\n      dup2\n      add\n      swap1\n        /* \"#utility.yul\":5606:5625   */\n      dup12\n      dup5\n      gt\n        /* \"#utility.yul\":5603:5642   */\n      iszero\n      tag_293\n      jumpi\n        /* \"#utility.yul\":5638:5639   */\n      0x00\n        /* \"#utility.yul\":5635:5636   */\n      dup1\n        /* \"#utility.yul\":5628:5640   */\n      revert\n        /* \"#utility.yul\":5603:5642   */\n    tag_293:\n        /* \"#utility.yul\":5670:5672   */\n      dup7\n        /* \"#utility.yul\":5666:5668   */\n      dup6\n        /* \"#utility.yul\":5662:5673   */\n      add\n        /* \"#utility.yul\":5651:5673   */\n      swap3\n      pop\n        /* \"#utility.yul\":5682:6800   */\n    tag_294:\n        /* \"#utility.yul\":5698:5704   */\n      dup4\n        /* \"#utility.yul\":5693:5696   */\n      dup4\n        /* \"#utility.yul\":5690:5705   */\n      lt\n        /* \"#utility.yul\":5682:6800   */\n      iszero\n      tag_296\n      jumpi\n        /* \"#utility.yul\":5784:5787   */\n      dup3\n        /* \"#utility.yul\":5771:5788   */\n      calldataload\n        /* \"#utility.yul\":5820:5822   */\n      dup7\n        /* \"#utility.yul\":5807:5818   */\n      dup2\n        /* \"#utility.yul\":5804:5823   */\n      gt\n        /* \"#utility.yul\":5801:5910   */\n      iszero\n      tag_297\n      jumpi\n        /* \"#utility.yul\":5864:5865   */\n      0x00\n        /* \"#utility.yul\":5893:5895   */\n      dup1\n        /* \"#utility.yul\":5889:5891   */\n      dup2\n        /* \"#utility.yul\":5882:5896   */\n      revert\n        /* \"#utility.yul\":5801:5910   */\n    tag_297:\n        /* \"#utility.yul\":5933:5953   */\n      dup6\n      add\n        /* \"#utility.yul\":5977:5993   */\n      dup1\n      dup14\n      sub\n        /* \"#utility.yul\":5995:6061   */\n      0xffffffffffffffffffffffffffffffffffffffffffffffffffffffffffffffe0\n        /* \"#utility.yul\":5973:6062   */\n      add\n        /* \"#utility.yul\":5969:6067   */\n      dup10\n      sgt\n        /* \"#utility.yul\":5966:6154   */\n      iszero\n      tag_298\n      jumpi\n        /* \"#utility.yul\":6108:6109   */\n      0x00\n        /* \"#utility.yul\":6137:6139   */\n      dup1\n        /* \"#utility.yul\":6133:6135   */\n      dup2\n        /* \"#utility.yul\":6126:6140   */\n      revert\n        /* \"#utility.yul\":5966:6154   */\n    tag_298:\n        /* \"#utility.yul\":6180:6202   */\n      tag_299\n      tag_232\n      jump\t// in\n    tag_299:\n        /* \"#utility.yul\":6252:6254   */\n      dup9\n        /* \"#utility.yul\":6248:6250   */\n      dup3\n        /* \"#utility.yul\":6244:6255   */\n      add\n        /* \"#utility.yul\":6231:6256   */\n      calldataload\n        /* \"#utility.yul\":6285:6287   */\n      dup9\n        /* \"#utility.yul\":6275:6283   */\n      dup2\n        /* \"#utility.yul\":6272:6288   */\n      gt\n        /* \"#utility.yul\":6269:6378   */\n      iszero\n      tag_300\n      jumpi\n        /* \"#utility.yul\":6330:6331   */\n      0x00\n        /* \"#utility.yul\":6360:6363   */\n      dup1\n        /* \"#utility.yul\":6355:6358   */\n      dup2\n        /* \"#utility.yul\":6348:6364   */\n      revert\n        /* \"#utility.yul\":6269:6378   */\n    tag_300:\n        /* \"#utility.yul\":6405:6459   */\n      tag_301\n        /* \"#utility.yul\":6451:6458   */\n      dup16\n        /* \"#utility.yul\":6446:6448   */\n      dup12\n        /* \"#utility.yul\":6435:6443   */\n      dup4\n        /* \"#utility.yul\":6431:6433   */\n      dup7\n        /* \"#utility.yul\":6427:6444   */\n      add\n        /* \"#utility.yul\":6423:6449   */\n      add\n        /* \"#utility.yul\":6405:6459   */\n      tag_236\n      jump\t// in\n    tag_301:\n        /* \"#utility.yul\":6398:6403   */\n      dup3\n        /* \"#utility.yul\":6391:6460   */\n      mstore\n      pop\n        /* \"#utility.yul\":6510:6512   */\n      dup10\n        /* \"#utility.yul\":6506:6508   */\n      dup3\n        /* \"#utility.yul\":6502:6513   */\n      add\n        /* \"#utility.yul\":6489:6514   */\n      calldataload\n        /* \"#utility.yul\":6543:6545   */\n      dup9\n        /* \"#utility.yul\":6533:6541   */\n      dup2\n        /* \"#utility.yul\":6530:6546   */\n      gt\n        /* \"#utility.yul\":6527:6636   */\n      iszero\n      tag_302\n      jumpi\n        /* \"#utility.yul\":6588:6589   */\n      0x00\n        /* \"#utility.yul\":6618:6621   */\n      dup1\n        /* \"#utility.yul\":6613:6616   */\n      dup2\n        /* \"#utility.yul\":6606:6622   */\n      revert\n        /* \"#utility.yul\":6527:6636   */\n    tag_302:\n        /* \"#utility.yul\":6672:6726   */\n      tag_303\n        /* \"#utility.yul\":6718:6725   */\n      dup16\n        /* \"#utility.yul\":6713:6715   */\n      dup12\n        /* \"#utility.yul\":6702:6710   */\n      dup4\n        /* \"#utility.yul\":6698:6700   */\n      dup7\n        /* \"#utility.yul\":6694:6711   */\n      add\n        /* \"#utility.yul\":6690:6716   */\n      add\n        /* \"#utility.yul\":6672:6726   */\n      tag_236\n      jump\t// in\n    tag_303:\n        /* \"#utility.yul\":6656:6670   */\n      dup3\n      dup12\n      add\n        /* \"#utility.yul\":6649:6727   */\n      mstore\n      pop\n        /* \"#utility.yul\":6740:6758   */\n      dup4\n      mstore\n      pop\n        /* \"#utility.yul\":5715:5727   */\n      swap2\n      dup7\n      add\n      swap2\n        /* \"#utility.yul\":6778:6790   */\n      swap1\n      dup7\n      add\n      swap1\n        /* \"#utility.yul\":5682:6800   */\n      jump(tag_294)\n    tag_296:\n        /* \"#utility.yul\":6819:6824   */\n      dup1\n        /* \"#utility.yul\":6809:6824   */\n      swap9\n      pop\n      pop\n      pop\n      pop\n      pop\n      pop\n      pop\n      pop\n      pop\n        /* \"#utility.yul\":4659:6830   */\n      swap3\n      pop\n      swap3\n      swap1\n      pop\n      jump\t// out\n        /* \"#utility.yul\":7081:7624   */\n    tag_33:\n        /* \"#utility.yul\":7169:7175   */\n      0x00\n        /* \"#utility.yul\":7177:7183   */\n      dup1\n        /* \"#utility.yul\":7230:7232   */\n      0x40\n        /* \"#utility.yul\":7218:7227   */\n      dup4\n        /* \"#utility.yul\":7209:7216   */\n      dup6\n        /* \"#utility.yul\":7205:7228   */\n      sub\n        /* \"#utility.yul\":7201:7233   */\n      slt\n        /* \"#utility.yul\":7198:7250   */\n      iszero\n      tag_306\n      jumpi\n        /* \"#utility.yul\":7246:7247   */\n      0x00\n        /* \"#utility.yul\":7243:7244   */\n      dup1\n        /* \"#utility.yul\":7236:7248   */\n      revert\n        /* \"#utility.yul\":7198:7250   */\n    tag_306:\n        /* \"#utility.yul\":7286:7295   */\n      dup3\n        /* \"#utility.yul\":7273:7296   */\n      calldataload\n        /* \"#utility.yul\":7315:7333   */\n      0xffffffffffffffff\n        /* \"#utility.yul\":7356:7358   */\n      dup1\n        /* \"#utility.yul\":7348:7354   */\n      dup3\n        /* \"#utility.yul\":7345:7359   */\n      gt\n        /* \"#utility.yul\":7342:7376   */\n      iszero\n      tag_307\n      jumpi\n        /* \"#utility.yul\":7372:7373   */\n      0x00\n        /* \"#utility.yul\":7369:7370   */\n      dup1\n        /* \"#utility.yul\":7362:7374   */\n      revert\n        /* \"#utility.yul\":7342:7376   */\n    tag_307:\n        /* \"#utility.yul\":7395:7445   */\n      tag_308\n        /* \"#utility.yul\":7437:7444   */\n      dup7\n        /* \"#utility.yul\":7428:7434   */\n      dup4\n        /* \"#utility.yul\":7417:7426   */\n      dup8\n        /* \"#utility.yul\":7413:7435   */\n      add\n        /* \"#utility.yul\":7395:7445   */\n      tag_236\n      jump\t// in\n    tag_308:\n        /* \"#utility.yul\":7385:7445   */\n      swap4\n      pop\n        /* \"#utility.yul\":7498:7500   */\n      0x20\n        /* \"#utility.yul\":7487:7496   */\n      dup6\n        /* \"#utility.yul\":7483:7501   */\n      add\n        /* \"#utility.yul\":7470:7502   */\n      calldataload\n        /* \"#utility.yul\":7454:7502   */\n      swap2\n      pop\n        /* \"#utility.yul\":7527:7529   */\n      dup1\n        /* \"#utility.yul\":7517:7525   */\n      dup3\n        /* \"#utility.yul\":7514:7530   */\n      gt\n        /* \"#utility.yul\":7511:7547   */\n      iszero\n      tag_309\n      jumpi\n        /* \"#utility.yul\":7543:7544   */\n      0x00\n        /* \"#utility.yul\":7540:7541   */\n      dup1\n        /* \"#utility.yul\":7533:7545   */\n      revert\n        /* \"#utility.yul\":7511:7547   */\n    tag_309:\n      pop\n        /* \"#utility.yul\":7566:7618   */\n      tag_310\n        /* \"#utility.yul\":7610:7617   */\n      dup6\n        /* \"#utility.yul\":7599:7607   */\n      dup3\n        /* \"#utility.yul\":7588:7597   */\n      dup7\n        /* \"#utility.yul\":7584:7608   */\n      add\n        /* \"#utility.yul\":7566:7618   */\n      tag_236\n      jump\t// in\n    tag_310:\n        /* \"#utility.yul\":7556:7618   */\n      swap2\n      pop\n      pop\n        /* \"#utility.yul\":7081:7624   */\n      swap3\n      pop\n      swap3\n      swap1\n      pop\n      jump\t// out\n        /* \"#utility.yul\":7629:7849   */\n    tag_36:\n        /* \"#utility.yul\":7778:7780   */\n      0x20\n        /* \"#utility.yul\":7767:7776   */\n      dup2\n        /* \"#utility.yul\":7760:7781   */\n      mstore\n        /* \"#utility.yul\":7741:7745   */\n      0x00\n        /* \"#utility.yul\":7798:7843   */\n      tag_312\n        /* \"#utility.yul\":7839:7841   */\n      0x20\n        /* \"#utility.yul\":7828:7837   */\n      dup4\n        /* \"#utility.yul\":7824:7842   */\n      add\n        /* \"#utility.yul\":7816:7822   */\n      dup5\n        /* \"#utility.yul\":7798:7843   */\n      tag_238\n      jump\t// in\n    tag_312:\n        /* \"#utility.yul\":7790:7843   */\n      swap4\n        /* \"#utility.yul\":7629:7849   */\n      swap3\n      pop\n      pop\n      pop\n      jump\t// out\n        /* \"#utility.yul\":8190:9309   */\n    tag_52:\n        /* \"#utility.yul\":8279:8285   */\n      0x00\n        /* \"#utility.yul\":8310:8312   */\n      0x20\n        /* \"#utility.yul\":8353:8355   */\n      dup1\n        /* \"#utility.yul\":8341:8350   */\n      dup4\n        /* \"#utility.yul\":8332:8339   */\n      dup6\n        /* \"#utility.yul\":8328:8351   */\n      sub\n        /* \"#utility.yul\":8324:8356   */\n      slt\n        /* \"#utility.yul\":8321:8373   */\n      iszero\n      tag_315\n      jumpi\n        /* \"#utility.yul\":8369:8370   */\n      0x00\n        /* \"#utility.yul\":8366:8367   */\n      dup1\n        /* \"#utility.yul\":8359:8371   */\n      revert\n        /* \"#utility.yul\":8321:8373   */\n    tag_315:\n        /* \"#utility.yul\":8402:8411   */\n      dup3\n        /* \"#utility.yul\":8396:8412   */\n      mload\n        /* \"#utility.yul\":8431:8449   */\n      0xffffffffffffffff\n        /* \"#utility.yul\":8472:8474   */\n      dup1\n        /* \"#utility.yul\":8464:8470   */\n      dup3\n        /* \"#utility.yul\":8461:8475   */\n      gt\n        /* \"#utility.yul\":8458:8492   */\n      iszero\n      tag_316\n      jumpi\n        /* \"#utility.yul\":8488:8489   */\n      0x00\n        /* \"#utility.yul\":8485:8486   */\n      dup1\n        /* \"#utility.yul\":8478:8490   */\n      revert\n        /* \"#utility.yul\":8458:8492   */\n    tag_316:\n        /* \"#utility.yul\":8511:8533   */\n      swap1\n      dup5\n      add\n      swap1\n        /* \"#utility.yul\":8567:8571   */\n      0x40\n        /* \"#utility.yul\":8549:8565   */\n      dup3\n      dup8\n      sub\n        /* \"#utility.yul\":8545:8572   */\n      slt\n        /* \"#utility.yul\":8542:8589   */\n      iszero\n      tag_317\n      jumpi\n        /* \"#utility.yul\":8585:8586   */\n      0x00\n        /* \"#utility.yul\":8582:8583   */\n      dup1\n        /* \"#utility.yul\":8575:8587   */\n      revert\n        /* \"#utility.yul\":8542:8589   */\n    tag_317:\n        /* \"#utility.yul\":8611:8633   */\n      tag_318\n      tag_232\n      jump\t// in\n    tag_318:\n        /* \"#utility.yul\":8663:8665   */\n      dup3\n        /* \"#utility.yul\":8657:8666   */\n      mload\n        /* \"#utility.yul\":8710:8752   */\n      0xffffffffffffffffffffffffffffffffffffffff\n        /* \"#utility.yul\":8701:8708   */\n      dup2\n        /* \"#utility.yul\":8697:8753   */\n      and\n        /* \"#utility.yul\":8688:8695   */\n      dup2\n        /* \"#utility.yul\":8685:8754   */\n      eq\n        /* \"#utility.yul\":8675:8772   */\n      tag_319\n      jumpi\n        /* \"#utility.yul\":8768:8769   */\n      0x00\n        /* \"#utility.yul\":8765:8766   */\n      dup1\n        /* \"#utility.yul\":8758:8770   */\n      revert\n        /* \"#utility.yul\":8675:8772   */\n    tag_319:\n        /* \"#utility.yul\":8781:8803   */\n      dup2\n      mstore\n        /* \"#utility.yul\":8834:8845   */\n      dup3\n      dup5\n      add\n        /* \"#utility.yul\":8828:8846   */\n      mload\n        /* \"#utility.yul\":8858:8874   */\n      dup3\n      dup2\n      gt\n        /* \"#utility.yul\":8855:8891   */\n      iszero\n      tag_320\n      jumpi\n        /* \"#utility.yul\":8887:8888   */\n      0x00\n        /* \"#utility.yul\":8884:8885   */\n      dup1\n        /* \"#utility.yul\":8877:8889   */\n      revert\n        /* \"#utility.yul\":8855:8891   */\n    tag_320:\n        /* \"#utility.yul\":8918:8926   */\n      dup1\n        /* \"#utility.yul\":8914:8916   */\n      dup5\n        /* \"#utility.yul\":8910:8927   */\n      add\n        /* \"#utility.yul\":8900:8927   */\n      swap4\n      pop\n      pop\n        /* \"#utility.yul\":8965:8972   */\n      dup7\n        /* \"#utility.yul\":8958:8962   */\n      0x1f\n        /* \"#utility.yul\":8954:8956   */\n      dup5\n        /* \"#utility.yul\":8950:8963   */\n      add\n        /* \"#utility.yul\":8946:8973   */\n      slt\n        /* \"#utility.yul\":8936:8991   */\n      tag_321\n      jumpi\n        /* \"#utility.yul\":8987:8988   */\n      0x00\n        /* \"#utility.yul\":8984:8985   */\n      dup1\n        /* \"#utility.yul\":8977:8989   */\n      revert\n        /* \"#utility.yul\":8936:8991   */\n    tag_321:\n        /* \"#utility.yul\":9016:9018   */\n      dup3\n        /* \"#utility.yul\":9010:9019   */\n      mload\n        /* \"#utility.yul\":9000:9019   */\n      swap2\n      pop\n        /* \"#utility.yul\":9041:9090   */\n      tag_322\n        /* \"#utility.yul\":9057:9089   */\n      tag_257\n        /* \"#utility.yul\":9086:9088   */\n      dup4\n        /* \"#utility.yul\":9057:9089   */\n      tag_235\n      jump\t// in\n        /* \"#utility.yul\":9041:9090   */\n    tag_322:\n        /* \"#utility.yul\":9113:9115   */\n      dup3\n        /* \"#utility.yul\":9106:9111   */\n      dup2\n        /* \"#utility.yul\":9099:9116   */\n      mstore\n        /* \"#utility.yul\":9153:9160   */\n      dup8\n        /* \"#utility.yul\":9148:9150   */\n      dup6\n        /* \"#utility.yul\":9143:9145   */\n      dup5\n        /* \"#utility.yul\":9139:9141   */\n      dup7\n        /* \"#utility.yul\":9135:9146   */\n      add\n        /* \"#utility.yul\":9131:9151   */\n      add\n        /* \"#utility.yul\":9128:9161   */\n      gt\n        /* \"#utility.yul\":9125:9178   */\n      iszero\n      tag_324\n      jumpi\n        /* \"#utility.yul\":9174:9175   */\n      0x00\n        /* \"#utility.yul\":9171:9172   */\n      dup1\n        /* \"#utility.yul\":9164:9176   */\n      revert\n        /* \"#utility.yul\":9125:9178   */\n    tag_324:\n        /* \"#utility.yul\":9187:9241   */\n      tag_325\n        /* \"#utility.yul\":9238:9240   */\n      dup4\n        /* \"#utility.yul\":9233:9235   */\n      dup7\n        /* \"#utility.yul\":9226:9231   */\n      dup4\n        /* \"#utility.yul\":9222:9236   */\n      add\n        /* \"#utility.yul\":9217:9219   */\n      dup8\n        /* \"#utility.yul\":9213:9215   */\n      dup8\n        /* \"#utility.yul\":9209:9220   */\n      add\n        /* \"#utility.yul\":9187:9241   */\n      tag_237\n      jump\t// in\n    tag_325:\n        /* \"#utility.yul\":9257:9271   */\n      swap4\n      dup2\n      add\n        /* \"#utility.yul\":9250:9279   */\n      swap4\n      swap1\n      swap4\n      mstore\n      pop\n        /* \"#utility.yul\":9261:9266   */\n      swap1\n      swap5\n        /* \"#utility.yul\":8190:9309   */\n      swap4\n      pop\n      pop\n      pop\n      pop\n      jump\t// out\n        /* \"#utility.yul\":10010:10286   */\n    tag_63:\n        /* \"#utility.yul\":10141:10144   */\n      0x00\n        /* \"#utility.yul\":10179:10185   */\n      dup3\n        /* \"#utility.yul\":10173:10186   */\n      mload\n        /* \"#utility.yul\":10195:10248   */\n      tag_329\n        /* \"#utility.yul\":10241:10247   */\n      dup2\n        /* \"#utility.yul\":10236:10239   */\n      dup5\n        /* \"#utility.yul\":10229:10233   */\n      0x20\n        /* \"#utility.yul\":10221:10227   */\n      dup8\n        /* \"#utility.yul\":10217:10234   */\n      add\n        /* \"#utility.yul\":10195:10248   */\n      tag_237\n      jump\t// in\n    tag_329:\n        /* \"#utility.yul\":10264:10280   */\n      swap2\n      swap1\n      swap2\n      add\n      swap3\n        /* \"#utility.yul\":10010:10286   */\n      swap2\n      pop\n      pop\n      jump\t// out\n        /* \"#utility.yul\":10291:10475   */\n    tag_94:\n        /* \"#utility.yul\":10343:10420   */\n      0x4e487b7100000000000000000000000000000000000000000000000000000000\n        /* \"#utility.yul\":10340:10341   */\n      0x00\n        /* \"#utility.yul\":10333:10421   */\n      mstore\n        /* \"#utility.yul\":10440:10444   */\n      0x32\n        /* \"#utility.yul\":10437:10438   */\n      0x04\n        /* \"#utility.yul\":10430:10445   */\n      mstore\n        /* \"#utility.yul\":10464:10468   */\n      0x24\n        /* \"#utility.yul\":10461:10462   */\n      0x00\n        /* \"#utility.yul\":10454:10469   */\n      revert\n        /* \"#utility.yul\":10480:10917   */\n    tag_97:\n        /* \"#utility.yul\":10559:10560   */\n      0x01\n        /* \"#utility.yul\":10555:10567   */\n      dup2\n      dup2\n      shr\n      swap1\n        /* \"#utility.yul\":10602:10614   */\n      dup3\n      and\n      dup1\n        /* \"#utility.yul\":10623:10684   */\n      tag_332\n      jumpi\n        /* \"#utility.yul\":10677:10681   */\n      0x7f\n        /* \"#utility.yul\":10669:10675   */\n      dup3\n        /* \"#utility.yul\":10665:10682   */\n      and\n        /* \"#utility.yul\":10655:10682   */\n      swap2\n      pop\n        /* \"#utility.yul\":10623:10684   */\n    tag_332:\n        /* \"#utility.yul\":10730:10732   */\n      0x20\n        /* \"#utility.yul\":10722:10728   */\n      dup3\n        /* \"#utility.yul\":10719:10733   */\n      lt\n        /* \"#utility.yul\":10699:10717   */\n      dup2\n        /* \"#utility.yul\":10696:10734   */\n      eq\n        /* \"#utility.yul\":10693:10911   */\n      iszero\n      tag_333\n      jumpi\n        /* \"#utility.yul\":10767:10844   */\n      0x4e487b7100000000000000000000000000000000000000000000000000000000\n        /* \"#utility.yul\":10764:10765   */\n      0x00\n        /* \"#utility.yul\":10757:10845   */\n      mstore\n        /* \"#utility.yul\":10868:10872   */\n      0x22\n        /* \"#utility.yul\":10865:10866   */\n      0x04\n        /* \"#utility.yul\":10858:10873   */\n      mstore\n        /* \"#utility.yul\":10896:10900   */\n      0x24\n        /* \"#utility.yul\":10893:10894   */\n      0x00\n        /* \"#utility.yul\":10886:10901   */\n      revert\n        /* \"#utility.yul\":10693:10911   */\n    tag_333:\n      pop\n        /* \"#utility.yul\":10480:10917   */\n      swap2\n      swap1\n      pop\n      jump\t// out\n        /* \"#utility.yul\":11048:12262   */\n    tag_108:\n        /* \"#utility.yul\":11176:11179   */\n      0x00\n        /* \"#utility.yul\":11205:11206   */\n      dup1\n        /* \"#utility.yul\":11238:11244   */\n      dup4\n        /* \"#utility.yul\":11232:11245   */\n      sload\n        /* \"#utility.yul\":11268:11271   */\n      dup2\n        /* \"#utility.yul\":11290:11291   */\n      0x01\n        /* \"#utility.yul\":11318:11327   */\n      dup3\n        /* \"#utility.yul\":11314:11316   */\n      dup2\n        /* \"#utility.yul\":11310:11328   */\n      shr\n        /* \"#utility.yul\":11300:11328   */\n      swap2\n      pop\n        /* \"#utility.yul\":11378:11380   */\n      dup1\n        /* \"#utility.yul\":11367:11376   */\n      dup4\n        /* \"#utility.yul\":11363:11381   */\n      and\n        /* \"#utility.yul\":11400:11418   */\n      dup1\n        /* \"#utility.yul\":11390:11451   */\n      tag_336\n      jumpi\n        /* \"#utility.yul\":11444:11448   */\n      0x7f\n        /* \"#utility.yul\":11436:11442   */\n      dup4\n        /* \"#utility.yul\":11432:11449   */\n      and\n        /* \"#utility.yul\":11422:11449   */\n      swap3\n      pop\n        /* \"#utility.yul\":11390:11451   */\n    tag_336:\n        /* \"#utility.yul\":11470:11472   */\n      0x20\n        /* \"#utility.yul\":11518:11520   */\n      dup1\n        /* \"#utility.yul\":11510:11516   */\n      dup5\n        /* \"#utility.yul\":11507:11521   */\n      lt\n        /* \"#utility.yul\":11487:11505   */\n      dup3\n        /* \"#utility.yul\":11484:11522   */\n      eq\n        /* \"#utility.yul\":11481:11703   */\n      iszero\n      tag_337\n      jumpi\n        /* \"#utility.yul\":11557:11634   */\n      0x4e487b7100000000000000000000000000000000000000000000000000000000\n        /* \"#utility.yul\":11552:11555   */\n      dup7\n        /* \"#utility.yul\":11545:11635   */\n      mstore\n        /* \"#utility.yul\":11658:11662   */\n      0x22\n        /* \"#utility.yul\":11655:11656   */\n      0x04\n        /* \"#utility.yul\":11648:11663   */\n      mstore\n        /* \"#utility.yul\":11688:11692   */\n      0x24\n        /* \"#utility.yul\":11683:11686   */\n      dup7\n        /* \"#utility.yul\":11676:11693   */\n      revert\n        /* \"#utility.yul\":11481:11703   */\n    tag_337:\n        /* \"#utility.yul\":11719:11737   */\n      dup2\n        /* \"#utility.yul\":11746:11908   */\n      dup1\n      iszero\n      tag_339\n      jumpi\n        /* \"#utility.yul\":11922:11923   */\n      0x01\n        /* \"#utility.yul\":11917:12237   */\n      dup2\n      eq\n      tag_340\n      jumpi\n        /* \"#utility.yul\":11712:12237   */\n      jump(tag_338)\n        /* \"#utility.yul\":11746:11908   */\n    tag_339:\n        /* \"#utility.yul\":11794:11860   */\n      0xffffffffffffffffffffffffffffffffffffffffffffffffffffffffffffff00\n        /* \"#utility.yul\":11783:11792   */\n      dup7\n        /* \"#utility.yul\":11779:11861   */\n      and\n        /* \"#utility.yul\":11774:11777   */\n      dup10\n        /* \"#utility.yul\":11767:11862   */\n      mstore\n        /* \"#utility.yul\":11891:11897   */\n      dup5\n        /* \"#utility.yul\":11886:11889   */\n      dup10\n        /* \"#utility.yul\":11882:11898   */\n      add\n        /* \"#utility.yul\":11875:11898   */\n      swap7\n      pop\n        /* \"#utility.yul\":11746:11908   */\n      jump(tag_338)\n        /* \"#utility.yul\":11917:12237   */\n    tag_340:\n        /* \"#utility.yul\":10995:10996   */\n      0x00\n        /* \"#utility.yul\":10988:11002   */\n      dup11\n      dup2\n      mstore\n        /* \"#utility.yul\":11032:11036   */\n      0x20\n        /* \"#utility.yul\":11019:11037   */\n      swap1\n      keccak256\n        /* \"#utility.yul\":12012:12013   */\n      0x00\n        /* \"#utility.yul\":12026:12191   */\n    tag_342:\n        /* \"#utility.yul\":12040:12046   */\n      dup7\n        /* \"#utility.yul\":12037:12038   */\n      dup2\n        /* \"#utility.yul\":12034:12047   */\n      lt\n        /* \"#utility.yul\":12026:12191   */\n      iszero\n      tag_344\n      jumpi\n        /* \"#utility.yul\":12118:12132   */\n      dup2\n      sload\n        /* \"#utility.yul\":12105:12116   */\n      dup12\n      dup3\n      add\n        /* \"#utility.yul\":12098:12133   */\n      mstore\n        /* \"#utility.yul\":12161:12177   */\n      swap1\n      dup6\n      add\n      swap1\n        /* \"#utility.yul\":12055:12065   */\n      dup4\n      add\n        /* \"#utility.yul\":12026:12191   */\n      jump(tag_342)\n    tag_344:\n        /* \"#utility.yul\":12030:12033   */\n      pop\n      pop\n        /* \"#utility.yul\":12220:12226   */\n      dup5\n        /* \"#utility.yul\":12215:12218   */\n      dup10\n        /* \"#utility.yul\":12211:12227   */\n      add\n        /* \"#utility.yul\":12204:12227   */\n      swap7\n      pop\n        /* \"#utility.yul\":11712:12237   */\n    tag_338:\n      pop\n        /* \"#utility.yul\":12253:12256   */\n      swap5\n      swap9\n        /* \"#utility.yul\":11048:12262   */\n      swap8\n      pop\n      pop\n      pop\n      pop\n      pop\n      pop\n      pop\n      pop\n      jump\t// out\n        /* \"#utility.yul\":12267:12616   */\n    tag_117:\n        /* \"#utility.yul\":12306:12309   */\n      0x00\n        /* \"#utility.yul\":12337:12403   */\n      0xffffffffffffffffffffffffffffffffffffffffffffffffffffffffffffffff\n        /* \"#utility.yul\":12330:12335   */\n      dup3\n        /* \"#utility.yul\":12327:12404   */\n      eq\n        /* \"#utility.yul\":12324:12581   */\n      iszero\n      tag_346\n      jumpi\n        /* \"#utility.yul\":12437:12514   */\n      0x4e487b7100000000000000000000000000000000000000000000000000000000\n        /* \"#utility.yul\":12434:12435   */\n      0x00\n        /* \"#utility.yul\":12427:12515   */\n      mstore\n        /* \"#utility.yul\":12538:12542   */\n      0x11\n        /* \"#utility.yul\":12535:12536   */\n      0x04\n        /* \"#utility.yul\":12528:12543   */\n      mstore\n        /* \"#utility.yul\":12566:12570   */\n      0x24\n        /* \"#utility.yul\":12563:12564   */\n      0x00\n        /* \"#utility.yul\":12556:12571   */\n      revert\n        /* \"#utility.yul\":12324:12581   */\n    tag_346:\n      pop\n        /* \"#utility.yul\":12608:12609   */\n      0x01\n        /* \"#utility.yul\":12597:12610   */\n      add\n      swap1\n        /* \"#utility.yul\":12267:12616   */\n      jump\t// out\n\n    auxdata: 0xa2646970667358221220b05d2a15662cf6ac8e0fea1b654e2e124292655dee2518379708836d02a2c65a64736f6c634300080c0033\n}\n",
				"bytecode": {
					"linkReferences": {},
					"object": "608060405234801561001057600080fd5b50604051611c63380380611c6383398101604081905261002f91610054565b600080546001600160a01b0319166001600160a01b0392909216919091179055610084565b60006020828403121561006657600080fd5b81516001600160a01b038116811461007d57600080fd5b9392505050565b611bd0806100936000396000f3fe608060405234801561001057600080fd5b50600436106100725760003560e01c8063cc3d618511610050578063cc3d6185146100c8578063e19d2ac3146100db578063fa8d96721461012057600080fd5b806352495b8b14610077578063b4ce4f3c1461008c578063c9c711c9146100b5575b600080fd5b61008a610085366004611532565b610140565b005b61009f61009a3660046115ba565b6105a2565b6040516100ac9190611671565b60405180910390f35b61008a6100c33660046115ba565b6108c6565b61008a6100d6366004611714565b610c9b565b6000546100fb9073ffffffffffffffffffffffffffffffffffffffff1681565b60405173ffffffffffffffffffffffffffffffffffffffff90911681526020016100ac565b61013361012e366004611873565b611134565b6040516100ac91906118d7565b8251839081906101b1576040517f08c379a000000000000000000000000000000000000000000000000000000000815260206004820152600860248201527f4e4f5f56414c554500000000000000000000000000000000000000000000000060448201526064015b60405180910390fd5b83518490819061021d576040517f08c379a000000000000000000000000000000000000000000000000000000000815260206004820152600860248201527f4e4f5f56414c554500000000000000000000000000000000000000000000000060448201526064016101a8565b845185908190610289576040517f08c379a000000000000000000000000000000000000000000000000000000000815260206004820152600860248201527f4e4f5f56414c554500000000000000000000000000000000000000000000000060448201526064016101a8565b600080546040517fae55c8880000000000000000000000000000000000000000000000000000000081528b929173ffffffffffffffffffffffffffffffffffffffff169063ae55c888906102e19085906004016118d7565b600060405180830381865afa1580156102fe573d6000803e3d6000fd5b505050506040513d6000823e601f3d9081017fffffffffffffffffffffffffffffffffffffffffffffffffffffffffffffffe016820160405261034491908101906118f1565b805190915073ffffffffffffffffffffffffffffffffffffffff16156103e957805173ffffffffffffffffffffffffffffffffffffffff1633146103e4576040517f08c379a000000000000000000000000000000000000000000000000000000000815260206004820152600960248201527f464f5242494444454e000000000000000000000000000000000000000000000060448201526064016101a8565b610451565b3315610451576040517f08c379a000000000000000000000000000000000000000000000000000000000815260206004820152601e60248201527f4e4f5420434f4e4649475552454420494e204d41494e2053544f52414745000060448201526064016101a8565b8860018c60405161046291906119c8565b90815260200160405180910390208b60405161047e91906119c8565b9081526020016040518091039020908051906020019061049f9291906112de565b5060038b6040516104b091906119c8565b90815260200160405180910390208a6040516104cc91906119c8565b9081526040519081900360200190205460ff1661059557600160038c6040516104f591906119c8565b90815260200160405180910390208b60405161051191906119c8565b90815260405190819003602001812080549215157fffffffffffffffffffffffffffffffffffffffffffffffffffffffffffffff009093169290921790915560029061055e908d906119c8565b9081526040516020918190038201902080546001810182556000918252908290208c51610593939190920191908d01906112de565b505b5050505050505050505050565b805160609082908190610611576040517f08c379a000000000000000000000000000000000000000000000000000000000815260206004820152600860248201527f4e4f5f56414c554500000000000000000000000000000000000000000000000060448201526064016101a8565b600060028560405161062391906119c8565b9081526040519081900360200190205467ffffffffffffffff81111561064b5761064b6113ef565b60405190808252806020026020018201604052801561069057816020015b60408051808201909152606080825260208201528152602001906001900390816106695790505b50905060005b6002866040516106a691906119c8565b908152604051908190036020019020548110156108bd5760405180604001604052806002886040516106d891906119c8565b908152602001604051809103902083815481106106f7576106f76119e4565b90600052602060002001805461070c90611a13565b80601f016020809104026020016040519081016040528092919081815260200182805461073890611a13565b80156107855780601f1061075a57610100808354040283529160200191610785565b820191906000526020600020905b81548152906001019060200180831161076857829003601f168201915b5050505050815260200160018860405161079f91906119c8565b90815260200160405180910390206002896040516107bd91906119c8565b908152602001604051809103902084815481106107dc576107dc6119e4565b906000526020600020016040516107f39190611a67565b9081526020016040518091039020805461080c90611a13565b80601f016020809104026020016040519081016040528092919081815260200182805461083890611a13565b80156108855780601f1061085a57610100808354040283529160200191610885565b820191906000526020600020905b81548152906001019060200180831161086857829003601f168201915b505050505081525082828151811061089f5761089f6119e4565b602002602001018190525080806108b590611b3a565b915050610696565b50949350505050565b805181908190610932576040517f08c379a000000000000000000000000000000000000000000000000000000000815260206004820152600860248201527f4e4f5f56414c554500000000000000000000000000000000000000000000000060448201526064016101a8565b600080546040517fae55c88800000000000000000000000000000000000000000000000000000000815285929173ffffffffffffffffffffffffffffffffffffffff169063ae55c8889061098a9085906004016118d7565b600060405180830381865afa1580156109a7573d6000803e3d6000fd5b505050506040513d6000823e601f3d9081017fffffffffffffffffffffffffffffffffffffffffffffffffffffffffffffffe01682016040526109ed91908101906118f1565b805190915073ffffffffffffffffffffffffffffffffffffffff1615610a9257805173ffffffffffffffffffffffffffffffffffffffff163314610a8d576040517f08c379a000000000000000000000000000000000000000000000000000000000815260206004820152600960248201527f464f5242494444454e000000000000000000000000000000000000000000000060448201526064016101a8565b610afa565b3315610afa576040517f08c379a000000000000000000000000000000000000000000000000000000000815260206004820152601e60248201527f4e4f5420434f4e4649475552454420494e204d41494e2053544f52414745000060448201526064016101a8565b60005b600286604051610b0d91906119c8565b90815260405190819003602001902054811015610c69576000600387604051610b3691906119c8565b9081526020016040518091039020600288604051610b5491906119c8565b90815260200160405180910390208381548110610b7357610b736119e4565b90600052602060002001604051610b8a9190611a67565b908152604080516020928190038301812080547fffffffffffffffffffffffffffffffffffffffffffffffffffffffffffffff00169415159490941790935590820181526000825251600190610be19089906119c8565b9081526020016040518091039020600288604051610bff91906119c8565b90815260200160405180910390208381548110610c1e57610c1e6119e4565b90600052602060002001604051610c359190611a67565b90815260200160405180910390209080519060200190610c569291906112de565b5080610c6181611b3a565b915050610afd565b50600285604051610c7a91906119c8565b90815260200160405180910390206000610c949190611362565b5050505050565b815182908190610d07576040517f08c379a000000000000000000000000000000000000000000000000000000000815260206004820152600860248201527f4e4f5f56414c554500000000000000000000000000000000000000000000000060448201526064016101a8565b600080546040517fae55c88800000000000000000000000000000000000000000000000000000000815286929173ffffffffffffffffffffffffffffffffffffffff169063ae55c88890610d5f9085906004016118d7565b600060405180830381865afa158015610d7c573d6000803e3d6000fd5b505050506040513d6000823e601f3d9081017fffffffffffffffffffffffffffffffffffffffffffffffffffffffffffffffe0168201604052610dc291908101906118f1565b805190915073ffffffffffffffffffffffffffffffffffffffff1615610e6757805173ffffffffffffffffffffffffffffffffffffffff163314610e62576040517f08c379a000000000000000000000000000000000000000000000000000000000815260206004820152600960248201527f464f5242494444454e000000000000000000000000000000000000000000000060448201526064016101a8565b610ecf565b3315610ecf576040517f08c379a000000000000000000000000000000000000000000000000000000000815260206004820152601e60248201527f4e4f5420434f4e4649475552454420494e204d41494e2053544f52414745000060448201526064016101a8565b8451610f37576040517f08c379a000000000000000000000000000000000000000000000000000000000815260206004820152600a60248201527f454d50545920444154410000000000000000000000000000000000000000000060448201526064016101a8565b60005b855181101561112b57858181518110610f5557610f556119e4565b602002602001015160200151600188604051610f7191906119c8565b9081526020016040518091039020878381518110610f9157610f916119e4565b602002602001015160000151604051610faa91906119c8565b90815260200160405180910390209080519060200190610fcb9291906112de565b50600387604051610fdc91906119c8565b9081526020016040518091039020868281518110610ffc57610ffc6119e4565b60200260200101516000015160405161101591906119c8565b9081526040519081900360200190205460ff1661111957600160038860405161103e91906119c8565b908152602001604051809103902087838151811061105e5761105e6119e4565b60200260200101516000015160405161107791906119c8565b90815260405190819003602001812080549215157fffffffffffffffffffffffffffffffffffffffffffffffffffffffffffffff00909316929092179091556002906110c49089906119c8565b90815260200160405180910390208682815181106110e4576110e46119e4565b602090810291909101810151518254600181018455600093845292829020815161111794919091019291909101906112de565b505b8061112381611b3a565b915050610f3a565b50505050505050565b8151606090839081906111a3576040517f08c379a000000000000000000000000000000000000000000000000000000000815260206004820152600860248201527f4e4f5f56414c554500000000000000000000000000000000000000000000000060448201526064016101a8565b83518490819061120f576040517f08c379a000000000000000000000000000000000000000000000000000000000815260206004820152600860248201527f4e4f5f56414c554500000000000000000000000000000000000000000000000060448201526064016101a8565b60018760405161121f91906119c8565b90815260200160405180910390208660405161123b91906119c8565b9081526020016040518091039020805461125490611a13565b80601f016020809104026020016040519081016040528092919081815260200182805461128090611a13565b80156112cd5780601f106112a2576101008083540402835291602001916112cd565b820191906000526020600020905b8154815290600101906020018083116112b057829003601f168201915b505050505094505050505092915050565b8280546112ea90611a13565b90600052602060002090601f01602090048101928261130c5760008555611352565b82601f1061132557805160ff1916838001178555611352565b82800160010185558215611352579182015b82811115611352578251825591602001919060010190611337565b5061135e929150611383565b5090565b50805460008255906000526020600020908101906113809190611398565b50565b5b8082111561135e5760008155600101611384565b8082111561135e5760006113ac82826113b5565b50600101611398565b5080546113c190611a13565b6000825580601f106113d1575050565b601f0160209004906000526020600020908101906113809190611383565b7f4e487b7100000000000000000000000000000000000000000000000000000000600052604160045260246000fd5b6040805190810167ffffffffffffffff81118282101715611441576114416113ef565b60405290565b604051601f82017fffffffffffffffffffffffffffffffffffffffffffffffffffffffffffffffe016810167ffffffffffffffff8111828210171561148e5761148e6113ef565b604052919050565b600067ffffffffffffffff8211156114b0576114b06113ef565b50601f017fffffffffffffffffffffffffffffffffffffffffffffffffffffffffffffffe01660200190565b600082601f8301126114ed57600080fd5b81356115006114fb82611496565b611447565b81815284602083860101111561151557600080fd5b816020850160208301376000918101602001919091529392505050565b60008060006060848603121561154757600080fd5b833567ffffffffffffffff8082111561155f57600080fd5b61156b878388016114dc565b9450602086013591508082111561158157600080fd5b61158d878388016114dc565b935060408601359150808211156115a357600080fd5b506115b0868287016114dc565b9150509250925092565b6000602082840312156115cc57600080fd5b813567ffffffffffffffff8111156115e357600080fd5b6115ef848285016114dc565b949350505050565b60005b838110156116125781810151838201526020016115fa565b83811115611621576000848401525b50505050565b6000815180845261163f8160208601602086016115f7565b601f017fffffffffffffffffffffffffffffffffffffffffffffffffffffffffffffffe0169290920160200192915050565b60006020808301818452808551808352604092508286019150828160051b87010184880160005b83811015611706577fffffffffffffffffffffffffffffffffffffffffffffffffffffffffffffffc0898403018552815180518785526116da88860182611627565b91890151858303868b01529190506116f28183611627565b968901969450505090860190600101611698565b509098975050505050505050565b600080604080848603121561172857600080fd5b833567ffffffffffffffff8082111561174057600080fd5b61174c878388016114dc565b945060209150818601358181111561176357600080fd5b8601601f8101881361177457600080fd5b803582811115611786576117866113ef565b8060051b611795858201611447565b918252828101850191858101908b8411156117af57600080fd5b86850192505b83831015611861578235868111156117cd5760008081fd5b8501808d037fffffffffffffffffffffffffffffffffffffffffffffffffffffffffffffffe0018913156118015760008081fd5b61180961141e565b888201358881111561181b5760008081fd5b6118298f8b838601016114dc565b825250898201358881111561183e5760008081fd5b61184c8f8b838601016114dc565b828b01525083525091860191908601906117b5565b80985050505050505050509250929050565b6000806040838503121561188657600080fd5b823567ffffffffffffffff8082111561189e57600080fd5b6118aa868387016114dc565b935060208501359150808211156118c057600080fd5b506118cd858286016114dc565b9150509250929050565b6020815260006118ea6020830184611627565b9392505050565b6000602080838503121561190457600080fd5b825167ffffffffffffffff8082111561191c57600080fd5b908401906040828703121561193057600080fd5b61193861141e565b825173ffffffffffffffffffffffffffffffffffffffff8116811461195c57600080fd5b8152828401518281111561196f57600080fd5b80840193505086601f84011261198457600080fd5b825191506119946114fb83611496565b82815287858486010111156119a857600080fd5b6119b7838683018787016115f7565b938101939093525090949350505050565b600082516119da8184602087016115f7565b9190910192915050565b7f4e487b7100000000000000000000000000000000000000000000000000000000600052603260045260246000fd5b600181811c90821680611a2757607f821691505b60208210811415611a61577f4e487b7100000000000000000000000000000000000000000000000000000000600052602260045260246000fd5b50919050565b600080835481600182811c915080831680611a8357607f831692505b6020808410821415611abc577f4e487b710000000000000000000000000000000000000000000000000000000086526022600452602486fd5b818015611ad05760018114611aff57611b2c565b7fffffffffffffffffffffffffffffffffffffffffffffffffffffffffffffff00861689528489019650611b2c565b60008a81526020902060005b86811015611b245781548b820152908501908301611b0b565b505084890196505b509498975050505050505050565b60007fffffffffffffffffffffffffffffffffffffffffffffffffffffffffffffffff821415611b93577f4e487b7100000000000000000000000000000000000000000000000000000000600052601160045260246000fd5b506001019056fea2646970667358221220b05d2a15662cf6ac8e0fea1b654e2e124292655dee2518379708836d02a2c65a64736f6c634300080c0033",
					"opcodes": "PUSH1 0x80 PUSH1 0x40 MSTORE CALLVALUE DUP1 ISZERO PUSH2 0x10 JUMPI PUSH1 0x0 DUP1 REVERT JUMPDEST POP PUSH1 0x40 MLOAD PUSH2 0x1C63 CODESIZE SUB DUP1 PUSH2 0x1C63 DUP4 CODECOPY DUP2 ADD PUSH1 0x40 DUP2 SWAP1 MSTORE PUSH2 0x2F SWAP2 PUSH2 0x54 JUMP JUMPDEST PUSH1 0x0 DUP1 SLOAD PUSH1 0x1 PUSH1 0x1 PUSH1 0xA0 SHL SUB NOT AND PUSH1 0x1 PUSH1 0x1 PUSH1 0xA0 SHL SUB SWAP3 SWAP1 SWAP3 AND SWAP2 SWAP1 SWAP2 OR SWAP1 SSTORE PUSH2 0x84 JUMP JUMPDEST PUSH1 0x0 PUSH1 0x20 DUP3 DUP5 SUB SLT ISZERO PUSH2 0x66 JUMPI PUSH1 0x0 DUP1 REVERT JUMPDEST DUP2 MLOAD PUSH1 0x1 PUSH1 0x1 PUSH1 0xA0 SHL SUB DUP2 AND DUP2 EQ PUSH2 0x7D JUMPI PUSH1 0x0 DUP1 REVERT JUMPDEST SWAP4 SWAP3 POP POP POP JUMP JUMPDEST PUSH2 0x1BD0 DUP1 PUSH2 0x93 PUSH1 0x0 CODECOPY PUSH1 0x0 RETURN INVALID PUSH1 0x80 PUSH1 0x40 MSTORE CALLVALUE DUP1 ISZERO PUSH2 0x10 JUMPI PUSH1 0x0 DUP1 REVERT JUMPDEST POP PUSH1 0x4 CALLDATASIZE LT PUSH2 0x72 JUMPI PUSH1 0x0 CALLDATALOAD PUSH1 0xE0 SHR DUP1 PUSH4 0xCC3D6185 GT PUSH2 0x50 JUMPI DUP1 PUSH4 0xCC3D6185 EQ PUSH2 0xC8 JUMPI DUP1 PUSH4 0xE19D2AC3 EQ PUSH2 0xDB JUMPI DUP1 PUSH4 0xFA8D9672 EQ PUSH2 0x120 JUMPI PUSH1 0x0 DUP1 REVERT JUMPDEST DUP1 PUSH4 0x52495B8B EQ PUSH2 0x77 JUMPI DUP1 PUSH4 0xB4CE4F3C EQ PUSH2 0x8C JUMPI DUP1 PUSH4 0xC9C711C9 EQ PUSH2 0xB5 JUMPI JUMPDEST PUSH1 0x0 DUP1 REVERT JUMPDEST PUSH2 0x8A PUSH2 0x85 CALLDATASIZE PUSH1 0x4 PUSH2 0x1532 JUMP JUMPDEST PUSH2 0x140 JUMP JUMPDEST STOP JUMPDEST PUSH2 0x9F PUSH2 0x9A CALLDATASIZE PUSH1 0x4 PUSH2 0x15BA JUMP JUMPDEST PUSH2 0x5A2 JUMP JUMPDEST PUSH1 0x40 MLOAD PUSH2 0xAC SWAP2 SWAP1 PUSH2 0x1671 JUMP JUMPDEST PUSH1 0x40 MLOAD DUP1 SWAP2 SUB SWAP1 RETURN JUMPDEST PUSH2 0x8A PUSH2 0xC3 CALLDATASIZE PUSH1 0x4 PUSH2 0x15BA JUMP JUMPDEST PUSH2 0x8C6 JUMP JUMPDEST PUSH2 0x8A PUSH2 0xD6 CALLDATASIZE PUSH1 0x4 PUSH2 0x1714 JUMP JUMPDEST PUSH2 0xC9B JUMP JUMPDEST PUSH1 0x0 SLOAD PUSH2 0xFB SWAP1 PUSH20 0xFFFFFFFFFFFFFFFFFFFFFFFFFFFFFFFFFFFFFFFF AND DUP2 JUMP JUMPDEST PUSH1 0x40 MLOAD PUSH20 0xFFFFFFFFFFFFFFFFFFFFFFFFFFFFFFFFFFFFFFFF SWAP1 SWAP2 AND DUP2 MSTORE PUSH1 0x20 ADD PUSH2 0xAC JUMP JUMPDEST PUSH2 0x133 PUSH2 0x12E CALLDATASIZE PUSH1 0x4 PUSH2 0x1873 JUMP JUMPDEST PUSH2 0x1134 JUMP JUMPDEST PUSH1 0x40 MLOAD PUSH2 0xAC SWAP2 SWAP1 PUSH2 0x18D7 JUMP JUMPDEST DUP3 MLOAD DUP4 SWAP1 DUP2 SWAP1 PUSH2 0x1B1 JUMPI PUSH1 0x40 MLOAD PUSH32 0x8C379A000000000000000000000000000000000000000000000000000000000 DUP2 MSTORE PUSH1 0x20 PUSH1 0x4 DUP3 ADD MSTORE PUSH1 0x8 PUSH1 0x24 DUP3 ADD MSTORE PUSH32 0x4E4F5F56414C5545000000000000000000000000000000000000000000000000 PUSH1 0x44 DUP3 ADD MSTORE PUSH1 0x64 ADD JUMPDEST PUSH1 0x40 MLOAD DUP1 SWAP2 SUB SWAP1 REVERT JUMPDEST DUP4 MLOAD DUP5 SWAP1 DUP2 SWAP1 PUSH2 0x21D JUMPI PUSH1 0x40 MLOAD PUSH32 0x8C379A000000000000000000000000000000000000000000000000000000000 DUP2 MSTORE PUSH1 0x20 PUSH1 0x4 DUP3 ADD MSTORE PUSH1 0x8 PUSH1 0x24 DUP3 ADD MSTORE PUSH32 0x4E4F5F56414C5545000000000000000000000000000000000000000000000000 PUSH1 0x44 DUP3 ADD MSTORE PUSH1 0x64 ADD PUSH2 0x1A8 JUMP JUMPDEST DUP5 MLOAD DUP6 SWAP1 DUP2 SWAP1 PUSH2 0x289 JUMPI PUSH1 0x40 MLOAD PUSH32 0x8C379A000000000000000000000000000000000000000000000000000000000 DUP2 MSTORE PUSH1 0x20 PUSH1 0x4 DUP3 ADD MSTORE PUSH1 0x8 PUSH1 0x24 DUP3 ADD MSTORE PUSH32 0x4E4F5F56414C5545000000000000000000000000000000000000000000000000 PUSH1 0x44 DUP3 ADD MSTORE PUSH1 0x64 ADD PUSH2 0x1A8 JUMP JUMPDEST PUSH1 0x0 DUP1 SLOAD PUSH1 0x40 MLOAD PUSH32 0xAE55C88800000000000000000000000000000000000000000000000000000000 DUP2 MSTORE DUP12 SWAP3 SWAP2 PUSH20 0xFFFFFFFFFFFFFFFFFFFFFFFFFFFFFFFFFFFFFFFF AND SWAP1 PUSH4 0xAE55C888 SWAP1 PUSH2 0x2E1 SWAP1 DUP6 SWAP1 PUSH1 0x4 ADD PUSH2 0x18D7 JUMP JUMPDEST PUSH1 0x0 PUSH1 0x40 MLOAD DUP1 DUP4 SUB DUP2 DUP7 GAS STATICCALL ISZERO DUP1 ISZERO PUSH2 0x2FE JUMPI RETURNDATASIZE PUSH1 0x0 DUP1 RETURNDATACOPY RETURNDATASIZE PUSH1 0x0 REVERT JUMPDEST POP POP POP POP PUSH1 0x40 MLOAD RETURNDATASIZE PUSH1 0x0 DUP3 RETURNDATACOPY PUSH1 0x1F RETURNDATASIZE SWAP1 DUP2 ADD PUSH32 0xFFFFFFFFFFFFFFFFFFFFFFFFFFFFFFFFFFFFFFFFFFFFFFFFFFFFFFFFFFFFFFE0 AND DUP3 ADD PUSH1 0x40 MSTORE PUSH2 0x344 SWAP2 SWAP1 DUP2 ADD SWAP1 PUSH2 0x18F1 JUMP JUMPDEST DUP1 MLOAD SWAP1 SWAP2 POP PUSH20 0xFFFFFFFFFFFFFFFFFFFFFFFFFFFFFFFFFFFFFFFF AND ISZERO PUSH2 0x3E9 JUMPI DUP1 MLOAD PUSH20 0xFFFFFFFFFFFFFFFFFFFFFFFFFFFFFFFFFFFFFFFF AND CALLER EQ PUSH2 0x3E4 JUMPI PUSH1 0x40 MLOAD PUSH32 0x8C379A000000000000000000000000000000000000000000000000000000000 DUP2 MSTORE PUSH1 0x20 PUSH1 0x4 DUP3 ADD MSTORE PUSH1 0x9 PUSH1 0x24 DUP3 ADD MSTORE PUSH32 0x464F5242494444454E0000000000000000000000000000000000000000000000 PUSH1 0x44 DUP3 ADD MSTORE PUSH1 0x64 ADD PUSH2 0x1A8 JUMP JUMPDEST PUSH2 0x451 JUMP JUMPDEST CALLER ISZERO PUSH2 0x451 JUMPI PUSH1 0x40 MLOAD PUSH32 0x8C379A000000000000000000000000000000000000000000000000000000000 DUP2 MSTORE PUSH1 0x20 PUSH1 0x4 DUP3 ADD MSTORE PUSH1 0x1E PUSH1 0x24 DUP3 ADD MSTORE PUSH32 0x4E4F5420434F4E4649475552454420494E204D41494E2053544F524147450000 PUSH1 0x44 DUP3 ADD MSTORE PUSH1 0x64 ADD PUSH2 0x1A8 JUMP JUMPDEST DUP9 PUSH1 0x1 DUP13 PUSH1 0x40 MLOAD PUSH2 0x462 SWAP2 SWAP1 PUSH2 0x19C8 JUMP JUMPDEST SWAP1 DUP2 MSTORE PUSH1 0x20 ADD PUSH1 0x40 MLOAD DUP1 SWAP2 SUB SWAP1 KECCAK256 DUP12 PUSH1 0x40 MLOAD PUSH2 0x47E SWAP2 SWAP1 PUSH2 0x19C8 JUMP JUMPDEST SWAP1 DUP2 MSTORE PUSH1 0x20 ADD PUSH1 0x40 MLOAD DUP1 SWAP2 SUB SWAP1 KECCAK256 SWAP1 DUP1 MLOAD SWAP1 PUSH1 0x20 ADD SWAP1 PUSH2 0x49F SWAP3 SWAP2 SWAP1 PUSH2 0x12DE JUMP JUMPDEST POP PUSH1 0x3 DUP12 PUSH1 0x40 MLOAD PUSH2 0x4B0 SWAP2 SWAP1 PUSH2 0x19C8 JUMP JUMPDEST SWAP1 DUP2 MSTORE PUSH1 0x20 ADD PUSH1 0x40 MLOAD DUP1 SWAP2 SUB SWAP1 KECCAK256 DUP11 PUSH1 0x40 MLOAD PUSH2 0x4CC SWAP2 SWAP1 PUSH2 0x19C8 JUMP JUMPDEST SWAP1 DUP2 MSTORE PUSH1 0x40 MLOAD SWAP1 DUP2 SWAP1 SUB PUSH1 0x20 ADD SWAP1 KECCAK256 SLOAD PUSH1 0xFF AND PUSH2 0x595 JUMPI PUSH1 0x1 PUSH1 0x3 DUP13 PUSH1 0x40 MLOAD PUSH2 0x4F5 SWAP2 SWAP1 PUSH2 0x19C8 JUMP JUMPDEST SWAP1 DUP2 MSTORE PUSH1 0x20 ADD PUSH1 0x40 MLOAD DUP1 SWAP2 SUB SWAP1 KECCAK256 DUP12 PUSH1 0x40 MLOAD PUSH2 0x511 SWAP2 SWAP1 PUSH2 0x19C8 JUMP JUMPDEST SWAP1 DUP2 MSTORE PUSH1 0x40 MLOAD SWAP1 DUP2 SWAP1 SUB PUSH1 0x20 ADD DUP2 KECCAK256 DUP1 SLOAD SWAP3 ISZERO ISZERO PUSH32 0xFFFFFFFFFFFFFFFFFFFFFFFFFFFFFFFFFFFFFFFFFFFFFFFFFFFFFFFFFFFFFF00 SWAP1 SWAP4 AND SWAP3 SWAP1 SWAP3 OR SWAP1 SWAP2 SSTORE PUSH1 0x2 SWAP1 PUSH2 0x55E SWAP1 DUP14 SWAP1 PUSH2 0x19C8 JUMP JUMPDEST SWAP1 DUP2 MSTORE PUSH1 0x40 MLOAD PUSH1 0x20 SWAP2 DUP2 SWAP1 SUB DUP3 ADD SWAP1 KECCAK256 DUP1 SLOAD PUSH1 0x1 DUP2 ADD DUP3 SSTORE PUSH1 0x0 SWAP2 DUP3 MSTORE SWAP1 DUP3 SWAP1 KECCAK256 DUP13 MLOAD PUSH2 0x593 SWAP4 SWAP2 SWAP1 SWAP3 ADD SWAP2 SWAP1 DUP14 ADD SWAP1 PUSH2 0x12DE JUMP JUMPDEST POP JUMPDEST POP POP POP POP POP POP POP POP POP POP POP JUMP JUMPDEST DUP1 MLOAD PUSH1 0x60 SWAP1 DUP3 SWAP1 DUP2 SWAP1 PUSH2 0x611 JUMPI PUSH1 0x40 MLOAD PUSH32 0x8C379A000000000000000000000000000000000000000000000000000000000 DUP2 MSTORE PUSH1 0x20 PUSH1 0x4 DUP3 ADD MSTORE PUSH1 0x8 PUSH1 0x24 DUP3 ADD MSTORE PUSH32 0x4E4F5F56414C5545000000000000000000000000000000000000000000000000 PUSH1 0x44 DUP3 ADD MSTORE PUSH1 0x64 ADD PUSH2 0x1A8 JUMP JUMPDEST PUSH1 0x0 PUSH1 0x2 DUP6 PUSH1 0x40 MLOAD PUSH2 0x623 SWAP2 SWAP1 PUSH2 0x19C8 JUMP JUMPDEST SWAP1 DUP2 MSTORE PUSH1 0x40 MLOAD SWAP1 DUP2 SWAP1 SUB PUSH1 0x20 ADD SWAP1 KECCAK256 SLOAD PUSH8 0xFFFFFFFFFFFFFFFF DUP2 GT ISZERO PUSH2 0x64B JUMPI PUSH2 0x64B PUSH2 0x13EF JUMP JUMPDEST PUSH1 0x40 MLOAD SWAP1 DUP1 DUP3 MSTORE DUP1 PUSH1 0x20 MUL PUSH1 0x20 ADD DUP3 ADD PUSH1 0x40 MSTORE DUP1 ISZERO PUSH2 0x690 JUMPI DUP2 PUSH1 0x20 ADD JUMPDEST PUSH1 0x40 DUP1 MLOAD DUP1 DUP3 ADD SWAP1 SWAP2 MSTORE PUSH1 0x60 DUP1 DUP3 MSTORE PUSH1 0x20 DUP3 ADD MSTORE DUP2 MSTORE PUSH1 0x20 ADD SWAP1 PUSH1 0x1 SWAP1 SUB SWAP1 DUP2 PUSH2 0x669 JUMPI SWAP1 POP JUMPDEST POP SWAP1 POP PUSH1 0x0 JUMPDEST PUSH1 0x2 DUP7 PUSH1 0x40 MLOAD PUSH2 0x6A6 SWAP2 SWAP1 PUSH2 0x19C8 JUMP JUMPDEST SWAP1 DUP2 MSTORE PUSH1 0x40 MLOAD SWAP1 DUP2 SWAP1 SUB PUSH1 0x20 ADD SWAP1 KECCAK256 SLOAD DUP2 LT ISZERO PUSH2 0x8BD JUMPI PUSH1 0x40 MLOAD DUP1 PUSH1 0x40 ADD PUSH1 0x40 MSTORE DUP1 PUSH1 0x2 DUP9 PUSH1 0x40 MLOAD PUSH2 0x6D8 SWAP2 SWAP1 PUSH2 0x19C8 JUMP JUMPDEST SWAP1 DUP2 MSTORE PUSH1 0x20 ADD PUSH1 0x40 MLOAD DUP1 SWAP2 SUB SWAP1 KECCAK256 DUP4 DUP2 SLOAD DUP2 LT PUSH2 0x6F7 JUMPI PUSH2 0x6F7 PUSH2 0x19E4 JUMP JUMPDEST SWAP1 PUSH1 0x0 MSTORE PUSH1 0x20 PUSH1 0x0 KECCAK256 ADD DUP1 SLOAD PUSH2 0x70C SWAP1 PUSH2 0x1A13 JUMP JUMPDEST DUP1 PUSH1 0x1F ADD PUSH1 0x20 DUP1 SWAP2 DIV MUL PUSH1 0x20 ADD PUSH1 0x40 MLOAD SWAP1 DUP2 ADD PUSH1 0x40 MSTORE DUP1 SWAP3 SWAP2 SWAP1 DUP2 DUP2 MSTORE PUSH1 0x20 ADD DUP3 DUP1 SLOAD PUSH2 0x738 SWAP1 PUSH2 0x1A13 JUMP JUMPDEST DUP1 ISZERO PUSH2 0x785 JUMPI DUP1 PUSH1 0x1F LT PUSH2 0x75A JUMPI PUSH2 0x100 DUP1 DUP4 SLOAD DIV MUL DUP4 MSTORE SWAP2 PUSH1 0x20 ADD SWAP2 PUSH2 0x785 JUMP JUMPDEST DUP3 ADD SWAP2 SWAP1 PUSH1 0x0 MSTORE PUSH1 0x20 PUSH1 0x0 KECCAK256 SWAP1 JUMPDEST DUP2 SLOAD DUP2 MSTORE SWAP1 PUSH1 0x1 ADD SWAP1 PUSH1 0x20 ADD DUP1 DUP4 GT PUSH2 0x768 JUMPI DUP3 SWAP1 SUB PUSH1 0x1F AND DUP3 ADD SWAP2 JUMPDEST POP POP POP POP POP DUP2 MSTORE PUSH1 0x20 ADD PUSH1 0x1 DUP9 PUSH1 0x40 MLOAD PUSH2 0x79F SWAP2 SWAP1 PUSH2 0x19C8 JUMP JUMPDEST SWAP1 DUP2 MSTORE PUSH1 0x20 ADD PUSH1 0x40 MLOAD DUP1 SWAP2 SUB SWAP1 KECCAK256 PUSH1 0x2 DUP10 PUSH1 0x40 MLOAD PUSH2 0x7BD SWAP2 SWAP1 PUSH2 0x19C8 JUMP JUMPDEST SWAP1 DUP2 MSTORE PUSH1 0x20 ADD PUSH1 0x40 MLOAD DUP1 SWAP2 SUB SWAP1 KECCAK256 DUP5 DUP2 SLOAD DUP2 LT PUSH2 0x7DC JUMPI PUSH2 0x7DC PUSH2 0x19E4 JUMP JUMPDEST SWAP1 PUSH1 0x0 MSTORE PUSH1 0x20 PUSH1 0x0 KECCAK256 ADD PUSH1 0x40 MLOAD PUSH2 0x7F3 SWAP2 SWAP1 PUSH2 0x1A67 JUMP JUMPDEST SWAP1 DUP2 MSTORE PUSH1 0x20 ADD PUSH1 0x40 MLOAD DUP1 SWAP2 SUB SWAP1 KECCAK256 DUP1 SLOAD PUSH2 0x80C SWAP1 PUSH2 0x1A13 JUMP JUMPDEST DUP1 PUSH1 0x1F ADD PUSH1 0x20 DUP1 SWAP2 DIV MUL PUSH1 0x20 ADD PUSH1 0x40 MLOAD SWAP1 DUP2 ADD PUSH1 0x40 MSTORE DUP1 SWAP3 SWAP2 SWAP1 DUP2 DUP2 MSTORE PUSH1 0x20 ADD DUP3 DUP1 SLOAD PUSH2 0x838 SWAP1 PUSH2 0x1A13 JUMP JUMPDEST DUP1 ISZERO PUSH2 0x885 JUMPI DUP1 PUSH1 0x1F LT PUSH2 0x85A JUMPI PUSH2 0x100 DUP1 DUP4 SLOAD DIV MUL DUP4 MSTORE SWAP2 PUSH1 0x20 ADD SWAP2 PUSH2 0x885 JUMP JUMPDEST DUP3 ADD SWAP2 SWAP1 PUSH1 0x0 MSTORE PUSH1 0x20 PUSH1 0x0 KECCAK256 SWAP1 JUMPDEST DUP2 SLOAD DUP2 MSTORE SWAP1 PUSH1 0x1 ADD SWAP1 PUSH1 0x20 ADD DUP1 DUP4 GT PUSH2 0x868 JUMPI DUP3 SWAP1 SUB PUSH1 0x1F AND DUP3 ADD SWAP2 JUMPDEST POP POP POP POP POP DUP2 MSTORE POP DUP3 DUP3 DUP2 MLOAD DUP2 LT PUSH2 0x89F JUMPI PUSH2 0x89F PUSH2 0x19E4 JUMP JUMPDEST PUSH1 0x20 MUL PUSH1 0x20 ADD ADD DUP2 SWAP1 MSTORE POP DUP1 DUP1 PUSH2 0x8B5 SWAP1 PUSH2 0x1B3A JUMP JUMPDEST SWAP2 POP POP PUSH2 0x696 JUMP JUMPDEST POP SWAP5 SWAP4 POP POP POP POP JUMP JUMPDEST DUP1 MLOAD DUP2 SWAP1 DUP2 SWAP1 PUSH2 0x932 JUMPI PUSH1 0x40 MLOAD PUSH32 0x8C379A000000000000000000000000000000000000000000000000000000000 DUP2 MSTORE PUSH1 0x20 PUSH1 0x4 DUP3 ADD MSTORE PUSH1 0x8 PUSH1 0x24 DUP3 ADD MSTORE PUSH32 0x4E4F5F56414C5545000000000000000000000000000000000000000000000000 PUSH1 0x44 DUP3 ADD MSTORE PUSH1 0x64 ADD PUSH2 0x1A8 JUMP JUMPDEST PUSH1 0x0 DUP1 SLOAD PUSH1 0x40 MLOAD PUSH32 0xAE55C88800000000000000000000000000000000000000000000000000000000 DUP2 MSTORE DUP6 SWAP3 SWAP2 PUSH20 0xFFFFFFFFFFFFFFFFFFFFFFFFFFFFFFFFFFFFFFFF AND SWAP1 PUSH4 0xAE55C888 SWAP1 PUSH2 0x98A SWAP1 DUP6 SWAP1 PUSH1 0x4 ADD PUSH2 0x18D7 JUMP JUMPDEST PUSH1 0x0 PUSH1 0x40 MLOAD DUP1 DUP4 SUB DUP2 DUP7 GAS STATICCALL ISZERO DUP1 ISZERO PUSH2 0x9A7 JUMPI RETURNDATASIZE PUSH1 0x0 DUP1 RETURNDATACOPY RETURNDATASIZE PUSH1 0x0 REVERT JUMPDEST POP POP POP POP PUSH1 0x40 MLOAD RETURNDATASIZE PUSH1 0x0 DUP3 RETURNDATACOPY PUSH1 0x1F RETURNDATASIZE SWAP1 DUP2 ADD PUSH32 0xFFFFFFFFFFFFFFFFFFFFFFFFFFFFFFFFFFFFFFFFFFFFFFFFFFFFFFFFFFFFFFE0 AND DUP3 ADD PUSH1 0x40 MSTORE PUSH2 0x9ED SWAP2 SWAP1 DUP2 ADD SWAP1 PUSH2 0x18F1 JUMP JUMPDEST DUP1 MLOAD SWAP1 SWAP2 POP PUSH20 0xFFFFFFFFFFFFFFFFFFFFFFFFFFFFFFFFFFFFFFFF AND ISZERO PUSH2 0xA92 JUMPI DUP1 MLOAD PUSH20 0xFFFFFFFFFFFFFFFFFFFFFFFFFFFFFFFFFFFFFFFF AND CALLER EQ PUSH2 0xA8D JUMPI PUSH1 0x40 MLOAD PUSH32 0x8C379A000000000000000000000000000000000000000000000000000000000 DUP2 MSTORE PUSH1 0x20 PUSH1 0x4 DUP3 ADD MSTORE PUSH1 0x9 PUSH1 0x24 DUP3 ADD MSTORE PUSH32 0x464F5242494444454E0000000000000000000000000000000000000000000000 PUSH1 0x44 DUP3 ADD MSTORE PUSH1 0x64 ADD PUSH2 0x1A8 JUMP JUMPDEST PUSH2 0xAFA JUMP JUMPDEST CALLER ISZERO PUSH2 0xAFA JUMPI PUSH1 0x40 MLOAD PUSH32 0x8C379A000000000000000000000000000000000000000000000000000000000 DUP2 MSTORE PUSH1 0x20 PUSH1 0x4 DUP3 ADD MSTORE PUSH1 0x1E PUSH1 0x24 DUP3 ADD MSTORE PUSH32 0x4E4F5420434F4E4649475552454420494E204D41494E2053544F524147450000 PUSH1 0x44 DUP3 ADD MSTORE PUSH1 0x64 ADD PUSH2 0x1A8 JUMP JUMPDEST PUSH1 0x0 JUMPDEST PUSH1 0x2 DUP7 PUSH1 0x40 MLOAD PUSH2 0xB0D SWAP2 SWAP1 PUSH2 0x19C8 JUMP JUMPDEST SWAP1 DUP2 MSTORE PUSH1 0x40 MLOAD SWAP1 DUP2 SWAP1 SUB PUSH1 0x20 ADD SWAP1 KECCAK256 SLOAD DUP2 LT ISZERO PUSH2 0xC69 JUMPI PUSH1 0x0 PUSH1 0x3 DUP8 PUSH1 0x40 MLOAD PUSH2 0xB36 SWAP2 SWAP1 PUSH2 0x19C8 JUMP JUMPDEST SWAP1 DUP2 MSTORE PUSH1 0x20 ADD PUSH1 0x40 MLOAD DUP1 SWAP2 SUB SWAP1 KECCAK256 PUSH1 0x2 DUP9 PUSH1 0x40 MLOAD PUSH2 0xB54 SWAP2 SWAP1 PUSH2 0x19C8 JUMP JUMPDEST SWAP1 DUP2 MSTORE PUSH1 0x20 ADD PUSH1 0x40 MLOAD DUP1 SWAP2 SUB SWAP1 KECCAK256 DUP4 DUP2 SLOAD DUP2 LT PUSH2 0xB73 JUMPI PUSH2 0xB73 PUSH2 0x19E4 JUMP JUMPDEST SWAP1 PUSH1 0x0 MSTORE PUSH1 0x20 PUSH1 0x0 KECCAK256 ADD PUSH1 0x40 MLOAD PUSH2 0xB8A SWAP2 SWAP1 PUSH2 0x1A67 JUMP JUMPDEST SWAP1 DUP2 MSTORE PUSH1 0x40 DUP1 MLOAD PUSH1 0x20 SWAP3 DUP2 SWAP1 SUB DUP4 ADD DUP2 KECCAK256 DUP1 SLOAD PUSH32 0xFFFFFFFFFFFFFFFFFFFFFFFFFFFFFFFFFFFFFFFFFFFFFFFFFFFFFFFFFFFFFF00 AND SWAP5 ISZERO ISZERO SWAP5 SWAP1 SWAP5 OR SWAP1 SWAP4 SSTORE SWAP1 DUP3 ADD DUP2 MSTORE PUSH1 0x0 DUP3 MSTORE MLOAD PUSH1 0x1 SWAP1 PUSH2 0xBE1 SWAP1 DUP10 SWAP1 PUSH2 0x19C8 JUMP JUMPDEST SWAP1 DUP2 MSTORE PUSH1 0x20 ADD PUSH1 0x40 MLOAD DUP1 SWAP2 SUB SWAP1 KECCAK256 PUSH1 0x2 DUP9 PUSH1 0x40 MLOAD PUSH2 0xBFF SWAP2 SWAP1 PUSH2 0x19C8 JUMP JUMPDEST SWAP1 DUP2 MSTORE PUSH1 0x20 ADD PUSH1 0x40 MLOAD DUP1 SWAP2 SUB SWAP1 KECCAK256 DUP4 DUP2 SLOAD DUP2 LT PUSH2 0xC1E JUMPI PUSH2 0xC1E PUSH2 0x19E4 JUMP JUMPDEST SWAP1 PUSH1 0x0 MSTORE PUSH1 0x20 PUSH1 0x0 KECCAK256 ADD PUSH1 0x40 MLOAD PUSH2 0xC35 SWAP2 SWAP1 PUSH2 0x1A67 JUMP JUMPDEST SWAP1 DUP2 MSTORE PUSH1 0x20 ADD PUSH1 0x40 MLOAD DUP1 SWAP2 SUB SWAP1 KECCAK256 SWAP1 DUP1 MLOAD SWAP1 PUSH1 0x20 ADD SWAP1 PUSH2 0xC56 SWAP3 SWAP2 SWAP1 PUSH2 0x12DE JUMP JUMPDEST POP DUP1 PUSH2 0xC61 DUP2 PUSH2 0x1B3A JUMP JUMPDEST SWAP2 POP POP PUSH2 0xAFD JUMP JUMPDEST POP PUSH1 0x2 DUP6 PUSH1 0x40 MLOAD PUSH2 0xC7A SWAP2 SWAP1 PUSH2 0x19C8 JUMP JUMPDEST SWAP1 DUP2 MSTORE PUSH1 0x20 ADD PUSH1 0x40 MLOAD DUP1 SWAP2 SUB SWAP1 KECCAK256 PUSH1 0x0 PUSH2 0xC94 SWAP2 SWAP1 PUSH2 0x1362 JUMP JUMPDEST POP POP POP POP POP JUMP JUMPDEST DUP2 MLOAD DUP3 SWAP1 DUP2 SWAP1 PUSH2 0xD07 JUMPI PUSH1 0x40 MLOAD PUSH32 0x8C379A000000000000000000000000000000000000000000000000000000000 DUP2 MSTORE PUSH1 0x20 PUSH1 0x4 DUP3 ADD MSTORE PUSH1 0x8 PUSH1 0x24 DUP3 ADD MSTORE PUSH32 0x4E4F5F56414C5545000000000000000000000000000000000000000000000000 PUSH1 0x44 DUP3 ADD MSTORE PUSH1 0x64 ADD PUSH2 0x1A8 JUMP JUMPDEST PUSH1 0x0 DUP1 SLOAD PUSH1 0x40 MLOAD PUSH32 0xAE55C88800000000000000000000000000000000000000000000000000000000 DUP2 MSTORE DUP7 SWAP3 SWAP2 PUSH20 0xFFFFFFFFFFFFFFFFFFFFFFFFFFFFFFFFFFFFFFFF AND SWAP1 PUSH4 0xAE55C888 SWAP1 PUSH2 0xD5F SWAP1 DUP6 SWAP1 PUSH1 0x4 ADD PUSH2 0x18D7 JUMP JUMPDEST PUSH1 0x0 PUSH1 0x40 MLOAD DUP1 DUP4 SUB DUP2 DUP7 GAS STATICCALL ISZERO DUP1 ISZERO PUSH2 0xD7C JUMPI RETURNDATASIZE PUSH1 0x0 DUP1 RETURNDATACOPY RETURNDATASIZE PUSH1 0x0 REVERT JUMPDEST POP POP POP POP PUSH1 0x40 MLOAD RETURNDATASIZE PUSH1 0x0 DUP3 RETURNDATACOPY PUSH1 0x1F RETURNDATASIZE SWAP1 DUP2 ADD PUSH32 0xFFFFFFFFFFFFFFFFFFFFFFFFFFFFFFFFFFFFFFFFFFFFFFFFFFFFFFFFFFFFFFE0 AND DUP3 ADD PUSH1 0x40 MSTORE PUSH2 0xDC2 SWAP2 SWAP1 DUP2 ADD SWAP1 PUSH2 0x18F1 JUMP JUMPDEST DUP1 MLOAD SWAP1 SWAP2 POP PUSH20 0xFFFFFFFFFFFFFFFFFFFFFFFFFFFFFFFFFFFFFFFF AND ISZERO PUSH2 0xE67 JUMPI DUP1 MLOAD PUSH20 0xFFFFFFFFFFFFFFFFFFFFFFFFFFFFFFFFFFFFFFFF AND CALLER EQ PUSH2 0xE62 JUMPI PUSH1 0x40 MLOAD PUSH32 0x8C379A000000000000000000000000000000000000000000000000000000000 DUP2 MSTORE PUSH1 0x20 PUSH1 0x4 DUP3 ADD MSTORE PUSH1 0x9 PUSH1 0x24 DUP3 ADD MSTORE PUSH32 0x464F5242494444454E0000000000000000000000000000000000000000000000 PUSH1 0x44 DUP3 ADD MSTORE PUSH1 0x64 ADD PUSH2 0x1A8 JUMP JUMPDEST PUSH2 0xECF JUMP JUMPDEST CALLER ISZERO PUSH2 0xECF JUMPI PUSH1 0x40 MLOAD PUSH32 0x8C379A000000000000000000000000000000000000000000000000000000000 DUP2 MSTORE PUSH1 0x20 PUSH1 0x4 DUP3 ADD MSTORE PUSH1 0x1E PUSH1 0x24 DUP3 ADD MSTORE PUSH32 0x4E4F5420434F4E4649475552454420494E204D41494E2053544F524147450000 PUSH1 0x44 DUP3 ADD MSTORE PUSH1 0x64 ADD PUSH2 0x1A8 JUMP JUMPDEST DUP5 MLOAD PUSH2 0xF37 JUMPI PUSH1 0x40 MLOAD PUSH32 0x8C379A000000000000000000000000000000000000000000000000000000000 DUP2 MSTORE PUSH1 0x20 PUSH1 0x4 DUP3 ADD MSTORE PUSH1 0xA PUSH1 0x24 DUP3 ADD MSTORE PUSH32 0x454D505459204441544100000000000000000000000000000000000000000000 PUSH1 0x44 DUP3 ADD MSTORE PUSH1 0x64 ADD PUSH2 0x1A8 JUMP JUMPDEST PUSH1 0x0 JUMPDEST DUP6 MLOAD DUP2 LT ISZERO PUSH2 0x112B JUMPI DUP6 DUP2 DUP2 MLOAD DUP2 LT PUSH2 0xF55 JUMPI PUSH2 0xF55 PUSH2 0x19E4 JUMP JUMPDEST PUSH1 0x20 MUL PUSH1 0x20 ADD ADD MLOAD PUSH1 0x20 ADD MLOAD PUSH1 0x1 DUP9 PUSH1 0x40 MLOAD PUSH2 0xF71 SWAP2 SWAP1 PUSH2 0x19C8 JUMP JUMPDEST SWAP1 DUP2 MSTORE PUSH1 0x20 ADD PUSH1 0x40 MLOAD DUP1 SWAP2 SUB SWAP1 KECCAK256 DUP8 DUP4 DUP2 MLOAD DUP2 LT PUSH2 0xF91 JUMPI PUSH2 0xF91 PUSH2 0x19E4 JUMP JUMPDEST PUSH1 0x20 MUL PUSH1 0x20 ADD ADD MLOAD PUSH1 0x0 ADD MLOAD PUSH1 0x40 MLOAD PUSH2 0xFAA SWAP2 SWAP1 PUSH2 0x19C8 JUMP JUMPDEST SWAP1 DUP2 MSTORE PUSH1 0x20 ADD PUSH1 0x40 MLOAD DUP1 SWAP2 SUB SWAP1 KECCAK256 SWAP1 DUP1 MLOAD SWAP1 PUSH1 0x20 ADD SWAP1 PUSH2 0xFCB SWAP3 SWAP2 SWAP1 PUSH2 0x12DE JUMP JUMPDEST POP PUSH1 0x3 DUP8 PUSH1 0x40 MLOAD PUSH2 0xFDC SWAP2 SWAP1 PUSH2 0x19C8 JUMP JUMPDEST SWAP1 DUP2 MSTORE PUSH1 0x20 ADD PUSH1 0x40 MLOAD DUP1 SWAP2 SUB SWAP1 KECCAK256 DUP7 DUP3 DUP2 MLOAD DUP2 LT PUSH2 0xFFC JUMPI PUSH2 0xFFC PUSH2 0x19E4 JUMP JUMPDEST PUSH1 0x20 MUL PUSH1 0x20 ADD ADD MLOAD PUSH1 0x0 ADD MLOAD PUSH1 0x40 MLOAD PUSH2 0x1015 SWAP2 SWAP1 PUSH2 0x19C8 JUMP JUMPDEST SWAP1 DUP2 MSTORE PUSH1 0x40 MLOAD SWAP1 DUP2 SWAP1 SUB PUSH1 0x20 ADD SWAP1 KECCAK256 SLOAD PUSH1 0xFF AND PUSH2 0x1119 JUMPI PUSH1 0x1 PUSH1 0x3 DUP9 PUSH1 0x40 MLOAD PUSH2 0x103E SWAP2 SWAP1 PUSH2 0x19C8 JUMP JUMPDEST SWAP1 DUP2 MSTORE PUSH1 0x20 ADD PUSH1 0x40 MLOAD DUP1 SWAP2 SUB SWAP1 KECCAK256 DUP8 DUP4 DUP2 MLOAD DUP2 LT PUSH2 0x105E JUMPI PUSH2 0x105E PUSH2 0x19E4 JUMP JUMPDEST PUSH1 0x20 MUL PUSH1 0x20 ADD ADD MLOAD PUSH1 0x0 ADD MLOAD PUSH1 0x40 MLOAD PUSH2 0x1077 SWAP2 SWAP1 PUSH2 0x19C8 JUMP JUMPDEST SWAP1 DUP2 MSTORE PUSH1 0x40 MLOAD SWAP1 DUP2 SWAP1 SUB PUSH1 0x20 ADD DUP2 KECCAK256 DUP1 SLOAD SWAP3 ISZERO ISZERO PUSH32 0xFFFFFFFFFFFFFFFFFFFFFFFFFFFFFFFFFFFFFFFFFFFFFFFFFFFFFFFFFFFFFF00 SWAP1 SWAP4 AND SWAP3 SWAP1 SWAP3 OR SWAP1 SWAP2 SSTORE PUSH1 0x2 SWAP1 PUSH2 0x10C4 SWAP1 DUP10 SWAP1 PUSH2 0x19C8 JUMP JUMPDEST SWAP1 DUP2 MSTORE PUSH1 0x20 ADD PUSH1 0x40 MLOAD DUP1 SWAP2 SUB SWAP1 KECCAK256 DUP7 DUP3 DUP2 MLOAD DUP2 LT PUSH2 0x10E4 JUMPI PUSH2 0x10E4 PUSH2 0x19E4 JUMP JUMPDEST PUSH1 0x20 SWAP1 DUP2 MUL SWAP2 SWAP1 SWAP2 ADD DUP2 ADD MLOAD MLOAD DUP3 SLOAD PUSH1 0x1 DUP2 ADD DUP5 SSTORE PUSH1 0x0 SWAP4 DUP5 MSTORE SWAP3 DUP3 SWAP1 KECCAK256 DUP2 MLOAD PUSH2 0x1117 SWAP5 SWAP2 SWAP1 SWAP2 ADD SWAP3 SWAP2 SWAP1 SWAP2 ADD SWAP1 PUSH2 0x12DE JUMP JUMPDEST POP JUMPDEST DUP1 PUSH2 0x1123 DUP2 PUSH2 0x1B3A JUMP JUMPDEST SWAP2 POP POP PUSH2 0xF3A JUMP JUMPDEST POP POP POP POP POP POP POP JUMP JUMPDEST DUP2 MLOAD PUSH1 0x60 SWAP1 DUP4 SWAP1 DUP2 SWAP1 PUSH2 0x11A3 JUMPI PUSH1 0x40 MLOAD PUSH32 0x8C379A000000000000000000000000000000000000000000000000000000000 DUP2 MSTORE PUSH1 0x20 PUSH1 0x4 DUP3 ADD MSTORE PUSH1 0x8 PUSH1 0x24 DUP3 ADD MSTORE PUSH32 0x4E4F5F56414C5545000000000000000000000000000000000000000000000000 PUSH1 0x44 DUP3 ADD MSTORE PUSH1 0x64 ADD PUSH2 0x1A8 JUMP JUMPDEST DUP4 MLOAD DUP5 SWAP1 DUP2 SWAP1 PUSH2 0x120F JUMPI PUSH1 0x40 MLOAD PUSH32 0x8C379A000000000000000000000000000000000000000000000000000000000 DUP2 MSTORE PUSH1 0x20 PUSH1 0x4 DUP3 ADD MSTORE PUSH1 0x8 PUSH1 0x24 DUP3 ADD MSTORE PUSH32 0x4E4F5F56414C5545000000000000000000000000000000000000000000000000 PUSH1 0x44 DUP3 ADD MSTORE PUSH1 0x64 ADD PUSH2 0x1A8 JUMP JUMPDEST PUSH1 0x1 DUP8 PUSH1 0x40 MLOAD PUSH2 0x121F SWAP2 SWAP1 PUSH2 0x19C8 JUMP JUMPDEST SWAP1 DUP2 MSTORE PUSH1 0x20 ADD PUSH1 0x40 MLOAD DUP1 SWAP2 SUB SWAP1 KECCAK256 DUP7 PUSH1 0x40 MLOAD PUSH2 0x123B SWAP2 SWAP1 PUSH2 0x19C8 JUMP JUMPDEST SWAP1 DUP2 MSTORE PUSH1 0x20 ADD PUSH1 0x40 MLOAD DUP1 SWAP2 SUB SWAP1 KECCAK256 DUP1 SLOAD PUSH2 0x1254 SWAP1 PUSH2 0x1A13 JUMP JUMPDEST DUP1 PUSH1 0x1F ADD PUSH1 0x20 DUP1 SWAP2 DIV MUL PUSH1 0x20 ADD PUSH1 0x40 MLOAD SWAP1 DUP2 ADD PUSH1 0x40 MSTORE DUP1 SWAP3 SWAP2 SWAP1 DUP2 DUP2 MSTORE PUSH1 0x20 ADD DUP3 DUP1 SLOAD PUSH2 0x1280 SWAP1 PUSH2 0x1A13 JUMP JUMPDEST DUP1 ISZERO PUSH2 0x12CD JUMPI DUP1 PUSH1 0x1F LT PUSH2 0x12A2 JUMPI PUSH2 0x100 DUP1 DUP4 SLOAD DIV MUL DUP4 MSTORE SWAP2 PUSH1 0x20 ADD SWAP2 PUSH2 0x12CD JUMP JUMPDEST DUP3 ADD SWAP2 SWAP1 PUSH1 0x0 MSTORE PUSH1 0x20 PUSH1 0x0 KECCAK256 SWAP1 JUMPDEST DUP2 SLOAD DUP2 MSTORE SWAP1 PUSH1 0x1 ADD SWAP1 PUSH1 0x20 ADD DUP1 DUP4 GT PUSH2 0x12B0 JUMPI DUP3 SWAP1 SUB PUSH1 0x1F AND DUP3 ADD SWAP2 JUMPDEST POP POP POP POP POP SWAP5 POP POP POP POP POP SWAP3 SWAP2 POP POP JUMP JUMPDEST DUP3 DUP1 SLOAD PUSH2 0x12EA SWAP1 PUSH2 0x1A13 JUMP JUMPDEST SWAP1 PUSH1 0x0 MSTORE PUSH1 0x20 PUSH1 0x0 KECCAK256 SWAP1 PUSH1 0x1F ADD PUSH1 0x20 SWAP1 DIV DUP2 ADD SWAP3 DUP3 PUSH2 0x130C JUMPI PUSH1 0x0 DUP6 SSTORE PUSH2 0x1352 JUMP JUMPDEST DUP3 PUSH1 0x1F LT PUSH2 0x1325 JUMPI DUP1 MLOAD PUSH1 0xFF NOT AND DUP4 DUP1 ADD OR DUP6 SSTORE PUSH2 0x1352 JUMP JUMPDEST DUP3 DUP1 ADD PUSH1 0x1 ADD DUP6 SSTORE DUP3 ISZERO PUSH2 0x1352 JUMPI SWAP2 DUP3 ADD JUMPDEST DUP3 DUP2 GT ISZERO PUSH2 0x1352 JUMPI DUP3 MLOAD DUP3 SSTORE SWAP2 PUSH1 0x20 ADD SWAP2 SWAP1 PUSH1 0x1 ADD SWAP1 PUSH2 0x1337 JUMP JUMPDEST POP PUSH2 0x135E SWAP3 SWAP2 POP PUSH2 0x1383 JUMP JUMPDEST POP SWAP1 JUMP JUMPDEST POP DUP1 SLOAD PUSH1 0x0 DUP3 SSTORE SWAP1 PUSH1 0x0 MSTORE PUSH1 0x20 PUSH1 0x0 KECCAK256 SWAP1 DUP2 ADD SWAP1 PUSH2 0x1380 SWAP2 SWAP1 PUSH2 0x1398 JUMP JUMPDEST POP JUMP JUMPDEST JUMPDEST DUP1 DUP3 GT ISZERO PUSH2 0x135E JUMPI PUSH1 0x0 DUP2 SSTORE PUSH1 0x1 ADD PUSH2 0x1384 JUMP JUMPDEST DUP1 DUP3 GT ISZERO PUSH2 0x135E JUMPI PUSH1 0x0 PUSH2 0x13AC DUP3 DUP3 PUSH2 0x13B5 JUMP JUMPDEST POP PUSH1 0x1 ADD PUSH2 0x1398 JUMP JUMPDEST POP DUP1 SLOAD PUSH2 0x13C1 SWAP1 PUSH2 0x1A13 JUMP JUMPDEST PUSH1 0x0 DUP3 SSTORE DUP1 PUSH1 0x1F LT PUSH2 0x13D1 JUMPI POP POP JUMP JUMPDEST PUSH1 0x1F ADD PUSH1 0x20 SWAP1 DIV SWAP1 PUSH1 0x0 MSTORE PUSH1 0x20 PUSH1 0x0 KECCAK256 SWAP1 DUP2 ADD SWAP1 PUSH2 0x1380 SWAP2 SWAP1 PUSH2 0x1383 JUMP JUMPDEST PUSH32 0x4E487B7100000000000000000000000000000000000000000000000000000000 PUSH1 0x0 MSTORE PUSH1 0x41 PUSH1 0x4 MSTORE PUSH1 0x24 PUSH1 0x0 REVERT JUMPDEST PUSH1 0x40 DUP1 MLOAD SWAP1 DUP2 ADD PUSH8 0xFFFFFFFFFFFFFFFF DUP2 GT DUP3 DUP3 LT OR ISZERO PUSH2 0x1441 JUMPI PUSH2 0x1441 PUSH2 0x13EF JUMP JUMPDEST PUSH1 0x40 MSTORE SWAP1 JUMP JUMPDEST PUSH1 0x40 MLOAD PUSH1 0x1F DUP3 ADD PUSH32 0xFFFFFFFFFFFFFFFFFFFFFFFFFFFFFFFFFFFFFFFFFFFFFFFFFFFFFFFFFFFFFFE0 AND DUP2 ADD PUSH8 0xFFFFFFFFFFFFFFFF DUP2 GT DUP3 DUP3 LT OR ISZERO PUSH2 0x148E JUMPI PUSH2 0x148E PUSH2 0x13EF JUMP JUMPDEST PUSH1 0x40 MSTORE SWAP2 SWAP1 POP JUMP JUMPDEST PUSH1 0x0 PUSH8 0xFFFFFFFFFFFFFFFF DUP3 GT ISZERO PUSH2 0x14B0 JUMPI PUSH2 0x14B0 PUSH2 0x13EF JUMP JUMPDEST POP PUSH1 0x1F ADD PUSH32 0xFFFFFFFFFFFFFFFFFFFFFFFFFFFFFFFFFFFFFFFFFFFFFFFFFFFFFFFFFFFFFFE0 AND PUSH1 0x20 ADD SWAP1 JUMP JUMPDEST PUSH1 0x0 DUP3 PUSH1 0x1F DUP4 ADD SLT PUSH2 0x14ED JUMPI PUSH1 0x0 DUP1 REVERT JUMPDEST DUP2 CALLDATALOAD PUSH2 0x1500 PUSH2 0x14FB DUP3 PUSH2 0x1496 JUMP JUMPDEST PUSH2 0x1447 JUMP JUMPDEST DUP2 DUP2 MSTORE DUP5 PUSH1 0x20 DUP4 DUP7 ADD ADD GT ISZERO PUSH2 0x1515 JUMPI PUSH1 0x0 DUP1 REVERT JUMPDEST DUP2 PUSH1 0x20 DUP6 ADD PUSH1 0x20 DUP4 ADD CALLDATACOPY PUSH1 0x0 SWAP2 DUP2 ADD PUSH1 0x20 ADD SWAP2 SWAP1 SWAP2 MSTORE SWAP4 SWAP3 POP POP POP JUMP JUMPDEST PUSH1 0x0 DUP1 PUSH1 0x0 PUSH1 0x60 DUP5 DUP7 SUB SLT ISZERO PUSH2 0x1547 JUMPI PUSH1 0x0 DUP1 REVERT JUMPDEST DUP4 CALLDATALOAD PUSH8 0xFFFFFFFFFFFFFFFF DUP1 DUP3 GT ISZERO PUSH2 0x155F JUMPI PUSH1 0x0 DUP1 REVERT JUMPDEST PUSH2 0x156B DUP8 DUP4 DUP9 ADD PUSH2 0x14DC JUMP JUMPDEST SWAP5 POP PUSH1 0x20 DUP7 ADD CALLDATALOAD SWAP2 POP DUP1 DUP3 GT ISZERO PUSH2 0x1581 JUMPI PUSH1 0x0 DUP1 REVERT JUMPDEST PUSH2 0x158D DUP8 DUP4 DUP9 ADD PUSH2 0x14DC JUMP JUMPDEST SWAP4 POP PUSH1 0x40 DUP7 ADD CALLDATALOAD SWAP2 POP DUP1 DUP3 GT ISZERO PUSH2 0x15A3 JUMPI PUSH1 0x0 DUP1 REVERT JUMPDEST POP PUSH2 0x15B0 DUP7 DUP3 DUP8 ADD PUSH2 0x14DC JUMP JUMPDEST SWAP2 POP POP SWAP3 POP SWAP3 POP SWAP3 JUMP JUMPDEST PUSH1 0x0 PUSH1 0x20 DUP3 DUP5 SUB SLT ISZERO PUSH2 0x15CC JUMPI PUSH1 0x0 DUP1 REVERT JUMPDEST DUP2 CALLDATALOAD PUSH8 0xFFFFFFFFFFFFFFFF DUP2 GT ISZERO PUSH2 0x15E3 JUMPI PUSH1 0x0 DUP1 REVERT JUMPDEST PUSH2 0x15EF DUP5 DUP3 DUP6 ADD PUSH2 0x14DC JUMP JUMPDEST SWAP5 SWAP4 POP POP POP POP JUMP JUMPDEST PUSH1 0x0 JUMPDEST DUP4 DUP2 LT ISZERO PUSH2 0x1612 JUMPI DUP2 DUP2 ADD MLOAD DUP4 DUP3 ADD MSTORE PUSH1 0x20 ADD PUSH2 0x15FA JUMP JUMPDEST DUP4 DUP2 GT ISZERO PUSH2 0x1621 JUMPI PUSH1 0x0 DUP5 DUP5 ADD MSTORE JUMPDEST POP POP POP POP JUMP JUMPDEST PUSH1 0x0 DUP2 MLOAD DUP1 DUP5 MSTORE PUSH2 0x163F DUP2 PUSH1 0x20 DUP7 ADD PUSH1 0x20 DUP7 ADD PUSH2 0x15F7 JUMP JUMPDEST PUSH1 0x1F ADD PUSH32 0xFFFFFFFFFFFFFFFFFFFFFFFFFFFFFFFFFFFFFFFFFFFFFFFFFFFFFFFFFFFFFFE0 AND SWAP3 SWAP1 SWAP3 ADD PUSH1 0x20 ADD SWAP3 SWAP2 POP POP JUMP JUMPDEST PUSH1 0x0 PUSH1 0x20 DUP1 DUP4 ADD DUP2 DUP5 MSTORE DUP1 DUP6 MLOAD DUP1 DUP4 MSTORE PUSH1 0x40 SWAP3 POP DUP3 DUP7 ADD SWAP2 POP DUP3 DUP2 PUSH1 0x5 SHL DUP8 ADD ADD DUP5 DUP9 ADD PUSH1 0x0 JUMPDEST DUP4 DUP2 LT ISZERO PUSH2 0x1706 JUMPI PUSH32 0xFFFFFFFFFFFFFFFFFFFFFFFFFFFFFFFFFFFFFFFFFFFFFFFFFFFFFFFFFFFFFFC0 DUP10 DUP5 SUB ADD DUP6 MSTORE DUP2 MLOAD DUP1 MLOAD DUP8 DUP6 MSTORE PUSH2 0x16DA DUP9 DUP7 ADD DUP3 PUSH2 0x1627 JUMP JUMPDEST SWAP2 DUP10 ADD MLOAD DUP6 DUP4 SUB DUP7 DUP12 ADD MSTORE SWAP2 SWAP1 POP PUSH2 0x16F2 DUP2 DUP4 PUSH2 0x1627 JUMP JUMPDEST SWAP7 DUP10 ADD SWAP7 SWAP5 POP POP POP SWAP1 DUP7 ADD SWAP1 PUSH1 0x1 ADD PUSH2 0x1698 JUMP JUMPDEST POP SWAP1 SWAP9 SWAP8 POP POP POP POP POP POP POP POP JUMP JUMPDEST PUSH1 0x0 DUP1 PUSH1 0x40 DUP1 DUP5 DUP7 SUB SLT ISZERO PUSH2 0x1728 JUMPI PUSH1 0x0 DUP1 REVERT JUMPDEST DUP4 CALLDATALOAD PUSH8 0xFFFFFFFFFFFFFFFF DUP1 DUP3 GT ISZERO PUSH2 0x1740 JUMPI PUSH1 0x0 DUP1 REVERT JUMPDEST PUSH2 0x174C DUP8 DUP4 DUP9 ADD PUSH2 0x14DC JUMP JUMPDEST SWAP5 POP PUSH1 0x20 SWAP2 POP DUP2 DUP7 ADD CALLDATALOAD DUP2 DUP2 GT ISZERO PUSH2 0x1763 JUMPI PUSH1 0x0 DUP1 REVERT JUMPDEST DUP7 ADD PUSH1 0x1F DUP2 ADD DUP9 SGT PUSH2 0x1774 JUMPI PUSH1 0x0 DUP1 REVERT JUMPDEST DUP1 CALLDATALOAD DUP3 DUP2 GT ISZERO PUSH2 0x1786 JUMPI PUSH2 0x1786 PUSH2 0x13EF JUMP JUMPDEST DUP1 PUSH1 0x5 SHL PUSH2 0x1795 DUP6 DUP3 ADD PUSH2 0x1447 JUMP JUMPDEST SWAP2 DUP3 MSTORE DUP3 DUP2 ADD DUP6 ADD SWAP2 DUP6 DUP2 ADD SWAP1 DUP12 DUP5 GT ISZERO PUSH2 0x17AF JUMPI PUSH1 0x0 DUP1 REVERT JUMPDEST DUP7 DUP6 ADD SWAP3 POP JUMPDEST DUP4 DUP4 LT ISZERO PUSH2 0x1861 JUMPI DUP3 CALLDATALOAD DUP7 DUP2 GT ISZERO PUSH2 0x17CD JUMPI PUSH1 0x0 DUP1 DUP2 REVERT JUMPDEST DUP6 ADD DUP1 DUP14 SUB PUSH32 0xFFFFFFFFFFFFFFFFFFFFFFFFFFFFFFFFFFFFFFFFFFFFFFFFFFFFFFFFFFFFFFE0 ADD DUP10 SGT ISZERO PUSH2 0x1801 JUMPI PUSH1 0x0 DUP1 DUP2 REVERT JUMPDEST PUSH2 0x1809 PUSH2 0x141E JUMP JUMPDEST DUP9 DUP3 ADD CALLDATALOAD DUP9 DUP2 GT ISZERO PUSH2 0x181B JUMPI PUSH1 0x0 DUP1 DUP2 REVERT JUMPDEST PUSH2 0x1829 DUP16 DUP12 DUP4 DUP7 ADD ADD PUSH2 0x14DC JUMP JUMPDEST DUP3 MSTORE POP DUP10 DUP3 ADD CALLDATALOAD DUP9 DUP2 GT ISZERO PUSH2 0x183E JUMPI PUSH1 0x0 DUP1 DUP2 REVERT JUMPDEST PUSH2 0x184C DUP16 DUP12 DUP4 DUP7 ADD ADD PUSH2 0x14DC JUMP JUMPDEST DUP3 DUP12 ADD MSTORE POP DUP4 MSTORE POP SWAP2 DUP7 ADD SWAP2 SWAP1 DUP7 ADD SWAP1 PUSH2 0x17B5 JUMP JUMPDEST DUP1 SWAP9 POP POP POP POP POP POP POP POP POP SWAP3 POP SWAP3 SWAP1 POP JUMP JUMPDEST PUSH1 0x0 DUP1 PUSH1 0x40 DUP4 DUP6 SUB SLT ISZERO PUSH2 0x1886 JUMPI PUSH1 0x0 DUP1 REVERT JUMPDEST DUP3 CALLDATALOAD PUSH8 0xFFFFFFFFFFFFFFFF DUP1 DUP3 GT ISZERO PUSH2 0x189E JUMPI PUSH1 0x0 DUP1 REVERT JUMPDEST PUSH2 0x18AA DUP7 DUP4 DUP8 ADD PUSH2 0x14DC JUMP JUMPDEST SWAP4 POP PUSH1 0x20 DUP6 ADD CALLDATALOAD SWAP2 POP DUP1 DUP3 GT ISZERO PUSH2 0x18C0 JUMPI PUSH1 0x0 DUP1 REVERT JUMPDEST POP PUSH2 0x18CD DUP6 DUP3 DUP7 ADD PUSH2 0x14DC JUMP JUMPDEST SWAP2 POP POP SWAP3 POP SWAP3 SWAP1 POP JUMP JUMPDEST PUSH1 0x20 DUP2 MSTORE PUSH1 0x0 PUSH2 0x18EA PUSH1 0x20 DUP4 ADD DUP5 PUSH2 0x1627 JUMP JUMPDEST SWAP4 SWAP3 POP POP POP JUMP JUMPDEST PUSH1 0x0 PUSH1 0x20 DUP1 DUP4 DUP6 SUB SLT ISZERO PUSH2 0x1904 JUMPI PUSH1 0x0 DUP1 REVERT JUMPDEST DUP3 MLOAD PUSH8 0xFFFFFFFFFFFFFFFF DUP1 DUP3 GT ISZERO PUSH2 0x191C JUMPI PUSH1 0x0 DUP1 REVERT JUMPDEST SWAP1 DUP5 ADD SWAP1 PUSH1 0x40 DUP3 DUP8 SUB SLT ISZERO PUSH2 0x1930 JUMPI PUSH1 0x0 DUP1 REVERT JUMPDEST PUSH2 0x1938 PUSH2 0x141E JUMP JUMPDEST DUP3 MLOAD PUSH20 0xFFFFFFFFFFFFFFFFFFFFFFFFFFFFFFFFFFFFFFFF DUP2 AND DUP2 EQ PUSH2 0x195C JUMPI PUSH1 0x0 DUP1 REVERT JUMPDEST DUP2 MSTORE DUP3 DUP5 ADD MLOAD DUP3 DUP2 GT ISZERO PUSH2 0x196F JUMPI PUSH1 0x0 DUP1 REVERT JUMPDEST DUP1 DUP5 ADD SWAP4 POP POP DUP7 PUSH1 0x1F DUP5 ADD SLT PUSH2 0x1984 JUMPI PUSH1 0x0 DUP1 REVERT JUMPDEST DUP3 MLOAD SWAP2 POP PUSH2 0x1994 PUSH2 0x14FB DUP4 PUSH2 0x1496 JUMP JUMPDEST DUP3 DUP2 MSTORE DUP8 DUP6 DUP5 DUP7 ADD ADD GT ISZERO PUSH2 0x19A8 JUMPI PUSH1 0x0 DUP1 REVERT JUMPDEST PUSH2 0x19B7 DUP4 DUP7 DUP4 ADD DUP8 DUP8 ADD PUSH2 0x15F7 JUMP JUMPDEST SWAP4 DUP2 ADD SWAP4 SWAP1 SWAP4 MSTORE POP SWAP1 SWAP5 SWAP4 POP POP POP POP JUMP JUMPDEST PUSH1 0x0 DUP3 MLOAD PUSH2 0x19DA DUP2 DUP5 PUSH1 0x20 DUP8 ADD PUSH2 0x15F7 JUMP JUMPDEST SWAP2 SWAP1 SWAP2 ADD SWAP3 SWAP2 POP POP JUMP JUMPDEST PUSH32 0x4E487B7100000000000000000000000000000000000000000000000000000000 PUSH1 0x0 MSTORE PUSH1 0x32 PUSH1 0x4 MSTORE PUSH1 0x24 PUSH1 0x0 REVERT JUMPDEST PUSH1 0x1 DUP2 DUP2 SHR SWAP1 DUP3 AND DUP1 PUSH2 0x1A27 JUMPI PUSH1 0x7F DUP3 AND SWAP2 POP JUMPDEST PUSH1 0x20 DUP3 LT DUP2 EQ ISZERO PUSH2 0x1A61 JUMPI PUSH32 0x4E487B7100000000000000000000000000000000000000000000000000000000 PUSH1 0x0 MSTORE PUSH1 0x22 PUSH1 0x4 MSTORE PUSH1 0x24 PUSH1 0x0 REVERT JUMPDEST POP SWAP2 SWAP1 POP JUMP JUMPDEST PUSH1 0x0 DUP1 DUP4 SLOAD DUP2 PUSH1 0x1 DUP3 DUP2 SHR SWAP2 POP DUP1 DUP4 AND DUP1 PUSH2 0x1A83 JUMPI PUSH1 0x7F DUP4 AND SWAP3 POP JUMPDEST PUSH1 0x20 DUP1 DUP5 LT DUP3 EQ ISZERO PUSH2 0x1ABC JUMPI PUSH32 0x4E487B7100000000000000000000000000000000000000000000000000000000 DUP7 MSTORE PUSH1 0x22 PUSH1 0x4 MSTORE PUSH1 0x24 DUP7 REVERT JUMPDEST DUP2 DUP1 ISZERO PUSH2 0x1AD0 JUMPI PUSH1 0x1 DUP2 EQ PUSH2 0x1AFF JUMPI PUSH2 0x1B2C JUMP JUMPDEST PUSH32 0xFFFFFFFFFFFFFFFFFFFFFFFFFFFFFFFFFFFFFFFFFFFFFFFFFFFFFFFFFFFFFF00 DUP7 AND DUP10 MSTORE DUP5 DUP10 ADD SWAP7 POP PUSH2 0x1B2C JUMP JUMPDEST PUSH1 0x0 DUP11 DUP2 MSTORE PUSH1 0x20 SWAP1 KECCAK256 PUSH1 0x0 JUMPDEST DUP7 DUP2 LT ISZERO PUSH2 0x1B24 JUMPI DUP2 SLOAD DUP12 DUP3 ADD MSTORE SWAP1 DUP6 ADD SWAP1 DUP4 ADD PUSH2 0x1B0B JUMP JUMPDEST POP POP DUP5 DUP10 ADD SWAP7 POP JUMPDEST POP SWAP5 SWAP9 SWAP8 POP POP POP POP POP POP POP POP JUMP JUMPDEST PUSH1 0x0 PUSH32 0xFFFFFFFFFFFFFFFFFFFFFFFFFFFFFFFFFFFFFFFFFFFFFFFFFFFFFFFFFFFFFFFF DUP3 EQ ISZERO PUSH2 0x1B93 JUMPI PUSH32 0x4E487B7100000000000000000000000000000000000000000000000000000000 PUSH1 0x0 MSTORE PUSH1 0x11 PUSH1 0x4 MSTORE PUSH1 0x24 PUSH1 0x0 REVERT JUMPDEST POP PUSH1 0x1 ADD SWAP1 JUMP INVALID LOG2 PUSH5 0x6970667358 0x22 SLT KECCAK256 0xB0 0x5D 0x2A ISZERO PUSH7 0x2CF6AC8E0FEA1B PUSH6 0x4E2E12429265 0x5D 0xEE 0x25 XOR CALLDATACOPY SWAP8 ADDMOD DUP4 PUSH14 0x2A2C65A64736F6C634300080C00 CALLER "
				},
				"gasEstimates": {
					"creation": {
						"codeDepositCost": "1424000",
						"executionCost": "infinite",
						"totalCost": "infinite"
					},
					"external": {
						"clearScopeData(string)": "infinite",
						"getScopeData(string)": "infinite",
						"getScopeKeyData(string,string)": "infinite",
						"mainStorage()": "2335",
						"setScopeKeyData(string,string,string)": "infinite",
						"setScopeKeysData(string,(string,string)[])": "infinite"
					}
				},
				"methodIdentifiers": {
					"clearScopeData(string)": "c9c711c9",
					"getScopeData(string)": "b4ce4f3c",
					"getScopeKeyData(string,string)": "fa8d9672",
					"mainStorage()": "e19d2ac3",
					"setScopeKeyData(string,string,string)": "52495b8b",
					"setScopeKeysData(string,(string,string)[])": "cc3d6185"
				}
			},
			"storageLayout": {
				"storage": [
					{
						"astId": 18,
						"contract": "source/ExStorage.sol:ExStorage",
						"label": "mainStorage",
						"offset": 0,
						"slot": "0",
						"type": "t_contract(IStorage)15"
					},
					{
						"astId": 96,
						"contract": "source/ExStorage.sol:ExStorage",
						"label": "scopeData",
						"offset": 0,
						"slot": "1",
						"type": "t_mapping(t_string_memory_ptr,t_mapping(t_string_memory_ptr,t_string_storage))"
					},
					{
						"astId": 101,
						"contract": "source/ExStorage.sol:ExStorage",
						"label": "scopeDataKeys",
						"offset": 0,
						"slot": "2",
						"type": "t_mapping(t_string_memory_ptr,t_array(t_string_storage)dyn_storage)"
					},
					{
						"astId": 107,
						"contract": "source/ExStorage.sol:ExStorage",
						"label": "scopeDataKeyExists",
						"offset": 0,
						"slot": "3",
						"type": "t_mapping(t_string_memory_ptr,t_mapping(t_string_memory_ptr,t_bool))"
					}
				],
				"types": {
					"t_array(t_string_storage)dyn_storage": {
						"base": "t_string_storage",
						"encoding": "dynamic_array",
						"label": "string[]",
						"numberOfBytes": "32"
					},
					"t_bool": {
						"encoding": "inplace",
						"label": "bool",
						"numberOfBytes": "1"
					},
					"t_contract(IStorage)15": {
						"encoding": "inplace",
						"label": "contract IStorage",
						"numberOfBytes": "20"
					},
					"t_mapping(t_string_memory_ptr,t_array(t_string_storage)dyn_storage)": {
						"encoding": "mapping",
						"key": "t_string_memory_ptr",
						"label": "mapping(string => string[])",
						"numberOfBytes": "32",
						"value": "t_array(t_string_storage)dyn_storage"
					},
					"t_mapping(t_string_memory_ptr,t_bool)": {
						"encoding": "mapping",
						"key": "t_string_memory_ptr",
						"label": "mapping(string => bool)",
						"numberOfBytes": "32",
						"value": "t_bool"
					},
					"t_mapping(t_string_memory_ptr,t_mapping(t_string_memory_ptr,t_bool))": {
						"encoding": "mapping",
						"key": "t_string_memory_ptr",
						"label": "mapping(string => mapping(string => bool))",
						"numberOfBytes": "32",
						"value": "t_mapping(t_string_memory_ptr,t_bool)"
					},
					"t_mapping(t_string_memory_ptr,t_mapping(t_string_memory_ptr,t_string_storage))": {
						"encoding": "mapping",
						"key": "t_string_memory_ptr",
						"label": "mapping(string => mapping(string => string))",
						"numberOfBytes": "32",
						"value": "t_mapping(t_string_memory_ptr,t_string_storage)"
					},
					"t_mapping(t_string_memory_ptr,t_string_storage)": {
						"encoding": "mapping",
						"key": "t_string_memory_ptr",
						"label": "mapping(string => string)",
						"numberOfBytes": "32",
						"value": "t_string_storage"
					},
					"t_string_memory_ptr": {
						"encoding": "bytes",
						"label": "string",
						"numberOfBytes": "32"
					},
					"t_string_storage": {
						"encoding": "bytes",
						"label": "string",
						"numberOfBytes": "32"
					}
				}
			},
			"userdoc": {
				"kind": "user",
				"methods": {},
				"version": 1
			}
		}
	}
}