{
	"data": {
		"bytecode": {
			"linkReferences": {},
			"object": "608060405234801561001057600080fd5b50610bd5806100206000396000f3fe6080604052600436106100b95763ffffffff7c01000000000000000000000000000000000000000000000000000000006000350416630f28c97d81146100be578063252dba42146100e957806327e86d6e14610117578063399542e91461012c57806342cbb15c1461015b5780634d2301cc1461017057806372425d9d1461019057806386d516e8146101a5578063a8b0574e146101ba578063bce38bd7146101dc578063c3077fa914610209578063ee82ac5e14610229575b600080fd5b3480156100ca57600080fd5b506100d3610249565b6040516100e09190610a34565b60405180910390f35b3480156100f557600080fd5b50610109610104366004610797565b61024d565b6040516100e0929190610a62565b34801561012357600080fd5b506100d36103f0565b34801561013857600080fd5b5061014c6101473660046107cc565b6103f9565b6040516100e093929190610a82565b34801561016757600080fd5b506100d3610411565b34801561017c57600080fd5b506100d361018b366004610771565b610415565b34801561019c57600080fd5b506100d361042f565b3480156101b157600080fd5b506100d3610433565b3480156101c657600080fd5b506101cf610437565b6040516100e09190610a0f565b3480156101e857600080fd5b506101fc6101f73660046107cc565b61043b565b6040516100e09190610a23565b34801561021557600080fd5b5061014c610224366004610797565b6105f3565b34801561023557600080fd5b506100d361024436600461081e565b610610565b4290565b60006060439150825160405190808252806020026020018201604052801561028957816020015b60608152602001906001900390816102745790505b50905060005b83518110156103ea576000606085838151811015156102aa57fe5b906020019060200201516000015173ffffffffffffffffffffffffffffffffffffffff1686848151811015156102dc57fe5b90602001906020020151602001516040518082805190602001908083835b602083106103195780518252601f1990920191602091820191016102fa565b6001836020036101000a0380198251168184511680821785525050505050509050019150506000604051808303816000865af19150503d806000811461037b576040519150601f19603f3d011682016040523d82523d6000602084013e610380565b606091505b50915091508115156103c7576040517f08c379a00000000000000000000000000000000000000000000000000000000081526004016103be90610a52565b60405180910390fd5b8084848151811015156103d657fe5b60209081029091010152505060010161028f565b50915091565b60001943014090565b4380406060610408858561043b565b90509250925092565b4390565b73ffffffffffffffffffffffffffffffffffffffff163190565b4490565b4590565b4190565b6060815160405190808252806020026020018201604052801561047857816020015b610465610614565b81526020019060019003908161045d5790505b50905060005b82518110156105ec5760006060848381518110151561049957fe5b906020019060200201516000015173ffffffffffffffffffffffffffffffffffffffff1685848151811015156104cb57fe5b90602001906020020151602001516040518082805190602001908083835b602083106105085780518252601f1990920191602091820191016104e9565b6001836020036101000a0380198251168184511680821785525050505050509050019150506000604051808303816000865af19150503d806000811461056a576040519150601f19603f3d011682016040523d82523d6000602084013e61056f565b606091505b509150915085156105b3578115156105b3576040517f08c379a00000000000000000000000000000000000000000000000000000000081526004016103be90610a42565b604080519081016040528083151581526020018281525084848151811015156105d857fe5b60209081029091010152505060010161047e565b5092915050565b60008060606106036001856103f9565b9196909550909350915050565b4090565b60408051808201909152600081526060602082015290565b60006106388235610b29565b9392505050565b6000601f8201831361065057600080fd5b813561066361065e82610ad6565b610aaf565b81815260209384019390925082018360005b838110156106a1578135860161068b8882610706565b8452506020928301929190910190600101610675565b5050505092915050565b60006106388235610b34565b6000601f820183136106c857600080fd5b81356106d661065e82610af7565b915080825260208301602083018583830111156106f257600080fd5b6106fd838284610b55565b50505092915050565b60006040828403121561071857600080fd5b6107226040610aaf565b90506000610730848461062c565b825250602082013567ffffffffffffffff81111561074d57600080fd5b610759848285016106b7565b60208301525092915050565b60006106388235610b39565b60006020828403121561078357600080fd5b600061078f848461062c565b949350505050565b6000602082840312156107a957600080fd5b813567ffffffffffffffff8111156107c057600080fd5b61078f8482850161063f565b600080604083850312156107df57600080fd5b60006107eb85856106ab565b925050602083013567ffffffffffffffff81111561080857600080fd5b6108148582860161063f565b9150509250929050565b60006020828403121561083057600080fd5b600061078f8484610765565b61084581610b29565b82525050565b600061085682610b25565b8084526020840193508360208202850161086f85610b1f565b60005b848110156108a657838303885261088a83835161091f565b925061089582610b1f565b602098909801979150600101610872565b50909695505050505050565b60006108bd82610b25565b808452602084019350836020820285016108d685610b1f565b60005b848110156108a65783830388526108f18383516109da565b92506108fc82610b1f565b6020989098019791506001016108d9565b61084581610b34565b61084581610b39565b600061092a82610b25565b80845261093e816020860160208601610b61565b61094781610b91565b9093016020019392505050565b602181527f4d756c746963616c6c32206167677265676174653a2063616c6c206661696c6560208201527f6400000000000000000000000000000000000000000000000000000000000000604082015260600190565b60208082527f4d756c746963616c6c206167677265676174653a2063616c6c206661696c65649082015260400190565b805160009060408401906109ee858261090d565b5060208301518482036020860152610a06828261091f565b95945050505050565b60208101610a1d828461083c565b92915050565b6020808252810161063881846108b2565b60208101610a1d8284610916565b60208082528101610a1d81610954565b60208082528101610a1d816109aa565b60408101610a708285610916565b818103602083015261078f818461084b565b60608101610a908286610916565b610a9d6020830185610916565b8181036040830152610a0681846108b2565b60405181810167ffffffffffffffff81118282101715610ace57600080fd5b604052919050565b600067ffffffffffffffff821115610aed57600080fd5b5060209081020190565b600067ffffffffffffffff821115610b0e57600080fd5b506020601f91909101601f19160190565b60200190565b5190565b6000610a1d82610b3c565b151590565b90565b73ffffffffffffffffffffffffffffffffffffffff1690565b82818337506000910152565b60005b83811015610b7c578181015183820152602001610b64565b83811115610b8b576000848401525b50505050565b601f01601f19169056fea265627a7a7230582027164cc939a696e03df874c4f3ad47ffb54ac5f9deaaa83988a8fcf48fa616fb6c6578706572696d656e74616cf50037",
			"opcodes": "PUSH1 0x80 PUSH1 0x40 MSTORE CALLVALUE DUP1 ISZERO PUSH2 0x10 JUMPI PUSH1 0x0 DUP1 REVERT JUMPDEST POP PUSH2 0xBD5 DUP1 PUSH2 0x20 PUSH1 0x0 CODECOPY PUSH1 0x0 RETURN INVALID PUSH1 0x80 PUSH1 0x40 MSTORE PUSH1 0x4 CALLDATASIZE LT PUSH2 0xB9 JUMPI PUSH4 0xFFFFFFFF PUSH29 0x100000000000000000000000000000000000000000000000000000000 PUSH1 0x0 CALLDATALOAD DIV AND PUSH4 0xF28C97D DUP2 EQ PUSH2 0xBE JUMPI DUP1 PUSH4 0x252DBA42 EQ PUSH2 0xE9 JUMPI DUP1 PUSH4 0x27E86D6E EQ PUSH2 0x117 JUMPI DUP1 PUSH4 0x399542E9 EQ PUSH2 0x12C JUMPI DUP1 PUSH4 0x42CBB15C EQ PUSH2 0x15B JUMPI DUP1 PUSH4 0x4D2301CC EQ PUSH2 0x170 JUMPI DUP1 PUSH4 0x72425D9D EQ PUSH2 0x190 JUMPI DUP1 PUSH4 0x86D516E8 EQ PUSH2 0x1A5 JUMPI DUP1 PUSH4 0xA8B0574E EQ PUSH2 0x1BA JUMPI DUP1 PUSH4 0xBCE38BD7 EQ PUSH2 0x1DC JUMPI DUP1 PUSH4 0xC3077FA9 EQ PUSH2 0x209 JUMPI DUP1 PUSH4 0xEE82AC5E EQ PUSH2 0x229 JUMPI JUMPDEST PUSH1 0x0 DUP1 REVERT JUMPDEST CALLVALUE DUP1 ISZERO PUSH2 0xCA JUMPI PUSH1 0x0 DUP1 REVERT JUMPDEST POP PUSH2 0xD3 PUSH2 0x249 JUMP JUMPDEST PUSH1 0x40 MLOAD PUSH2 0xE0 SWAP2 SWAP1 PUSH2 0xA34 JUMP JUMPDEST PUSH1 0x40 MLOAD DUP1 SWAP2 SUB SWAP1 RETURN JUMPDEST CALLVALUE DUP1 ISZERO PUSH2 0xF5 JUMPI PUSH1 0x0 DUP1 REVERT JUMPDEST POP PUSH2 0x109 PUSH2 0x104 CALLDATASIZE PUSH1 0x4 PUSH2 0x797 JUMP JUMPDEST PUSH2 0x24D JUMP JUMPDEST PUSH1 0x40 MLOAD PUSH2 0xE0 SWAP3 SWAP2 SWAP1 PUSH2 0xA62 JUMP JUMPDEST CALLVALUE DUP1 ISZERO PUSH2 0x123 JUMPI PUSH1 0x0 DUP1 REVERT JUMPDEST POP PUSH2 0xD3 PUSH2 0x3F0 JUMP JUMPDEST CALLVALUE DUP1 ISZERO PUSH2 0x138 JUMPI PUSH1 0x0 DUP1 REVERT JUMPDEST POP PUSH2 0x14C PUSH2 0x147 CALLDATASIZE PUSH1 0x4 PUSH2 0x7CC JUMP JUMPDEST PUSH2 0x3F9 JUMP JUMPDEST PUSH1 0x40 MLOAD PUSH2 0xE0 SWAP4 SWAP3 SWAP2 SWAP1 PUSH2 0xA82 JUMP JUMPDEST CALLVALUE DUP1 ISZERO PUSH2 0x167 JUMPI PUSH1 0x0 DUP1 REVERT JUMPDEST POP PUSH2 0xD3 PUSH2 0x411 JUMP JUMPDEST CALLVALUE DUP1 ISZERO PUSH2 0x17C JUMPI PUSH1 0x0 DUP1 REVERT JUMPDEST POP PUSH2 0xD3 PUSH2 0x18B CALLDATASIZE PUSH1 0x4 PUSH2 0x771 JUMP JUMPDEST PUSH2 0x415 JUMP JUMPDEST CALLVALUE DUP1 ISZERO PUSH2 0x19C JUMPI PUSH1 0x0 DUP1 REVERT JUMPDEST POP PUSH2 0xD3 PUSH2 0x42F JUMP JUMPDEST CALLVALUE DUP1 ISZERO PUSH2 0x1B1 JUMPI PUSH1 0x0 DUP1 REVERT JUMPDEST POP PUSH2 0xD3 PUSH2 0x433 JUMP JUMPDEST CALLVALUE DUP1 ISZERO PUSH2 0x1C6 JUMPI PUSH1 0x0 DUP1 REVERT JUMPDEST POP PUSH2 0x1CF PUSH2 0x437 JUMP JUMPDEST PUSH1 0x40 MLOAD PUSH2 0xE0 SWAP2 SWAP1 PUSH2 0xA0F JUMP JUMPDEST CALLVALUE DUP1 ISZERO PUSH2 0x1E8 JUMPI PUSH1 0x0 DUP1 REVERT JUMPDEST POP PUSH2 0x1FC PUSH2 0x1F7 CALLDATASIZE PUSH1 0x4 PUSH2 0x7CC JUMP JUMPDEST PUSH2 0x43B JUMP JUMPDEST PUSH1 0x40 MLOAD PUSH2 0xE0 SWAP2 SWAP1 PUSH2 0xA23 JUMP JUMPDEST CALLVALUE DUP1 ISZERO PUSH2 0x215 JUMPI PUSH1 0x0 DUP1 REVERT JUMPDEST POP PUSH2 0x14C PUSH2 0x224 CALLDATASIZE PUSH1 0x4 PUSH2 0x797 JUMP JUMPDEST PUSH2 0x5F3 JUMP JUMPDEST CALLVALUE DUP1 ISZERO PUSH2 0x235 JUMPI PUSH1 0x0 DUP1 REVERT JUMPDEST POP PUSH2 0xD3 PUSH2 0x244 CALLDATASIZE PUSH1 0x4 PUSH2 0x81E JUMP JUMPDEST PUSH2 0x610 JUMP JUMPDEST TIMESTAMP SWAP1 JUMP JUMPDEST PUSH1 0x0 PUSH1 0x60 NUMBER SWAP2 POP DUP3 MLOAD PUSH1 0x40 MLOAD SWAP1 DUP1 DUP3 MSTORE DUP1 PUSH1 0x20 MUL PUSH1 0x20 ADD DUP3 ADD PUSH1 0x40 MSTORE DUP1 ISZERO PUSH2 0x289 JUMPI DUP2 PUSH1 0x20 ADD JUMPDEST PUSH1 0x60 DUP2 MSTORE PUSH1 0x20 ADD SWAP1 PUSH1 0x1 SWAP1 SUB SWAP1 DUP2 PUSH2 0x274 JUMPI SWAP1 POP JUMPDEST POP SWAP1 POP PUSH1 0x0 JUMPDEST DUP4 MLOAD DUP2 LT ISZERO PUSH2 0x3EA JUMPI PUSH1 0x0 PUSH1 0x60 DUP6 DUP4 DUP2 MLOAD DUP2 LT ISZERO ISZERO PUSH2 0x2AA JUMPI INVALID JUMPDEST SWAP1 PUSH1 0x20 ADD SWAP1 PUSH1 0x20 MUL ADD MLOAD PUSH1 0x0 ADD MLOAD PUSH20 0xFFFFFFFFFFFFFFFFFFFFFFFFFFFFFFFFFFFFFFFF AND DUP7 DUP5 DUP2 MLOAD DUP2 LT ISZERO ISZERO PUSH2 0x2DC JUMPI INVALID JUMPDEST SWAP1 PUSH1 0x20 ADD SWAP1 PUSH1 0x20 MUL ADD MLOAD PUSH1 0x20 ADD MLOAD PUSH1 0x40 MLOAD DUP1 DUP3 DUP1 MLOAD SWAP1 PUSH1 0x20 ADD SWAP1 DUP1 DUP4 DUP4 JUMPDEST PUSH1 0x20 DUP4 LT PUSH2 0x319 JUMPI DUP1 MLOAD DUP3 MSTORE PUSH1 0x1F NOT SWAP1 SWAP3 ADD SWAP2 PUSH1 0x20 SWAP2 DUP3 ADD SWAP2 ADD PUSH2 0x2FA JUMP JUMPDEST PUSH1 0x1 DUP4 PUSH1 0x20 SUB PUSH2 0x100 EXP SUB DUP1 NOT DUP3 MLOAD AND DUP2 DUP5 MLOAD AND DUP1 DUP3 OR DUP6 MSTORE POP POP POP POP POP POP SWAP1 POP ADD SWAP2 POP POP PUSH1 0x0 PUSH1 0x40 MLOAD DUP1 DUP4 SUB DUP2 PUSH1 0x0 DUP7 GAS CALL SWAP2 POP POP RETURNDATASIZE DUP1 PUSH1 0x0 DUP2 EQ PUSH2 0x37B JUMPI PUSH1 0x40 MLOAD SWAP2 POP PUSH1 0x1F NOT PUSH1 0x3F RETURNDATASIZE ADD AND DUP3 ADD PUSH1 0x40 MSTORE RETURNDATASIZE DUP3 MSTORE RETURNDATASIZE PUSH1 0x0 PUSH1 0x20 DUP5 ADD RETURNDATACOPY PUSH2 0x380 JUMP JUMPDEST PUSH1 0x60 SWAP2 POP JUMPDEST POP SWAP2 POP SWAP2 POP DUP2 ISZERO ISZERO PUSH2 0x3C7 JUMPI PUSH1 0x40 MLOAD PUSH32 0x8C379A000000000000000000000000000000000000000000000000000000000 DUP2 MSTORE PUSH1 0x4 ADD PUSH2 0x3BE SWAP1 PUSH2 0xA52 JUMP JUMPDEST PUSH1 0x40 MLOAD DUP1 SWAP2 SUB SWAP1 REVERT JUMPDEST DUP1 DUP5 DUP5 DUP2 MLOAD DUP2 LT ISZERO ISZERO PUSH2 0x3D6 JUMPI INVALID JUMPDEST PUSH1 0x20 SWAP1 DUP2 MUL SWAP1 SWAP2 ADD ADD MSTORE POP POP PUSH1 0x1 ADD PUSH2 0x28F JUMP JUMPDEST POP SWAP2 POP SWAP2 JUMP JUMPDEST PUSH1 0x0 NOT NUMBER ADD BLOCKHASH SWAP1 JUMP JUMPDEST NUMBER DUP1 BLOCKHASH PUSH1 0x60 PUSH2 0x408 DUP6 DUP6 PUSH2 0x43B JUMP JUMPDEST SWAP1 POP SWAP3 POP SWAP3 POP SWAP3 JUMP JUMPDEST NUMBER SWAP1 JUMP JUMPDEST PUSH20 0xFFFFFFFFFFFFFFFFFFFFFFFFFFFFFFFFFFFFFFFF AND BALANCE SWAP1 JUMP JUMPDEST DIFFICULTY SWAP1 JUMP JUMPDEST GASLIMIT SWAP1 JUMP JUMPDEST COINBASE SWAP1 JUMP JUMPDEST PUSH1 0x60 DUP2 MLOAD PUSH1 0x40 MLOAD SWAP1 DUP1 DUP3 MSTORE DUP1 PUSH1 0x20 MUL PUSH1 0x20 ADD DUP3 ADD PUSH1 0x40 MSTORE DUP1 ISZERO PUSH2 0x478 JUMPI DUP2 PUSH1 0x20 ADD JUMPDEST PUSH2 0x465 PUSH2 0x614 JUMP JUMPDEST DUP2 MSTORE PUSH1 0x20 ADD SWAP1 PUSH1 0x1 SWAP1 SUB SWAP1 DUP2 PUSH2 0x45D JUMPI SWAP1 POP JUMPDEST POP SWAP1 POP PUSH1 0x0 JUMPDEST DUP3 MLOAD DUP2 LT ISZERO PUSH2 0x5EC JUMPI PUSH1 0x0 PUSH1 0x60 DUP5 DUP4 DUP2 MLOAD DUP2 LT ISZERO ISZERO PUSH2 0x499 JUMPI INVALID JUMPDEST SWAP1 PUSH1 0x20 ADD SWAP1 PUSH1 0x20 MUL ADD MLOAD PUSH1 0x0 ADD MLOAD PUSH20 0xFFFFFFFFFFFFFFFFFFFFFFFFFFFFFFFFFFFFFFFF AND DUP6 DUP5 DUP2 MLOAD DUP2 LT ISZERO ISZERO PUSH2 0x4CB JUMPI INVALID JUMPDEST SWAP1 PUSH1 0x20 ADD SWAP1 PUSH1 0x20 MUL ADD MLOAD PUSH1 0x20 ADD MLOAD PUSH1 0x40 MLOAD DUP1 DUP3 DUP1 MLOAD SWAP1 PUSH1 0x20 ADD SWAP1 DUP1 DUP4 DUP4 JUMPDEST PUSH1 0x20 DUP4 LT PUSH2 0x508 JUMPI DUP1 MLOAD DUP3 MSTORE PUSH1 0x1F NOT SWAP1 SWAP3 ADD SWAP2 PUSH1 0x20 SWAP2 DUP3 ADD SWAP2 ADD PUSH2 0x4E9 JUMP JUMPDEST PUSH1 0x1 DUP4 PUSH1 0x20 SUB PUSH2 0x100 EXP SUB DUP1 NOT DUP3 MLOAD AND DUP2 DUP5 MLOAD AND DUP1 DUP3 OR DUP6 MSTORE POP POP POP POP POP POP SWAP1 POP ADD SWAP2 POP POP PUSH1 0x0 PUSH1 0x40 MLOAD DUP1 DUP4 SUB DUP2 PUSH1 0x0 DUP7 GAS CALL SWAP2 POP POP RETURNDATASIZE DUP1 PUSH1 0x0 DUP2 EQ PUSH2 0x56A JUMPI PUSH1 0x40 MLOAD SWAP2 POP PUSH1 0x1F NOT PUSH1 0x3F RETURNDATASIZE ADD AND DUP3 ADD PUSH1 0x40 MSTORE RETURNDATASIZE DUP3 MSTORE RETURNDATASIZE PUSH1 0x0 PUSH1 0x20 DUP5 ADD RETURNDATACOPY PUSH2 0x56F JUMP JUMPDEST PUSH1 0x60 SWAP2 POP JUMPDEST POP SWAP2 POP SWAP2 POP DUP6 ISZERO PUSH2 0x5B3 JUMPI DUP2 ISZERO ISZERO PUSH2 0x5B3 JUMPI PUSH1 0x40 MLOAD PUSH32 0x8C379A000000000000000000000000000000000000000000000000000000000 DUP2 MSTORE PUSH1 0x4 ADD PUSH2 0x3BE SWAP1 PUSH2 0xA42 JUMP JUMPDEST PUSH1 0x40 DUP1 MLOAD SWAP1 DUP2 ADD PUSH1 0x40 MSTORE DUP1 DUP4 ISZERO ISZERO DUP2 MSTORE PUSH1 0x20 ADD DUP3 DUP2 MSTORE POP DUP5 DUP5 DUP2 MLOAD DUP2 LT ISZERO ISZERO PUSH2 0x5D8 JUMPI INVALID JUMPDEST PUSH1 0x20 SWAP1 DUP2 MUL SWAP1 SWAP2 ADD ADD MSTORE POP POP PUSH1 0x1 ADD PUSH2 0x47E JUMP JUMPDEST POP SWAP3 SWAP2 POP POP JUMP JUMPDEST PUSH1 0x0 DUP1 PUSH1 0x60 PUSH2 0x603 PUSH1 0x1 DUP6 PUSH2 0x3F9 JUMP JUMPDEST SWAP2 SWAP7 SWAP1 SWAP6 POP SWAP1 SWAP4 POP SWAP2 POP POP JUMP JUMPDEST BLOCKHASH SWAP1 JUMP JUMPDEST PUSH1 0x40 DUP1 MLOAD DUP1 DUP3 ADD SWAP1 SWAP2 MSTORE PUSH1 0x0 DUP2 MSTORE PUSH1 0x60 PUSH1 0x20 DUP3 ADD MSTORE SWAP1 JUMP JUMPDEST PUSH1 0x0 PUSH2 0x638 DUP3 CALLDATALOAD PUSH2 0xB29 JUMP JUMPDEST SWAP4 SWAP3 POP POP POP JUMP JUMPDEST PUSH1 0x0 PUSH1 0x1F DUP3 ADD DUP4 SGT PUSH2 0x650 JUMPI PUSH1 0x0 DUP1 REVERT JUMPDEST DUP2 CALLDATALOAD PUSH2 0x663 PUSH2 0x65E DUP3 PUSH2 0xAD6 JUMP JUMPDEST PUSH2 0xAAF JUMP JUMPDEST DUP2 DUP2 MSTORE PUSH1 0x20 SWAP4 DUP5 ADD SWAP4 SWAP1 SWAP3 POP DUP3 ADD DUP4 PUSH1 0x0 JUMPDEST DUP4 DUP2 LT ISZERO PUSH2 0x6A1 JUMPI DUP2 CALLDATALOAD DUP7 ADD PUSH2 0x68B DUP9 DUP3 PUSH2 0x706 JUMP JUMPDEST DUP5 MSTORE POP PUSH1 0x20 SWAP3 DUP4 ADD SWAP3 SWAP2 SWAP1 SWAP2 ADD SWAP1 PUSH1 0x1 ADD PUSH2 0x675 JUMP JUMPDEST POP POP POP POP SWAP3 SWAP2 POP POP JUMP JUMPDEST PUSH1 0x0 PUSH2 0x638 DUP3 CALLDATALOAD PUSH2 0xB34 JUMP JUMPDEST PUSH1 0x0 PUSH1 0x1F DUP3 ADD DUP4 SGT PUSH2 0x6C8 JUMPI PUSH1 0x0 DUP1 REVERT JUMPDEST DUP2 CALLDATALOAD PUSH2 0x6D6 PUSH2 0x65E DUP3 PUSH2 0xAF7 JUMP JUMPDEST SWAP2 POP DUP1 DUP3 MSTORE PUSH1 0x20 DUP4 ADD PUSH1 0x20 DUP4 ADD DUP6 DUP4 DUP4 ADD GT ISZERO PUSH2 0x6F2 JUMPI PUSH1 0x0 DUP1 REVERT JUMPDEST PUSH2 0x6FD DUP4 DUP3 DUP5 PUSH2 0xB55 JUMP JUMPDEST POP POP POP SWAP3 SWAP2 POP POP JUMP JUMPDEST PUSH1 0x0 PUSH1 0x40 DUP3 DUP5 SUB SLT ISZERO PUSH2 0x718 JUMPI PUSH1 0x0 DUP1 REVERT JUMPDEST PUSH2 0x722 PUSH1 0x40 PUSH2 0xAAF JUMP JUMPDEST SWAP1 POP PUSH1 0x0 PUSH2 0x730 DUP5 DUP5 PUSH2 0x62C JUMP JUMPDEST DUP3 MSTORE POP PUSH1 0x20 DUP3 ADD CALLDATALOAD PUSH8 0xFFFFFFFFFFFFFFFF DUP2 GT ISZERO PUSH2 0x74D JUMPI PUSH1 0x0 DUP1 REVERT JUMPDEST PUSH2 0x759 DUP5 DUP3 DUP6 ADD PUSH2 0x6B7 JUMP JUMPDEST PUSH1 0x20 DUP4 ADD MSTORE POP SWAP3 SWAP2 POP POP JUMP JUMPDEST PUSH1 0x0 PUSH2 0x638 DUP3 CALLDATALOAD PUSH2 0xB39 JUMP JUMPDEST PUSH1 0x0 PUSH1 0x20 DUP3 DUP5 SUB SLT ISZERO PUSH2 0x783 JUMPI PUSH1 0x0 DUP1 REVERT JUMPDEST PUSH1 0x0 PUSH2 0x78F DUP5 DUP5 PUSH2 0x62C JUMP JUMPDEST SWAP5 SWAP4 POP POP POP POP JUMP JUMPDEST PUSH1 0x0 PUSH1 0x20 DUP3 DUP5 SUB SLT ISZERO PUSH2 0x7A9 JUMPI PUSH1 0x0 DUP1 REVERT JUMPDEST DUP2 CALLDATALOAD PUSH8 0xFFFFFFFFFFFFFFFF DUP2 GT ISZERO PUSH2 0x7C0 JUMPI PUSH1 0x0 DUP1 REVERT JUMPDEST PUSH2 0x78F DUP5 DUP3 DUP6 ADD PUSH2 0x63F JUMP JUMPDEST PUSH1 0x0 DUP1 PUSH1 0x40 DUP4 DUP6 SUB SLT ISZERO PUSH2 0x7DF JUMPI PUSH1 0x0 DUP1 REVERT JUMPDEST PUSH1 0x0 PUSH2 0x7EB DUP6 DUP6 PUSH2 0x6AB JUMP JUMPDEST SWAP3 POP POP PUSH1 0x20 DUP4 ADD CALLDATALOAD PUSH8 0xFFFFFFFFFFFFFFFF DUP2 GT ISZERO PUSH2 0x808 JUMPI PUSH1 0x0 DUP1 REVERT JUMPDEST PUSH2 0x814 DUP6 DUP3 DUP7 ADD PUSH2 0x63F JUMP JUMPDEST SWAP2 POP POP SWAP3 POP SWAP3 SWAP1 POP JUMP JUMPDEST PUSH1 0x0 PUSH1 0x20 DUP3 DUP5 SUB SLT ISZERO PUSH2 0x830 JUMPI PUSH1 0x0 DUP1 REVERT JUMPDEST PUSH1 0x0 PUSH2 0x78F DUP5 DUP5 PUSH2 0x765 JUMP JUMPDEST PUSH2 0x845 DUP2 PUSH2 0xB29 JUMP JUMPDEST DUP3 MSTORE POP POP JUMP JUMPDEST PUSH1 0x0 PUSH2 0x856 DUP3 PUSH2 0xB25 JUMP JUMPDEST DUP1 DUP5 MSTORE PUSH1 0x20 DUP5 ADD SWAP4 POP DUP4 PUSH1 0x20 DUP3 MUL DUP6 ADD PUSH2 0x86F DUP6 PUSH2 0xB1F JUMP JUMPDEST PUSH1 0x0 JUMPDEST DUP5 DUP2 LT ISZERO PUSH2 0x8A6 JUMPI DUP4 DUP4 SUB DUP9 MSTORE PUSH2 0x88A DUP4 DUP4 MLOAD PUSH2 0x91F JUMP JUMPDEST SWAP3 POP PUSH2 0x895 DUP3 PUSH2 0xB1F JUMP JUMPDEST PUSH1 0x20 SWAP9 SWAP1 SWAP9 ADD SWAP8 SWAP2 POP PUSH1 0x1 ADD PUSH2 0x872 JUMP JUMPDEST POP SWAP1 SWAP7 SWAP6 POP POP POP POP POP POP JUMP JUMPDEST PUSH1 0x0 PUSH2 0x8BD DUP3 PUSH2 0xB25 JUMP JUMPDEST DUP1 DUP5 MSTORE PUSH1 0x20 DUP5 ADD SWAP4 POP DUP4 PUSH1 0x20 DUP3 MUL DUP6 ADD PUSH2 0x8D6 DUP6 PUSH2 0xB1F JUMP JUMPDEST PUSH1 0x0 JUMPDEST DUP5 DUP2 LT ISZERO PUSH2 0x8A6 JUMPI DUP4 DUP4 SUB DUP9 MSTORE PUSH2 0x8F1 DUP4 DUP4 MLOAD PUSH2 0x9DA JUMP JUMPDEST SWAP3 POP PUSH2 0x8FC DUP3 PUSH2 0xB1F JUMP JUMPDEST PUSH1 0x20 SWAP9 SWAP1 SWAP9 ADD SWAP8 SWAP2 POP PUSH1 0x1 ADD PUSH2 0x8D9 JUMP JUMPDEST PUSH2 0x845 DUP2 PUSH2 0xB34 JUMP JUMPDEST PUSH2 0x845 DUP2 PUSH2 0xB39 JUMP JUMPDEST PUSH1 0x0 PUSH2 0x92A DUP3 PUSH2 0xB25 JUMP JUMPDEST DUP1 DUP5 MSTORE PUSH2 0x93E DUP2 PUSH1 0x20 DUP7 ADD PUSH1 0x20 DUP7 ADD PUSH2 0xB61 JUMP JUMPDEST PUSH2 0x947 DUP2 PUSH2 0xB91 JUMP JUMPDEST SWAP1 SWAP4 ADD PUSH1 0x20 ADD SWAP4 SWAP3 POP POP POP JUMP JUMPDEST PUSH1 0x21 DUP2 MSTORE PUSH32 0x4D756C746963616C6C32206167677265676174653A2063616C6C206661696C65 PUSH1 0x20 DUP3 ADD MSTORE PUSH32 0x6400000000000000000000000000000000000000000000000000000000000000 PUSH1 0x40 DUP3 ADD MSTORE PUSH1 0x60 ADD SWAP1 JUMP JUMPDEST PUSH1 0x20 DUP1 DUP3 MSTORE PUSH32 0x4D756C746963616C6C206167677265676174653A2063616C6C206661696C6564 SWAP1 DUP3 ADD MSTORE PUSH1 0x40 ADD SWAP1 JUMP JUMPDEST DUP1 MLOAD PUSH1 0x0 SWAP1 PUSH1 0x40 DUP5 ADD SWAP1 PUSH2 0x9EE DUP6 DUP3 PUSH2 0x90D JUMP JUMPDEST POP PUSH1 0x20 DUP4 ADD MLOAD DUP5 DUP3 SUB PUSH1 0x20 DUP7 ADD MSTORE PUSH2 0xA06 DUP3 DUP3 PUSH2 0x91F JUMP JUMPDEST SWAP6 SWAP5 POP POP POP POP POP JUMP JUMPDEST PUSH1 0x20 DUP2 ADD PUSH2 0xA1D DUP3 DUP5 PUSH2 0x83C JUMP JUMPDEST SWAP3 SWAP2 POP POP JUMP JUMPDEST PUSH1 0x20 DUP1 DUP3 MSTORE DUP2 ADD PUSH2 0x638 DUP2 DUP5 PUSH2 0x8B2 JUMP JUMPDEST PUSH1 0x20 DUP2 ADD PUSH2 0xA1D DUP3 DUP5 PUSH2 0x916 JUMP JUMPDEST PUSH1 0x20 DUP1 DUP3 MSTORE DUP2 ADD PUSH2 0xA1D DUP2 PUSH2 0x954 JUMP JUMPDEST PUSH1 0x20 DUP1 DUP3 MSTORE DUP2 ADD PUSH2 0xA1D DUP2 PUSH2 0x9AA JUMP JUMPDEST PUSH1 0x40 DUP2 ADD PUSH2 0xA70 DUP3 DUP6 PUSH2 0x916 JUMP JUMPDEST DUP2 DUP2 SUB PUSH1 0x20 DUP4 ADD MSTORE PUSH2 0x78F DUP2 DUP5 PUSH2 0x84B JUMP JUMPDEST PUSH1 0x60 DUP2 ADD PUSH2 0xA90 DUP3 DUP7 PUSH2 0x916 JUMP JUMPDEST PUSH2 0xA9D PUSH1 0x20 DUP4 ADD DUP6 PUSH2 0x916 JUMP JUMPDEST DUP2 DUP2 SUB PUSH1 0x40 DUP4 ADD MSTORE PUSH2 0xA06 DUP2 DUP5 PUSH2 0x8B2 JUMP JUMPDEST PUSH1 0x40 MLOAD DUP2 DUP2 ADD PUSH8 0xFFFFFFFFFFFFFFFF DUP2 GT DUP3 DUP3 LT OR ISZERO PUSH2 0xACE JUMPI PUSH1 0x0 DUP1 REVERT JUMPDEST PUSH1 0x40 MSTORE SWAP2 SWAP1 POP JUMP JUMPDEST PUSH1 0x0 PUSH8 0xFFFFFFFFFFFFFFFF DUP3 GT ISZERO PUSH2 0xAED JUMPI PUSH1 0x0 DUP1 REVERT JUMPDEST POP PUSH1 0x20 SWAP1 DUP2 MUL ADD SWAP1 JUMP JUMPDEST PUSH1 0x0 PUSH8 0xFFFFFFFFFFFFFFFF DUP3 GT ISZERO PUSH2 0xB0E JUMPI PUSH1 0x0 DUP1 REVERT JUMPDEST POP PUSH1 0x20 PUSH1 0x1F SWAP2 SWAP1 SWAP2 ADD PUSH1 0x1F NOT AND ADD SWAP1 JUMP JUMPDEST PUSH1 0x20 ADD SWAP1 JUMP JUMPDEST MLOAD SWAP1 JUMP JUMPDEST PUSH1 0x0 PUSH2 0xA1D DUP3 PUSH2 0xB3C JUMP JUMPDEST ISZERO ISZERO SWAP1 JUMP JUMPDEST SWAP1 JUMP JUMPDEST PUSH20 0xFFFFFFFFFFFFFFFFFFFFFFFFFFFFFFFFFFFFFFFF AND SWAP1 JUMP JUMPDEST DUP3 DUP2 DUP4 CALLDATACOPY POP PUSH1 0x0 SWAP2 ADD MSTORE JUMP JUMPDEST PUSH1 0x0 JUMPDEST DUP4 DUP2 LT ISZERO PUSH2 0xB7C JUMPI DUP2 DUP2 ADD MLOAD DUP4 DUP3 ADD MSTORE PUSH1 0x20 ADD PUSH2 0xB64 JUMP JUMPDEST DUP4 DUP2 GT ISZERO PUSH2 0xB8B JUMPI PUSH1 0x0 DUP5 DUP5 ADD MSTORE JUMPDEST POP POP POP POP JUMP JUMPDEST PUSH1 0x1F ADD PUSH1 0x1F NOT AND SWAP1 JUMP INVALID LOG2 PUSH6 0x627A7A723058 KECCAK256 0x27 AND 0x4c 0xc9 CODECOPY 0xa6 SWAP7 0xe0 RETURNDATASIZE 0xf8 PUSH21 0xC4F3AD47FFB54AC5F9DEAAA83988A8FCF48FA616FB PUSH13 0x6578706572696D656E74616CF5 STOP CALLDATACOPY "
		},
		"gasEstimates": {
			"creation": {
				"codeDepositCost": "605800",
				"executionCost": "638",
				"totalCost": "606438"
			},
			"external": {
				"aggregate((address,bytes)[])": "infinite",
				"blockAndAggregate((address,bytes)[])": "infinite",
				"getBlockHash(uint256)": "infinite",
				"getBlockNumber()": "372",
				"getCurrentBlockCoinbase()": "infinite",
				"getCurrentBlockDifficulty()": "416",
				"getCurrentBlockGasLimit()": "438",
				"getCurrentBlockTimestamp()": "284",
				"getEthBalance(address)": "infinite",
				"getLastBlockHash()": "357",
				"tryAggregate(bool,(address,bytes)[])": "infinite",
				"tryBlockAndAggregate(bool,(address,bytes)[])": "infinite"
			}
		},
		"methodIdentifiers": {
			"aggregate((address,bytes)[])": "252dba42",
			"blockAndAggregate((address,bytes)[])": "c3077fa9",
			"getBlockHash(uint256)": "ee82ac5e",
			"getBlockNumber()": "42cbb15c",
			"getCurrentBlockCoinbase()": "a8b0574e",
			"getCurrentBlockDifficulty()": "72425d9d",
			"getCurrentBlockGasLimit()": "86d516e8",
			"getCurrentBlockTimestamp()": "0f28c97d",
			"getEthBalance(address)": "4d2301cc",
			"getLastBlockHash()": "27e86d6e",
			"tryAggregate(bool,(address,bytes)[])": "bce38bd7",
			"tryBlockAndAggregate(bool,(address,bytes)[])": "399542e9"
		}
	},
	"abi": [
		{
			"constant": true,
			"inputs": [],
			"name": "getCurrentBlockTimestamp",
			"outputs": [
				{
					"name": "timestamp",
					"type": "uint256"
				}
			],
			"payable": false,
			"stateMutability": "view",
			"type": "function"
		},
		{
			"constant": false,
			"inputs": [
				{
					"components": [
						{
							"name": "target",
							"type": "address"
						},
						{
							"name": "callData",
							"type": "bytes"
						}
					],
					"name": "calls",
					"type": "tuple[]"
				}
			],
			"name": "aggregate",
			"outputs": [
				{
					"name": "blockNumber",
					"type": "uint256"
				},
				{
					"name": "returnData",
					"type": "bytes[]"
				}
			],
			"payable": false,
			"stateMutability": "nonpayable",
			"type": "function"
		},
		{
			"constant": true,
			"inputs": [],
			"name": "getLastBlockHash",
			"outputs": [
				{
					"name": "blockHash",
					"type": "bytes32"
				}
			],
			"payable": false,
			"stateMutability": "view",
			"type": "function"
		},
		{
			"constant": false,
			"inputs": [
				{
					"name": "requireSuccess",
					"type": "bool"
				},
				{
					"components": [
						{
							"name": "target",
							"type": "address"
						},
						{
							"name": "callData",
							"type": "bytes"
						}
					],
					"name": "calls",
					"type": "tuple[]"
				}
			],
			"name": "tryBlockAndAggregate",
			"outputs": [
				{
					"name": "blockNumber",
					"type": "uint256"
				},
				{
					"name": "blockHash",
					"type": "bytes32"
				},
				{
					"components": [
						{
							"name": "success",
							"type": "bool"
						},
						{
							"name": "returnData",
							"type": "bytes"
						}
					],
					"name": "returnData",
					"type": "tuple[]"
				}
			],
			"payable": false,
			"stateMutability": "nonpayable",
			"type": "function"
		},
		{
			"constant": true,
			"inputs": [],
			"name": "getBlockNumber",
			"outputs": [
				{
					"name": "blockNumber",
					"type": "uint256"
				}
			],
			"payable": false,
			"stateMutability": "view",
			"type": "function"
		},
		{
			"constant": true,
			"inputs": [
				{
					"name": "addr",
					"type": "address"
				}
			],
			"name": "getEthBalance",
			"outputs": [
				{
					"name": "balance",
					"type": "uint256"
				}
			],
			"payable": false,
			"stateMutability": "view",
			"type": "function"
		},
		{
			"constant": true,
			"inputs": [],
			"name": "getCurrentBlockDifficulty",
			"outputs": [
				{
					"name": "difficulty",
					"type": "uint256"
				}
			],
			"payable": false,
			"stateMutability": "view",
			"type": "function"
		},
		{
			"constant": true,
			"inputs": [],
			"name": "getCurrentBlockGasLimit",
			"outputs": [
				{
					"name": "gaslimit",
					"type": "uint256"
				}
			],
			"payable": false,
			"stateMutability": "view",
			"type": "function"
		},
		{
			"constant": true,
			"inputs": [],
			"name": "getCurrentBlockCoinbase",
			"outputs": [
				{
					"name": "coinbase",
					"type": "address"
				}
			],
			"payable": false,
			"stateMutability": "view",
			"type": "function"
		},
		{
			"constant": false,
			"inputs": [
				{
					"name": "requireSuccess",
					"type": "bool"
				},
				{
					"components": [
						{
							"name": "target",
							"type": "address"
						},
						{
							"name": "callData",
							"type": "bytes"
						}
					],
					"name": "calls",
					"type": "tuple[]"
				}
			],
			"name": "tryAggregate",
			"outputs": [
				{
					"components": [
						{
							"name": "success",
							"type": "bool"
						},
						{
							"name": "returnData",
							"type": "bytes"
						}
					],
					"name": "returnData",
					"type": "tuple[]"
				}
			],
			"payable": false,
			"stateMutability": "nonpayable",
			"type": "function"
		},
		{
			"constant": false,
			"inputs": [
				{
					"components": [
						{
							"name": "target",
							"type": "address"
						},
						{
							"name": "callData",
							"type": "bytes"
						}
					],
					"name": "calls",
					"type": "tuple[]"
				}
			],
			"name": "blockAndAggregate",
			"outputs": [
				{
					"name": "blockNumber",
					"type": "uint256"
				},
				{
					"name": "blockHash",
					"type": "bytes32"
				},
				{
					"components": [
						{
							"name": "success",
							"type": "bool"
						},
						{
							"name": "returnData",
							"type": "bytes"
						}
					],
					"name": "returnData",
					"type": "tuple[]"
				}
			],
			"payable": false,
			"stateMutability": "nonpayable",
			"type": "function"
		},
		{
			"constant": true,
			"inputs": [
				{
					"name": "blockNumber",
					"type": "uint256"
				}
			],
			"name": "getBlockHash",
			"outputs": [
				{
					"name": "blockHash",
					"type": "bytes32"
				}
			],
			"payable": false,
			"stateMutability": "view",
			"type": "function"
		}
	]
}