{
	"data": {
		"bytecode": {
			"linkReferences": {},
			"object": "6122b860095560a060405260006080908152600a90620000209082620002e5565b50604080518082019091526005815264173539b7b760d91b6020820152600b906200004c9082620002e5565b506001600c55600d805461010161ffff1991821681179092556000600e819055600f8054909216909217905560148190556015819055601681905560188190556019553480156200009c57600080fd5b506040516200530c3803806200530c833981016040819052620000bf9162000526565b888a6000620000cf8382620002e5565b506001620000de8282620002e5565b505050620000fb620000f56200016960201b60201c565b6200016d565b60098790556018869055600d805461ffff191686151561ff0019161761010086151502179055600e839055600f805460ff1916831515179055600a620001428982620002e5565b50805162000158906013906020840190620001bf565b505050505050505050505062000636565b3390565b600780546001600160a01b038381166001600160a01b0319831681179093556040519116919082907f8be0079c531659141344cd1fd0a4f28419497f9722a3daafe3b4186f6b6457e090600090a35050565b82805482825590600052602060002090810192821562000217579160200282015b828111156200021757825182546001600160a01b0319166001600160a01b03909116178255602090920191600190910190620001e0565b506200022592915062000229565b5090565b5b808211156200022557600081556001016200022a565b634e487b7160e01b600052604160045260246000fd5b600181811c908216806200026b57607f821691505b6020821081036200028c57634e487b7160e01b600052602260045260246000fd5b50919050565b601f821115620002e057600081815260208120601f850160051c81016020861015620002bb5750805b601f850160051c820191505b81811015620002dc57828155600101620002c7565b5050505b505050565b81516001600160401b0381111562000301576200030162000240565b620003198162000312845462000256565b8462000292565b602080601f831160018114620003515760008415620003385750858301515b600019600386901b1c1916600185901b178555620002dc565b600085815260208120601f198616915b82811015620003825788860151825594840194600190910190840162000361565b5085821015620003a15787850151600019600388901b60f8161c191681555b5050505050600190811b01905550565b604051601f8201601f191681016001600160401b0381118282101715620003dc57620003dc62000240565b604052919050565b600082601f830112620003f657600080fd5b81516001600160401b0381111562000412576200041262000240565b602062000428601f8301601f19168201620003b1565b82815285828487010111156200043d57600080fd5b60005b838110156200045d57858101830151828201840152820162000440565b506000928101909101919091529392505050565b805180151581146200048257600080fd5b919050565b600082601f8301126200049957600080fd5b815160206001600160401b03821115620004b757620004b762000240565b8160051b620004c8828201620003b1565b9283528481018201928281019087851115620004e357600080fd5b83870192505b848310156200051b5782516001600160a01b03811681146200050b5760008081fd5b82529183019190830190620004e9565b979650505050505050565b6000806000806000806000806000806101408b8d0312156200054757600080fd5b8a516001600160401b03808211156200055f57600080fd5b6200056d8e838f01620003e4565b9b5060208d01519150808211156200058457600080fd5b620005928e838f01620003e4565b9a5060408d0151915080821115620005a957600080fd5b620005b78e838f01620003e4565b995060608d0151985060808d01519750620005d560a08e0162000471565b9650620005e560c08e0162000471565b955060e08d01519450620005fd6101008e0162000471565b93506101208d01519150808211156200061557600080fd5b50620006248d828e0162000487565b9150509295989b9194979a5092959850565b614cc680620006466000396000f3fe6080604052600436106103c35760003560e01c80638c7eb38e116101f2578063d55a34e41161010d578063f2fde38b116100a0578063f9b45cc01161006f578063f9b45cc014610af5578063fcf984a914610b15578063fe575a8714610b35578063ff7f0cf914610b6e57600080fd5b8063f2fde38b14610a75578063f3985f1014610a95578063f4a0a52814610ab5578063f7e944ee14610ad557600080fd5b8063e4997dc5116100dc578063e4997dc5146109cc578063e985e9c5146109ec578063e9e4e16014610a35578063eacabe1414610a5557600080fd5b8063d55a34e414610958578063d5abeb011461096d578063ddbfc0d214610982578063e1e767e61461099f57600080fd5b8063a7f93ebd11610185578063bda8d37011610154578063bda8d370146108e8578063c399748d14610908578063c87b56dd14610925578063d0def5211461094557600080fd5b8063a7f93ebd14610888578063ad3ea47e1461089d578063b42a275e146108b5578063b88d4fde146108c857600080fd5b80639fd5d2ab116101c15780639fd5d2ab1461081b578063a096c5a21461083b578063a22cb46514610850578063a6fde7ab1461087057600080fd5b80638c7eb38e146107be5780638da5cb5b146107d3578063952977f5146107f157806395d89b411461080657600080fd5b806342966c68116102e257806365f5f66111610275578063714c539811610244578063714c539814610754578063715018a614610769578063785fa7ce1461077e5780637c237eea1461079e57600080fd5b806365f5f661146106d057806369c57352146106f25780636f8b44b01461071457806370a082311461073457600080fd5b806354fd4d50116102b157806354fd4d501461065a57806355f804b3146106705780635e81078d146106905780636352211e146106b057600080fd5b806342966c68146105e7578063476caa7014610607578063512ddcf91461062757806351ed82881461064757600080fd5b806319c8c1c51161035a57806331af38861161032957806331af38861461057e57806332cb6b0c1461059157806335d4abde146105a757806342842e0e146105c757600080fd5b806319c8c1c5146104fc5780631a3074dc146105295780631f05ad941461054957806323b872dd1461055e57600080fd5b8063095ea7b311610396578063095ea7b3146104795780630ecb93c01461049957806310603023146104b957806318160ddd146104d957600080fd5b806301ffc9a7146103c8578063047a5d43146103fd57806306fdde031461041f578063081812fc14610441575b600080fd5b3480156103d457600080fd5b506103e86103e3366004613da0565b610b83565b60405190151581526020015b60405180910390f35b34801561040957600080fd5b5061041d610418366004613dbd565b610bd5565b005b34801561042b57600080fd5b5061043461109b565b6040516103f49190613e26565b34801561044d57600080fd5b5061046161045c366004613dbd565b61112d565b6040516001600160a01b0390911681526020016103f4565b34801561048557600080fd5b5061041d610494366004613e55565b611154565b3480156104a557600080fd5b5061041d6104b4366004613e7f565b611269565b3480156104c557600080fd5b5061041d6104d4366004613dbd565b611295565b3480156104e557600080fd5b506104ee6112a2565b6040519081526020016103f4565b34801561050857600080fd5b5061051c610517366004613e7f565b6112b2565b6040516103f49190613e9a565b34801561053557600080fd5b5061041d610544366004613f49565b611510565b34801561055557600080fd5b506019546104ee565b34801561056a57600080fd5b5061041d610579366004613f66565b611532565b6104ee61058c366004613dbd565b611563565b34801561059d57600080fd5b506104ee60095481565b3480156105b357600080fd5b5061041d6105c2366004613dbd565b6116d0565b3480156105d357600080fd5b5061041d6105e2366004613f66565b6116dd565b3480156105f357600080fd5b5061041d610602366004613dbd565b6116f8565b34801561061357600080fd5b506104ee610622366004613e7f565b61171c565b34801561063357600080fd5b5061041d610642366004613dbd565b611790565b61041d610655366004613dbd565b611878565b34801561066657600080fd5b506104ee600c5481565b34801561067c57600080fd5b5061041d61068b36600461405f565b611bb6565b34801561069c57600080fd5b5061041d6106ab366004613f49565b611bce565b3480156106bc57600080fd5b506104616106cb366004613dbd565b611be9565b3480156106dc57600080fd5b506106e5611c49565b6040516103f49190614093565b3480156106fe57600080fd5b50610707611d22565b6040516103f491906140f5565b34801561072057600080fd5b5061041d61072f366004613dbd565b611d83565b34801561074057600080fd5b506104ee61074f366004613e7f565b611d90565b34801561076057600080fd5b50610434611e16565b34801561077557600080fd5b5061041d611e25565b34801561078a57600080fd5b506103e8610799366004613e7f565b611e39565b3480156107aa57600080fd5b5061041d6107b9366004614142565b611e9d565b3480156107ca57600080fd5b506103e8600181565b3480156107df57600080fd5b506007546001600160a01b0316610461565b3480156107fd57600080fd5b50600e546104ee565b34801561081257600080fd5b506104346121df565b34801561082757600080fd5b5061041d610836366004613f49565b6121ee565b34801561084757600080fd5b5061051c612209565b34801561085c57600080fd5b5061041d61086b366004614177565b612214565b34801561087c57600080fd5b50600f5460ff166103e8565b34801561089457600080fd5b506018546104ee565b3480156108a957600080fd5b50600d5460ff166103e8565b3480156108c157600080fd5b50476104ee565b3480156108d457600080fd5b5061041d6108e33660046141ae565b61221f565b3480156108f457600080fd5b5061041d6109033660046142db565b612251565b34801561091457600080fd5b50600d54610100900460ff166103e8565b34801561093157600080fd5b50610434610940366004613dbd565b61226c565b6104ee61095336600461430f565b612320565b34801561096457600080fd5b5061051c6124bd565b34801561097957600080fd5b506009546104ee565b34801561098e57600080fd5b50600f54610100900460ff166103e8565b3480156109ab57600080fd5b506109bf6109ba3660046143be565b6126ca565b6040516103f491906144ac565b3480156109d857600080fd5b5061041d6109e7366004613e7f565b612c1b565b3480156109f857600080fd5b506103e8610a073660046144e4565b6001600160a01b03918216600090815260056020908152604080832093909416825291909152205460ff1690565b348015610a4157600080fd5b5061041d610a50366004614517565b612c44565b348015610a6157600080fd5b506104ee610a7036600461430f565b612c5f565b348015610a8157600080fd5b5061041d610a90366004613e7f565b612c69565b348015610aa157600080fd5b5061041d610ab036600461454b565b612cdf565b348015610ac157600080fd5b5061041d610ad0366004613dbd565b612d4f565b348015610ae157600080fd5b5061041d610af0366004613dbd565b612d5c565b348015610b0157600080fd5b5061041d610b10366004613f49565b612dd6565b348015610b2157600080fd5b5061041d610b30366004613e7f565b612df8565b348015610b4157600080fd5b506103e8610b50366004613e7f565b6001600160a01b031660009081526012602052604090205460ff1690565b348015610b7a57600080fd5b5061041d612f01565b60006001600160e01b031982166380ac58cd60e01b1480610bb457506001600160e01b03198216635b5e139f60e01b145b80610bcf57506301ffc9a760e01b6001600160e01b03198316145b92915050565b600d5460ff161515600114610c055760405162461bcd60e51b8152600401610bfc906145ef565b60405180910390fd5b610c0e81611be9565b6001600160a01b0316306001600160a01b031614610c6e5760405162461bcd60e51b815260206004820152601a60248201527f54686973204e4654206e6f742061742073616c6520626f6172640000000000006044820152606401610bfc565b60008181526010602052604090205460ff161515600114610ccc5760405162461bcd60e51b815260206004820152601860248201527754686973204e4654206973206e6f7420666f722073616c6560401b6044820152606401610bfc565b6000818152601160205260409020600401546001600160a01b0316610d335760405162461bcd60e51b815260206004820181905260248201527f5468697320746f6b656e2073656c6c6564206279204e617469766520636f696e6044820152606401610bfc565b60008181526011602052604080822060049081015491516370a0823160e01b815233918101919091526001600160a01b03909116919082906370a0823190602401602060405180830381865afa158015610d91573d6000803e3d6000fd5b505050506040513d601f19601f82011682018060405250810190610db5919061461a565b600084815260116020526040902060030154909150811015610e365760405162461bcd60e51b815260206004820152603460248201527f596f7520646f206e6f74206861766520656e6f75676820746f6b656e73206f6e60448201527320796f75722062616c616e636520746f2070617960601b6064820152608401610bfc565b604051636eb1769f60e11b81523360048201523060248201526000906001600160a01b0384169063dd62ed3e90604401602060405180830381865afa158015610e83573d6000803e3d6000fd5b505050506040513d601f19601f82011682018060405250810190610ea7919061461a565b600085815260116020526040902060030154909150811015610f315760405162461bcd60e51b815260206004820152603a60248201527f596f7520646964206e6f7420616c6c6f772074686520636f6e7472616374207460448201527f6f2073656e642074686520707572636861736520616d6f756e740000000000006064820152608401610bfc565b60008481526011602052604081206003015490610f5a610f52836064612f75565b600e54612f81565b9050610f6e6007546001600160a01b031690565b6000878152601160205260409020600201546001600160a01b03918216911603610f96575060005b6000610fa28383612f8d565b600088815260116020526040902060020154909150610fd0906001600160a01b038881169133911684612f99565b8115610ffe57610ffe33610fec6007546001600160a01b031690565b6001600160a01b038916919085612f99565b611009303389612ff3565b6000878152601060209081526040808320805460ff1916905560119091529081902060028101546004820154600383015493517fdba1fe9f25c97c0abd4cd5f6b4f2e4dae96ac31138a8e8ff5b3c042deec9e05e94611081946001600160a01b039485169433948f94600193909301939116916146ea565b60405180910390a161109287613164565b50505050505050565b6060600080546110aa90614633565b80601f01602080910402602001604051908101604052809291908181526020018280546110d690614633565b80156111235780601f106110f857610100808354040283529160200191611123565b820191906000526020600020905b81548152906001019060200180831161110657829003601f168201915b5050505050905090565b600061113882613204565b506000908152600460205260409020546001600160a01b031690565b600061115f82611be9565b9050806001600160a01b0316836001600160a01b0316036111cc5760405162461bcd60e51b815260206004820152602160248201527f4552433732313a20617070726f76616c20746f2063757272656e74206f776e656044820152603960f91b6064820152608401610bfc565b336001600160a01b03821614806111e857506111e88133610a07565b61125a5760405162461bcd60e51b815260206004820152603d60248201527f4552433732313a20617070726f76652063616c6c6572206973206e6f7420746f60448201527f6b656e206f776e6572206f7220617070726f76656420666f7220616c6c0000006064820152608401610bfc565b6112648383613263565b505050565b6112716132d1565b6001600160a01b03166000908152601260205260409020805460ff19166001179055565b61129d6132d1565b600e55565b60006112ad60085490565b905090565b60606000805b6009548110156113215760008181526010602052604090205460ff1680156112fc57506000818152601160205260409020600201546001600160a01b038581169116145b1561130f578161130b81614744565b9250505b8061131981614744565b9150506112b8565b506000816001600160401b0381111561133c5761133c613fa2565b60405190808252806020026020018201604052801561137557816020015b611362613c26565b81526020019060019003908161135a5790505b5090506000915060005b6009548110156115085760008181526010602052604090205460ff1680156113c357506000818152601160205260409020600201546001600160a01b038681169116145b156114f65760006040518060a001604052808381526020016011600085815260200190815260200160002060010180546113fc90614633565b80601f016020809104026020016040519081016040528092919081815260200182805461142890614633565b80156114755780601f1061144a57610100808354040283529160200191611475565b820191906000526020600020905b81548152906001019060200180831161145857829003601f168201915b5050509183525050600084815260116020818152604080842060028101546001600160a01b03908116848801526003820154928701929092529388905291905260049091015416606090910152835190915081908490869081106114db576114db61475d565b602002602001018190525083806114f190614744565b945050505b8061150081614744565b91505061137f565b509392505050565b6115186132d1565b600d80549115156101000261ff0019909216919091179055565b61153c338261332b565b6115585760405162461bcd60e51b8152600401610bfc90614773565b611264838383612ff3565b600f5460009060ff1615156001146115b05760405162461bcd60e51b815260206004820152601060248201526f135a5b9d081b9bdd08185b1b1bddd95960821b6044820152606401610bfc565b6000601854116115fe5760405162461bcd60e51b8152602060048201526019602482015278135a5b9d081c1c9a58d9481b9bdd0818dbdb999a59dd5c9959603a1b6044820152606401610bfc565b6018543410156116205760405162461bcd60e51b8152600401610bfc906147c0565b61162e600880546001019055565b600061163960085490565b905061164533826133a9565b6007546040516001600160a01b03909116903480156108fc02916000818181858888f1935050505015801561167e573d6000803e3d6000fd5b50611687613542565b7f85a66b9141978db9980f7e0ce3b468cebf4f7999f32b23091c5c03e798b1ba7a33826116b38461226c565b6040516116c293929190614801565b60405180910390a192915050565b6116d86132d1565b601955565b6112648383836040518060200160405280600081525061221f565b6117006132d1565b611719816040518060200160405280600081525061355b565b50565b6040516370a0823160e01b815230600482015260009082906001600160a01b038216906370a0823190602401602060405180830381865afa158015611765573d6000803e3d6000fd5b505050506040513d601f19601f82011682018060405250810190611789919061461a565b9392505050565b6007546001600160a01b03163314611802576000818152601160205260409020600201546001600160a01b031633146118025760405162461bcd60e51b8152602060048201526014602482015273151a1a5cc81a5cc81b9bdd081e5bdd5c8813919560621b6044820152606401610bfc565b6000818152601060209081526040808320805460ff1916905560119091529081902090517f521eb7406b49a95fb2dfab95388fb8bd894a74fcd27400ae688df8847847b9919161185c913391859160019190910190614831565b60405180910390a161186d81613164565b611719303383612ff3565b600d5460ff16151560011461189f5760405162461bcd60e51b8152600401610bfc906145ef565b6118a881611be9565b6001600160a01b0316306001600160a01b0316146119085760405162461bcd60e51b815260206004820152601a60248201527f54686973204e4654206e6f742061742073616c6520626f6172640000000000006044820152606401610bfc565b60008181526010602052604090205460ff1615156001146119665760405162461bcd60e51b815260206004820152601860248201527754686973204e4654206973206e6f7420666f722073616c6560401b6044820152606401610bfc565b6000818152601160205260409020600301543410156119d65760405162461bcd60e51b815260206004820152602660248201527f596f752068617665206e6f74207061696420656e6f75676820666f722074686960448201526573206974656d60d01b6064820152608401610bfc565b6000818152601160205260409020600401546001600160a01b031615611a3e5760405162461bcd60e51b815260206004820152601a60248201527f5468697320746f6b656e2073656c6c65642062792045524332300000000000006044820152606401610bfc565b346000611a4f610f52836064612f75565b9050611a636007546001600160a01b031690565b6000848152601160205260409020600201546001600160a01b03918216911603611a8b575060005b6000611a978383612f8d565b6000858152601160205260408082206002015490519293506001600160a01b03169183156108fc0291849190818181858888f19350505050158015611ae0573d6000803e3d6000fd5b508115611b23576007546040516001600160a01b039091169083156108fc029084906000818181858888f19350505050158015611b21573d6000803e3d6000fd5b505b611b2e303386612ff3565b6000848152601060209081526040808320805460ff191690556011909152908190206002810154600382015492517fc785e39ed8f1e4e707fd90d52e643a9685d3943dcb7b56595be9add9157ce2b193611b9f936001600160a01b039093169233928a926001929092019190614858565b60405180910390a1611bb084613164565b50505050565b611bbe6132d1565b600a611bca82826148eb565b5050565b611bd66132d1565b600f805460ff1916911515919091179055565b6000818152600260205260408120546001600160a01b031680610bcf5760405162461bcd60e51b8152602060048201526018602482015277115490cdcc8c4e881a5b9d985b1a59081d1bdad95b88125160421b6044820152606401610bfc565b60606017805480602002602001604051908101604052809291908181526020016000905b82821015611d19578382906000526020600020018054611c8c90614633565b80601f0160208091040260200160405190810160405280929190818152602001828054611cb890614633565b8015611d055780601f10611cda57610100808354040283529160200191611d05565b820191906000526020600020905b815481529060010190602001808311611ce857829003601f168201915b505050505081526020019060010190611c6d565b50505050905090565b6060601380548060200260200160405190810160405280929190818152602001828054801561112357602002820191906000526020600020905b81546001600160a01b03168152600190910190602001808311611d5c575050505050905090565b611d8b6132d1565b600955565b60006001600160a01b038216611dfa5760405162461bcd60e51b815260206004820152602960248201527f4552433732313a2061646472657373207a65726f206973206e6f7420612076616044820152683634b21037bbb732b960b91b6064820152608401610bfc565b506001600160a01b031660009081526003602052604090205490565b6060600a80546110aa90614633565b611e2d6132d1565b611e3760006135ee565b565b6000805b601354811015611e945760138181548110611e5a57611e5a61475d565b6000918252602090912001546001600160a01b0390811690841603611e825750600192915050565b80611e8c81614744565b915050611e3d565b50600092915050565b600d5460ff161515600114611ec45760405162461bcd60e51b8152600401610bfc906145ef565b600d54610100900460ff1680611ee457506007546001600160a01b031633145b611f305760405162461bcd60e51b815260206004820181905260248201527f54726164696e67206973206e6f7420616c6c6f77656420666f722075736572736044820152606401610bfc565b611f3983611be9565b6001600160a01b0316336001600160a01b031614611f905760405162461bcd60e51b8152602060048201526014602482015273151a1a5cc81a5cc81b9bdd081e5bdd5c8813919560621b6044820152606401610bfc565b60008211611fe05760405162461bcd60e51b815260206004820152601f60248201527f5072696365206d7573742062652067726561746572207468616e207a65726f006044820152606401610bfc565b6001600160a01b0381161561205e57611ff881611e39565b151560011461205e5760405162461bcd60e51b815260206004820152602c60248201527f54686973204552433230206e6f7420616c6c6f7765642061732061207472616460448201526b696e672063757272656e637960a01b6064820152608401610bfc565b600083815260106020908152604091829020805460ff19166001179055815160a0810190925284825281016120928561226c565b81523360208083019190915260408083018690526001600160a01b03851660609093019290925260008681526011825291909120825181559082015160018201906120dd90826148eb565b5060408201516002820180546001600160a01b03199081166001600160a01b03938416179091556060840151600384015560809093015160049092018054909316911617905561212e333085612ff3565b6001600160a01b038116612195577f361dd47387032eb423040830b257e1343b2ea5cc7698ac0555757e021299ca9d33846011600087815260200190815260200160002060010184866040516121889594939291906149aa565b60405180910390a1505050565b7fa74b4f4f2cdcc4b59c64be4786d504f3a55adc7683c42f4186af5f1ddd901e993384601160008781526020019081526020016000206001018560405161218894939291906149e5565b6060600180546110aa90614633565b6121f66132d1565b600d805460ff1916911515919091179055565b60606112ad336112b2565b611bca338383613640565b612229338361332b565b6122455760405162461bcd60e51b8152600401610bfc90614773565b611bb08484848461370e565b6122596132d1565b8051611bca906017906020840190613c67565b6000818152600260205260409020546060906001600160a01b03166122eb5760405162461bcd60e51b815260206004820152602f60248201527f4552433732314d657461646174613a2055524920717565727920666f72206e6f60448201526e3732bc34b9ba32b73a103a37b5b2b760891b6064820152608401610bfc565b600a6122f683613741565b600b60405160200161230a93929190614a90565b6040516020818303038152906040529050919050565b3360009081526012602052604081205460ff16156123805760405162461bcd60e51b815260206004820152601b60248201527f54686973206163636f756e7420697320626c61636b6c697374656400000000006044820152606401610bfc565b600f5460ff6101009091041615156001146123d45760405162461bcd60e51b815260206004820152601460248201527313dddb88135a5b9d081b9bdd08185b1b1bddd95960621b6044820152606401610bfc565b6000601954116124225760405162461bcd60e51b8152602060048201526019602482015278135a5b9d081c1c9a58d9481b9bdd0818dbdb999a59dd5c9959603a1b6044820152606401610bfc565b6019543410156124445760405162461bcd60e51b8152600401610bfc906147c0565b612452600880546001019055565b600061245d60085490565b905061246984826133a9565b612473818461355b565b61247b613542565b7f85a66b9141978db9980f7e0ce3b468cebf4f7999f32b23091c5c03e798b1ba7a8482856040516124ae93929190614801565b60405180910390a19392505050565b60606000805b6009548110156125045760008181526010602052604090205460ff16156124f257816124ee81614744565b9250505b806124fc81614744565b9150506124c3565b506000816001600160401b0381111561251f5761251f613fa2565b60405190808252806020026020018201604052801561255857816020015b612545613c26565b81526020019060019003908161253d5790505b5090506000915060005b6009548110156126c35760008181526010602052604090205460ff16156126b15760006040518060a001604052808381526020016011600085815260200190815260200160002060010180546125b790614633565b80601f01602080910402602001604051908101604052809291908181526020018280546125e390614633565b80156126305780601f1061260557610100808354040283529160200191612630565b820191906000526020600020905b81548152906001019060200180831161261357829003601f168201915b5050509183525050600084815260116020818152604080842060028101546001600160a01b03908116848801526003820154928701929092529388905291905260049091015416606090910152835190915081908490869081106126965761269661475d565b602002602001018190525083806126ac90614744565b945050505b806126bb81614744565b915050612562565b5092915050565b60606126d46132d1565b835185511480156126e6575082518451145b6127505760405162461bcd60e51b815260206004820152603560248201527f55524973206c656e6774682c204552433230206c656e67746820616e642050726044820152741a58d95cc81b195b99dd1a081b9bdd08195c5d585b605a1b6064820152608401610bfc565b60005b83518110156128785760008482815181106127705761277061475d565b6020026020010151116127c55760405162461bcd60e51b815260206004820152601e60248201527f5072696365206d757374206265206772656174207468616e207a65726f2e00006044820152606401610bfc565b60006001600160a01b03168582815181106127e2576127e261475d565b60200260200101516001600160a01b0316146128665761281a85828151811061280d5761280d61475d565b6020026020010151611e39565b6128665760405162461bcd60e51b815260206004820152601a60248201527f4e6f7420616c6c6f7765642045524320666f722074726164652e0000000000006044820152606401610bfc565b8061287081614744565b915050612753565b50600085516001600160401b0381111561289457612894613fa2565b6040519080825280602002602001820160405280156128bd578160200160208202803683370190505b50905060006001600160a01b038416156128d757836128e4565b6007546001600160a01b03165b905060005b8551811015612c0657612900600880546001019055565b600061290b60085490565b905061291730826133a9565b61293a818a848151811061292d5761292d61475d565b602002602001015161355b565b600081815260106020908152604091829020805460ff19166001179055815160a081019092528282528a51908201908b908590811061297b5761297b61475d565b60200260200101518152602001846001600160a01b031681526020018884815181106129a9576129a961475d565b602002602001015181526020018984815181106129c8576129c861475d565b6020908102919091018101516001600160a01b03169091526000838152601182526040902082518155908201516001820190612a0490826148eb565b5060408201516002820180546001600160a01b03199081166001600160a01b03938416179091556060840151600384015560809093015160049092018054909316911617905588517f85a66b9141978db9980f7e0ce3b468cebf4f7999f32b23091c5c03e798b1ba7a90849083908c9086908110612a8457612a8461475d565b6020026020010151604051612a9b93929190614801565b60405180910390a160006001600160a01b0316888381518110612ac057612ac061475d565b60200260200101516001600160a01b031603612b4a577fa74b4f4f2cdcc4b59c64be4786d504f3a55adc7683c42f4186af5f1ddd901e9983828b8581518110612b0b57612b0b61475d565b60200260200101518a8681518110612b2557612b2561475d565b6020026020010151604051612b3d9493929190614ab8565b60405180910390a1612bd5565b7f361dd47387032eb423040830b257e1343b2ea5cc7698ac0555757e021299ca9d83828b8581518110612b7f57612b7f61475d565b60200260200101518b8681518110612b9957612b9961475d565b60200260200101518b8781518110612bb357612bb361475d565b6020026020010151604051612bcc959493929190614adf565b60405180910390a15b80848381518110612be857612be861475d565b60209081029190910101525080612bfe81614744565b9150506128e9565b50612c0f613542565b5090505b949350505050565b612c236132d1565b6001600160a01b03166000908152601260205260409020805460ff19169055565b612c4c6132d1565b8051611bca906013906020840190613cbd565b60006124446132d1565b612c716132d1565b6001600160a01b038116612cd65760405162461bcd60e51b815260206004820152602660248201527f4f776e61626c653a206e6577206f776e657220697320746865207a65726f206160448201526564647265737360d01b6064820152608401610bfc565b611719816135ee565b612ce76132d1565b60188490556019829055600f8054600d805461ffff1990811661ff00198d151516176101008c1515810291909117909255600e8a905590911685151590910260ff1916178615151790558051612d44906013906020840190613cbd565b505050505050505050565b612d576132d1565b601855565b612d646132d1565b60004260145460165460155485612d7a60085490565b6017546040805160208101989098528701959095526060860193909352608085019190915260a084015260c083015260e08201526101000160408051601f19818403018152919052805160209091012060158054601655555050565b612dde6132d1565b600f80549115156101000261ff0019909216919091179055565b612e006132d1565b6040516370a0823160e01b815230600482015281906000906001600160a01b038316906370a0823190602401602060405180830381865afa158015612e49573d6000803e3d6000fd5b505050506040513d601f19601f82011682018060405250810190612e6d919061461a565b9050816001600160a01b031663a9059cbb612e906007546001600160a01b031690565b6040516001600160e01b031960e084901b1681526001600160a01b039091166004820152602481018490526044016020604051808303816000875af1158015612edd573d6000803e3d6000fd5b505050506040513d601f19601f82011682018060405250810190611bb09190614b07565b612f096132d1565b6040514790339082156108fc029083906000818181858888f19350505050158015612f38573d6000803e3d6000fd5b5060408051338152602081018390527fd59f809f461fb2e2ca77f931dc43a9aaaa4295b0ed3c8e6adc04d0aab43eeb47910160405180910390a150565b60006117898284614b24565b60006117898284614b46565b60006117898284614b5d565b604080516001600160a01b0385811660248301528416604482015260648082018490528251808303909101815260849091019091526020810180516001600160e01b03166323b872dd60e01b179052611bb09085906137d3565b826001600160a01b031661300682611be9565b6001600160a01b03161461302c5760405162461bcd60e51b8152600401610bfc90614b70565b6001600160a01b03821661308e5760405162461bcd60e51b8152602060048201526024808201527f4552433732313a207472616e7366657220746f20746865207a65726f206164646044820152637265737360e01b6064820152608401610bfc565b61309b83838360016138a5565b826001600160a01b03166130ae82611be9565b6001600160a01b0316146130d45760405162461bcd60e51b8152600401610bfc90614b70565b600081815260046020908152604080832080546001600160a01b03199081169091556001600160a01b0387811680865260038552838620805460001901905590871680865283862080546001019055868652600290945282852080549092168417909155905184937fddf252ad1be2c89b69c2b068fc378daa952ba7f163c4a11628f55a4df523b3ef91a4505050565b6040805160a081018252600080825282516020818101855282825280840191825283850183905260608401839052608084018390528583526011905292902081518155915190919060018201906131bb90826148eb565b5060408201516002820180546001600160a01b03199081166001600160a01b03938416179091556060840151600384015560809093015160049092018054909316911617905550565b6000818152600260205260409020546001600160a01b03166117195760405162461bcd60e51b8152602060048201526018602482015277115490cdcc8c4e881a5b9d985b1a59081d1bdad95b88125160421b6044820152606401610bfc565b600081815260046020526040902080546001600160a01b0319166001600160a01b038416908117909155819061329882611be9565b6001600160a01b03167f8c5be1e5ebec7d5bd14f71427d1e84f3dd0314c0f7b2291e5b200ac8c7c3b92560405160405180910390a45050565b6007546001600160a01b03163314611e375760405162461bcd60e51b815260206004820181905260248201527f4f776e61626c653a2063616c6c6572206973206e6f7420746865206f776e65726044820152606401610bfc565b60008061333783611be9565b9050806001600160a01b0316846001600160a01b0316148061337e57506001600160a01b0380821660009081526005602090815260408083209388168352929052205460ff165b80612c135750836001600160a01b03166133978461112d565b6001600160a01b031614949350505050565b6001600160a01b0382166133ff5760405162461bcd60e51b815260206004820181905260248201527f4552433732313a206d696e7420746f20746865207a65726f20616464726573736044820152606401610bfc565b6000818152600260205260409020546001600160a01b0316156134645760405162461bcd60e51b815260206004820152601c60248201527f4552433732313a20746f6b656e20616c7265616479206d696e746564000000006044820152606401610bfc565b6134726000838360016138a5565b6000818152600260205260409020546001600160a01b0316156134d75760405162461bcd60e51b815260206004820152601c60248201527f4552433732313a20746f6b656e20616c7265616479206d696e746564000000006044820152606401610bfc565b6001600160a01b038216600081815260036020908152604080832080546001019055848352600290915280822080546001600160a01b0319168417905551839291907fddf252ad1be2c89b69c2b068fc378daa952ba7f163c4a11628f55a4df523b3ef908290a45050565b60095460085410611e3757600854611d8b906001614bb5565b6000828152600260205260409020546001600160a01b03166135d65760405162461bcd60e51b815260206004820152602e60248201527f45524337323155524953746f726167653a2055524920736574206f66206e6f6e60448201526d32bc34b9ba32b73a103a37b5b2b760911b6064820152608401610bfc565b600082815260066020526040902061126482826148eb565b600780546001600160a01b038381166001600160a01b0319831681179093556040519116919082907f8be0079c531659141344cd1fd0a4f28419497f9722a3daafe3b4186f6b6457e090600090a35050565b816001600160a01b0316836001600160a01b0316036136a15760405162461bcd60e51b815260206004820152601960248201527f4552433732313a20617070726f766520746f2063616c6c6572000000000000006044820152606401610bfc565b6001600160a01b03838116600081815260056020908152604080832094871680845294825291829020805460ff191686151590811790915591519182527f17307eab39ab6107e8899845ad3d59bd9653f200f220920489ca2b5937696c31910160405180910390a3505050565b613719848484612ff3565b6137258484848461392d565b611bb05760405162461bcd60e51b8152600401610bfc90614bc8565b6060600061374e83613a2b565b60010190506000816001600160401b0381111561376d5761376d613fa2565b6040519080825280601f01601f191660200182016040528015613797576020820181803683370190505b5090508181016020015b600019016f181899199a1a9b1b9c1cb0b131b232b360811b600a86061a8153600a85049450846137a157509392505050565b6000613828826040518060400160405280602081526020017f5361666545524332303a206c6f772d6c6576656c2063616c6c206661696c6564815250856001600160a01b0316613b039092919063ffffffff16565b80519091501561126457808060200190518101906138469190614b07565b6112645760405162461bcd60e51b815260206004820152602a60248201527f5361666545524332303a204552433230206f7065726174696f6e20646964206e6044820152691bdd081cdd58d8d9595960b21b6064820152608401610bfc565b6001811115611bb0576001600160a01b038416156138eb576001600160a01b038416600090815260036020526040812080548392906138e5908490614b5d565b90915550505b6001600160a01b03831615611bb0576001600160a01b03831660009081526003602052604081208054839290613922908490614bb5565b909155505050505050565b60006001600160a01b0384163b15613a2357604051630a85bd0160e11b81526001600160a01b0385169063150b7a0290613971903390899088908890600401614c1a565b6020604051808303816000875af19250505080156139ac575060408051601f3d908101601f191682019092526139a991810190614c57565b60015b613a09573d8080156139da576040519150601f19603f3d011682016040523d82523d6000602084013e6139df565b606091505b508051600003613a015760405162461bcd60e51b8152600401610bfc90614bc8565b805181602001fd5b6001600160e01b031916630a85bd0160e11b149050612c13565b506001612c13565b60008072184f03e93ff9f4daa797ed6e38ed64bf6a1f0160401b8310613a6a5772184f03e93ff9f4daa797ed6e38ed64bf6a1f0160401b830492506040015b6d04ee2d6d415b85acef81000000008310613a96576d04ee2d6d415b85acef8100000000830492506020015b662386f26fc100008310613ab457662386f26fc10000830492506010015b6305f5e1008310613acc576305f5e100830492506008015b6127108310613ae057612710830492506004015b60648310613af2576064830492506002015b600a8310610bcf5760010192915050565b6060612c13848460008585600080866001600160a01b03168587604051613b2a9190614c74565b60006040518083038185875af1925050503d8060008114613b67576040519150601f19603f3d011682016040523d82523d6000602084013e613b6c565b606091505b5091509150613b7d87838387613b88565b979650505050505050565b60608315613bf7578251600003613bf0576001600160a01b0385163b613bf05760405162461bcd60e51b815260206004820152601d60248201527f416464726573733a2063616c6c20746f206e6f6e2d636f6e74726163740000006044820152606401610bfc565b5081612c13565b612c138383815115613c0c5781518083602001fd5b8060405162461bcd60e51b8152600401610bfc9190613e26565b6040518060a00160405280600081526020016060815260200160006001600160a01b031681526020016000815260200160006001600160a01b031681525090565b828054828255906000526020600020908101928215613cad579160200282015b82811115613cad5782518290613c9d90826148eb565b5091602001919060010190613c87565b50613cb9929150613d1e565b5090565b828054828255906000526020600020908101928215613d12579160200282015b82811115613d1257825182546001600160a01b0319166001600160a01b03909116178255602090920191600190910190613cdd565b50613cb9929150613d3b565b80821115613cb9576000613d328282613d50565b50600101613d1e565b5b80821115613cb95760008155600101613d3c565b508054613d5c90614633565b6000825580601f10613d6c575050565b601f0160209004906000526020600020908101906117199190613d3b565b6001600160e01b03198116811461171957600080fd5b600060208284031215613db257600080fd5b813561178981613d8a565b600060208284031215613dcf57600080fd5b5035919050565b60005b83811015613df1578181015183820152602001613dd9565b50506000910152565b60008151808452613e12816020860160208601613dd6565b601f01601f19169290920160200192915050565b6020815260006117896020830184613dfa565b80356001600160a01b0381168114613e5057600080fd5b919050565b60008060408385031215613e6857600080fd5b613e7183613e39565b946020939093013593505050565b600060208284031215613e9157600080fd5b61178982613e39565b60006020808301818452808551808352604092508286019150828160051b87010184880160005b83811015613f2d57603f19898403018552815160a08151855288820151818a870152613eef82870182613dfa565b838a01516001600160a01b03908116888c01526060808601519089015260809485015116939096019290925250509386019390860190600101613ec1565b509098975050505050505050565b801515811461171957600080fd5b600060208284031215613f5b57600080fd5b813561178981613f3b565b600080600060608486031215613f7b57600080fd5b613f8484613e39565b9250613f9260208501613e39565b9150604084013590509250925092565b634e487b7160e01b600052604160045260246000fd5b604051601f8201601f191681016001600160401b0381118282101715613fe057613fe0613fa2565b604052919050565b60006001600160401b0383111561400157614001613fa2565b614014601f8401601f1916602001613fb8565b905082815283838301111561402857600080fd5b828260208301376000602084830101529392505050565b600082601f83011261405057600080fd5b61178983833560208501613fe8565b60006020828403121561407157600080fd5b81356001600160401b0381111561408757600080fd5b612c138482850161403f565b6000602080830181845280855180835260408601915060408160051b870101925083870160005b828110156140e857603f198886030184526140d6858351613dfa565b945092850192908501906001016140ba565b5092979650505050505050565b6020808252825182820181905260009190848201906040850190845b818110156141365783516001600160a01b031683529284019291840191600101614111565b50909695505050505050565b60008060006060848603121561415757600080fd5b833592506020840135915061416e60408501613e39565b90509250925092565b6000806040838503121561418a57600080fd5b61419383613e39565b915060208301356141a381613f3b565b809150509250929050565b600080600080608085870312156141c457600080fd5b6141cd85613e39565b93506141db60208601613e39565b92506040850135915060608501356001600160401b038111156141fd57600080fd5b8501601f8101871361420e57600080fd5b61421d87823560208401613fe8565b91505092959194509250565b60006001600160401b0382111561424257614242613fa2565b5060051b60200190565b600082601f83011261425d57600080fd5b8135602061427261426d83614229565b613fb8565b82815260059290921b8401810191818101908684111561429157600080fd5b8286015b848110156142d05780356001600160401b038111156142b45760008081fd5b6142c28986838b010161403f565b845250918301918301614295565b509695505050505050565b6000602082840312156142ed57600080fd5b81356001600160401b0381111561430357600080fd5b612c138482850161424c565b6000806040838503121561432257600080fd5b61432b83613e39565b915060208301356001600160401b0381111561434657600080fd5b6143528582860161403f565b9150509250929050565b600082601f83011261436d57600080fd5b8135602061437d61426d83614229565b82815260059290921b8401810191818101908684111561439c57600080fd5b8286015b848110156142d0576143b181613e39565b83529183019183016143a0565b600080600080608085870312156143d457600080fd5b84356001600160401b03808211156143eb57600080fd5b6143f78883890161424c565b955060209150818701358181111561440e57600080fd5b61441a89828a0161435c565b95505060408701358181111561442f57600080fd5b87019050601f8101881361444257600080fd5b803561445061426d82614229565b81815260059190911b8201830190838101908a83111561446f57600080fd5b928401925b8284101561448d57833582529284019290840190614474565b80965050505050506144a160608601613e39565b905092959194509250565b6020808252825182820181905260009190848201906040850190845b81811015614136578351835292840192918401916001016144c8565b600080604083850312156144f757600080fd5b61450083613e39565b915061450e60208401613e39565b90509250929050565b60006020828403121561452957600080fd5b81356001600160401b0381111561453f57600080fd5b612c138482850161435c565b600080600080600080600080610100898b03121561456857600080fd5b883561457381613f3b565b9750602089013561458381613f3b565b965060408901359550606089013561459a81613f3b565b94506080890135935060a08901356145b181613f3b565b925060c0890135915060e08901356001600160401b038111156145d357600080fd5b6145df8b828c0161435c565b9150509295985092959890939650565b602080825260119082015270151c985919481b9bdd08185b1b1bddd959607a1b604082015260600190565b60006020828403121561462c57600080fd5b5051919050565b600181811c9082168061464757607f821691505b60208210810361466757634e487b7160e01b600052602260045260246000fd5b50919050565b6000815461467a81614633565b80855260206001838116801561469757600181146146b1576146df565b60ff1985168884015283151560051b8801830195506146df565b866000528260002060005b858110156146d75781548a82018601529083019084016146bc565b890184019650505b505050505092915050565b600060018060a01b038089168352808816602084015286604084015260c0606084015261471a60c084018761466d565b941660808301525060a00152949350505050565b634e487b7160e01b600052601160045260246000fd5b6000600182016147565761475661472e565b5060010190565b634e487b7160e01b600052603260045260246000fd5b6020808252602d908201527f4552433732313a2063616c6c6572206973206e6f7420746f6b656e206f776e6560408201526c1c881bdc88185c1c1c9bdd9959609a1b606082015260800190565b60208082526021908201527f596f752068617665206e6f74207061696420656e6f75676820666f72206d696e6040820152601d60fa1b606082015260800190565b60018060a01b03841681528260208201526060604082015260006148286060830184613dfa565b95945050505050565b60018060a01b0384168152826020820152606060408201526000614828606083018461466d565b6001600160a01b038681168252851660208201526040810184905260a06060820181905260009061488b9083018561466d565b90508260808301529695505050505050565b601f82111561126457600081815260208120601f850160051c810160208610156148c45750805b601f850160051c820191505b818110156148e3578281556001016148d0565b505050505050565b81516001600160401b0381111561490457614904613fa2565b614918816149128454614633565b8461489d565b602080601f83116001811461494d57600084156149355750858301515b600019600386901b1c1916600185901b1785556148e3565b600085815260208120601f198616915b8281101561497c5788860151825594840194600190910190840161495d565b508582101561499a5787850151600019600388901b60f8161c191681555b5050505050600190811b01905550565b600060018060a01b03808816835286602084015260a060408401526149d260a084018761466d565b9416606083015250608001529392505050565b60018060a01b0385168152836020820152608060408201526000614a0c608083018561466d565b905082606083015295945050505050565b60008154614a2a81614633565b60018281168015614a425760018114614a5757614a86565b60ff1984168752821515830287019450614a86565b8560005260208060002060005b85811015614a7d5781548a820152908401908201614a64565b50505082870194505b5050505092915050565b6000614a9c8286614a1d565b8451614aac818360208901613dd6565b613b7d81830186614a1d565b60018060a01b0385168152836020820152608060408201526000614a0c6080830185613dfa565b600060018060a01b03808816835286602084015260a060408401526149d260a0840187613dfa565b600060208284031215614b1957600080fd5b815161178981613f3b565b600082614b4157634e487b7160e01b600052601260045260246000fd5b500490565b8082028115828204841417610bcf57610bcf61472e565b81810381811115610bcf57610bcf61472e565b60208082526025908201527f4552433732313a207472616e736665722066726f6d20696e636f72726563742060408201526437bbb732b960d91b606082015260800190565b80820180821115610bcf57610bcf61472e565b60208082526032908201527f4552433732313a207472616e7366657220746f206e6f6e20455243373231526560408201527131b2b4bb32b91034b6b83632b6b2b73a32b960711b606082015260800190565b6001600160a01b0385811682528416602082015260408101839052608060608201819052600090614c4d90830184613dfa565b9695505050505050565b600060208284031215614c6957600080fd5b815161178981613d8a565b60008251614c86818460208701613dd6565b919091019291505056fea2646970667358221220349da3b8286b9b2bb37764bcdc7498d7ba594b46f3a32d56dbda40046ce4e43564736f6c63430008130033",
			"opcodes": "PUSH2 0x22B8 PUSH1 0x9 SSTORE PUSH1 0xA0 PUSH1 0x40 MSTORE PUSH1 0x0 PUSH1 0x80 SWAP1 DUP2 MSTORE PUSH1 0xA SWAP1 PUSH3 0x20 SWAP1 DUP3 PUSH3 0x2E5 JUMP JUMPDEST POP PUSH1 0x40 DUP1 MLOAD DUP1 DUP3 ADD SWAP1 SWAP2 MSTORE PUSH1 0x5 DUP2 MSTORE PUSH5 0x173539B7B7 PUSH1 0xD9 SHL PUSH1 0x20 DUP3 ADD MSTORE PUSH1 0xB SWAP1 PUSH3 0x4C SWAP1 DUP3 PUSH3 0x2E5 JUMP JUMPDEST POP PUSH1 0x1 PUSH1 0xC SSTORE PUSH1 0xD DUP1 SLOAD PUSH2 0x101 PUSH2 0xFFFF NOT SWAP2 DUP3 AND DUP2 OR SWAP1 SWAP3 SSTORE PUSH1 0x0 PUSH1 0xE DUP2 SWAP1 SSTORE PUSH1 0xF DUP1 SLOAD SWAP1 SWAP3 AND SWAP1 SWAP3 OR SWAP1 SSTORE PUSH1 0x14 DUP2 SWAP1 SSTORE PUSH1 0x15 DUP2 SWAP1 SSTORE PUSH1 0x16 DUP2 SWAP1 SSTORE PUSH1 0x18 DUP2 SWAP1 SSTORE PUSH1 0x19 SSTORE CALLVALUE DUP1 ISZERO PUSH3 0x9C JUMPI PUSH1 0x0 DUP1 REVERT JUMPDEST POP PUSH1 0x40 MLOAD PUSH3 0x530C CODESIZE SUB DUP1 PUSH3 0x530C DUP4 CODECOPY DUP2 ADD PUSH1 0x40 DUP2 SWAP1 MSTORE PUSH3 0xBF SWAP2 PUSH3 0x526 JUMP JUMPDEST DUP9 DUP11 PUSH1 0x0 PUSH3 0xCF DUP4 DUP3 PUSH3 0x2E5 JUMP JUMPDEST POP PUSH1 0x1 PUSH3 0xDE DUP3 DUP3 PUSH3 0x2E5 JUMP JUMPDEST POP POP POP PUSH3 0xFB PUSH3 0xF5 PUSH3 0x169 PUSH1 0x20 SHL PUSH1 0x20 SHR JUMP JUMPDEST PUSH3 0x16D JUMP JUMPDEST PUSH1 0x9 DUP8 SWAP1 SSTORE PUSH1 0x18 DUP7 SWAP1 SSTORE PUSH1 0xD DUP1 SLOAD PUSH2 0xFFFF NOT AND DUP7 ISZERO ISZERO PUSH2 0xFF00 NOT AND OR PUSH2 0x100 DUP7 ISZERO ISZERO MUL OR SWAP1 SSTORE PUSH1 0xE DUP4 SWAP1 SSTORE PUSH1 0xF DUP1 SLOAD PUSH1 0xFF NOT AND DUP4 ISZERO ISZERO OR SWAP1 SSTORE PUSH1 0xA PUSH3 0x142 DUP10 DUP3 PUSH3 0x2E5 JUMP JUMPDEST POP DUP1 MLOAD PUSH3 0x158 SWAP1 PUSH1 0x13 SWAP1 PUSH1 0x20 DUP5 ADD SWAP1 PUSH3 0x1BF JUMP JUMPDEST POP POP POP POP POP POP POP POP POP POP POP PUSH3 0x636 JUMP JUMPDEST CALLER SWAP1 JUMP JUMPDEST PUSH1 0x7 DUP1 SLOAD PUSH1 0x1 PUSH1 0x1 PUSH1 0xA0 SHL SUB DUP4 DUP2 AND PUSH1 0x1 PUSH1 0x1 PUSH1 0xA0 SHL SUB NOT DUP4 AND DUP2 OR SWAP1 SWAP4 SSTORE PUSH1 0x40 MLOAD SWAP2 AND SWAP2 SWAP1 DUP3 SWAP1 PUSH32 0x8BE0079C531659141344CD1FD0A4F28419497F9722A3DAAFE3B4186F6B6457E0 SWAP1 PUSH1 0x0 SWAP1 LOG3 POP POP JUMP JUMPDEST DUP3 DUP1 SLOAD DUP3 DUP3 SSTORE SWAP1 PUSH1 0x0 MSTORE PUSH1 0x20 PUSH1 0x0 KECCAK256 SWAP1 DUP2 ADD SWAP3 DUP3 ISZERO PUSH3 0x217 JUMPI SWAP2 PUSH1 0x20 MUL DUP3 ADD JUMPDEST DUP3 DUP2 GT ISZERO PUSH3 0x217 JUMPI DUP3 MLOAD DUP3 SLOAD PUSH1 0x1 PUSH1 0x1 PUSH1 0xA0 SHL SUB NOT AND PUSH1 0x1 PUSH1 0x1 PUSH1 0xA0 SHL SUB SWAP1 SWAP2 AND OR DUP3 SSTORE PUSH1 0x20 SWAP1 SWAP3 ADD SWAP2 PUSH1 0x1 SWAP1 SWAP2 ADD SWAP1 PUSH3 0x1E0 JUMP JUMPDEST POP PUSH3 0x225 SWAP3 SWAP2 POP PUSH3 0x229 JUMP JUMPDEST POP SWAP1 JUMP JUMPDEST JUMPDEST DUP1 DUP3 GT ISZERO PUSH3 0x225 JUMPI PUSH1 0x0 DUP2 SSTORE PUSH1 0x1 ADD PUSH3 0x22A JUMP JUMPDEST PUSH4 0x4E487B71 PUSH1 0xE0 SHL PUSH1 0x0 MSTORE PUSH1 0x41 PUSH1 0x4 MSTORE PUSH1 0x24 PUSH1 0x0 REVERT JUMPDEST PUSH1 0x1 DUP2 DUP2 SHR SWAP1 DUP3 AND DUP1 PUSH3 0x26B JUMPI PUSH1 0x7F DUP3 AND SWAP2 POP JUMPDEST PUSH1 0x20 DUP3 LT DUP2 SUB PUSH3 0x28C JUMPI PUSH4 0x4E487B71 PUSH1 0xE0 SHL PUSH1 0x0 MSTORE PUSH1 0x22 PUSH1 0x4 MSTORE PUSH1 0x24 PUSH1 0x0 REVERT JUMPDEST POP SWAP2 SWAP1 POP JUMP JUMPDEST PUSH1 0x1F DUP3 GT ISZERO PUSH3 0x2E0 JUMPI PUSH1 0x0 DUP2 DUP2 MSTORE PUSH1 0x20 DUP2 KECCAK256 PUSH1 0x1F DUP6 ADD PUSH1 0x5 SHR DUP2 ADD PUSH1 0x20 DUP7 LT ISZERO PUSH3 0x2BB JUMPI POP DUP1 JUMPDEST PUSH1 0x1F DUP6 ADD PUSH1 0x5 SHR DUP3 ADD SWAP2 POP JUMPDEST DUP2 DUP2 LT ISZERO PUSH3 0x2DC JUMPI DUP3 DUP2 SSTORE PUSH1 0x1 ADD PUSH3 0x2C7 JUMP JUMPDEST POP POP POP JUMPDEST POP POP POP JUMP JUMPDEST DUP2 MLOAD PUSH1 0x1 PUSH1 0x1 PUSH1 0x40 SHL SUB DUP2 GT ISZERO PUSH3 0x301 JUMPI PUSH3 0x301 PUSH3 0x240 JUMP JUMPDEST PUSH3 0x319 DUP2 PUSH3 0x312 DUP5 SLOAD PUSH3 0x256 JUMP JUMPDEST DUP5 PUSH3 0x292 JUMP JUMPDEST PUSH1 0x20 DUP1 PUSH1 0x1F DUP4 GT PUSH1 0x1 DUP2 EQ PUSH3 0x351 JUMPI PUSH1 0x0 DUP5 ISZERO PUSH3 0x338 JUMPI POP DUP6 DUP4 ADD MLOAD JUMPDEST PUSH1 0x0 NOT PUSH1 0x3 DUP7 SWAP1 SHL SHR NOT AND PUSH1 0x1 DUP6 SWAP1 SHL OR DUP6 SSTORE PUSH3 0x2DC JUMP JUMPDEST PUSH1 0x0 DUP6 DUP2 MSTORE PUSH1 0x20 DUP2 KECCAK256 PUSH1 0x1F NOT DUP7 AND SWAP2 JUMPDEST DUP3 DUP2 LT ISZERO PUSH3 0x382 JUMPI DUP9 DUP7 ADD MLOAD DUP3 SSTORE SWAP5 DUP5 ADD SWAP5 PUSH1 0x1 SWAP1 SWAP2 ADD SWAP1 DUP5 ADD PUSH3 0x361 JUMP JUMPDEST POP DUP6 DUP3 LT ISZERO PUSH3 0x3A1 JUMPI DUP8 DUP6 ADD MLOAD PUSH1 0x0 NOT PUSH1 0x3 DUP9 SWAP1 SHL PUSH1 0xF8 AND SHR NOT AND DUP2 SSTORE JUMPDEST POP POP POP POP POP PUSH1 0x1 SWAP1 DUP2 SHL ADD SWAP1 SSTORE POP JUMP JUMPDEST PUSH1 0x40 MLOAD PUSH1 0x1F DUP3 ADD PUSH1 0x1F NOT AND DUP2 ADD PUSH1 0x1 PUSH1 0x1 PUSH1 0x40 SHL SUB DUP2 GT DUP3 DUP3 LT OR ISZERO PUSH3 0x3DC JUMPI PUSH3 0x3DC PUSH3 0x240 JUMP JUMPDEST PUSH1 0x40 MSTORE SWAP2 SWAP1 POP JUMP JUMPDEST PUSH1 0x0 DUP3 PUSH1 0x1F DUP4 ADD SLT PUSH3 0x3F6 JUMPI PUSH1 0x0 DUP1 REVERT JUMPDEST DUP2 MLOAD PUSH1 0x1 PUSH1 0x1 PUSH1 0x40 SHL SUB DUP2 GT ISZERO PUSH3 0x412 JUMPI PUSH3 0x412 PUSH3 0x240 JUMP JUMPDEST PUSH1 0x20 PUSH3 0x428 PUSH1 0x1F DUP4 ADD PUSH1 0x1F NOT AND DUP3 ADD PUSH3 0x3B1 JUMP JUMPDEST DUP3 DUP2 MSTORE DUP6 DUP3 DUP5 DUP8 ADD ADD GT ISZERO PUSH3 0x43D JUMPI PUSH1 0x0 DUP1 REVERT JUMPDEST PUSH1 0x0 JUMPDEST DUP4 DUP2 LT ISZERO PUSH3 0x45D JUMPI DUP6 DUP2 ADD DUP4 ADD MLOAD DUP3 DUP3 ADD DUP5 ADD MSTORE DUP3 ADD PUSH3 0x440 JUMP JUMPDEST POP PUSH1 0x0 SWAP3 DUP2 ADD SWAP1 SWAP2 ADD SWAP2 SWAP1 SWAP2 MSTORE SWAP4 SWAP3 POP POP POP JUMP JUMPDEST DUP1 MLOAD DUP1 ISZERO ISZERO DUP2 EQ PUSH3 0x482 JUMPI PUSH1 0x0 DUP1 REVERT JUMPDEST SWAP2 SWAP1 POP JUMP JUMPDEST PUSH1 0x0 DUP3 PUSH1 0x1F DUP4 ADD SLT PUSH3 0x499 JUMPI PUSH1 0x0 DUP1 REVERT JUMPDEST DUP2 MLOAD PUSH1 0x20 PUSH1 0x1 PUSH1 0x1 PUSH1 0x40 SHL SUB DUP3 GT ISZERO PUSH3 0x4B7 JUMPI PUSH3 0x4B7 PUSH3 0x240 JUMP JUMPDEST DUP2 PUSH1 0x5 SHL PUSH3 0x4C8 DUP3 DUP3 ADD PUSH3 0x3B1 JUMP JUMPDEST SWAP3 DUP4 MSTORE DUP5 DUP2 ADD DUP3 ADD SWAP3 DUP3 DUP2 ADD SWAP1 DUP8 DUP6 GT ISZERO PUSH3 0x4E3 JUMPI PUSH1 0x0 DUP1 REVERT JUMPDEST DUP4 DUP8 ADD SWAP3 POP JUMPDEST DUP5 DUP4 LT ISZERO PUSH3 0x51B JUMPI DUP3 MLOAD PUSH1 0x1 PUSH1 0x1 PUSH1 0xA0 SHL SUB DUP2 AND DUP2 EQ PUSH3 0x50B JUMPI PUSH1 0x0 DUP1 DUP2 REVERT JUMPDEST DUP3 MSTORE SWAP2 DUP4 ADD SWAP2 SWAP1 DUP4 ADD SWAP1 PUSH3 0x4E9 JUMP JUMPDEST SWAP8 SWAP7 POP POP POP POP POP POP POP JUMP JUMPDEST PUSH1 0x0 DUP1 PUSH1 0x0 DUP1 PUSH1 0x0 DUP1 PUSH1 0x0 DUP1 PUSH1 0x0 DUP1 PUSH2 0x140 DUP12 DUP14 SUB SLT ISZERO PUSH3 0x547 JUMPI PUSH1 0x0 DUP1 REVERT JUMPDEST DUP11 MLOAD PUSH1 0x1 PUSH1 0x1 PUSH1 0x40 SHL SUB DUP1 DUP3 GT ISZERO PUSH3 0x55F JUMPI PUSH1 0x0 DUP1 REVERT JUMPDEST PUSH3 0x56D DUP15 DUP4 DUP16 ADD PUSH3 0x3E4 JUMP JUMPDEST SWAP12 POP PUSH1 0x20 DUP14 ADD MLOAD SWAP2 POP DUP1 DUP3 GT ISZERO PUSH3 0x584 JUMPI PUSH1 0x0 DUP1 REVERT JUMPDEST PUSH3 0x592 DUP15 DUP4 DUP16 ADD PUSH3 0x3E4 JUMP JUMPDEST SWAP11 POP PUSH1 0x40 DUP14 ADD MLOAD SWAP2 POP DUP1 DUP3 GT ISZERO PUSH3 0x5A9 JUMPI PUSH1 0x0 DUP1 REVERT JUMPDEST PUSH3 0x5B7 DUP15 DUP4 DUP16 ADD PUSH3 0x3E4 JUMP JUMPDEST SWAP10 POP PUSH1 0x60 DUP14 ADD MLOAD SWAP9 POP PUSH1 0x80 DUP14 ADD MLOAD SWAP8 POP PUSH3 0x5D5 PUSH1 0xA0 DUP15 ADD PUSH3 0x471 JUMP JUMPDEST SWAP7 POP PUSH3 0x5E5 PUSH1 0xC0 DUP15 ADD PUSH3 0x471 JUMP JUMPDEST SWAP6 POP PUSH1 0xE0 DUP14 ADD MLOAD SWAP5 POP PUSH3 0x5FD PUSH2 0x100 DUP15 ADD PUSH3 0x471 JUMP JUMPDEST SWAP4 POP PUSH2 0x120 DUP14 ADD MLOAD SWAP2 POP DUP1 DUP3 GT ISZERO PUSH3 0x615 JUMPI PUSH1 0x0 DUP1 REVERT JUMPDEST POP PUSH3 0x624 DUP14 DUP3 DUP15 ADD PUSH3 0x487 JUMP JUMPDEST SWAP2 POP POP SWAP3 SWAP6 SWAP9 SWAP12 SWAP2 SWAP5 SWAP8 SWAP11 POP SWAP3 SWAP6 SWAP9 POP JUMP JUMPDEST PUSH2 0x4CC6 DUP1 PUSH3 0x646 PUSH1 0x0 CODECOPY PUSH1 0x0 RETURN INVALID PUSH1 0x80 PUSH1 0x40 MSTORE PUSH1 0x4 CALLDATASIZE LT PUSH2 0x3C3 JUMPI PUSH1 0x0 CALLDATALOAD PUSH1 0xE0 SHR DUP1 PUSH4 0x8C7EB38E GT PUSH2 0x1F2 JUMPI DUP1 PUSH4 0xD55A34E4 GT PUSH2 0x10D JUMPI DUP1 PUSH4 0xF2FDE38B GT PUSH2 0xA0 JUMPI DUP1 PUSH4 0xF9B45CC0 GT PUSH2 0x6F JUMPI DUP1 PUSH4 0xF9B45CC0 EQ PUSH2 0xAF5 JUMPI DUP1 PUSH4 0xFCF984A9 EQ PUSH2 0xB15 JUMPI DUP1 PUSH4 0xFE575A87 EQ PUSH2 0xB35 JUMPI DUP1 PUSH4 0xFF7F0CF9 EQ PUSH2 0xB6E JUMPI PUSH1 0x0 DUP1 REVERT JUMPDEST DUP1 PUSH4 0xF2FDE38B EQ PUSH2 0xA75 JUMPI DUP1 PUSH4 0xF3985F10 EQ PUSH2 0xA95 JUMPI DUP1 PUSH4 0xF4A0A528 EQ PUSH2 0xAB5 JUMPI DUP1 PUSH4 0xF7E944EE EQ PUSH2 0xAD5 JUMPI PUSH1 0x0 DUP1 REVERT JUMPDEST DUP1 PUSH4 0xE4997DC5 GT PUSH2 0xDC JUMPI DUP1 PUSH4 0xE4997DC5 EQ PUSH2 0x9CC JUMPI DUP1 PUSH4 0xE985E9C5 EQ PUSH2 0x9EC JUMPI DUP1 PUSH4 0xE9E4E160 EQ PUSH2 0xA35 JUMPI DUP1 PUSH4 0xEACABE14 EQ PUSH2 0xA55 JUMPI PUSH1 0x0 DUP1 REVERT JUMPDEST DUP1 PUSH4 0xD55A34E4 EQ PUSH2 0x958 JUMPI DUP1 PUSH4 0xD5ABEB01 EQ PUSH2 0x96D JUMPI DUP1 PUSH4 0xDDBFC0D2 EQ PUSH2 0x982 JUMPI DUP1 PUSH4 0xE1E767E6 EQ PUSH2 0x99F JUMPI PUSH1 0x0 DUP1 REVERT JUMPDEST DUP1 PUSH4 0xA7F93EBD GT PUSH2 0x185 JUMPI DUP1 PUSH4 0xBDA8D370 GT PUSH2 0x154 JUMPI DUP1 PUSH4 0xBDA8D370 EQ PUSH2 0x8E8 JUMPI DUP1 PUSH4 0xC399748D EQ PUSH2 0x908 JUMPI DUP1 PUSH4 0xC87B56DD EQ PUSH2 0x925 JUMPI DUP1 PUSH4 0xD0DEF521 EQ PUSH2 0x945 JUMPI PUSH1 0x0 DUP1 REVERT JUMPDEST DUP1 PUSH4 0xA7F93EBD EQ PUSH2 0x888 JUMPI DUP1 PUSH4 0xAD3EA47E EQ PUSH2 0x89D JUMPI DUP1 PUSH4 0xB42A275E EQ PUSH2 0x8B5 JUMPI DUP1 PUSH4 0xB88D4FDE EQ PUSH2 0x8C8 JUMPI PUSH1 0x0 DUP1 REVERT JUMPDEST DUP1 PUSH4 0x9FD5D2AB GT PUSH2 0x1C1 JUMPI DUP1 PUSH4 0x9FD5D2AB EQ PUSH2 0x81B JUMPI DUP1 PUSH4 0xA096C5A2 EQ PUSH2 0x83B JUMPI DUP1 PUSH4 0xA22CB465 EQ PUSH2 0x850 JUMPI DUP1 PUSH4 0xA6FDE7AB EQ PUSH2 0x870 JUMPI PUSH1 0x0 DUP1 REVERT JUMPDEST DUP1 PUSH4 0x8C7EB38E EQ PUSH2 0x7BE JUMPI DUP1 PUSH4 0x8DA5CB5B EQ PUSH2 0x7D3 JUMPI DUP1 PUSH4 0x952977F5 EQ PUSH2 0x7F1 JUMPI DUP1 PUSH4 0x95D89B41 EQ PUSH2 0x806 JUMPI PUSH1 0x0 DUP1 REVERT JUMPDEST DUP1 PUSH4 0x42966C68 GT PUSH2 0x2E2 JUMPI DUP1 PUSH4 0x65F5F661 GT PUSH2 0x275 JUMPI DUP1 PUSH4 0x714C5398 GT PUSH2 0x244 JUMPI DUP1 PUSH4 0x714C5398 EQ PUSH2 0x754 JUMPI DUP1 PUSH4 0x715018A6 EQ PUSH2 0x769 JUMPI DUP1 PUSH4 0x785FA7CE EQ PUSH2 0x77E JUMPI DUP1 PUSH4 0x7C237EEA EQ PUSH2 0x79E JUMPI PUSH1 0x0 DUP1 REVERT JUMPDEST DUP1 PUSH4 0x65F5F661 EQ PUSH2 0x6D0 JUMPI DUP1 PUSH4 0x69C57352 EQ PUSH2 0x6F2 JUMPI DUP1 PUSH4 0x6F8B44B0 EQ PUSH2 0x714 JUMPI DUP1 PUSH4 0x70A08231 EQ PUSH2 0x734 JUMPI PUSH1 0x0 DUP1 REVERT JUMPDEST DUP1 PUSH4 0x54FD4D50 GT PUSH2 0x2B1 JUMPI DUP1 PUSH4 0x54FD4D50 EQ PUSH2 0x65A JUMPI DUP1 PUSH4 0x55F804B3 EQ PUSH2 0x670 JUMPI DUP1 PUSH4 0x5E81078D EQ PUSH2 0x690 JUMPI DUP1 PUSH4 0x6352211E EQ PUSH2 0x6B0 JUMPI PUSH1 0x0 DUP1 REVERT JUMPDEST DUP1 PUSH4 0x42966C68 EQ PUSH2 0x5E7 JUMPI DUP1 PUSH4 0x476CAA70 EQ PUSH2 0x607 JUMPI DUP1 PUSH4 0x512DDCF9 EQ PUSH2 0x627 JUMPI DUP1 PUSH4 0x51ED8288 EQ PUSH2 0x647 JUMPI PUSH1 0x0 DUP1 REVERT JUMPDEST DUP1 PUSH4 0x19C8C1C5 GT PUSH2 0x35A JUMPI DUP1 PUSH4 0x31AF3886 GT PUSH2 0x329 JUMPI DUP1 PUSH4 0x31AF3886 EQ PUSH2 0x57E JUMPI DUP1 PUSH4 0x32CB6B0C EQ PUSH2 0x591 JUMPI DUP1 PUSH4 0x35D4ABDE EQ PUSH2 0x5A7 JUMPI DUP1 PUSH4 0x42842E0E EQ PUSH2 0x5C7 JUMPI PUSH1 0x0 DUP1 REVERT JUMPDEST DUP1 PUSH4 0x19C8C1C5 EQ PUSH2 0x4FC JUMPI DUP1 PUSH4 0x1A3074DC EQ PUSH2 0x529 JUMPI DUP1 PUSH4 0x1F05AD94 EQ PUSH2 0x549 JUMPI DUP1 PUSH4 0x23B872DD EQ PUSH2 0x55E JUMPI PUSH1 0x0 DUP1 REVERT JUMPDEST DUP1 PUSH4 0x95EA7B3 GT PUSH2 0x396 JUMPI DUP1 PUSH4 0x95EA7B3 EQ PUSH2 0x479 JUMPI DUP1 PUSH4 0xECB93C0 EQ PUSH2 0x499 JUMPI DUP1 PUSH4 0x10603023 EQ PUSH2 0x4B9 JUMPI DUP1 PUSH4 0x18160DDD EQ PUSH2 0x4D9 JUMPI PUSH1 0x0 DUP1 REVERT JUMPDEST DUP1 PUSH4 0x1FFC9A7 EQ PUSH2 0x3C8 JUMPI DUP1 PUSH4 0x47A5D43 EQ PUSH2 0x3FD JUMPI DUP1 PUSH4 0x6FDDE03 EQ PUSH2 0x41F JUMPI DUP1 PUSH4 0x81812FC EQ PUSH2 0x441 JUMPI JUMPDEST PUSH1 0x0 DUP1 REVERT JUMPDEST CALLVALUE DUP1 ISZERO PUSH2 0x3D4 JUMPI PUSH1 0x0 DUP1 REVERT JUMPDEST POP PUSH2 0x3E8 PUSH2 0x3E3 CALLDATASIZE PUSH1 0x4 PUSH2 0x3DA0 JUMP JUMPDEST PUSH2 0xB83 JUMP JUMPDEST PUSH1 0x40 MLOAD SWAP1 ISZERO ISZERO DUP2 MSTORE PUSH1 0x20 ADD JUMPDEST PUSH1 0x40 MLOAD DUP1 SWAP2 SUB SWAP1 RETURN JUMPDEST CALLVALUE DUP1 ISZERO PUSH2 0x409 JUMPI PUSH1 0x0 DUP1 REVERT JUMPDEST POP PUSH2 0x41D PUSH2 0x418 CALLDATASIZE PUSH1 0x4 PUSH2 0x3DBD JUMP JUMPDEST PUSH2 0xBD5 JUMP JUMPDEST STOP JUMPDEST CALLVALUE DUP1 ISZERO PUSH2 0x42B JUMPI PUSH1 0x0 DUP1 REVERT JUMPDEST POP PUSH2 0x434 PUSH2 0x109B JUMP JUMPDEST PUSH1 0x40 MLOAD PUSH2 0x3F4 SWAP2 SWAP1 PUSH2 0x3E26 JUMP JUMPDEST CALLVALUE DUP1 ISZERO PUSH2 0x44D JUMPI PUSH1 0x0 DUP1 REVERT JUMPDEST POP PUSH2 0x461 PUSH2 0x45C CALLDATASIZE PUSH1 0x4 PUSH2 0x3DBD JUMP JUMPDEST PUSH2 0x112D JUMP JUMPDEST PUSH1 0x40 MLOAD PUSH1 0x1 PUSH1 0x1 PUSH1 0xA0 SHL SUB SWAP1 SWAP2 AND DUP2 MSTORE PUSH1 0x20 ADD PUSH2 0x3F4 JUMP JUMPDEST CALLVALUE DUP1 ISZERO PUSH2 0x485 JUMPI PUSH1 0x0 DUP1 REVERT JUMPDEST POP PUSH2 0x41D PUSH2 0x494 CALLDATASIZE PUSH1 0x4 PUSH2 0x3E55 JUMP JUMPDEST PUSH2 0x1154 JUMP JUMPDEST CALLVALUE DUP1 ISZERO PUSH2 0x4A5 JUMPI PUSH1 0x0 DUP1 REVERT JUMPDEST POP PUSH2 0x41D PUSH2 0x4B4 CALLDATASIZE PUSH1 0x4 PUSH2 0x3E7F JUMP JUMPDEST PUSH2 0x1269 JUMP JUMPDEST CALLVALUE DUP1 ISZERO PUSH2 0x4C5 JUMPI PUSH1 0x0 DUP1 REVERT JUMPDEST POP PUSH2 0x41D PUSH2 0x4D4 CALLDATASIZE PUSH1 0x4 PUSH2 0x3DBD JUMP JUMPDEST PUSH2 0x1295 JUMP JUMPDEST CALLVALUE DUP1 ISZERO PUSH2 0x4E5 JUMPI PUSH1 0x0 DUP1 REVERT JUMPDEST POP PUSH2 0x4EE PUSH2 0x12A2 JUMP JUMPDEST PUSH1 0x40 MLOAD SWAP1 DUP2 MSTORE PUSH1 0x20 ADD PUSH2 0x3F4 JUMP JUMPDEST CALLVALUE DUP1 ISZERO PUSH2 0x508 JUMPI PUSH1 0x0 DUP1 REVERT JUMPDEST POP PUSH2 0x51C PUSH2 0x517 CALLDATASIZE PUSH1 0x4 PUSH2 0x3E7F JUMP JUMPDEST PUSH2 0x12B2 JUMP JUMPDEST PUSH1 0x40 MLOAD PUSH2 0x3F4 SWAP2 SWAP1 PUSH2 0x3E9A JUMP JUMPDEST CALLVALUE DUP1 ISZERO PUSH2 0x535 JUMPI PUSH1 0x0 DUP1 REVERT JUMPDEST POP PUSH2 0x41D PUSH2 0x544 CALLDATASIZE PUSH1 0x4 PUSH2 0x3F49 JUMP JUMPDEST PUSH2 0x1510 JUMP JUMPDEST CALLVALUE DUP1 ISZERO PUSH2 0x555 JUMPI PUSH1 0x0 DUP1 REVERT JUMPDEST POP PUSH1 0x19 SLOAD PUSH2 0x4EE JUMP JUMPDEST CALLVALUE DUP1 ISZERO PUSH2 0x56A JUMPI PUSH1 0x0 DUP1 REVERT JUMPDEST POP PUSH2 0x41D PUSH2 0x579 CALLDATASIZE PUSH1 0x4 PUSH2 0x3F66 JUMP JUMPDEST PUSH2 0x1532 JUMP JUMPDEST PUSH2 0x4EE PUSH2 0x58C CALLDATASIZE PUSH1 0x4 PUSH2 0x3DBD JUMP JUMPDEST PUSH2 0x1563 JUMP JUMPDEST CALLVALUE DUP1 ISZERO PUSH2 0x59D JUMPI PUSH1 0x0 DUP1 REVERT JUMPDEST POP PUSH2 0x4EE PUSH1 0x9 SLOAD DUP2 JUMP JUMPDEST CALLVALUE DUP1 ISZERO PUSH2 0x5B3 JUMPI PUSH1 0x0 DUP1 REVERT JUMPDEST POP PUSH2 0x41D PUSH2 0x5C2 CALLDATASIZE PUSH1 0x4 PUSH2 0x3DBD JUMP JUMPDEST PUSH2 0x16D0 JUMP JUMPDEST CALLVALUE DUP1 ISZERO PUSH2 0x5D3 JUMPI PUSH1 0x0 DUP1 REVERT JUMPDEST POP PUSH2 0x41D PUSH2 0x5E2 CALLDATASIZE PUSH1 0x4 PUSH2 0x3F66 JUMP JUMPDEST PUSH2 0x16DD JUMP JUMPDEST CALLVALUE DUP1 ISZERO PUSH2 0x5F3 JUMPI PUSH1 0x0 DUP1 REVERT JUMPDEST POP PUSH2 0x41D PUSH2 0x602 CALLDATASIZE PUSH1 0x4 PUSH2 0x3DBD JUMP JUMPDEST PUSH2 0x16F8 JUMP JUMPDEST CALLVALUE DUP1 ISZERO PUSH2 0x613 JUMPI PUSH1 0x0 DUP1 REVERT JUMPDEST POP PUSH2 0x4EE PUSH2 0x622 CALLDATASIZE PUSH1 0x4 PUSH2 0x3E7F JUMP JUMPDEST PUSH2 0x171C JUMP JUMPDEST CALLVALUE DUP1 ISZERO PUSH2 0x633 JUMPI PUSH1 0x0 DUP1 REVERT JUMPDEST POP PUSH2 0x41D PUSH2 0x642 CALLDATASIZE PUSH1 0x4 PUSH2 0x3DBD JUMP JUMPDEST PUSH2 0x1790 JUMP JUMPDEST PUSH2 0x41D PUSH2 0x655 CALLDATASIZE PUSH1 0x4 PUSH2 0x3DBD JUMP JUMPDEST PUSH2 0x1878 JUMP JUMPDEST CALLVALUE DUP1 ISZERO PUSH2 0x666 JUMPI PUSH1 0x0 DUP1 REVERT JUMPDEST POP PUSH2 0x4EE PUSH1 0xC SLOAD DUP2 JUMP JUMPDEST CALLVALUE DUP1 ISZERO PUSH2 0x67C JUMPI PUSH1 0x0 DUP1 REVERT JUMPDEST POP PUSH2 0x41D PUSH2 0x68B CALLDATASIZE PUSH1 0x4 PUSH2 0x405F JUMP JUMPDEST PUSH2 0x1BB6 JUMP JUMPDEST CALLVALUE DUP1 ISZERO PUSH2 0x69C JUMPI PUSH1 0x0 DUP1 REVERT JUMPDEST POP PUSH2 0x41D PUSH2 0x6AB CALLDATASIZE PUSH1 0x4 PUSH2 0x3F49 JUMP JUMPDEST PUSH2 0x1BCE JUMP JUMPDEST CALLVALUE DUP1 ISZERO PUSH2 0x6BC JUMPI PUSH1 0x0 DUP1 REVERT JUMPDEST POP PUSH2 0x461 PUSH2 0x6CB CALLDATASIZE PUSH1 0x4 PUSH2 0x3DBD JUMP JUMPDEST PUSH2 0x1BE9 JUMP JUMPDEST CALLVALUE DUP1 ISZERO PUSH2 0x6DC JUMPI PUSH1 0x0 DUP1 REVERT JUMPDEST POP PUSH2 0x6E5 PUSH2 0x1C49 JUMP JUMPDEST PUSH1 0x40 MLOAD PUSH2 0x3F4 SWAP2 SWAP1 PUSH2 0x4093 JUMP JUMPDEST CALLVALUE DUP1 ISZERO PUSH2 0x6FE JUMPI PUSH1 0x0 DUP1 REVERT JUMPDEST POP PUSH2 0x707 PUSH2 0x1D22 JUMP JUMPDEST PUSH1 0x40 MLOAD PUSH2 0x3F4 SWAP2 SWAP1 PUSH2 0x40F5 JUMP JUMPDEST CALLVALUE DUP1 ISZERO PUSH2 0x720 JUMPI PUSH1 0x0 DUP1 REVERT JUMPDEST POP PUSH2 0x41D PUSH2 0x72F CALLDATASIZE PUSH1 0x4 PUSH2 0x3DBD JUMP JUMPDEST PUSH2 0x1D83 JUMP JUMPDEST CALLVALUE DUP1 ISZERO PUSH2 0x740 JUMPI PUSH1 0x0 DUP1 REVERT JUMPDEST POP PUSH2 0x4EE PUSH2 0x74F CALLDATASIZE PUSH1 0x4 PUSH2 0x3E7F JUMP JUMPDEST PUSH2 0x1D90 JUMP JUMPDEST CALLVALUE DUP1 ISZERO PUSH2 0x760 JUMPI PUSH1 0x0 DUP1 REVERT JUMPDEST POP PUSH2 0x434 PUSH2 0x1E16 JUMP JUMPDEST CALLVALUE DUP1 ISZERO PUSH2 0x775 JUMPI PUSH1 0x0 DUP1 REVERT JUMPDEST POP PUSH2 0x41D PUSH2 0x1E25 JUMP JUMPDEST CALLVALUE DUP1 ISZERO PUSH2 0x78A JUMPI PUSH1 0x0 DUP1 REVERT JUMPDEST POP PUSH2 0x3E8 PUSH2 0x799 CALLDATASIZE PUSH1 0x4 PUSH2 0x3E7F JUMP JUMPDEST PUSH2 0x1E39 JUMP JUMPDEST CALLVALUE DUP1 ISZERO PUSH2 0x7AA JUMPI PUSH1 0x0 DUP1 REVERT JUMPDEST POP PUSH2 0x41D PUSH2 0x7B9 CALLDATASIZE PUSH1 0x4 PUSH2 0x4142 JUMP JUMPDEST PUSH2 0x1E9D JUMP JUMPDEST CALLVALUE DUP1 ISZERO PUSH2 0x7CA JUMPI PUSH1 0x0 DUP1 REVERT JUMPDEST POP PUSH2 0x3E8 PUSH1 0x1 DUP2 JUMP JUMPDEST CALLVALUE DUP1 ISZERO PUSH2 0x7DF JUMPI PUSH1 0x0 DUP1 REVERT JUMPDEST POP PUSH1 0x7 SLOAD PUSH1 0x1 PUSH1 0x1 PUSH1 0xA0 SHL SUB AND PUSH2 0x461 JUMP JUMPDEST CALLVALUE DUP1 ISZERO PUSH2 0x7FD JUMPI PUSH1 0x0 DUP1 REVERT JUMPDEST POP PUSH1 0xE SLOAD PUSH2 0x4EE JUMP JUMPDEST CALLVALUE DUP1 ISZERO PUSH2 0x812 JUMPI PUSH1 0x0 DUP1 REVERT JUMPDEST POP PUSH2 0x434 PUSH2 0x21DF JUMP JUMPDEST CALLVALUE DUP1 ISZERO PUSH2 0x827 JUMPI PUSH1 0x0 DUP1 REVERT JUMPDEST POP PUSH2 0x41D PUSH2 0x836 CALLDATASIZE PUSH1 0x4 PUSH2 0x3F49 JUMP JUMPDEST PUSH2 0x21EE JUMP JUMPDEST CALLVALUE DUP1 ISZERO PUSH2 0x847 JUMPI PUSH1 0x0 DUP1 REVERT JUMPDEST POP PUSH2 0x51C PUSH2 0x2209 JUMP JUMPDEST CALLVALUE DUP1 ISZERO PUSH2 0x85C JUMPI PUSH1 0x0 DUP1 REVERT JUMPDEST POP PUSH2 0x41D PUSH2 0x86B CALLDATASIZE PUSH1 0x4 PUSH2 0x4177 JUMP JUMPDEST PUSH2 0x2214 JUMP JUMPDEST CALLVALUE DUP1 ISZERO PUSH2 0x87C JUMPI PUSH1 0x0 DUP1 REVERT JUMPDEST POP PUSH1 0xF SLOAD PUSH1 0xFF AND PUSH2 0x3E8 JUMP JUMPDEST CALLVALUE DUP1 ISZERO PUSH2 0x894 JUMPI PUSH1 0x0 DUP1 REVERT JUMPDEST POP PUSH1 0x18 SLOAD PUSH2 0x4EE JUMP JUMPDEST CALLVALUE DUP1 ISZERO PUSH2 0x8A9 JUMPI PUSH1 0x0 DUP1 REVERT JUMPDEST POP PUSH1 0xD SLOAD PUSH1 0xFF AND PUSH2 0x3E8 JUMP JUMPDEST CALLVALUE DUP1 ISZERO PUSH2 0x8C1 JUMPI PUSH1 0x0 DUP1 REVERT JUMPDEST POP SELFBALANCE PUSH2 0x4EE JUMP JUMPDEST CALLVALUE DUP1 ISZERO PUSH2 0x8D4 JUMPI PUSH1 0x0 DUP1 REVERT JUMPDEST POP PUSH2 0x41D PUSH2 0x8E3 CALLDATASIZE PUSH1 0x4 PUSH2 0x41AE JUMP JUMPDEST PUSH2 0x221F JUMP JUMPDEST CALLVALUE DUP1 ISZERO PUSH2 0x8F4 JUMPI PUSH1 0x0 DUP1 REVERT JUMPDEST POP PUSH2 0x41D PUSH2 0x903 CALLDATASIZE PUSH1 0x4 PUSH2 0x42DB JUMP JUMPDEST PUSH2 0x2251 JUMP JUMPDEST CALLVALUE DUP1 ISZERO PUSH2 0x914 JUMPI PUSH1 0x0 DUP1 REVERT JUMPDEST POP PUSH1 0xD SLOAD PUSH2 0x100 SWAP1 DIV PUSH1 0xFF AND PUSH2 0x3E8 JUMP JUMPDEST CALLVALUE DUP1 ISZERO PUSH2 0x931 JUMPI PUSH1 0x0 DUP1 REVERT JUMPDEST POP PUSH2 0x434 PUSH2 0x940 CALLDATASIZE PUSH1 0x4 PUSH2 0x3DBD JUMP JUMPDEST PUSH2 0x226C JUMP JUMPDEST PUSH2 0x4EE PUSH2 0x953 CALLDATASIZE PUSH1 0x4 PUSH2 0x430F JUMP JUMPDEST PUSH2 0x2320 JUMP JUMPDEST CALLVALUE DUP1 ISZERO PUSH2 0x964 JUMPI PUSH1 0x0 DUP1 REVERT JUMPDEST POP PUSH2 0x51C PUSH2 0x24BD JUMP JUMPDEST CALLVALUE DUP1 ISZERO PUSH2 0x979 JUMPI PUSH1 0x0 DUP1 REVERT JUMPDEST POP PUSH1 0x9 SLOAD PUSH2 0x4EE JUMP JUMPDEST CALLVALUE DUP1 ISZERO PUSH2 0x98E JUMPI PUSH1 0x0 DUP1 REVERT JUMPDEST POP PUSH1 0xF SLOAD PUSH2 0x100 SWAP1 DIV PUSH1 0xFF AND PUSH2 0x3E8 JUMP JUMPDEST CALLVALUE DUP1 ISZERO PUSH2 0x9AB JUMPI PUSH1 0x0 DUP1 REVERT JUMPDEST POP PUSH2 0x9BF PUSH2 0x9BA CALLDATASIZE PUSH1 0x4 PUSH2 0x43BE JUMP JUMPDEST PUSH2 0x26CA JUMP JUMPDEST PUSH1 0x40 MLOAD PUSH2 0x3F4 SWAP2 SWAP1 PUSH2 0x44AC JUMP JUMPDEST CALLVALUE DUP1 ISZERO PUSH2 0x9D8 JUMPI PUSH1 0x0 DUP1 REVERT JUMPDEST POP PUSH2 0x41D PUSH2 0x9E7 CALLDATASIZE PUSH1 0x4 PUSH2 0x3E7F JUMP JUMPDEST PUSH2 0x2C1B JUMP JUMPDEST CALLVALUE DUP1 ISZERO PUSH2 0x9F8 JUMPI PUSH1 0x0 DUP1 REVERT JUMPDEST POP PUSH2 0x3E8 PUSH2 0xA07 CALLDATASIZE PUSH1 0x4 PUSH2 0x44E4 JUMP JUMPDEST PUSH1 0x1 PUSH1 0x1 PUSH1 0xA0 SHL SUB SWAP2 DUP3 AND PUSH1 0x0 SWAP1 DUP2 MSTORE PUSH1 0x5 PUSH1 0x20 SWAP1 DUP2 MSTORE PUSH1 0x40 DUP1 DUP4 KECCAK256 SWAP4 SWAP1 SWAP5 AND DUP3 MSTORE SWAP2 SWAP1 SWAP2 MSTORE KECCAK256 SLOAD PUSH1 0xFF AND SWAP1 JUMP JUMPDEST CALLVALUE DUP1 ISZERO PUSH2 0xA41 JUMPI PUSH1 0x0 DUP1 REVERT JUMPDEST POP PUSH2 0x41D PUSH2 0xA50 CALLDATASIZE PUSH1 0x4 PUSH2 0x4517 JUMP JUMPDEST PUSH2 0x2C44 JUMP JUMPDEST CALLVALUE DUP1 ISZERO PUSH2 0xA61 JUMPI PUSH1 0x0 DUP1 REVERT JUMPDEST POP PUSH2 0x4EE PUSH2 0xA70 CALLDATASIZE PUSH1 0x4 PUSH2 0x430F JUMP JUMPDEST PUSH2 0x2C5F JUMP JUMPDEST CALLVALUE DUP1 ISZERO PUSH2 0xA81 JUMPI PUSH1 0x0 DUP1 REVERT JUMPDEST POP PUSH2 0x41D PUSH2 0xA90 CALLDATASIZE PUSH1 0x4 PUSH2 0x3E7F JUMP JUMPDEST PUSH2 0x2C69 JUMP JUMPDEST CALLVALUE DUP1 ISZERO PUSH2 0xAA1 JUMPI PUSH1 0x0 DUP1 REVERT JUMPDEST POP PUSH2 0x41D PUSH2 0xAB0 CALLDATASIZE PUSH1 0x4 PUSH2 0x454B JUMP JUMPDEST PUSH2 0x2CDF JUMP JUMPDEST CALLVALUE DUP1 ISZERO PUSH2 0xAC1 JUMPI PUSH1 0x0 DUP1 REVERT JUMPDEST POP PUSH2 0x41D PUSH2 0xAD0 CALLDATASIZE PUSH1 0x4 PUSH2 0x3DBD JUMP JUMPDEST PUSH2 0x2D4F JUMP JUMPDEST CALLVALUE DUP1 ISZERO PUSH2 0xAE1 JUMPI PUSH1 0x0 DUP1 REVERT JUMPDEST POP PUSH2 0x41D PUSH2 0xAF0 CALLDATASIZE PUSH1 0x4 PUSH2 0x3DBD JUMP JUMPDEST PUSH2 0x2D5C JUMP JUMPDEST CALLVALUE DUP1 ISZERO PUSH2 0xB01 JUMPI PUSH1 0x0 DUP1 REVERT JUMPDEST POP PUSH2 0x41D PUSH2 0xB10 CALLDATASIZE PUSH1 0x4 PUSH2 0x3F49 JUMP JUMPDEST PUSH2 0x2DD6 JUMP JUMPDEST CALLVALUE DUP1 ISZERO PUSH2 0xB21 JUMPI PUSH1 0x0 DUP1 REVERT JUMPDEST POP PUSH2 0x41D PUSH2 0xB30 CALLDATASIZE PUSH1 0x4 PUSH2 0x3E7F JUMP JUMPDEST PUSH2 0x2DF8 JUMP JUMPDEST CALLVALUE DUP1 ISZERO PUSH2 0xB41 JUMPI PUSH1 0x0 DUP1 REVERT JUMPDEST POP PUSH2 0x3E8 PUSH2 0xB50 CALLDATASIZE PUSH1 0x4 PUSH2 0x3E7F JUMP JUMPDEST PUSH1 0x1 PUSH1 0x1 PUSH1 0xA0 SHL SUB AND PUSH1 0x0 SWAP1 DUP2 MSTORE PUSH1 0x12 PUSH1 0x20 MSTORE PUSH1 0x40 SWAP1 KECCAK256 SLOAD PUSH1 0xFF AND SWAP1 JUMP JUMPDEST CALLVALUE DUP1 ISZERO PUSH2 0xB7A JUMPI PUSH1 0x0 DUP1 REVERT JUMPDEST POP PUSH2 0x41D PUSH2 0x2F01 JUMP JUMPDEST PUSH1 0x0 PUSH1 0x1 PUSH1 0x1 PUSH1 0xE0 SHL SUB NOT DUP3 AND PUSH4 0x80AC58CD PUSH1 0xE0 SHL EQ DUP1 PUSH2 0xBB4 JUMPI POP PUSH1 0x1 PUSH1 0x1 PUSH1 0xE0 SHL SUB NOT DUP3 AND PUSH4 0x5B5E139F PUSH1 0xE0 SHL EQ JUMPDEST DUP1 PUSH2 0xBCF JUMPI POP PUSH4 0x1FFC9A7 PUSH1 0xE0 SHL PUSH1 0x1 PUSH1 0x1 PUSH1 0xE0 SHL SUB NOT DUP4 AND EQ JUMPDEST SWAP3 SWAP2 POP POP JUMP JUMPDEST PUSH1 0xD SLOAD PUSH1 0xFF AND ISZERO ISZERO PUSH1 0x1 EQ PUSH2 0xC05 JUMPI PUSH1 0x40 MLOAD PUSH3 0x461BCD PUSH1 0xE5 SHL DUP2 MSTORE PUSH1 0x4 ADD PUSH2 0xBFC SWAP1 PUSH2 0x45EF JUMP JUMPDEST PUSH1 0x40 MLOAD DUP1 SWAP2 SUB SWAP1 REVERT JUMPDEST PUSH2 0xC0E DUP2 PUSH2 0x1BE9 JUMP JUMPDEST PUSH1 0x1 PUSH1 0x1 PUSH1 0xA0 SHL SUB AND ADDRESS PUSH1 0x1 PUSH1 0x1 PUSH1 0xA0 SHL SUB AND EQ PUSH2 0xC6E JUMPI PUSH1 0x40 MLOAD PUSH3 0x461BCD PUSH1 0xE5 SHL DUP2 MSTORE PUSH1 0x20 PUSH1 0x4 DUP3 ADD MSTORE PUSH1 0x1A PUSH1 0x24 DUP3 ADD MSTORE PUSH32 0x54686973204E4654206E6F742061742073616C6520626F617264000000000000 PUSH1 0x44 DUP3 ADD MSTORE PUSH1 0x64 ADD PUSH2 0xBFC JUMP JUMPDEST PUSH1 0x0 DUP2 DUP2 MSTORE PUSH1 0x10 PUSH1 0x20 MSTORE PUSH1 0x40 SWAP1 KECCAK256 SLOAD PUSH1 0xFF AND ISZERO ISZERO PUSH1 0x1 EQ PUSH2 0xCCC JUMPI PUSH1 0x40 MLOAD PUSH3 0x461BCD PUSH1 0xE5 SHL DUP2 MSTORE PUSH1 0x20 PUSH1 0x4 DUP3 ADD MSTORE PUSH1 0x18 PUSH1 0x24 DUP3 ADD MSTORE PUSH24 0x54686973204E4654206973206E6F7420666F722073616C65 PUSH1 0x40 SHL PUSH1 0x44 DUP3 ADD MSTORE PUSH1 0x64 ADD PUSH2 0xBFC JUMP JUMPDEST PUSH1 0x0 DUP2 DUP2 MSTORE PUSH1 0x11 PUSH1 0x20 MSTORE PUSH1 0x40 SWAP1 KECCAK256 PUSH1 0x4 ADD SLOAD PUSH1 0x1 PUSH1 0x1 PUSH1 0xA0 SHL SUB AND PUSH2 0xD33 JUMPI PUSH1 0x40 MLOAD PUSH3 0x461BCD PUSH1 0xE5 SHL DUP2 MSTORE PUSH1 0x20 PUSH1 0x4 DUP3 ADD DUP2 SWAP1 MSTORE PUSH1 0x24 DUP3 ADD MSTORE PUSH32 0x5468697320746F6B656E2073656C6C6564206279204E617469766520636F696E PUSH1 0x44 DUP3 ADD MSTORE PUSH1 0x64 ADD PUSH2 0xBFC JUMP JUMPDEST PUSH1 0x0 DUP2 DUP2 MSTORE PUSH1 0x11 PUSH1 0x20 MSTORE PUSH1 0x40 DUP1 DUP3 KECCAK256 PUSH1 0x4 SWAP1 DUP2 ADD SLOAD SWAP2 MLOAD PUSH4 0x70A08231 PUSH1 0xE0 SHL DUP2 MSTORE CALLER SWAP2 DUP2 ADD SWAP2 SWAP1 SWAP2 MSTORE PUSH1 0x1 PUSH1 0x1 PUSH1 0xA0 SHL SUB SWAP1 SWAP2 AND SWAP2 SWAP1 DUP3 SWAP1 PUSH4 0x70A08231 SWAP1 PUSH1 0x24 ADD PUSH1 0x20 PUSH1 0x40 MLOAD DUP1 DUP4 SUB DUP2 DUP7 GAS STATICCALL ISZERO DUP1 ISZERO PUSH2 0xD91 JUMPI RETURNDATASIZE PUSH1 0x0 DUP1 RETURNDATACOPY RETURNDATASIZE PUSH1 0x0 REVERT JUMPDEST POP POP POP POP PUSH1 0x40 MLOAD RETURNDATASIZE PUSH1 0x1F NOT PUSH1 0x1F DUP3 ADD AND DUP3 ADD DUP1 PUSH1 0x40 MSTORE POP DUP2 ADD SWAP1 PUSH2 0xDB5 SWAP2 SWAP1 PUSH2 0x461A JUMP JUMPDEST PUSH1 0x0 DUP5 DUP2 MSTORE PUSH1 0x11 PUSH1 0x20 MSTORE PUSH1 0x40 SWAP1 KECCAK256 PUSH1 0x3 ADD SLOAD SWAP1 SWAP2 POP DUP2 LT ISZERO PUSH2 0xE36 JUMPI PUSH1 0x40 MLOAD PUSH3 0x461BCD PUSH1 0xE5 SHL DUP2 MSTORE PUSH1 0x20 PUSH1 0x4 DUP3 ADD MSTORE PUSH1 0x34 PUSH1 0x24 DUP3 ADD MSTORE PUSH32 0x596F7520646F206E6F74206861766520656E6F75676820746F6B656E73206F6E PUSH1 0x44 DUP3 ADD MSTORE PUSH20 0x20796F75722062616C616E636520746F20706179 PUSH1 0x60 SHL PUSH1 0x64 DUP3 ADD MSTORE PUSH1 0x84 ADD PUSH2 0xBFC JUMP JUMPDEST PUSH1 0x40 MLOAD PUSH4 0x6EB1769F PUSH1 0xE1 SHL DUP2 MSTORE CALLER PUSH1 0x4 DUP3 ADD MSTORE ADDRESS PUSH1 0x24 DUP3 ADD MSTORE PUSH1 0x0 SWAP1 PUSH1 0x1 PUSH1 0x1 PUSH1 0xA0 SHL SUB DUP5 AND SWAP1 PUSH4 0xDD62ED3E SWAP1 PUSH1 0x44 ADD PUSH1 0x20 PUSH1 0x40 MLOAD DUP1 DUP4 SUB DUP2 DUP7 GAS STATICCALL ISZERO DUP1 ISZERO PUSH2 0xE83 JUMPI RETURNDATASIZE PUSH1 0x0 DUP1 RETURNDATACOPY RETURNDATASIZE PUSH1 0x0 REVERT JUMPDEST POP POP POP POP PUSH1 0x40 MLOAD RETURNDATASIZE PUSH1 0x1F NOT PUSH1 0x1F DUP3 ADD AND DUP3 ADD DUP1 PUSH1 0x40 MSTORE POP DUP2 ADD SWAP1 PUSH2 0xEA7 SWAP2 SWAP1 PUSH2 0x461A JUMP JUMPDEST PUSH1 0x0 DUP6 DUP2 MSTORE PUSH1 0x11 PUSH1 0x20 MSTORE PUSH1 0x40 SWAP1 KECCAK256 PUSH1 0x3 ADD SLOAD SWAP1 SWAP2 POP DUP2 LT ISZERO PUSH2 0xF31 JUMPI PUSH1 0x40 MLOAD PUSH3 0x461BCD PUSH1 0xE5 SHL DUP2 MSTORE PUSH1 0x20 PUSH1 0x4 DUP3 ADD MSTORE PUSH1 0x3A PUSH1 0x24 DUP3 ADD MSTORE PUSH32 0x596F7520646964206E6F7420616C6C6F772074686520636F6E74726163742074 PUSH1 0x44 DUP3 ADD MSTORE PUSH32 0x6F2073656E642074686520707572636861736520616D6F756E74000000000000 PUSH1 0x64 DUP3 ADD MSTORE PUSH1 0x84 ADD PUSH2 0xBFC JUMP JUMPDEST PUSH1 0x0 DUP5 DUP2 MSTORE PUSH1 0x11 PUSH1 0x20 MSTORE PUSH1 0x40 DUP2 KECCAK256 PUSH1 0x3 ADD SLOAD SWAP1 PUSH2 0xF5A PUSH2 0xF52 DUP4 PUSH1 0x64 PUSH2 0x2F75 JUMP JUMPDEST PUSH1 0xE SLOAD PUSH2 0x2F81 JUMP JUMPDEST SWAP1 POP PUSH2 0xF6E PUSH1 0x7 SLOAD PUSH1 0x1 PUSH1 0x1 PUSH1 0xA0 SHL SUB AND SWAP1 JUMP JUMPDEST PUSH1 0x0 DUP8 DUP2 MSTORE PUSH1 0x11 PUSH1 0x20 MSTORE PUSH1 0x40 SWAP1 KECCAK256 PUSH1 0x2 ADD SLOAD PUSH1 0x1 PUSH1 0x1 PUSH1 0xA0 SHL SUB SWAP2 DUP3 AND SWAP2 AND SUB PUSH2 0xF96 JUMPI POP PUSH1 0x0 JUMPDEST PUSH1 0x0 PUSH2 0xFA2 DUP4 DUP4 PUSH2 0x2F8D JUMP JUMPDEST PUSH1 0x0 DUP9 DUP2 MSTORE PUSH1 0x11 PUSH1 0x20 MSTORE PUSH1 0x40 SWAP1 KECCAK256 PUSH1 0x2 ADD SLOAD SWAP1 SWAP2 POP PUSH2 0xFD0 SWAP1 PUSH1 0x1 PUSH1 0x1 PUSH1 0xA0 SHL SUB DUP9 DUP2 AND SWAP2 CALLER SWAP2 AND DUP5 PUSH2 0x2F99 JUMP JUMPDEST DUP2 ISZERO PUSH2 0xFFE JUMPI PUSH2 0xFFE CALLER PUSH2 0xFEC PUSH1 0x7 SLOAD PUSH1 0x1 PUSH1 0x1 PUSH1 0xA0 SHL SUB AND SWAP1 JUMP JUMPDEST PUSH1 0x1 PUSH1 0x1 PUSH1 0xA0 SHL SUB DUP10 AND SWAP2 SWAP1 DUP6 PUSH2 0x2F99 JUMP JUMPDEST PUSH2 0x1009 ADDRESS CALLER DUP10 PUSH2 0x2FF3 JUMP JUMPDEST PUSH1 0x0 DUP8 DUP2 MSTORE PUSH1 0x10 PUSH1 0x20 SWAP1 DUP2 MSTORE PUSH1 0x40 DUP1 DUP4 KECCAK256 DUP1 SLOAD PUSH1 0xFF NOT AND SWAP1 SSTORE PUSH1 0x11 SWAP1 SWAP2 MSTORE SWAP1 DUP2 SWAP1 KECCAK256 PUSH1 0x2 DUP2 ADD SLOAD PUSH1 0x4 DUP3 ADD SLOAD PUSH1 0x3 DUP4 ADD SLOAD SWAP4 MLOAD PUSH32 0xDBA1FE9F25C97C0ABD4CD5F6B4F2E4DAE96AC31138A8E8FF5B3C042DEEC9E05E SWAP5 PUSH2 0x1081 SWAP5 PUSH1 0x1 PUSH1 0x1 PUSH1 0xA0 SHL SUB SWAP5 DUP6 AND SWAP5 CALLER SWAP5 DUP16 SWAP5 PUSH1 0x1 SWAP4 SWAP1 SWAP4 ADD SWAP4 SWAP2 AND SWAP2 PUSH2 0x46EA JUMP JUMPDEST PUSH1 0x40 MLOAD DUP1 SWAP2 SUB SWAP1 LOG1 PUSH2 0x1092 DUP8 PUSH2 0x3164 JUMP JUMPDEST POP POP POP POP POP POP POP JUMP JUMPDEST PUSH1 0x60 PUSH1 0x0 DUP1 SLOAD PUSH2 0x10AA SWAP1 PUSH2 0x4633 JUMP JUMPDEST DUP1 PUSH1 0x1F ADD PUSH1 0x20 DUP1 SWAP2 DIV MUL PUSH1 0x20 ADD PUSH1 0x40 MLOAD SWAP1 DUP2 ADD PUSH1 0x40 MSTORE DUP1 SWAP3 SWAP2 SWAP1 DUP2 DUP2 MSTORE PUSH1 0x20 ADD DUP3 DUP1 SLOAD PUSH2 0x10D6 SWAP1 PUSH2 0x4633 JUMP JUMPDEST DUP1 ISZERO PUSH2 0x1123 JUMPI DUP1 PUSH1 0x1F LT PUSH2 0x10F8 JUMPI PUSH2 0x100 DUP1 DUP4 SLOAD DIV MUL DUP4 MSTORE SWAP2 PUSH1 0x20 ADD SWAP2 PUSH2 0x1123 JUMP JUMPDEST DUP3 ADD SWAP2 SWAP1 PUSH1 0x0 MSTORE PUSH1 0x20 PUSH1 0x0 KECCAK256 SWAP1 JUMPDEST DUP2 SLOAD DUP2 MSTORE SWAP1 PUSH1 0x1 ADD SWAP1 PUSH1 0x20 ADD DUP1 DUP4 GT PUSH2 0x1106 JUMPI DUP3 SWAP1 SUB PUSH1 0x1F AND DUP3 ADD SWAP2 JUMPDEST POP POP POP POP POP SWAP1 POP SWAP1 JUMP JUMPDEST PUSH1 0x0 PUSH2 0x1138 DUP3 PUSH2 0x3204 JUMP JUMPDEST POP PUSH1 0x0 SWAP1 DUP2 MSTORE PUSH1 0x4 PUSH1 0x20 MSTORE PUSH1 0x40 SWAP1 KECCAK256 SLOAD PUSH1 0x1 PUSH1 0x1 PUSH1 0xA0 SHL SUB AND SWAP1 JUMP JUMPDEST PUSH1 0x0 PUSH2 0x115F DUP3 PUSH2 0x1BE9 JUMP JUMPDEST SWAP1 POP DUP1 PUSH1 0x1 PUSH1 0x1 PUSH1 0xA0 SHL SUB AND DUP4 PUSH1 0x1 PUSH1 0x1 PUSH1 0xA0 SHL SUB AND SUB PUSH2 0x11CC JUMPI PUSH1 0x40 MLOAD PUSH3 0x461BCD PUSH1 0xE5 SHL DUP2 MSTORE PUSH1 0x20 PUSH1 0x4 DUP3 ADD MSTORE PUSH1 0x21 PUSH1 0x24 DUP3 ADD MSTORE PUSH32 0x4552433732313A20617070726F76616C20746F2063757272656E74206F776E65 PUSH1 0x44 DUP3 ADD MSTORE PUSH1 0x39 PUSH1 0xF9 SHL PUSH1 0x64 DUP3 ADD MSTORE PUSH1 0x84 ADD PUSH2 0xBFC JUMP JUMPDEST CALLER PUSH1 0x1 PUSH1 0x1 PUSH1 0xA0 SHL SUB DUP3 AND EQ DUP1 PUSH2 0x11E8 JUMPI POP PUSH2 0x11E8 DUP2 CALLER PUSH2 0xA07 JUMP JUMPDEST PUSH2 0x125A JUMPI PUSH1 0x40 MLOAD PUSH3 0x461BCD PUSH1 0xE5 SHL DUP2 MSTORE PUSH1 0x20 PUSH1 0x4 DUP3 ADD MSTORE PUSH1 0x3D PUSH1 0x24 DUP3 ADD MSTORE PUSH32 0x4552433732313A20617070726F76652063616C6C6572206973206E6F7420746F PUSH1 0x44 DUP3 ADD MSTORE PUSH32 0x6B656E206F776E6572206F7220617070726F76656420666F7220616C6C000000 PUSH1 0x64 DUP3 ADD MSTORE PUSH1 0x84 ADD PUSH2 0xBFC JUMP JUMPDEST PUSH2 0x1264 DUP4 DUP4 PUSH2 0x3263 JUMP JUMPDEST POP POP POP JUMP JUMPDEST PUSH2 0x1271 PUSH2 0x32D1 JUMP JUMPDEST PUSH1 0x1 PUSH1 0x1 PUSH1 0xA0 SHL SUB AND PUSH1 0x0 SWAP1 DUP2 MSTORE PUSH1 0x12 PUSH1 0x20 MSTORE PUSH1 0x40 SWAP1 KECCAK256 DUP1 SLOAD PUSH1 0xFF NOT AND PUSH1 0x1 OR SWAP1 SSTORE JUMP JUMPDEST PUSH2 0x129D PUSH2 0x32D1 JUMP JUMPDEST PUSH1 0xE SSTORE JUMP JUMPDEST PUSH1 0x0 PUSH2 0x12AD PUSH1 0x8 SLOAD SWAP1 JUMP JUMPDEST SWAP1 POP SWAP1 JUMP JUMPDEST PUSH1 0x60 PUSH1 0x0 DUP1 JUMPDEST PUSH1 0x9 SLOAD DUP2 LT ISZERO PUSH2 0x1321 JUMPI PUSH1 0x0 DUP2 DUP2 MSTORE PUSH1 0x10 PUSH1 0x20 MSTORE PUSH1 0x40 SWAP1 KECCAK256 SLOAD PUSH1 0xFF AND DUP1 ISZERO PUSH2 0x12FC JUMPI POP PUSH1 0x0 DUP2 DUP2 MSTORE PUSH1 0x11 PUSH1 0x20 MSTORE PUSH1 0x40 SWAP1 KECCAK256 PUSH1 0x2 ADD SLOAD PUSH1 0x1 PUSH1 0x1 PUSH1 0xA0 SHL SUB DUP6 DUP2 AND SWAP2 AND EQ JUMPDEST ISZERO PUSH2 0x130F JUMPI DUP2 PUSH2 0x130B DUP2 PUSH2 0x4744 JUMP JUMPDEST SWAP3 POP POP JUMPDEST DUP1 PUSH2 0x1319 DUP2 PUSH2 0x4744 JUMP JUMPDEST SWAP2 POP POP PUSH2 0x12B8 JUMP JUMPDEST POP PUSH1 0x0 DUP2 PUSH1 0x1 PUSH1 0x1 PUSH1 0x40 SHL SUB DUP2 GT ISZERO PUSH2 0x133C JUMPI PUSH2 0x133C PUSH2 0x3FA2 JUMP JUMPDEST PUSH1 0x40 MLOAD SWAP1 DUP1 DUP3 MSTORE DUP1 PUSH1 0x20 MUL PUSH1 0x20 ADD DUP3 ADD PUSH1 0x40 MSTORE DUP1 ISZERO PUSH2 0x1375 JUMPI DUP2 PUSH1 0x20 ADD JUMPDEST PUSH2 0x1362 PUSH2 0x3C26 JUMP JUMPDEST DUP2 MSTORE PUSH1 0x20 ADD SWAP1 PUSH1 0x1 SWAP1 SUB SWAP1 DUP2 PUSH2 0x135A JUMPI SWAP1 POP JUMPDEST POP SWAP1 POP PUSH1 0x0 SWAP2 POP PUSH1 0x0 JUMPDEST PUSH1 0x9 SLOAD DUP2 LT ISZERO PUSH2 0x1508 JUMPI PUSH1 0x0 DUP2 DUP2 MSTORE PUSH1 0x10 PUSH1 0x20 MSTORE PUSH1 0x40 SWAP1 KECCAK256 SLOAD PUSH1 0xFF AND DUP1 ISZERO PUSH2 0x13C3 JUMPI POP PUSH1 0x0 DUP2 DUP2 MSTORE PUSH1 0x11 PUSH1 0x20 MSTORE PUSH1 0x40 SWAP1 KECCAK256 PUSH1 0x2 ADD SLOAD PUSH1 0x1 PUSH1 0x1 PUSH1 0xA0 SHL SUB DUP7 DUP2 AND SWAP2 AND EQ JUMPDEST ISZERO PUSH2 0x14F6 JUMPI PUSH1 0x0 PUSH1 0x40 MLOAD DUP1 PUSH1 0xA0 ADD PUSH1 0x40 MSTORE DUP1 DUP4 DUP2 MSTORE PUSH1 0x20 ADD PUSH1 0x11 PUSH1 0x0 DUP6 DUP2 MSTORE PUSH1 0x20 ADD SWAP1 DUP2 MSTORE PUSH1 0x20 ADD PUSH1 0x0 KECCAK256 PUSH1 0x1 ADD DUP1 SLOAD PUSH2 0x13FC SWAP1 PUSH2 0x4633 JUMP JUMPDEST DUP1 PUSH1 0x1F ADD PUSH1 0x20 DUP1 SWAP2 DIV MUL PUSH1 0x20 ADD PUSH1 0x40 MLOAD SWAP1 DUP2 ADD PUSH1 0x40 MSTORE DUP1 SWAP3 SWAP2 SWAP1 DUP2 DUP2 MSTORE PUSH1 0x20 ADD DUP3 DUP1 SLOAD PUSH2 0x1428 SWAP1 PUSH2 0x4633 JUMP JUMPDEST DUP1 ISZERO PUSH2 0x1475 JUMPI DUP1 PUSH1 0x1F LT PUSH2 0x144A JUMPI PUSH2 0x100 DUP1 DUP4 SLOAD DIV MUL DUP4 MSTORE SWAP2 PUSH1 0x20 ADD SWAP2 PUSH2 0x1475 JUMP JUMPDEST DUP3 ADD SWAP2 SWAP1 PUSH1 0x0 MSTORE PUSH1 0x20 PUSH1 0x0 KECCAK256 SWAP1 JUMPDEST DUP2 SLOAD DUP2 MSTORE SWAP1 PUSH1 0x1 ADD SWAP1 PUSH1 0x20 ADD DUP1 DUP4 GT PUSH2 0x1458 JUMPI DUP3 SWAP1 SUB PUSH1 0x1F AND DUP3 ADD SWAP2 JUMPDEST POP POP POP SWAP2 DUP4 MSTORE POP POP PUSH1 0x0 DUP5 DUP2 MSTORE PUSH1 0x11 PUSH1 0x20 DUP2 DUP2 MSTORE PUSH1 0x40 DUP1 DUP5 KECCAK256 PUSH1 0x2 DUP2 ADD SLOAD PUSH1 0x1 PUSH1 0x1 PUSH1 0xA0 SHL SUB SWAP1 DUP2 AND DUP5 DUP9 ADD MSTORE PUSH1 0x3 DUP3 ADD SLOAD SWAP3 DUP8 ADD SWAP3 SWAP1 SWAP3 MSTORE SWAP4 DUP9 SWAP1 MSTORE SWAP2 SWAP1 MSTORE PUSH1 0x4 SWAP1 SWAP2 ADD SLOAD AND PUSH1 0x60 SWAP1 SWAP2 ADD MSTORE DUP4 MLOAD SWAP1 SWAP2 POP DUP2 SWAP1 DUP5 SWAP1 DUP7 SWAP1 DUP2 LT PUSH2 0x14DB JUMPI PUSH2 0x14DB PUSH2 0x475D JUMP JUMPDEST PUSH1 0x20 MUL PUSH1 0x20 ADD ADD DUP2 SWAP1 MSTORE POP DUP4 DUP1 PUSH2 0x14F1 SWAP1 PUSH2 0x4744 JUMP JUMPDEST SWAP5 POP POP POP JUMPDEST DUP1 PUSH2 0x1500 DUP2 PUSH2 0x4744 JUMP JUMPDEST SWAP2 POP POP PUSH2 0x137F JUMP JUMPDEST POP SWAP4 SWAP3 POP POP POP JUMP JUMPDEST PUSH2 0x1518 PUSH2 0x32D1 JUMP JUMPDEST PUSH1 0xD DUP1 SLOAD SWAP2 ISZERO ISZERO PUSH2 0x100 MUL PUSH2 0xFF00 NOT SWAP1 SWAP3 AND SWAP2 SWAP1 SWAP2 OR SWAP1 SSTORE JUMP JUMPDEST PUSH2 0x153C CALLER DUP3 PUSH2 0x332B JUMP JUMPDEST PUSH2 0x1558 JUMPI PUSH1 0x40 MLOAD PUSH3 0x461BCD PUSH1 0xE5 SHL DUP2 MSTORE PUSH1 0x4 ADD PUSH2 0xBFC SWAP1 PUSH2 0x4773 JUMP JUMPDEST PUSH2 0x1264 DUP4 DUP4 DUP4 PUSH2 0x2FF3 JUMP JUMPDEST PUSH1 0xF SLOAD PUSH1 0x0 SWAP1 PUSH1 0xFF AND ISZERO ISZERO PUSH1 0x1 EQ PUSH2 0x15B0 JUMPI PUSH1 0x40 MLOAD PUSH3 0x461BCD PUSH1 0xE5 SHL DUP2 MSTORE PUSH1 0x20 PUSH1 0x4 DUP3 ADD MSTORE PUSH1 0x10 PUSH1 0x24 DUP3 ADD MSTORE PUSH16 0x135A5B9D081B9BDD08185B1B1BDDD959 PUSH1 0x82 SHL PUSH1 0x44 DUP3 ADD MSTORE PUSH1 0x64 ADD PUSH2 0xBFC JUMP JUMPDEST PUSH1 0x0 PUSH1 0x18 SLOAD GT PUSH2 0x15FE JUMPI PUSH1 0x40 MLOAD PUSH3 0x461BCD PUSH1 0xE5 SHL DUP2 MSTORE PUSH1 0x20 PUSH1 0x4 DUP3 ADD MSTORE PUSH1 0x19 PUSH1 0x24 DUP3 ADD MSTORE PUSH25 0x135A5B9D081C1C9A58D9481B9BDD0818DBDB999A59DD5C9959 PUSH1 0x3A SHL PUSH1 0x44 DUP3 ADD MSTORE PUSH1 0x64 ADD PUSH2 0xBFC JUMP JUMPDEST PUSH1 0x18 SLOAD CALLVALUE LT ISZERO PUSH2 0x1620 JUMPI PUSH1 0x40 MLOAD PUSH3 0x461BCD PUSH1 0xE5 SHL DUP2 MSTORE PUSH1 0x4 ADD PUSH2 0xBFC SWAP1 PUSH2 0x47C0 JUMP JUMPDEST PUSH2 0x162E PUSH1 0x8 DUP1 SLOAD PUSH1 0x1 ADD SWAP1 SSTORE JUMP JUMPDEST PUSH1 0x0 PUSH2 0x1639 PUSH1 0x8 SLOAD SWAP1 JUMP JUMPDEST SWAP1 POP PUSH2 0x1645 CALLER DUP3 PUSH2 0x33A9 JUMP JUMPDEST PUSH1 0x7 SLOAD PUSH1 0x40 MLOAD PUSH1 0x1 PUSH1 0x1 PUSH1 0xA0 SHL SUB SWAP1 SWAP2 AND SWAP1 CALLVALUE DUP1 ISZERO PUSH2 0x8FC MUL SWAP2 PUSH1 0x0 DUP2 DUP2 DUP2 DUP6 DUP9 DUP9 CALL SWAP4 POP POP POP POP ISZERO DUP1 ISZERO PUSH2 0x167E JUMPI RETURNDATASIZE PUSH1 0x0 DUP1 RETURNDATACOPY RETURNDATASIZE PUSH1 0x0 REVERT JUMPDEST POP PUSH2 0x1687 PUSH2 0x3542 JUMP JUMPDEST PUSH32 0x85A66B9141978DB9980F7E0CE3B468CEBF4F7999F32B23091C5C03E798B1BA7A CALLER DUP3 PUSH2 0x16B3 DUP5 PUSH2 0x226C JUMP JUMPDEST PUSH1 0x40 MLOAD PUSH2 0x16C2 SWAP4 SWAP3 SWAP2 SWAP1 PUSH2 0x4801 JUMP JUMPDEST PUSH1 0x40 MLOAD DUP1 SWAP2 SUB SWAP1 LOG1 SWAP3 SWAP2 POP POP JUMP JUMPDEST PUSH2 0x16D8 PUSH2 0x32D1 JUMP JUMPDEST PUSH1 0x19 SSTORE JUMP JUMPDEST PUSH2 0x1264 DUP4 DUP4 DUP4 PUSH1 0x40 MLOAD DUP1 PUSH1 0x20 ADD PUSH1 0x40 MSTORE DUP1 PUSH1 0x0 DUP2 MSTORE POP PUSH2 0x221F JUMP JUMPDEST PUSH2 0x1700 PUSH2 0x32D1 JUMP JUMPDEST PUSH2 0x1719 DUP2 PUSH1 0x40 MLOAD DUP1 PUSH1 0x20 ADD PUSH1 0x40 MSTORE DUP1 PUSH1 0x0 DUP2 MSTORE POP PUSH2 0x355B JUMP JUMPDEST POP JUMP JUMPDEST PUSH1 0x40 MLOAD PUSH4 0x70A08231 PUSH1 0xE0 SHL DUP2 MSTORE ADDRESS PUSH1 0x4 DUP3 ADD MSTORE PUSH1 0x0 SWAP1 DUP3 SWAP1 PUSH1 0x1 PUSH1 0x1 PUSH1 0xA0 SHL SUB DUP3 AND SWAP1 PUSH4 0x70A08231 SWAP1 PUSH1 0x24 ADD PUSH1 0x20 PUSH1 0x40 MLOAD DUP1 DUP4 SUB DUP2 DUP7 GAS STATICCALL ISZERO DUP1 ISZERO PUSH2 0x1765 JUMPI RETURNDATASIZE PUSH1 0x0 DUP1 RETURNDATACOPY RETURNDATASIZE PUSH1 0x0 REVERT JUMPDEST POP POP POP POP PUSH1 0x40 MLOAD RETURNDATASIZE PUSH1 0x1F NOT PUSH1 0x1F DUP3 ADD AND DUP3 ADD DUP1 PUSH1 0x40 MSTORE POP DUP2 ADD SWAP1 PUSH2 0x1789 SWAP2 SWAP1 PUSH2 0x461A JUMP JUMPDEST SWAP4 SWAP3 POP POP POP JUMP JUMPDEST PUSH1 0x7 SLOAD PUSH1 0x1 PUSH1 0x1 PUSH1 0xA0 SHL SUB AND CALLER EQ PUSH2 0x1802 JUMPI PUSH1 0x0 DUP2 DUP2 MSTORE PUSH1 0x11 PUSH1 0x20 MSTORE PUSH1 0x40 SWAP1 KECCAK256 PUSH1 0x2 ADD SLOAD PUSH1 0x1 PUSH1 0x1 PUSH1 0xA0 SHL SUB AND CALLER EQ PUSH2 0x1802 JUMPI PUSH1 0x40 MLOAD PUSH3 0x461BCD PUSH1 0xE5 SHL DUP2 MSTORE PUSH1 0x20 PUSH1 0x4 DUP3 ADD MSTORE PUSH1 0x14 PUSH1 0x24 DUP3 ADD MSTORE PUSH20 0x151A1A5CC81A5CC81B9BDD081E5BDD5C88139195 PUSH1 0x62 SHL PUSH1 0x44 DUP3 ADD MSTORE PUSH1 0x64 ADD PUSH2 0xBFC JUMP JUMPDEST PUSH1 0x0 DUP2 DUP2 MSTORE PUSH1 0x10 PUSH1 0x20 SWAP1 DUP2 MSTORE PUSH1 0x40 DUP1 DUP4 KECCAK256 DUP1 SLOAD PUSH1 0xFF NOT AND SWAP1 SSTORE PUSH1 0x11 SWAP1 SWAP2 MSTORE SWAP1 DUP2 SWAP1 KECCAK256 SWAP1 MLOAD PUSH32 0x521EB7406B49A95FB2DFAB95388FB8BD894A74FCD27400AE688DF8847847B991 SWAP2 PUSH2 0x185C SWAP2 CALLER SWAP2 DUP6 SWAP2 PUSH1 0x1 SWAP2 SWAP1 SWAP2 ADD SWAP1 PUSH2 0x4831 JUMP JUMPDEST PUSH1 0x40 MLOAD DUP1 SWAP2 SUB SWAP1 LOG1 PUSH2 0x186D DUP2 PUSH2 0x3164 JUMP JUMPDEST PUSH2 0x1719 ADDRESS CALLER DUP4 PUSH2 0x2FF3 JUMP JUMPDEST PUSH1 0xD SLOAD PUSH1 0xFF AND ISZERO ISZERO PUSH1 0x1 EQ PUSH2 0x189F JUMPI PUSH1 0x40 MLOAD PUSH3 0x461BCD PUSH1 0xE5 SHL DUP2 MSTORE PUSH1 0x4 ADD PUSH2 0xBFC SWAP1 PUSH2 0x45EF JUMP JUMPDEST PUSH2 0x18A8 DUP2 PUSH2 0x1BE9 JUMP JUMPDEST PUSH1 0x1 PUSH1 0x1 PUSH1 0xA0 SHL SUB AND ADDRESS PUSH1 0x1 PUSH1 0x1 PUSH1 0xA0 SHL SUB AND EQ PUSH2 0x1908 JUMPI PUSH1 0x40 MLOAD PUSH3 0x461BCD PUSH1 0xE5 SHL DUP2 MSTORE PUSH1 0x20 PUSH1 0x4 DUP3 ADD MSTORE PUSH1 0x1A PUSH1 0x24 DUP3 ADD MSTORE PUSH32 0x54686973204E4654206E6F742061742073616C6520626F617264000000000000 PUSH1 0x44 DUP3 ADD MSTORE PUSH1 0x64 ADD PUSH2 0xBFC JUMP JUMPDEST PUSH1 0x0 DUP2 DUP2 MSTORE PUSH1 0x10 PUSH1 0x20 MSTORE PUSH1 0x40 SWAP1 KECCAK256 SLOAD PUSH1 0xFF AND ISZERO ISZERO PUSH1 0x1 EQ PUSH2 0x1966 JUMPI PUSH1 0x40 MLOAD PUSH3 0x461BCD PUSH1 0xE5 SHL DUP2 MSTORE PUSH1 0x20 PUSH1 0x4 DUP3 ADD MSTORE PUSH1 0x18 PUSH1 0x24 DUP3 ADD MSTORE PUSH24 0x54686973204E4654206973206E6F7420666F722073616C65 PUSH1 0x40 SHL PUSH1 0x44 DUP3 ADD MSTORE PUSH1 0x64 ADD PUSH2 0xBFC JUMP JUMPDEST PUSH1 0x0 DUP2 DUP2 MSTORE PUSH1 0x11 PUSH1 0x20 MSTORE PUSH1 0x40 SWAP1 KECCAK256 PUSH1 0x3 ADD SLOAD CALLVALUE LT ISZERO PUSH2 0x19D6 JUMPI PUSH1 0x40 MLOAD PUSH3 0x461BCD PUSH1 0xE5 SHL DUP2 MSTORE PUSH1 0x20 PUSH1 0x4 DUP3 ADD MSTORE PUSH1 0x26 PUSH1 0x24 DUP3 ADD MSTORE PUSH32 0x596F752068617665206E6F74207061696420656E6F75676820666F7220746869 PUSH1 0x44 DUP3 ADD MSTORE PUSH6 0x73206974656D PUSH1 0xD0 SHL PUSH1 0x64 DUP3 ADD MSTORE PUSH1 0x84 ADD PUSH2 0xBFC JUMP JUMPDEST PUSH1 0x0 DUP2 DUP2 MSTORE PUSH1 0x11 PUSH1 0x20 MSTORE PUSH1 0x40 SWAP1 KECCAK256 PUSH1 0x4 ADD SLOAD PUSH1 0x1 PUSH1 0x1 PUSH1 0xA0 SHL SUB AND ISZERO PUSH2 0x1A3E JUMPI PUSH1 0x40 MLOAD PUSH3 0x461BCD PUSH1 0xE5 SHL DUP2 MSTORE PUSH1 0x20 PUSH1 0x4 DUP3 ADD MSTORE PUSH1 0x1A PUSH1 0x24 DUP3 ADD MSTORE PUSH32 0x5468697320746F6B656E2073656C6C6564206279204552433230000000000000 PUSH1 0x44 DUP3 ADD MSTORE PUSH1 0x64 ADD PUSH2 0xBFC JUMP JUMPDEST CALLVALUE PUSH1 0x0 PUSH2 0x1A4F PUSH2 0xF52 DUP4 PUSH1 0x64 PUSH2 0x2F75 JUMP JUMPDEST SWAP1 POP PUSH2 0x1A63 PUSH1 0x7 SLOAD PUSH1 0x1 PUSH1 0x1 PUSH1 0xA0 SHL SUB AND SWAP1 JUMP JUMPDEST PUSH1 0x0 DUP5 DUP2 MSTORE PUSH1 0x11 PUSH1 0x20 MSTORE PUSH1 0x40 SWAP1 KECCAK256 PUSH1 0x2 ADD SLOAD PUSH1 0x1 PUSH1 0x1 PUSH1 0xA0 SHL SUB SWAP2 DUP3 AND SWAP2 AND SUB PUSH2 0x1A8B JUMPI POP PUSH1 0x0 JUMPDEST PUSH1 0x0 PUSH2 0x1A97 DUP4 DUP4 PUSH2 0x2F8D JUMP JUMPDEST PUSH1 0x0 DUP6 DUP2 MSTORE PUSH1 0x11 PUSH1 0x20 MSTORE PUSH1 0x40 DUP1 DUP3 KECCAK256 PUSH1 0x2 ADD SLOAD SWAP1 MLOAD SWAP3 SWAP4 POP PUSH1 0x1 PUSH1 0x1 PUSH1 0xA0 SHL SUB AND SWAP2 DUP4 ISZERO PUSH2 0x8FC MUL SWAP2 DUP5 SWAP2 SWAP1 DUP2 DUP2 DUP2 DUP6 DUP9 DUP9 CALL SWAP4 POP POP POP POP ISZERO DUP1 ISZERO PUSH2 0x1AE0 JUMPI RETURNDATASIZE PUSH1 0x0 DUP1 RETURNDATACOPY RETURNDATASIZE PUSH1 0x0 REVERT JUMPDEST POP DUP2 ISZERO PUSH2 0x1B23 JUMPI PUSH1 0x7 SLOAD PUSH1 0x40 MLOAD PUSH1 0x1 PUSH1 0x1 PUSH1 0xA0 SHL SUB SWAP1 SWAP2 AND SWAP1 DUP4 ISZERO PUSH2 0x8FC MUL SWAP1 DUP5 SWAP1 PUSH1 0x0 DUP2 DUP2 DUP2 DUP6 DUP9 DUP9 CALL SWAP4 POP POP POP POP ISZERO DUP1 ISZERO PUSH2 0x1B21 JUMPI RETURNDATASIZE PUSH1 0x0 DUP1 RETURNDATACOPY RETURNDATASIZE PUSH1 0x0 REVERT JUMPDEST POP JUMPDEST PUSH2 0x1B2E ADDRESS CALLER DUP7 PUSH2 0x2FF3 JUMP JUMPDEST PUSH1 0x0 DUP5 DUP2 MSTORE PUSH1 0x10 PUSH1 0x20 SWAP1 DUP2 MSTORE PUSH1 0x40 DUP1 DUP4 KECCAK256 DUP1 SLOAD PUSH1 0xFF NOT AND SWAP1 SSTORE PUSH1 0x11 SWAP1 SWAP2 MSTORE SWAP1 DUP2 SWAP1 KECCAK256 PUSH1 0x2 DUP2 ADD SLOAD PUSH1 0x3 DUP3 ADD SLOAD SWAP3 MLOAD PUSH32 0xC785E39ED8F1E4E707FD90D52E643A9685D3943DCB7B56595BE9ADD9157CE2B1 SWAP4 PUSH2 0x1B9F SWAP4 PUSH1 0x1 PUSH1 0x1 PUSH1 0xA0 SHL SUB SWAP1 SWAP4 AND SWAP3 CALLER SWAP3 DUP11 SWAP3 PUSH1 0x1 SWAP3 SWAP1 SWAP3 ADD SWAP2 SWAP1 PUSH2 0x4858 JUMP JUMPDEST PUSH1 0x40 MLOAD DUP1 SWAP2 SUB SWAP1 LOG1 PUSH2 0x1BB0 DUP5 PUSH2 0x3164 JUMP JUMPDEST POP POP POP POP JUMP JUMPDEST PUSH2 0x1BBE PUSH2 0x32D1 JUMP JUMPDEST PUSH1 0xA PUSH2 0x1BCA DUP3 DUP3 PUSH2 0x48EB JUMP JUMPDEST POP POP JUMP JUMPDEST PUSH2 0x1BD6 PUSH2 0x32D1 JUMP JUMPDEST PUSH1 0xF DUP1 SLOAD PUSH1 0xFF NOT AND SWAP2 ISZERO ISZERO SWAP2 SWAP1 SWAP2 OR SWAP1 SSTORE JUMP JUMPDEST PUSH1 0x0 DUP2 DUP2 MSTORE PUSH1 0x2 PUSH1 0x20 MSTORE PUSH1 0x40 DUP2 KECCAK256 SLOAD PUSH1 0x1 PUSH1 0x1 PUSH1 0xA0 SHL SUB AND DUP1 PUSH2 0xBCF JUMPI PUSH1 0x40 MLOAD PUSH3 0x461BCD PUSH1 0xE5 SHL DUP2 MSTORE PUSH1 0x20 PUSH1 0x4 DUP3 ADD MSTORE PUSH1 0x18 PUSH1 0x24 DUP3 ADD MSTORE PUSH24 0x115490CDCC8C4E881A5B9D985B1A59081D1BDAD95B881251 PUSH1 0x42 SHL PUSH1 0x44 DUP3 ADD MSTORE PUSH1 0x64 ADD PUSH2 0xBFC JUMP JUMPDEST PUSH1 0x60 PUSH1 0x17 DUP1 SLOAD DUP1 PUSH1 0x20 MUL PUSH1 0x20 ADD PUSH1 0x40 MLOAD SWAP1 DUP2 ADD PUSH1 0x40 MSTORE DUP1 SWAP3 SWAP2 SWAP1 DUP2 DUP2 MSTORE PUSH1 0x20 ADD PUSH1 0x0 SWAP1 JUMPDEST DUP3 DUP3 LT ISZERO PUSH2 0x1D19 JUMPI DUP4 DUP3 SWAP1 PUSH1 0x0 MSTORE PUSH1 0x20 PUSH1 0x0 KECCAK256 ADD DUP1 SLOAD PUSH2 0x1C8C SWAP1 PUSH2 0x4633 JUMP JUMPDEST DUP1 PUSH1 0x1F ADD PUSH1 0x20 DUP1 SWAP2 DIV MUL PUSH1 0x20 ADD PUSH1 0x40 MLOAD SWAP1 DUP2 ADD PUSH1 0x40 MSTORE DUP1 SWAP3 SWAP2 SWAP1 DUP2 DUP2 MSTORE PUSH1 0x20 ADD DUP3 DUP1 SLOAD PUSH2 0x1CB8 SWAP1 PUSH2 0x4633 JUMP JUMPDEST DUP1 ISZERO PUSH2 0x1D05 JUMPI DUP1 PUSH1 0x1F LT PUSH2 0x1CDA JUMPI PUSH2 0x100 DUP1 DUP4 SLOAD DIV MUL DUP4 MSTORE SWAP2 PUSH1 0x20 ADD SWAP2 PUSH2 0x1D05 JUMP JUMPDEST DUP3 ADD SWAP2 SWAP1 PUSH1 0x0 MSTORE PUSH1 0x20 PUSH1 0x0 KECCAK256 SWAP1 JUMPDEST DUP2 SLOAD DUP2 MSTORE SWAP1 PUSH1 0x1 ADD SWAP1 PUSH1 0x20 ADD DUP1 DUP4 GT PUSH2 0x1CE8 JUMPI DUP3 SWAP1 SUB PUSH1 0x1F AND DUP3 ADD SWAP2 JUMPDEST POP POP POP POP POP DUP2 MSTORE PUSH1 0x20 ADD SWAP1 PUSH1 0x1 ADD SWAP1 PUSH2 0x1C6D JUMP JUMPDEST POP POP POP POP SWAP1 POP SWAP1 JUMP JUMPDEST PUSH1 0x60 PUSH1 0x13 DUP1 SLOAD DUP1 PUSH1 0x20 MUL PUSH1 0x20 ADD PUSH1 0x40 MLOAD SWAP1 DUP2 ADD PUSH1 0x40 MSTORE DUP1 SWAP3 SWAP2 SWAP1 DUP2 DUP2 MSTORE PUSH1 0x20 ADD DUP3 DUP1 SLOAD DUP1 ISZERO PUSH2 0x1123 JUMPI PUSH1 0x20 MUL DUP3 ADD SWAP2 SWAP1 PUSH1 0x0 MSTORE PUSH1 0x20 PUSH1 0x0 KECCAK256 SWAP1 JUMPDEST DUP2 SLOAD PUSH1 0x1 PUSH1 0x1 PUSH1 0xA0 SHL SUB AND DUP2 MSTORE PUSH1 0x1 SWAP1 SWAP2 ADD SWAP1 PUSH1 0x20 ADD DUP1 DUP4 GT PUSH2 0x1D5C JUMPI POP POP POP POP POP SWAP1 POP SWAP1 JUMP JUMPDEST PUSH2 0x1D8B PUSH2 0x32D1 JUMP JUMPDEST PUSH1 0x9 SSTORE JUMP JUMPDEST PUSH1 0x0 PUSH1 0x1 PUSH1 0x1 PUSH1 0xA0 SHL SUB DUP3 AND PUSH2 0x1DFA JUMPI PUSH1 0x40 MLOAD PUSH3 0x461BCD PUSH1 0xE5 SHL DUP2 MSTORE PUSH1 0x20 PUSH1 0x4 DUP3 ADD MSTORE PUSH1 0x29 PUSH1 0x24 DUP3 ADD MSTORE PUSH32 0x4552433732313A2061646472657373207A65726F206973206E6F742061207661 PUSH1 0x44 DUP3 ADD MSTORE PUSH9 0x3634B21037BBB732B9 PUSH1 0xB9 SHL PUSH1 0x64 DUP3 ADD MSTORE PUSH1 0x84 ADD PUSH2 0xBFC JUMP JUMPDEST POP PUSH1 0x1 PUSH1 0x1 PUSH1 0xA0 SHL SUB AND PUSH1 0x0 SWAP1 DUP2 MSTORE PUSH1 0x3 PUSH1 0x20 MSTORE PUSH1 0x40 SWAP1 KECCAK256 SLOAD SWAP1 JUMP JUMPDEST PUSH1 0x60 PUSH1 0xA DUP1 SLOAD PUSH2 0x10AA SWAP1 PUSH2 0x4633 JUMP JUMPDEST PUSH2 0x1E2D PUSH2 0x32D1 JUMP JUMPDEST PUSH2 0x1E37 PUSH1 0x0 PUSH2 0x35EE JUMP JUMPDEST JUMP JUMPDEST PUSH1 0x0 DUP1 JUMPDEST PUSH1 0x13 SLOAD DUP2 LT ISZERO PUSH2 0x1E94 JUMPI PUSH1 0x13 DUP2 DUP2 SLOAD DUP2 LT PUSH2 0x1E5A JUMPI PUSH2 0x1E5A PUSH2 0x475D JUMP JUMPDEST PUSH1 0x0 SWAP2 DUP3 MSTORE PUSH1 0x20 SWAP1 SWAP2 KECCAK256 ADD SLOAD PUSH1 0x1 PUSH1 0x1 PUSH1 0xA0 SHL SUB SWAP1 DUP2 AND SWAP1 DUP5 AND SUB PUSH2 0x1E82 JUMPI POP PUSH1 0x1 SWAP3 SWAP2 POP POP JUMP JUMPDEST DUP1 PUSH2 0x1E8C DUP2 PUSH2 0x4744 JUMP JUMPDEST SWAP2 POP POP PUSH2 0x1E3D JUMP JUMPDEST POP PUSH1 0x0 SWAP3 SWAP2 POP POP JUMP JUMPDEST PUSH1 0xD SLOAD PUSH1 0xFF AND ISZERO ISZERO PUSH1 0x1 EQ PUSH2 0x1EC4 JUMPI PUSH1 0x40 MLOAD PUSH3 0x461BCD PUSH1 0xE5 SHL DUP2 MSTORE PUSH1 0x4 ADD PUSH2 0xBFC SWAP1 PUSH2 0x45EF JUMP JUMPDEST PUSH1 0xD SLOAD PUSH2 0x100 SWAP1 DIV PUSH1 0xFF AND DUP1 PUSH2 0x1EE4 JUMPI POP PUSH1 0x7 SLOAD PUSH1 0x1 PUSH1 0x1 PUSH1 0xA0 SHL SUB AND CALLER EQ JUMPDEST PUSH2 0x1F30 JUMPI PUSH1 0x40 MLOAD PUSH3 0x461BCD PUSH1 0xE5 SHL DUP2 MSTORE PUSH1 0x20 PUSH1 0x4 DUP3 ADD DUP2 SWAP1 MSTORE PUSH1 0x24 DUP3 ADD MSTORE PUSH32 0x54726164696E67206973206E6F7420616C6C6F77656420666F72207573657273 PUSH1 0x44 DUP3 ADD MSTORE PUSH1 0x64 ADD PUSH2 0xBFC JUMP JUMPDEST PUSH2 0x1F39 DUP4 PUSH2 0x1BE9 JUMP JUMPDEST PUSH1 0x1 PUSH1 0x1 PUSH1 0xA0 SHL SUB AND CALLER PUSH1 0x1 PUSH1 0x1 PUSH1 0xA0 SHL SUB AND EQ PUSH2 0x1F90 JUMPI PUSH1 0x40 MLOAD PUSH3 0x461BCD PUSH1 0xE5 SHL DUP2 MSTORE PUSH1 0x20 PUSH1 0x4 DUP3 ADD MSTORE PUSH1 0x14 PUSH1 0x24 DUP3 ADD MSTORE PUSH20 0x151A1A5CC81A5CC81B9BDD081E5BDD5C88139195 PUSH1 0x62 SHL PUSH1 0x44 DUP3 ADD MSTORE PUSH1 0x64 ADD PUSH2 0xBFC JUMP JUMPDEST PUSH1 0x0 DUP3 GT PUSH2 0x1FE0 JUMPI PUSH1 0x40 MLOAD PUSH3 0x461BCD PUSH1 0xE5 SHL DUP2 MSTORE PUSH1 0x20 PUSH1 0x4 DUP3 ADD MSTORE PUSH1 0x1F PUSH1 0x24 DUP3 ADD MSTORE PUSH32 0x5072696365206D7573742062652067726561746572207468616E207A65726F00 PUSH1 0x44 DUP3 ADD MSTORE PUSH1 0x64 ADD PUSH2 0xBFC JUMP JUMPDEST PUSH1 0x1 PUSH1 0x1 PUSH1 0xA0 SHL SUB DUP2 AND ISZERO PUSH2 0x205E JUMPI PUSH2 0x1FF8 DUP2 PUSH2 0x1E39 JUMP JUMPDEST ISZERO ISZERO PUSH1 0x1 EQ PUSH2 0x205E JUMPI PUSH1 0x40 MLOAD PUSH3 0x461BCD PUSH1 0xE5 SHL DUP2 MSTORE PUSH1 0x20 PUSH1 0x4 DUP3 ADD MSTORE PUSH1 0x2C PUSH1 0x24 DUP3 ADD MSTORE PUSH32 0x54686973204552433230206E6F7420616C6C6F77656420617320612074726164 PUSH1 0x44 DUP3 ADD MSTORE PUSH12 0x696E672063757272656E6379 PUSH1 0xA0 SHL PUSH1 0x64 DUP3 ADD MSTORE PUSH1 0x84 ADD PUSH2 0xBFC JUMP JUMPDEST PUSH1 0x0 DUP4 DUP2 MSTORE PUSH1 0x10 PUSH1 0x20 SWAP1 DUP2 MSTORE PUSH1 0x40 SWAP2 DUP3 SWAP1 KECCAK256 DUP1 SLOAD PUSH1 0xFF NOT AND PUSH1 0x1 OR SWAP1 SSTORE DUP2 MLOAD PUSH1 0xA0 DUP2 ADD SWAP1 SWAP3 MSTORE DUP5 DUP3 MSTORE DUP2 ADD PUSH2 0x2092 DUP6 PUSH2 0x226C JUMP JUMPDEST DUP2 MSTORE CALLER PUSH1 0x20 DUP1 DUP4 ADD SWAP2 SWAP1 SWAP2 MSTORE PUSH1 0x40 DUP1 DUP4 ADD DUP7 SWAP1 MSTORE PUSH1 0x1 PUSH1 0x1 PUSH1 0xA0 SHL SUB DUP6 AND PUSH1 0x60 SWAP1 SWAP4 ADD SWAP3 SWAP1 SWAP3 MSTORE PUSH1 0x0 DUP7 DUP2 MSTORE PUSH1 0x11 DUP3 MSTORE SWAP2 SWAP1 SWAP2 KECCAK256 DUP3 MLOAD DUP2 SSTORE SWAP1 DUP3 ADD MLOAD PUSH1 0x1 DUP3 ADD SWAP1 PUSH2 0x20DD SWAP1 DUP3 PUSH2 0x48EB JUMP JUMPDEST POP PUSH1 0x40 DUP3 ADD MLOAD PUSH1 0x2 DUP3 ADD DUP1 SLOAD PUSH1 0x1 PUSH1 0x1 PUSH1 0xA0 SHL SUB NOT SWAP1 DUP2 AND PUSH1 0x1 PUSH1 0x1 PUSH1 0xA0 SHL SUB SWAP4 DUP5 AND OR SWAP1 SWAP2 SSTORE PUSH1 0x60 DUP5 ADD MLOAD PUSH1 0x3 DUP5 ADD SSTORE PUSH1 0x80 SWAP1 SWAP4 ADD MLOAD PUSH1 0x4 SWAP1 SWAP3 ADD DUP1 SLOAD SWAP1 SWAP4 AND SWAP2 AND OR SWAP1 SSTORE PUSH2 0x212E CALLER ADDRESS DUP6 PUSH2 0x2FF3 JUMP JUMPDEST PUSH1 0x1 PUSH1 0x1 PUSH1 0xA0 SHL SUB DUP2 AND PUSH2 0x2195 JUMPI PUSH32 0x361DD47387032EB423040830B257E1343B2EA5CC7698AC0555757E021299CA9D CALLER DUP5 PUSH1 0x11 PUSH1 0x0 DUP8 DUP2 MSTORE PUSH1 0x20 ADD SWAP1 DUP2 MSTORE PUSH1 0x20 ADD PUSH1 0x0 KECCAK256 PUSH1 0x1 ADD DUP5 DUP7 PUSH1 0x40 MLOAD PUSH2 0x2188 SWAP6 SWAP5 SWAP4 SWAP3 SWAP2 SWAP1 PUSH2 0x49AA JUMP JUMPDEST PUSH1 0x40 MLOAD DUP1 SWAP2 SUB SWAP1 LOG1 POP POP POP JUMP JUMPDEST PUSH32 0xA74B4F4F2CDCC4B59C64BE4786D504F3A55ADC7683C42F4186AF5F1DDD901E99 CALLER DUP5 PUSH1 0x11 PUSH1 0x0 DUP8 DUP2 MSTORE PUSH1 0x20 ADD SWAP1 DUP2 MSTORE PUSH1 0x20 ADD PUSH1 0x0 KECCAK256 PUSH1 0x1 ADD DUP6 PUSH1 0x40 MLOAD PUSH2 0x2188 SWAP5 SWAP4 SWAP3 SWAP2 SWAP1 PUSH2 0x49E5 JUMP JUMPDEST PUSH1 0x60 PUSH1 0x1 DUP1 SLOAD PUSH2 0x10AA SWAP1 PUSH2 0x4633 JUMP JUMPDEST PUSH2 0x21F6 PUSH2 0x32D1 JUMP JUMPDEST PUSH1 0xD DUP1 SLOAD PUSH1 0xFF NOT AND SWAP2 ISZERO ISZERO SWAP2 SWAP1 SWAP2 OR SWAP1 SSTORE JUMP JUMPDEST PUSH1 0x60 PUSH2 0x12AD CALLER PUSH2 0x12B2 JUMP JUMPDEST PUSH2 0x1BCA CALLER DUP4 DUP4 PUSH2 0x3640 JUMP JUMPDEST PUSH2 0x2229 CALLER DUP4 PUSH2 0x332B JUMP JUMPDEST PUSH2 0x2245 JUMPI PUSH1 0x40 MLOAD PUSH3 0x461BCD PUSH1 0xE5 SHL DUP2 MSTORE PUSH1 0x4 ADD PUSH2 0xBFC SWAP1 PUSH2 0x4773 JUMP JUMPDEST PUSH2 0x1BB0 DUP5 DUP5 DUP5 DUP5 PUSH2 0x370E JUMP JUMPDEST PUSH2 0x2259 PUSH2 0x32D1 JUMP JUMPDEST DUP1 MLOAD PUSH2 0x1BCA SWAP1 PUSH1 0x17 SWAP1 PUSH1 0x20 DUP5 ADD SWAP1 PUSH2 0x3C67 JUMP JUMPDEST PUSH1 0x0 DUP2 DUP2 MSTORE PUSH1 0x2 PUSH1 0x20 MSTORE PUSH1 0x40 SWAP1 KECCAK256 SLOAD PUSH1 0x60 SWAP1 PUSH1 0x1 PUSH1 0x1 PUSH1 0xA0 SHL SUB AND PUSH2 0x22EB JUMPI PUSH1 0x40 MLOAD PUSH3 0x461BCD PUSH1 0xE5 SHL DUP2 MSTORE PUSH1 0x20 PUSH1 0x4 DUP3 ADD MSTORE PUSH1 0x2F PUSH1 0x24 DUP3 ADD MSTORE PUSH32 0x4552433732314D657461646174613A2055524920717565727920666F72206E6F PUSH1 0x44 DUP3 ADD MSTORE PUSH15 0x3732BC34B9BA32B73A103A37B5B2B7 PUSH1 0x89 SHL PUSH1 0x64 DUP3 ADD MSTORE PUSH1 0x84 ADD PUSH2 0xBFC JUMP JUMPDEST PUSH1 0xA PUSH2 0x22F6 DUP4 PUSH2 0x3741 JUMP JUMPDEST PUSH1 0xB PUSH1 0x40 MLOAD PUSH1 0x20 ADD PUSH2 0x230A SWAP4 SWAP3 SWAP2 SWAP1 PUSH2 0x4A90 JUMP JUMPDEST PUSH1 0x40 MLOAD PUSH1 0x20 DUP2 DUP4 SUB SUB DUP2 MSTORE SWAP1 PUSH1 0x40 MSTORE SWAP1 POP SWAP2 SWAP1 POP JUMP JUMPDEST CALLER PUSH1 0x0 SWAP1 DUP2 MSTORE PUSH1 0x12 PUSH1 0x20 MSTORE PUSH1 0x40 DUP2 KECCAK256 SLOAD PUSH1 0xFF AND ISZERO PUSH2 0x2380 JUMPI PUSH1 0x40 MLOAD PUSH3 0x461BCD PUSH1 0xE5 SHL DUP2 MSTORE PUSH1 0x20 PUSH1 0x4 DUP3 ADD MSTORE PUSH1 0x1B PUSH1 0x24 DUP3 ADD MSTORE PUSH32 0x54686973206163636F756E7420697320626C61636B6C69737465640000000000 PUSH1 0x44 DUP3 ADD MSTORE PUSH1 0x64 ADD PUSH2 0xBFC JUMP JUMPDEST PUSH1 0xF SLOAD PUSH1 0xFF PUSH2 0x100 SWAP1 SWAP2 DIV AND ISZERO ISZERO PUSH1 0x1 EQ PUSH2 0x23D4 JUMPI PUSH1 0x40 MLOAD PUSH3 0x461BCD PUSH1 0xE5 SHL DUP2 MSTORE PUSH1 0x20 PUSH1 0x4 DUP3 ADD MSTORE PUSH1 0x14 PUSH1 0x24 DUP3 ADD MSTORE PUSH20 0x13DDDB88135A5B9D081B9BDD08185B1B1BDDD959 PUSH1 0x62 SHL PUSH1 0x44 DUP3 ADD MSTORE PUSH1 0x64 ADD PUSH2 0xBFC JUMP JUMPDEST PUSH1 0x0 PUSH1 0x19 SLOAD GT PUSH2 0x2422 JUMPI PUSH1 0x40 MLOAD PUSH3 0x461BCD PUSH1 0xE5 SHL DUP2 MSTORE PUSH1 0x20 PUSH1 0x4 DUP3 ADD MSTORE PUSH1 0x19 PUSH1 0x24 DUP3 ADD MSTORE PUSH25 0x135A5B9D081C1C9A58D9481B9BDD0818DBDB999A59DD5C9959 PUSH1 0x3A SHL PUSH1 0x44 DUP3 ADD MSTORE PUSH1 0x64 ADD PUSH2 0xBFC JUMP JUMPDEST PUSH1 0x19 SLOAD CALLVALUE LT ISZERO PUSH2 0x2444 JUMPI PUSH1 0x40 MLOAD PUSH3 0x461BCD PUSH1 0xE5 SHL DUP2 MSTORE PUSH1 0x4 ADD PUSH2 0xBFC SWAP1 PUSH2 0x47C0 JUMP JUMPDEST PUSH2 0x2452 PUSH1 0x8 DUP1 SLOAD PUSH1 0x1 ADD SWAP1 SSTORE JUMP JUMPDEST PUSH1 0x0 PUSH2 0x245D PUSH1 0x8 SLOAD SWAP1 JUMP JUMPDEST SWAP1 POP PUSH2 0x2469 DUP5 DUP3 PUSH2 0x33A9 JUMP JUMPDEST PUSH2 0x2473 DUP2 DUP5 PUSH2 0x355B JUMP JUMPDEST PUSH2 0x247B PUSH2 0x3542 JUMP JUMPDEST PUSH32 0x85A66B9141978DB9980F7E0CE3B468CEBF4F7999F32B23091C5C03E798B1BA7A DUP5 DUP3 DUP6 PUSH1 0x40 MLOAD PUSH2 0x24AE SWAP4 SWAP3 SWAP2 SWAP1 PUSH2 0x4801 JUMP JUMPDEST PUSH1 0x40 MLOAD DUP1 SWAP2 SUB SWAP1 LOG1 SWAP4 SWAP3 POP POP POP JUMP JUMPDEST PUSH1 0x60 PUSH1 0x0 DUP1 JUMPDEST PUSH1 0x9 SLOAD DUP2 LT ISZERO PUSH2 0x2504 JUMPI PUSH1 0x0 DUP2 DUP2 MSTORE PUSH1 0x10 PUSH1 0x20 MSTORE PUSH1 0x40 SWAP1 KECCAK256 SLOAD PUSH1 0xFF AND ISZERO PUSH2 0x24F2 JUMPI DUP2 PUSH2 0x24EE DUP2 PUSH2 0x4744 JUMP JUMPDEST SWAP3 POP POP JUMPDEST DUP1 PUSH2 0x24FC DUP2 PUSH2 0x4744 JUMP JUMPDEST SWAP2 POP POP PUSH2 0x24C3 JUMP JUMPDEST POP PUSH1 0x0 DUP2 PUSH1 0x1 PUSH1 0x1 PUSH1 0x40 SHL SUB DUP2 GT ISZERO PUSH2 0x251F JUMPI PUSH2 0x251F PUSH2 0x3FA2 JUMP JUMPDEST PUSH1 0x40 MLOAD SWAP1 DUP1 DUP3 MSTORE DUP1 PUSH1 0x20 MUL PUSH1 0x20 ADD DUP3 ADD PUSH1 0x40 MSTORE DUP1 ISZERO PUSH2 0x2558 JUMPI DUP2 PUSH1 0x20 ADD JUMPDEST PUSH2 0x2545 PUSH2 0x3C26 JUMP JUMPDEST DUP2 MSTORE PUSH1 0x20 ADD SWAP1 PUSH1 0x1 SWAP1 SUB SWAP1 DUP2 PUSH2 0x253D JUMPI SWAP1 POP JUMPDEST POP SWAP1 POP PUSH1 0x0 SWAP2 POP PUSH1 0x0 JUMPDEST PUSH1 0x9 SLOAD DUP2 LT ISZERO PUSH2 0x26C3 JUMPI PUSH1 0x0 DUP2 DUP2 MSTORE PUSH1 0x10 PUSH1 0x20 MSTORE PUSH1 0x40 SWAP1 KECCAK256 SLOAD PUSH1 0xFF AND ISZERO PUSH2 0x26B1 JUMPI PUSH1 0x0 PUSH1 0x40 MLOAD DUP1 PUSH1 0xA0 ADD PUSH1 0x40 MSTORE DUP1 DUP4 DUP2 MSTORE PUSH1 0x20 ADD PUSH1 0x11 PUSH1 0x0 DUP6 DUP2 MSTORE PUSH1 0x20 ADD SWAP1 DUP2 MSTORE PUSH1 0x20 ADD PUSH1 0x0 KECCAK256 PUSH1 0x1 ADD DUP1 SLOAD PUSH2 0x25B7 SWAP1 PUSH2 0x4633 JUMP JUMPDEST DUP1 PUSH1 0x1F ADD PUSH1 0x20 DUP1 SWAP2 DIV MUL PUSH1 0x20 ADD PUSH1 0x40 MLOAD SWAP1 DUP2 ADD PUSH1 0x40 MSTORE DUP1 SWAP3 SWAP2 SWAP1 DUP2 DUP2 MSTORE PUSH1 0x20 ADD DUP3 DUP1 SLOAD PUSH2 0x25E3 SWAP1 PUSH2 0x4633 JUMP JUMPDEST DUP1 ISZERO PUSH2 0x2630 JUMPI DUP1 PUSH1 0x1F LT PUSH2 0x2605 JUMPI PUSH2 0x100 DUP1 DUP4 SLOAD DIV MUL DUP4 MSTORE SWAP2 PUSH1 0x20 ADD SWAP2 PUSH2 0x2630 JUMP JUMPDEST DUP3 ADD SWAP2 SWAP1 PUSH1 0x0 MSTORE PUSH1 0x20 PUSH1 0x0 KECCAK256 SWAP1 JUMPDEST DUP2 SLOAD DUP2 MSTORE SWAP1 PUSH1 0x1 ADD SWAP1 PUSH1 0x20 ADD DUP1 DUP4 GT PUSH2 0x2613 JUMPI DUP3 SWAP1 SUB PUSH1 0x1F AND DUP3 ADD SWAP2 JUMPDEST POP POP POP SWAP2 DUP4 MSTORE POP POP PUSH1 0x0 DUP5 DUP2 MSTORE PUSH1 0x11 PUSH1 0x20 DUP2 DUP2 MSTORE PUSH1 0x40 DUP1 DUP5 KECCAK256 PUSH1 0x2 DUP2 ADD SLOAD PUSH1 0x1 PUSH1 0x1 PUSH1 0xA0 SHL SUB SWAP1 DUP2 AND DUP5 DUP9 ADD MSTORE PUSH1 0x3 DUP3 ADD SLOAD SWAP3 DUP8 ADD SWAP3 SWAP1 SWAP3 MSTORE SWAP4 DUP9 SWAP1 MSTORE SWAP2 SWAP1 MSTORE PUSH1 0x4 SWAP1 SWAP2 ADD SLOAD AND PUSH1 0x60 SWAP1 SWAP2 ADD MSTORE DUP4 MLOAD SWAP1 SWAP2 POP DUP2 SWAP1 DUP5 SWAP1 DUP7 SWAP1 DUP2 LT PUSH2 0x2696 JUMPI PUSH2 0x2696 PUSH2 0x475D JUMP JUMPDEST PUSH1 0x20 MUL PUSH1 0x20 ADD ADD DUP2 SWAP1 MSTORE POP DUP4 DUP1 PUSH2 0x26AC SWAP1 PUSH2 0x4744 JUMP JUMPDEST SWAP5 POP POP POP JUMPDEST DUP1 PUSH2 0x26BB DUP2 PUSH2 0x4744 JUMP JUMPDEST SWAP2 POP POP PUSH2 0x2562 JUMP JUMPDEST POP SWAP3 SWAP2 POP POP JUMP JUMPDEST PUSH1 0x60 PUSH2 0x26D4 PUSH2 0x32D1 JUMP JUMPDEST DUP4 MLOAD DUP6 MLOAD EQ DUP1 ISZERO PUSH2 0x26E6 JUMPI POP DUP3 MLOAD DUP5 MLOAD EQ JUMPDEST PUSH2 0x2750 JUMPI PUSH1 0x40 MLOAD PUSH3 0x461BCD PUSH1 0xE5 SHL DUP2 MSTORE PUSH1 0x20 PUSH1 0x4 DUP3 ADD MSTORE PUSH1 0x35 PUSH1 0x24 DUP3 ADD MSTORE PUSH32 0x55524973206C656E6774682C204552433230206C656E67746820616E64205072 PUSH1 0x44 DUP3 ADD MSTORE PUSH21 0x1A58D95CC81B195B99DD1A081B9BDD08195C5D585B PUSH1 0x5A SHL PUSH1 0x64 DUP3 ADD MSTORE PUSH1 0x84 ADD PUSH2 0xBFC JUMP JUMPDEST PUSH1 0x0 JUMPDEST DUP4 MLOAD DUP2 LT ISZERO PUSH2 0x2878 JUMPI PUSH1 0x0 DUP5 DUP3 DUP2 MLOAD DUP2 LT PUSH2 0x2770 JUMPI PUSH2 0x2770 PUSH2 0x475D JUMP JUMPDEST PUSH1 0x20 MUL PUSH1 0x20 ADD ADD MLOAD GT PUSH2 0x27C5 JUMPI PUSH1 0x40 MLOAD PUSH3 0x461BCD PUSH1 0xE5 SHL DUP2 MSTORE PUSH1 0x20 PUSH1 0x4 DUP3 ADD MSTORE PUSH1 0x1E PUSH1 0x24 DUP3 ADD MSTORE PUSH32 0x5072696365206D757374206265206772656174207468616E207A65726F2E0000 PUSH1 0x44 DUP3 ADD MSTORE PUSH1 0x64 ADD PUSH2 0xBFC JUMP JUMPDEST PUSH1 0x0 PUSH1 0x1 PUSH1 0x1 PUSH1 0xA0 SHL SUB AND DUP6 DUP3 DUP2 MLOAD DUP2 LT PUSH2 0x27E2 JUMPI PUSH2 0x27E2 PUSH2 0x475D JUMP JUMPDEST PUSH1 0x20 MUL PUSH1 0x20 ADD ADD MLOAD PUSH1 0x1 PUSH1 0x1 PUSH1 0xA0 SHL SUB AND EQ PUSH2 0x2866 JUMPI PUSH2 0x281A DUP6 DUP3 DUP2 MLOAD DUP2 LT PUSH2 0x280D JUMPI PUSH2 0x280D PUSH2 0x475D JUMP JUMPDEST PUSH1 0x20 MUL PUSH1 0x20 ADD ADD MLOAD PUSH2 0x1E39 JUMP JUMPDEST PUSH2 0x2866 JUMPI PUSH1 0x40 MLOAD PUSH3 0x461BCD PUSH1 0xE5 SHL DUP2 MSTORE PUSH1 0x20 PUSH1 0x4 DUP3 ADD MSTORE PUSH1 0x1A PUSH1 0x24 DUP3 ADD MSTORE PUSH32 0x4E6F7420616C6C6F7765642045524320666F722074726164652E000000000000 PUSH1 0x44 DUP3 ADD MSTORE PUSH1 0x64 ADD PUSH2 0xBFC JUMP JUMPDEST DUP1 PUSH2 0x2870 DUP2 PUSH2 0x4744 JUMP JUMPDEST SWAP2 POP POP PUSH2 0x2753 JUMP JUMPDEST POP PUSH1 0x0 DUP6 MLOAD PUSH1 0x1 PUSH1 0x1 PUSH1 0x40 SHL SUB DUP2 GT ISZERO PUSH2 0x2894 JUMPI PUSH2 0x2894 PUSH2 0x3FA2 JUMP JUMPDEST PUSH1 0x40 MLOAD SWAP1 DUP1 DUP3 MSTORE DUP1 PUSH1 0x20 MUL PUSH1 0x20 ADD DUP3 ADD PUSH1 0x40 MSTORE DUP1 ISZERO PUSH2 0x28BD JUMPI DUP2 PUSH1 0x20 ADD PUSH1 0x20 DUP3 MUL DUP1 CALLDATASIZE DUP4 CALLDATACOPY ADD SWAP1 POP JUMPDEST POP SWAP1 POP PUSH1 0x0 PUSH1 0x1 PUSH1 0x1 PUSH1 0xA0 SHL SUB DUP5 AND ISZERO PUSH2 0x28D7 JUMPI DUP4 PUSH2 0x28E4 JUMP JUMPDEST PUSH1 0x7 SLOAD PUSH1 0x1 PUSH1 0x1 PUSH1 0xA0 SHL SUB AND JUMPDEST SWAP1 POP PUSH1 0x0 JUMPDEST DUP6 MLOAD DUP2 LT ISZERO PUSH2 0x2C06 JUMPI PUSH2 0x2900 PUSH1 0x8 DUP1 SLOAD PUSH1 0x1 ADD SWAP1 SSTORE JUMP JUMPDEST PUSH1 0x0 PUSH2 0x290B PUSH1 0x8 SLOAD SWAP1 JUMP JUMPDEST SWAP1 POP PUSH2 0x2917 ADDRESS DUP3 PUSH2 0x33A9 JUMP JUMPDEST PUSH2 0x293A DUP2 DUP11 DUP5 DUP2 MLOAD DUP2 LT PUSH2 0x292D JUMPI PUSH2 0x292D PUSH2 0x475D JUMP JUMPDEST PUSH1 0x20 MUL PUSH1 0x20 ADD ADD MLOAD PUSH2 0x355B JUMP JUMPDEST PUSH1 0x0 DUP2 DUP2 MSTORE PUSH1 0x10 PUSH1 0x20 SWAP1 DUP2 MSTORE PUSH1 0x40 SWAP2 DUP3 SWAP1 KECCAK256 DUP1 SLOAD PUSH1 0xFF NOT AND PUSH1 0x1 OR SWAP1 SSTORE DUP2 MLOAD PUSH1 0xA0 DUP2 ADD SWAP1 SWAP3 MSTORE DUP3 DUP3 MSTORE DUP11 MLOAD SWAP1 DUP3 ADD SWAP1 DUP12 SWAP1 DUP6 SWAP1 DUP2 LT PUSH2 0x297B JUMPI PUSH2 0x297B PUSH2 0x475D JUMP JUMPDEST PUSH1 0x20 MUL PUSH1 0x20 ADD ADD MLOAD DUP2 MSTORE PUSH1 0x20 ADD DUP5 PUSH1 0x1 PUSH1 0x1 PUSH1 0xA0 SHL SUB AND DUP2 MSTORE PUSH1 0x20 ADD DUP9 DUP5 DUP2 MLOAD DUP2 LT PUSH2 0x29A9 JUMPI PUSH2 0x29A9 PUSH2 0x475D JUMP JUMPDEST PUSH1 0x20 MUL PUSH1 0x20 ADD ADD MLOAD DUP2 MSTORE PUSH1 0x20 ADD DUP10 DUP5 DUP2 MLOAD DUP2 LT PUSH2 0x29C8 JUMPI PUSH2 0x29C8 PUSH2 0x475D JUMP JUMPDEST PUSH1 0x20 SWAP1 DUP2 MUL SWAP2 SWAP1 SWAP2 ADD DUP2 ADD MLOAD PUSH1 0x1 PUSH1 0x1 PUSH1 0xA0 SHL SUB AND SWAP1 SWAP2 MSTORE PUSH1 0x0 DUP4 DUP2 MSTORE PUSH1 0x11 DUP3 MSTORE PUSH1 0x40 SWAP1 KECCAK256 DUP3 MLOAD DUP2 SSTORE SWAP1 DUP3 ADD MLOAD PUSH1 0x1 DUP3 ADD SWAP1 PUSH2 0x2A04 SWAP1 DUP3 PUSH2 0x48EB JUMP JUMPDEST POP PUSH1 0x40 DUP3 ADD MLOAD PUSH1 0x2 DUP3 ADD DUP1 SLOAD PUSH1 0x1 PUSH1 0x1 PUSH1 0xA0 SHL SUB NOT SWAP1 DUP2 AND PUSH1 0x1 PUSH1 0x1 PUSH1 0xA0 SHL SUB SWAP4 DUP5 AND OR SWAP1 SWAP2 SSTORE PUSH1 0x60 DUP5 ADD MLOAD PUSH1 0x3 DUP5 ADD SSTORE PUSH1 0x80 SWAP1 SWAP4 ADD MLOAD PUSH1 0x4 SWAP1 SWAP3 ADD DUP1 SLOAD SWAP1 SWAP4 AND SWAP2 AND OR SWAP1 SSTORE DUP9 MLOAD PUSH32 0x85A66B9141978DB9980F7E0CE3B468CEBF4F7999F32B23091C5C03E798B1BA7A SWAP1 DUP5 SWAP1 DUP4 SWAP1 DUP13 SWAP1 DUP7 SWAP1 DUP2 LT PUSH2 0x2A84 JUMPI PUSH2 0x2A84 PUSH2 0x475D JUMP JUMPDEST PUSH1 0x20 MUL PUSH1 0x20 ADD ADD MLOAD PUSH1 0x40 MLOAD PUSH2 0x2A9B SWAP4 SWAP3 SWAP2 SWAP1 PUSH2 0x4801 JUMP JUMPDEST PUSH1 0x40 MLOAD DUP1 SWAP2 SUB SWAP1 LOG1 PUSH1 0x0 PUSH1 0x1 PUSH1 0x1 PUSH1 0xA0 SHL SUB AND DUP9 DUP4 DUP2 MLOAD DUP2 LT PUSH2 0x2AC0 JUMPI PUSH2 0x2AC0 PUSH2 0x475D JUMP JUMPDEST PUSH1 0x20 MUL PUSH1 0x20 ADD ADD MLOAD PUSH1 0x1 PUSH1 0x1 PUSH1 0xA0 SHL SUB AND SUB PUSH2 0x2B4A JUMPI PUSH32 0xA74B4F4F2CDCC4B59C64BE4786D504F3A55ADC7683C42F4186AF5F1DDD901E99 DUP4 DUP3 DUP12 DUP6 DUP2 MLOAD DUP2 LT PUSH2 0x2B0B JUMPI PUSH2 0x2B0B PUSH2 0x475D JUMP JUMPDEST PUSH1 0x20 MUL PUSH1 0x20 ADD ADD MLOAD DUP11 DUP7 DUP2 MLOAD DUP2 LT PUSH2 0x2B25 JUMPI PUSH2 0x2B25 PUSH2 0x475D JUMP JUMPDEST PUSH1 0x20 MUL PUSH1 0x20 ADD ADD MLOAD PUSH1 0x40 MLOAD PUSH2 0x2B3D SWAP5 SWAP4 SWAP3 SWAP2 SWAP1 PUSH2 0x4AB8 JUMP JUMPDEST PUSH1 0x40 MLOAD DUP1 SWAP2 SUB SWAP1 LOG1 PUSH2 0x2BD5 JUMP JUMPDEST PUSH32 0x361DD47387032EB423040830B257E1343B2EA5CC7698AC0555757E021299CA9D DUP4 DUP3 DUP12 DUP6 DUP2 MLOAD DUP2 LT PUSH2 0x2B7F JUMPI PUSH2 0x2B7F PUSH2 0x475D JUMP JUMPDEST PUSH1 0x20 MUL PUSH1 0x20 ADD ADD MLOAD DUP12 DUP7 DUP2 MLOAD DUP2 LT PUSH2 0x2B99 JUMPI PUSH2 0x2B99 PUSH2 0x475D JUMP JUMPDEST PUSH1 0x20 MUL PUSH1 0x20 ADD ADD MLOAD DUP12 DUP8 DUP2 MLOAD DUP2 LT PUSH2 0x2BB3 JUMPI PUSH2 0x2BB3 PUSH2 0x475D JUMP JUMPDEST PUSH1 0x20 MUL PUSH1 0x20 ADD ADD MLOAD PUSH1 0x40 MLOAD PUSH2 0x2BCC SWAP6 SWAP5 SWAP4 SWAP3 SWAP2 SWAP1 PUSH2 0x4ADF JUMP JUMPDEST PUSH1 0x40 MLOAD DUP1 SWAP2 SUB SWAP1 LOG1 JUMPDEST DUP1 DUP5 DUP4 DUP2 MLOAD DUP2 LT PUSH2 0x2BE8 JUMPI PUSH2 0x2BE8 PUSH2 0x475D JUMP JUMPDEST PUSH1 0x20 SWAP1 DUP2 MUL SWAP2 SWAP1 SWAP2 ADD ADD MSTORE POP DUP1 PUSH2 0x2BFE DUP2 PUSH2 0x4744 JUMP JUMPDEST SWAP2 POP POP PUSH2 0x28E9 JUMP JUMPDEST POP PUSH2 0x2C0F PUSH2 0x3542 JUMP JUMPDEST POP SWAP1 POP JUMPDEST SWAP5 SWAP4 POP POP POP POP JUMP JUMPDEST PUSH2 0x2C23 PUSH2 0x32D1 JUMP JUMPDEST PUSH1 0x1 PUSH1 0x1 PUSH1 0xA0 SHL SUB AND PUSH1 0x0 SWAP1 DUP2 MSTORE PUSH1 0x12 PUSH1 0x20 MSTORE PUSH1 0x40 SWAP1 KECCAK256 DUP1 SLOAD PUSH1 0xFF NOT AND SWAP1 SSTORE JUMP JUMPDEST PUSH2 0x2C4C PUSH2 0x32D1 JUMP JUMPDEST DUP1 MLOAD PUSH2 0x1BCA SWAP1 PUSH1 0x13 SWAP1 PUSH1 0x20 DUP5 ADD SWAP1 PUSH2 0x3CBD JUMP JUMPDEST PUSH1 0x0 PUSH2 0x2444 PUSH2 0x32D1 JUMP JUMPDEST PUSH2 0x2C71 PUSH2 0x32D1 JUMP JUMPDEST PUSH1 0x1 PUSH1 0x1 PUSH1 0xA0 SHL SUB DUP2 AND PUSH2 0x2CD6 JUMPI PUSH1 0x40 MLOAD PUSH3 0x461BCD PUSH1 0xE5 SHL DUP2 MSTORE PUSH1 0x20 PUSH1 0x4 DUP3 ADD MSTORE PUSH1 0x26 PUSH1 0x24 DUP3 ADD MSTORE PUSH32 0x4F776E61626C653A206E6577206F776E657220697320746865207A65726F2061 PUSH1 0x44 DUP3 ADD MSTORE PUSH6 0x646472657373 PUSH1 0xD0 SHL PUSH1 0x64 DUP3 ADD MSTORE PUSH1 0x84 ADD PUSH2 0xBFC JUMP JUMPDEST PUSH2 0x1719 DUP2 PUSH2 0x35EE JUMP JUMPDEST PUSH2 0x2CE7 PUSH2 0x32D1 JUMP JUMPDEST PUSH1 0x18 DUP5 SWAP1 SSTORE PUSH1 0x19 DUP3 SWAP1 SSTORE PUSH1 0xF DUP1 SLOAD PUSH1 0xD DUP1 SLOAD PUSH2 0xFFFF NOT SWAP1 DUP2 AND PUSH2 0xFF00 NOT DUP14 ISZERO ISZERO AND OR PUSH2 0x100 DUP13 ISZERO ISZERO DUP2 MUL SWAP2 SWAP1 SWAP2 OR SWAP1 SWAP3 SSTORE PUSH1 0xE DUP11 SWAP1 SSTORE SWAP1 SWAP2 AND DUP6 ISZERO ISZERO SWAP1 SWAP2 MUL PUSH1 0xFF NOT AND OR DUP7 ISZERO ISZERO OR SWAP1 SSTORE DUP1 MLOAD PUSH2 0x2D44 SWAP1 PUSH1 0x13 SWAP1 PUSH1 0x20 DUP5 ADD SWAP1 PUSH2 0x3CBD JUMP JUMPDEST POP POP POP POP POP POP POP POP POP JUMP JUMPDEST PUSH2 0x2D57 PUSH2 0x32D1 JUMP JUMPDEST PUSH1 0x18 SSTORE JUMP JUMPDEST PUSH2 0x2D64 PUSH2 0x32D1 JUMP JUMPDEST PUSH1 0x0 TIMESTAMP PUSH1 0x14 SLOAD PUSH1 0x16 SLOAD PUSH1 0x15 SLOAD DUP6 PUSH2 0x2D7A PUSH1 0x8 SLOAD SWAP1 JUMP JUMPDEST PUSH1 0x17 SLOAD PUSH1 0x40 DUP1 MLOAD PUSH1 0x20 DUP2 ADD SWAP9 SWAP1 SWAP9 MSTORE DUP8 ADD SWAP6 SWAP1 SWAP6 MSTORE PUSH1 0x60 DUP7 ADD SWAP4 SWAP1 SWAP4 MSTORE PUSH1 0x80 DUP6 ADD SWAP2 SWAP1 SWAP2 MSTORE PUSH1 0xA0 DUP5 ADD MSTORE PUSH1 0xC0 DUP4 ADD MSTORE PUSH1 0xE0 DUP3 ADD MSTORE PUSH2 0x100 ADD PUSH1 0x40 DUP1 MLOAD PUSH1 0x1F NOT DUP2 DUP5 SUB ADD DUP2 MSTORE SWAP2 SWAP1 MSTORE DUP1 MLOAD PUSH1 0x20 SWAP1 SWAP2 ADD KECCAK256 PUSH1 0x15 DUP1 SLOAD PUSH1 0x16 SSTORE SSTORE POP POP JUMP JUMPDEST PUSH2 0x2DDE PUSH2 0x32D1 JUMP JUMPDEST PUSH1 0xF DUP1 SLOAD SWAP2 ISZERO ISZERO PUSH2 0x100 MUL PUSH2 0xFF00 NOT SWAP1 SWAP3 AND SWAP2 SWAP1 SWAP2 OR SWAP1 SSTORE JUMP JUMPDEST PUSH2 0x2E00 PUSH2 0x32D1 JUMP JUMPDEST PUSH1 0x40 MLOAD PUSH4 0x70A08231 PUSH1 0xE0 SHL DUP2 MSTORE ADDRESS PUSH1 0x4 DUP3 ADD MSTORE DUP2 SWAP1 PUSH1 0x0 SWAP1 PUSH1 0x1 PUSH1 0x1 PUSH1 0xA0 SHL SUB DUP4 AND SWAP1 PUSH4 0x70A08231 SWAP1 PUSH1 0x24 ADD PUSH1 0x20 PUSH1 0x40 MLOAD DUP1 DUP4 SUB DUP2 DUP7 GAS STATICCALL ISZERO DUP1 ISZERO PUSH2 0x2E49 JUMPI RETURNDATASIZE PUSH1 0x0 DUP1 RETURNDATACOPY RETURNDATASIZE PUSH1 0x0 REVERT JUMPDEST POP POP POP POP PUSH1 0x40 MLOAD RETURNDATASIZE PUSH1 0x1F NOT PUSH1 0x1F DUP3 ADD AND DUP3 ADD DUP1 PUSH1 0x40 MSTORE POP DUP2 ADD SWAP1 PUSH2 0x2E6D SWAP2 SWAP1 PUSH2 0x461A JUMP JUMPDEST SWAP1 POP DUP2 PUSH1 0x1 PUSH1 0x1 PUSH1 0xA0 SHL SUB AND PUSH4 0xA9059CBB PUSH2 0x2E90 PUSH1 0x7 SLOAD PUSH1 0x1 PUSH1 0x1 PUSH1 0xA0 SHL SUB AND SWAP1 JUMP JUMPDEST PUSH1 0x40 MLOAD PUSH1 0x1 PUSH1 0x1 PUSH1 0xE0 SHL SUB NOT PUSH1 0xE0 DUP5 SWAP1 SHL AND DUP2 MSTORE PUSH1 0x1 PUSH1 0x1 PUSH1 0xA0 SHL SUB SWAP1 SWAP2 AND PUSH1 0x4 DUP3 ADD MSTORE PUSH1 0x24 DUP2 ADD DUP5 SWAP1 MSTORE PUSH1 0x44 ADD PUSH1 0x20 PUSH1 0x40 MLOAD DUP1 DUP4 SUB DUP2 PUSH1 0x0 DUP8 GAS CALL ISZERO DUP1 ISZERO PUSH2 0x2EDD JUMPI RETURNDATASIZE PUSH1 0x0 DUP1 RETURNDATACOPY RETURNDATASIZE PUSH1 0x0 REVERT JUMPDEST POP POP POP POP PUSH1 0x40 MLOAD RETURNDATASIZE PUSH1 0x1F NOT PUSH1 0x1F DUP3 ADD AND DUP3 ADD DUP1 PUSH1 0x40 MSTORE POP DUP2 ADD SWAP1 PUSH2 0x1BB0 SWAP2 SWAP1 PUSH2 0x4B07 JUMP JUMPDEST PUSH2 0x2F09 PUSH2 0x32D1 JUMP JUMPDEST PUSH1 0x40 MLOAD SELFBALANCE SWAP1 CALLER SWAP1 DUP3 ISZERO PUSH2 0x8FC MUL SWAP1 DUP4 SWAP1 PUSH1 0x0 DUP2 DUP2 DUP2 DUP6 DUP9 DUP9 CALL SWAP4 POP POP POP POP ISZERO DUP1 ISZERO PUSH2 0x2F38 JUMPI RETURNDATASIZE PUSH1 0x0 DUP1 RETURNDATACOPY RETURNDATASIZE PUSH1 0x0 REVERT JUMPDEST POP PUSH1 0x40 DUP1 MLOAD CALLER DUP2 MSTORE PUSH1 0x20 DUP2 ADD DUP4 SWAP1 MSTORE PUSH32 0xD59F809F461FB2E2CA77F931DC43A9AAAA4295B0ED3C8E6ADC04D0AAB43EEB47 SWAP2 ADD PUSH1 0x40 MLOAD DUP1 SWAP2 SUB SWAP1 LOG1 POP JUMP JUMPDEST PUSH1 0x0 PUSH2 0x1789 DUP3 DUP5 PUSH2 0x4B24 JUMP JUMPDEST PUSH1 0x0 PUSH2 0x1789 DUP3 DUP5 PUSH2 0x4B46 JUMP JUMPDEST PUSH1 0x0 PUSH2 0x1789 DUP3 DUP5 PUSH2 0x4B5D JUMP JUMPDEST PUSH1 0x40 DUP1 MLOAD PUSH1 0x1 PUSH1 0x1 PUSH1 0xA0 SHL SUB DUP6 DUP2 AND PUSH1 0x24 DUP4 ADD MSTORE DUP5 AND PUSH1 0x44 DUP3 ADD MSTORE PUSH1 0x64 DUP1 DUP3 ADD DUP5 SWAP1 MSTORE DUP3 MLOAD DUP1 DUP4 SUB SWAP1 SWAP2 ADD DUP2 MSTORE PUSH1 0x84 SWAP1 SWAP2 ADD SWAP1 SWAP2 MSTORE PUSH1 0x20 DUP2 ADD DUP1 MLOAD PUSH1 0x1 PUSH1 0x1 PUSH1 0xE0 SHL SUB AND PUSH4 0x23B872DD PUSH1 0xE0 SHL OR SWAP1 MSTORE PUSH2 0x1BB0 SWAP1 DUP6 SWAP1 PUSH2 0x37D3 JUMP JUMPDEST DUP3 PUSH1 0x1 PUSH1 0x1 PUSH1 0xA0 SHL SUB AND PUSH2 0x3006 DUP3 PUSH2 0x1BE9 JUMP JUMPDEST PUSH1 0x1 PUSH1 0x1 PUSH1 0xA0 SHL SUB AND EQ PUSH2 0x302C JUMPI PUSH1 0x40 MLOAD PUSH3 0x461BCD PUSH1 0xE5 SHL DUP2 MSTORE PUSH1 0x4 ADD PUSH2 0xBFC SWAP1 PUSH2 0x4B70 JUMP JUMPDEST PUSH1 0x1 PUSH1 0x1 PUSH1 0xA0 SHL SUB DUP3 AND PUSH2 0x308E JUMPI PUSH1 0x40 MLOAD PUSH3 0x461BCD PUSH1 0xE5 SHL DUP2 MSTORE PUSH1 0x20 PUSH1 0x4 DUP3 ADD MSTORE PUSH1 0x24 DUP1 DUP3 ADD MSTORE PUSH32 0x4552433732313A207472616E7366657220746F20746865207A65726F20616464 PUSH1 0x44 DUP3 ADD MSTORE PUSH4 0x72657373 PUSH1 0xE0 SHL PUSH1 0x64 DUP3 ADD MSTORE PUSH1 0x84 ADD PUSH2 0xBFC JUMP JUMPDEST PUSH2 0x309B DUP4 DUP4 DUP4 PUSH1 0x1 PUSH2 0x38A5 JUMP JUMPDEST DUP3 PUSH1 0x1 PUSH1 0x1 PUSH1 0xA0 SHL SUB AND PUSH2 0x30AE DUP3 PUSH2 0x1BE9 JUMP JUMPDEST PUSH1 0x1 PUSH1 0x1 PUSH1 0xA0 SHL SUB AND EQ PUSH2 0x30D4 JUMPI PUSH1 0x40 MLOAD PUSH3 0x461BCD PUSH1 0xE5 SHL DUP2 MSTORE PUSH1 0x4 ADD PUSH2 0xBFC SWAP1 PUSH2 0x4B70 JUMP JUMPDEST PUSH1 0x0 DUP2 DUP2 MSTORE PUSH1 0x4 PUSH1 0x20 SWAP1 DUP2 MSTORE PUSH1 0x40 DUP1 DUP4 KECCAK256 DUP1 SLOAD PUSH1 0x1 PUSH1 0x1 PUSH1 0xA0 SHL SUB NOT SWAP1 DUP2 AND SWAP1 SWAP2 SSTORE PUSH1 0x1 PUSH1 0x1 PUSH1 0xA0 SHL SUB DUP8 DUP2 AND DUP1 DUP7 MSTORE PUSH1 0x3 DUP6 MSTORE DUP4 DUP7 KECCAK256 DUP1 SLOAD PUSH1 0x0 NOT ADD SWAP1 SSTORE SWAP1 DUP8 AND DUP1 DUP7 MSTORE DUP4 DUP7 KECCAK256 DUP1 SLOAD PUSH1 0x1 ADD SWAP1 SSTORE DUP7 DUP7 MSTORE PUSH1 0x2 SWAP1 SWAP5 MSTORE DUP3 DUP6 KECCAK256 DUP1 SLOAD SWAP1 SWAP3 AND DUP5 OR SWAP1 SWAP2 SSTORE SWAP1 MLOAD DUP5 SWAP4 PUSH32 0xDDF252AD1BE2C89B69C2B068FC378DAA952BA7F163C4A11628F55A4DF523B3EF SWAP2 LOG4 POP POP POP JUMP JUMPDEST PUSH1 0x40 DUP1 MLOAD PUSH1 0xA0 DUP2 ADD DUP3 MSTORE PUSH1 0x0 DUP1 DUP3 MSTORE DUP3 MLOAD PUSH1 0x20 DUP2 DUP2 ADD DUP6 MSTORE DUP3 DUP3 MSTORE DUP1 DUP5 ADD SWAP2 DUP3 MSTORE DUP4 DUP6 ADD DUP4 SWAP1 MSTORE PUSH1 0x60 DUP5 ADD DUP4 SWAP1 MSTORE PUSH1 0x80 DUP5 ADD DUP4 SWAP1 MSTORE DUP6 DUP4 MSTORE PUSH1 0x11 SWAP1 MSTORE SWAP3 SWAP1 KECCAK256 DUP2 MLOAD DUP2 SSTORE SWAP2 MLOAD SWAP1 SWAP2 SWAP1 PUSH1 0x1 DUP3 ADD SWAP1 PUSH2 0x31BB SWAP1 DUP3 PUSH2 0x48EB JUMP JUMPDEST POP PUSH1 0x40 DUP3 ADD MLOAD PUSH1 0x2 DUP3 ADD DUP1 SLOAD PUSH1 0x1 PUSH1 0x1 PUSH1 0xA0 SHL SUB NOT SWAP1 DUP2 AND PUSH1 0x1 PUSH1 0x1 PUSH1 0xA0 SHL SUB SWAP4 DUP5 AND OR SWAP1 SWAP2 SSTORE PUSH1 0x60 DUP5 ADD MLOAD PUSH1 0x3 DUP5 ADD SSTORE PUSH1 0x80 SWAP1 SWAP4 ADD MLOAD PUSH1 0x4 SWAP1 SWAP3 ADD DUP1 SLOAD SWAP1 SWAP4 AND SWAP2 AND OR SWAP1 SSTORE POP JUMP JUMPDEST PUSH1 0x0 DUP2 DUP2 MSTORE PUSH1 0x2 PUSH1 0x20 MSTORE PUSH1 0x40 SWAP1 KECCAK256 SLOAD PUSH1 0x1 PUSH1 0x1 PUSH1 0xA0 SHL SUB AND PUSH2 0x1719 JUMPI PUSH1 0x40 MLOAD PUSH3 0x461BCD PUSH1 0xE5 SHL DUP2 MSTORE PUSH1 0x20 PUSH1 0x4 DUP3 ADD MSTORE PUSH1 0x18 PUSH1 0x24 DUP3 ADD MSTORE PUSH24 0x115490CDCC8C4E881A5B9D985B1A59081D1BDAD95B881251 PUSH1 0x42 SHL PUSH1 0x44 DUP3 ADD MSTORE PUSH1 0x64 ADD PUSH2 0xBFC JUMP JUMPDEST PUSH1 0x0 DUP2 DUP2 MSTORE PUSH1 0x4 PUSH1 0x20 MSTORE PUSH1 0x40 SWAP1 KECCAK256 DUP1 SLOAD PUSH1 0x1 PUSH1 0x1 PUSH1 0xA0 SHL SUB NOT AND PUSH1 0x1 PUSH1 0x1 PUSH1 0xA0 SHL SUB DUP5 AND SWAP1 DUP2 OR SWAP1 SWAP2 SSTORE DUP2 SWAP1 PUSH2 0x3298 DUP3 PUSH2 0x1BE9 JUMP JUMPDEST PUSH1 0x1 PUSH1 0x1 PUSH1 0xA0 SHL SUB AND PUSH32 0x8C5BE1E5EBEC7D5BD14F71427D1E84F3DD0314C0F7B2291E5B200AC8C7C3B925 PUSH1 0x40 MLOAD PUSH1 0x40 MLOAD DUP1 SWAP2 SUB SWAP1 LOG4 POP POP JUMP JUMPDEST PUSH1 0x7 SLOAD PUSH1 0x1 PUSH1 0x1 PUSH1 0xA0 SHL SUB AND CALLER EQ PUSH2 0x1E37 JUMPI PUSH1 0x40 MLOAD PUSH3 0x461BCD PUSH1 0xE5 SHL DUP2 MSTORE PUSH1 0x20 PUSH1 0x4 DUP3 ADD DUP2 SWAP1 MSTORE PUSH1 0x24 DUP3 ADD MSTORE PUSH32 0x4F776E61626C653A2063616C6C6572206973206E6F7420746865206F776E6572 PUSH1 0x44 DUP3 ADD MSTORE PUSH1 0x64 ADD PUSH2 0xBFC JUMP JUMPDEST PUSH1 0x0 DUP1 PUSH2 0x3337 DUP4 PUSH2 0x1BE9 JUMP JUMPDEST SWAP1 POP DUP1 PUSH1 0x1 PUSH1 0x1 PUSH1 0xA0 SHL SUB AND DUP5 PUSH1 0x1 PUSH1 0x1 PUSH1 0xA0 SHL SUB AND EQ DUP1 PUSH2 0x337E JUMPI POP PUSH1 0x1 PUSH1 0x1 PUSH1 0xA0 SHL SUB DUP1 DUP3 AND PUSH1 0x0 SWAP1 DUP2 MSTORE PUSH1 0x5 PUSH1 0x20 SWAP1 DUP2 MSTORE PUSH1 0x40 DUP1 DUP4 KECCAK256 SWAP4 DUP9 AND DUP4 MSTORE SWAP3 SWAP1 MSTORE KECCAK256 SLOAD PUSH1 0xFF AND JUMPDEST DUP1 PUSH2 0x2C13 JUMPI POP DUP4 PUSH1 0x1 PUSH1 0x1 PUSH1 0xA0 SHL SUB AND PUSH2 0x3397 DUP5 PUSH2 0x112D JUMP JUMPDEST PUSH1 0x1 PUSH1 0x1 PUSH1 0xA0 SHL SUB AND EQ SWAP5 SWAP4 POP POP POP POP JUMP JUMPDEST PUSH1 0x1 PUSH1 0x1 PUSH1 0xA0 SHL SUB DUP3 AND PUSH2 0x33FF JUMPI PUSH1 0x40 MLOAD PUSH3 0x461BCD PUSH1 0xE5 SHL DUP2 MSTORE PUSH1 0x20 PUSH1 0x4 DUP3 ADD DUP2 SWAP1 MSTORE PUSH1 0x24 DUP3 ADD MSTORE PUSH32 0x4552433732313A206D696E7420746F20746865207A65726F2061646472657373 PUSH1 0x44 DUP3 ADD MSTORE PUSH1 0x64 ADD PUSH2 0xBFC JUMP JUMPDEST PUSH1 0x0 DUP2 DUP2 MSTORE PUSH1 0x2 PUSH1 0x20 MSTORE PUSH1 0x40 SWAP1 KECCAK256 SLOAD PUSH1 0x1 PUSH1 0x1 PUSH1 0xA0 SHL SUB AND ISZERO PUSH2 0x3464 JUMPI PUSH1 0x40 MLOAD PUSH3 0x461BCD PUSH1 0xE5 SHL DUP2 MSTORE PUSH1 0x20 PUSH1 0x4 DUP3 ADD MSTORE PUSH1 0x1C PUSH1 0x24 DUP3 ADD MSTORE PUSH32 0x4552433732313A20746F6B656E20616C7265616479206D696E74656400000000 PUSH1 0x44 DUP3 ADD MSTORE PUSH1 0x64 ADD PUSH2 0xBFC JUMP JUMPDEST PUSH2 0x3472 PUSH1 0x0 DUP4 DUP4 PUSH1 0x1 PUSH2 0x38A5 JUMP JUMPDEST PUSH1 0x0 DUP2 DUP2 MSTORE PUSH1 0x2 PUSH1 0x20 MSTORE PUSH1 0x40 SWAP1 KECCAK256 SLOAD PUSH1 0x1 PUSH1 0x1 PUSH1 0xA0 SHL SUB AND ISZERO PUSH2 0x34D7 JUMPI PUSH1 0x40 MLOAD PUSH3 0x461BCD PUSH1 0xE5 SHL DUP2 MSTORE PUSH1 0x20 PUSH1 0x4 DUP3 ADD MSTORE PUSH1 0x1C PUSH1 0x24 DUP3 ADD MSTORE PUSH32 0x4552433732313A20746F6B656E20616C7265616479206D696E74656400000000 PUSH1 0x44 DUP3 ADD MSTORE PUSH1 0x64 ADD PUSH2 0xBFC JUMP JUMPDEST PUSH1 0x1 PUSH1 0x1 PUSH1 0xA0 SHL SUB DUP3 AND PUSH1 0x0 DUP2 DUP2 MSTORE PUSH1 0x3 PUSH1 0x20 SWAP1 DUP2 MSTORE PUSH1 0x40 DUP1 DUP4 KECCAK256 DUP1 SLOAD PUSH1 0x1 ADD SWAP1 SSTORE DUP5 DUP4 MSTORE PUSH1 0x2 SWAP1 SWAP2 MSTORE DUP1 DUP3 KECCAK256 DUP1 SLOAD PUSH1 0x1 PUSH1 0x1 PUSH1 0xA0 SHL SUB NOT AND DUP5 OR SWAP1 SSTORE MLOAD DUP4 SWAP3 SWAP2 SWAP1 PUSH32 0xDDF252AD1BE2C89B69C2B068FC378DAA952BA7F163C4A11628F55A4DF523B3EF SWAP1 DUP3 SWAP1 LOG4 POP POP JUMP JUMPDEST PUSH1 0x9 SLOAD PUSH1 0x8 SLOAD LT PUSH2 0x1E37 JUMPI PUSH1 0x8 SLOAD PUSH2 0x1D8B SWAP1 PUSH1 0x1 PUSH2 0x4BB5 JUMP JUMPDEST PUSH1 0x0 DUP3 DUP2 MSTORE PUSH1 0x2 PUSH1 0x20 MSTORE PUSH1 0x40 SWAP1 KECCAK256 SLOAD PUSH1 0x1 PUSH1 0x1 PUSH1 0xA0 SHL SUB AND PUSH2 0x35D6 JUMPI PUSH1 0x40 MLOAD PUSH3 0x461BCD PUSH1 0xE5 SHL DUP2 MSTORE PUSH1 0x20 PUSH1 0x4 DUP3 ADD MSTORE PUSH1 0x2E PUSH1 0x24 DUP3 ADD MSTORE PUSH32 0x45524337323155524953746F726167653A2055524920736574206F66206E6F6E PUSH1 0x44 DUP3 ADD MSTORE PUSH14 0x32BC34B9BA32B73A103A37B5B2B7 PUSH1 0x91 SHL PUSH1 0x64 DUP3 ADD MSTORE PUSH1 0x84 ADD PUSH2 0xBFC JUMP JUMPDEST PUSH1 0x0 DUP3 DUP2 MSTORE PUSH1 0x6 PUSH1 0x20 MSTORE PUSH1 0x40 SWAP1 KECCAK256 PUSH2 0x1264 DUP3 DUP3 PUSH2 0x48EB JUMP JUMPDEST PUSH1 0x7 DUP1 SLOAD PUSH1 0x1 PUSH1 0x1 PUSH1 0xA0 SHL SUB DUP4 DUP2 AND PUSH1 0x1 PUSH1 0x1 PUSH1 0xA0 SHL SUB NOT DUP4 AND DUP2 OR SWAP1 SWAP4 SSTORE PUSH1 0x40 MLOAD SWAP2 AND SWAP2 SWAP1 DUP3 SWAP1 PUSH32 0x8BE0079C531659141344CD1FD0A4F28419497F9722A3DAAFE3B4186F6B6457E0 SWAP1 PUSH1 0x0 SWAP1 LOG3 POP POP JUMP JUMPDEST DUP2 PUSH1 0x1 PUSH1 0x1 PUSH1 0xA0 SHL SUB AND DUP4 PUSH1 0x1 PUSH1 0x1 PUSH1 0xA0 SHL SUB AND SUB PUSH2 0x36A1 JUMPI PUSH1 0x40 MLOAD PUSH3 0x461BCD PUSH1 0xE5 SHL DUP2 MSTORE PUSH1 0x20 PUSH1 0x4 DUP3 ADD MSTORE PUSH1 0x19 PUSH1 0x24 DUP3 ADD MSTORE PUSH32 0x4552433732313A20617070726F766520746F2063616C6C657200000000000000 PUSH1 0x44 DUP3 ADD MSTORE PUSH1 0x64 ADD PUSH2 0xBFC JUMP JUMPDEST PUSH1 0x1 PUSH1 0x1 PUSH1 0xA0 SHL SUB DUP4 DUP2 AND PUSH1 0x0 DUP2 DUP2 MSTORE PUSH1 0x5 PUSH1 0x20 SWAP1 DUP2 MSTORE PUSH1 0x40 DUP1 DUP4 KECCAK256 SWAP5 DUP8 AND DUP1 DUP5 MSTORE SWAP5 DUP3 MSTORE SWAP2 DUP3 SWAP1 KECCAK256 DUP1 SLOAD PUSH1 0xFF NOT AND DUP7 ISZERO ISZERO SWAP1 DUP2 OR SWAP1 SWAP2 SSTORE SWAP2 MLOAD SWAP2 DUP3 MSTORE PUSH32 0x17307EAB39AB6107E8899845AD3D59BD9653F200F220920489CA2B5937696C31 SWAP2 ADD PUSH1 0x40 MLOAD DUP1 SWAP2 SUB SWAP1 LOG3 POP POP POP JUMP JUMPDEST PUSH2 0x3719 DUP5 DUP5 DUP5 PUSH2 0x2FF3 JUMP JUMPDEST PUSH2 0x3725 DUP5 DUP5 DUP5 DUP5 PUSH2 0x392D JUMP JUMPDEST PUSH2 0x1BB0 JUMPI PUSH1 0x40 MLOAD PUSH3 0x461BCD PUSH1 0xE5 SHL DUP2 MSTORE PUSH1 0x4 ADD PUSH2 0xBFC SWAP1 PUSH2 0x4BC8 JUMP JUMPDEST PUSH1 0x60 PUSH1 0x0 PUSH2 0x374E DUP4 PUSH2 0x3A2B JUMP JUMPDEST PUSH1 0x1 ADD SWAP1 POP PUSH1 0x0 DUP2 PUSH1 0x1 PUSH1 0x1 PUSH1 0x40 SHL SUB DUP2 GT ISZERO PUSH2 0x376D JUMPI PUSH2 0x376D PUSH2 0x3FA2 JUMP JUMPDEST PUSH1 0x40 MLOAD SWAP1 DUP1 DUP3 MSTORE DUP1 PUSH1 0x1F ADD PUSH1 0x1F NOT AND PUSH1 0x20 ADD DUP3 ADD PUSH1 0x40 MSTORE DUP1 ISZERO PUSH2 0x3797 JUMPI PUSH1 0x20 DUP3 ADD DUP2 DUP1 CALLDATASIZE DUP4 CALLDATACOPY ADD SWAP1 POP JUMPDEST POP SWAP1 POP DUP2 DUP2 ADD PUSH1 0x20 ADD JUMPDEST PUSH1 0x0 NOT ADD PUSH16 0x181899199A1A9B1B9C1CB0B131B232B3 PUSH1 0x81 SHL PUSH1 0xA DUP7 MOD BYTE DUP2 MSTORE8 PUSH1 0xA DUP6 DIV SWAP5 POP DUP5 PUSH2 0x37A1 JUMPI POP SWAP4 SWAP3 POP POP POP JUMP JUMPDEST PUSH1 0x0 PUSH2 0x3828 DUP3 PUSH1 0x40 MLOAD DUP1 PUSH1 0x40 ADD PUSH1 0x40 MSTORE DUP1 PUSH1 0x20 DUP2 MSTORE PUSH1 0x20 ADD PUSH32 0x5361666545524332303A206C6F772D6C6576656C2063616C6C206661696C6564 DUP2 MSTORE POP DUP6 PUSH1 0x1 PUSH1 0x1 PUSH1 0xA0 SHL SUB AND PUSH2 0x3B03 SWAP1 SWAP3 SWAP2 SWAP1 PUSH4 0xFFFFFFFF AND JUMP JUMPDEST DUP1 MLOAD SWAP1 SWAP2 POP ISZERO PUSH2 0x1264 JUMPI DUP1 DUP1 PUSH1 0x20 ADD SWAP1 MLOAD DUP2 ADD SWAP1 PUSH2 0x3846 SWAP2 SWAP1 PUSH2 0x4B07 JUMP JUMPDEST PUSH2 0x1264 JUMPI PUSH1 0x40 MLOAD PUSH3 0x461BCD PUSH1 0xE5 SHL DUP2 MSTORE PUSH1 0x20 PUSH1 0x4 DUP3 ADD MSTORE PUSH1 0x2A PUSH1 0x24 DUP3 ADD MSTORE PUSH32 0x5361666545524332303A204552433230206F7065726174696F6E20646964206E PUSH1 0x44 DUP3 ADD MSTORE PUSH10 0x1BDD081CDD58D8D95959 PUSH1 0xB2 SHL PUSH1 0x64 DUP3 ADD MSTORE PUSH1 0x84 ADD PUSH2 0xBFC JUMP JUMPDEST PUSH1 0x1 DUP2 GT ISZERO PUSH2 0x1BB0 JUMPI PUSH1 0x1 PUSH1 0x1 PUSH1 0xA0 SHL SUB DUP5 AND ISZERO PUSH2 0x38EB JUMPI PUSH1 0x1 PUSH1 0x1 PUSH1 0xA0 SHL SUB DUP5 AND PUSH1 0x0 SWAP1 DUP2 MSTORE PUSH1 0x3 PUSH1 0x20 MSTORE PUSH1 0x40 DUP2 KECCAK256 DUP1 SLOAD DUP4 SWAP3 SWAP1 PUSH2 0x38E5 SWAP1 DUP5 SWAP1 PUSH2 0x4B5D JUMP JUMPDEST SWAP1 SWAP2 SSTORE POP POP JUMPDEST PUSH1 0x1 PUSH1 0x1 PUSH1 0xA0 SHL SUB DUP4 AND ISZERO PUSH2 0x1BB0 JUMPI PUSH1 0x1 PUSH1 0x1 PUSH1 0xA0 SHL SUB DUP4 AND PUSH1 0x0 SWAP1 DUP2 MSTORE PUSH1 0x3 PUSH1 0x20 MSTORE PUSH1 0x40 DUP2 KECCAK256 DUP1 SLOAD DUP4 SWAP3 SWAP1 PUSH2 0x3922 SWAP1 DUP5 SWAP1 PUSH2 0x4BB5 JUMP JUMPDEST SWAP1 SWAP2 SSTORE POP POP POP POP POP POP JUMP JUMPDEST PUSH1 0x0 PUSH1 0x1 PUSH1 0x1 PUSH1 0xA0 SHL SUB DUP5 AND EXTCODESIZE ISZERO PUSH2 0x3A23 JUMPI PUSH1 0x40 MLOAD PUSH4 0xA85BD01 PUSH1 0xE1 SHL DUP2 MSTORE PUSH1 0x1 PUSH1 0x1 PUSH1 0xA0 SHL SUB DUP6 AND SWAP1 PUSH4 0x150B7A02 SWAP1 PUSH2 0x3971 SWAP1 CALLER SWAP1 DUP10 SWAP1 DUP9 SWAP1 DUP9 SWAP1 PUSH1 0x4 ADD PUSH2 0x4C1A JUMP JUMPDEST PUSH1 0x20 PUSH1 0x40 MLOAD DUP1 DUP4 SUB DUP2 PUSH1 0x0 DUP8 GAS CALL SWAP3 POP POP POP DUP1 ISZERO PUSH2 0x39AC JUMPI POP PUSH1 0x40 DUP1 MLOAD PUSH1 0x1F RETURNDATASIZE SWAP1 DUP2 ADD PUSH1 0x1F NOT AND DUP3 ADD SWAP1 SWAP3 MSTORE PUSH2 0x39A9 SWAP2 DUP2 ADD SWAP1 PUSH2 0x4C57 JUMP JUMPDEST PUSH1 0x1 JUMPDEST PUSH2 0x3A09 JUMPI RETURNDATASIZE DUP1 DUP1 ISZERO PUSH2 0x39DA JUMPI PUSH1 0x40 MLOAD SWAP2 POP PUSH1 0x1F NOT PUSH1 0x3F RETURNDATASIZE ADD AND DUP3 ADD PUSH1 0x40 MSTORE RETURNDATASIZE DUP3 MSTORE RETURNDATASIZE PUSH1 0x0 PUSH1 0x20 DUP5 ADD RETURNDATACOPY PUSH2 0x39DF JUMP JUMPDEST PUSH1 0x60 SWAP2 POP JUMPDEST POP DUP1 MLOAD PUSH1 0x0 SUB PUSH2 0x3A01 JUMPI PUSH1 0x40 MLOAD PUSH3 0x461BCD PUSH1 0xE5 SHL DUP2 MSTORE PUSH1 0x4 ADD PUSH2 0xBFC SWAP1 PUSH2 0x4BC8 JUMP JUMPDEST DUP1 MLOAD DUP2 PUSH1 0x20 ADD REVERT JUMPDEST PUSH1 0x1 PUSH1 0x1 PUSH1 0xE0 SHL SUB NOT AND PUSH4 0xA85BD01 PUSH1 0xE1 SHL EQ SWAP1 POP PUSH2 0x2C13 JUMP JUMPDEST POP PUSH1 0x1 PUSH2 0x2C13 JUMP JUMPDEST PUSH1 0x0 DUP1 PUSH19 0x184F03E93FF9F4DAA797ED6E38ED64BF6A1F01 PUSH1 0x40 SHL DUP4 LT PUSH2 0x3A6A JUMPI PUSH19 0x184F03E93FF9F4DAA797ED6E38ED64BF6A1F01 PUSH1 0x40 SHL DUP4 DIV SWAP3 POP PUSH1 0x40 ADD JUMPDEST PUSH14 0x4EE2D6D415B85ACEF8100000000 DUP4 LT PUSH2 0x3A96 JUMPI PUSH14 0x4EE2D6D415B85ACEF8100000000 DUP4 DIV SWAP3 POP PUSH1 0x20 ADD JUMPDEST PUSH7 0x2386F26FC10000 DUP4 LT PUSH2 0x3AB4 JUMPI PUSH7 0x2386F26FC10000 DUP4 DIV SWAP3 POP PUSH1 0x10 ADD JUMPDEST PUSH4 0x5F5E100 DUP4 LT PUSH2 0x3ACC JUMPI PUSH4 0x5F5E100 DUP4 DIV SWAP3 POP PUSH1 0x8 ADD JUMPDEST PUSH2 0x2710 DUP4 LT PUSH2 0x3AE0 JUMPI PUSH2 0x2710 DUP4 DIV SWAP3 POP PUSH1 0x4 ADD JUMPDEST PUSH1 0x64 DUP4 LT PUSH2 0x3AF2 JUMPI PUSH1 0x64 DUP4 DIV SWAP3 POP PUSH1 0x2 ADD JUMPDEST PUSH1 0xA DUP4 LT PUSH2 0xBCF JUMPI PUSH1 0x1 ADD SWAP3 SWAP2 POP POP JUMP JUMPDEST PUSH1 0x60 PUSH2 0x2C13 DUP5 DUP5 PUSH1 0x0 DUP6 DUP6 PUSH1 0x0 DUP1 DUP7 PUSH1 0x1 PUSH1 0x1 PUSH1 0xA0 SHL SUB AND DUP6 DUP8 PUSH1 0x40 MLOAD PUSH2 0x3B2A SWAP2 SWAP1 PUSH2 0x4C74 JUMP JUMPDEST PUSH1 0x0 PUSH1 0x40 MLOAD DUP1 DUP4 SUB DUP2 DUP6 DUP8 GAS CALL SWAP3 POP POP POP RETURNDATASIZE DUP1 PUSH1 0x0 DUP2 EQ PUSH2 0x3B67 JUMPI PUSH1 0x40 MLOAD SWAP2 POP PUSH1 0x1F NOT PUSH1 0x3F RETURNDATASIZE ADD AND DUP3 ADD PUSH1 0x40 MSTORE RETURNDATASIZE DUP3 MSTORE RETURNDATASIZE PUSH1 0x0 PUSH1 0x20 DUP5 ADD RETURNDATACOPY PUSH2 0x3B6C JUMP JUMPDEST PUSH1 0x60 SWAP2 POP JUMPDEST POP SWAP2 POP SWAP2 POP PUSH2 0x3B7D DUP8 DUP4 DUP4 DUP8 PUSH2 0x3B88 JUMP JUMPDEST SWAP8 SWAP7 POP POP POP POP POP POP POP JUMP JUMPDEST PUSH1 0x60 DUP4 ISZERO PUSH2 0x3BF7 JUMPI DUP3 MLOAD PUSH1 0x0 SUB PUSH2 0x3BF0 JUMPI PUSH1 0x1 PUSH1 0x1 PUSH1 0xA0 SHL SUB DUP6 AND EXTCODESIZE PUSH2 0x3BF0 JUMPI PUSH1 0x40 MLOAD PUSH3 0x461BCD PUSH1 0xE5 SHL DUP2 MSTORE PUSH1 0x20 PUSH1 0x4 DUP3 ADD MSTORE PUSH1 0x1D PUSH1 0x24 DUP3 ADD MSTORE PUSH32 0x416464726573733A2063616C6C20746F206E6F6E2D636F6E7472616374000000 PUSH1 0x44 DUP3 ADD MSTORE PUSH1 0x64 ADD PUSH2 0xBFC JUMP JUMPDEST POP DUP2 PUSH2 0x2C13 JUMP JUMPDEST PUSH2 0x2C13 DUP4 DUP4 DUP2 MLOAD ISZERO PUSH2 0x3C0C JUMPI DUP2 MLOAD DUP1 DUP4 PUSH1 0x20 ADD REVERT JUMPDEST DUP1 PUSH1 0x40 MLOAD PUSH3 0x461BCD PUSH1 0xE5 SHL DUP2 MSTORE PUSH1 0x4 ADD PUSH2 0xBFC SWAP2 SWAP1 PUSH2 0x3E26 JUMP JUMPDEST PUSH1 0x40 MLOAD DUP1 PUSH1 0xA0 ADD PUSH1 0x40 MSTORE DUP1 PUSH1 0x0 DUP2 MSTORE PUSH1 0x20 ADD PUSH1 0x60 DUP2 MSTORE PUSH1 0x20 ADD PUSH1 0x0 PUSH1 0x1 PUSH1 0x1 PUSH1 0xA0 SHL SUB AND DUP2 MSTORE PUSH1 0x20 ADD PUSH1 0x0 DUP2 MSTORE PUSH1 0x20 ADD PUSH1 0x0 PUSH1 0x1 PUSH1 0x1 PUSH1 0xA0 SHL SUB AND DUP2 MSTORE POP SWAP1 JUMP JUMPDEST DUP3 DUP1 SLOAD DUP3 DUP3 SSTORE SWAP1 PUSH1 0x0 MSTORE PUSH1 0x20 PUSH1 0x0 KECCAK256 SWAP1 DUP2 ADD SWAP3 DUP3 ISZERO PUSH2 0x3CAD JUMPI SWAP2 PUSH1 0x20 MUL DUP3 ADD JUMPDEST DUP3 DUP2 GT ISZERO PUSH2 0x3CAD JUMPI DUP3 MLOAD DUP3 SWAP1 PUSH2 0x3C9D SWAP1 DUP3 PUSH2 0x48EB JUMP JUMPDEST POP SWAP2 PUSH1 0x20 ADD SWAP2 SWAP1 PUSH1 0x1 ADD SWAP1 PUSH2 0x3C87 JUMP JUMPDEST POP PUSH2 0x3CB9 SWAP3 SWAP2 POP PUSH2 0x3D1E JUMP JUMPDEST POP SWAP1 JUMP JUMPDEST DUP3 DUP1 SLOAD DUP3 DUP3 SSTORE SWAP1 PUSH1 0x0 MSTORE PUSH1 0x20 PUSH1 0x0 KECCAK256 SWAP1 DUP2 ADD SWAP3 DUP3 ISZERO PUSH2 0x3D12 JUMPI SWAP2 PUSH1 0x20 MUL DUP3 ADD JUMPDEST DUP3 DUP2 GT ISZERO PUSH2 0x3D12 JUMPI DUP3 MLOAD DUP3 SLOAD PUSH1 0x1 PUSH1 0x1 PUSH1 0xA0 SHL SUB NOT AND PUSH1 0x1 PUSH1 0x1 PUSH1 0xA0 SHL SUB SWAP1 SWAP2 AND OR DUP3 SSTORE PUSH1 0x20 SWAP1 SWAP3 ADD SWAP2 PUSH1 0x1 SWAP1 SWAP2 ADD SWAP1 PUSH2 0x3CDD JUMP JUMPDEST POP PUSH2 0x3CB9 SWAP3 SWAP2 POP PUSH2 0x3D3B JUMP JUMPDEST DUP1 DUP3 GT ISZERO PUSH2 0x3CB9 JUMPI PUSH1 0x0 PUSH2 0x3D32 DUP3 DUP3 PUSH2 0x3D50 JUMP JUMPDEST POP PUSH1 0x1 ADD PUSH2 0x3D1E JUMP JUMPDEST JUMPDEST DUP1 DUP3 GT ISZERO PUSH2 0x3CB9 JUMPI PUSH1 0x0 DUP2 SSTORE PUSH1 0x1 ADD PUSH2 0x3D3C JUMP JUMPDEST POP DUP1 SLOAD PUSH2 0x3D5C SWAP1 PUSH2 0x4633 JUMP JUMPDEST PUSH1 0x0 DUP3 SSTORE DUP1 PUSH1 0x1F LT PUSH2 0x3D6C JUMPI POP POP JUMP JUMPDEST PUSH1 0x1F ADD PUSH1 0x20 SWAP1 DIV SWAP1 PUSH1 0x0 MSTORE PUSH1 0x20 PUSH1 0x0 KECCAK256 SWAP1 DUP2 ADD SWAP1 PUSH2 0x1719 SWAP2 SWAP1 PUSH2 0x3D3B JUMP JUMPDEST PUSH1 0x1 PUSH1 0x1 PUSH1 0xE0 SHL SUB NOT DUP2 AND DUP2 EQ PUSH2 0x1719 JUMPI PUSH1 0x0 DUP1 REVERT JUMPDEST PUSH1 0x0 PUSH1 0x20 DUP3 DUP5 SUB SLT ISZERO PUSH2 0x3DB2 JUMPI PUSH1 0x0 DUP1 REVERT JUMPDEST DUP2 CALLDATALOAD PUSH2 0x1789 DUP2 PUSH2 0x3D8A JUMP JUMPDEST PUSH1 0x0 PUSH1 0x20 DUP3 DUP5 SUB SLT ISZERO PUSH2 0x3DCF JUMPI PUSH1 0x0 DUP1 REVERT JUMPDEST POP CALLDATALOAD SWAP2 SWAP1 POP JUMP JUMPDEST PUSH1 0x0 JUMPDEST DUP4 DUP2 LT ISZERO PUSH2 0x3DF1 JUMPI DUP2 DUP2 ADD MLOAD DUP4 DUP3 ADD MSTORE PUSH1 0x20 ADD PUSH2 0x3DD9 JUMP JUMPDEST POP POP PUSH1 0x0 SWAP2 ADD MSTORE JUMP JUMPDEST PUSH1 0x0 DUP2 MLOAD DUP1 DUP5 MSTORE PUSH2 0x3E12 DUP2 PUSH1 0x20 DUP7 ADD PUSH1 0x20 DUP7 ADD PUSH2 0x3DD6 JUMP JUMPDEST PUSH1 0x1F ADD PUSH1 0x1F NOT AND SWAP3 SWAP1 SWAP3 ADD PUSH1 0x20 ADD SWAP3 SWAP2 POP POP JUMP JUMPDEST PUSH1 0x20 DUP2 MSTORE PUSH1 0x0 PUSH2 0x1789 PUSH1 0x20 DUP4 ADD DUP5 PUSH2 0x3DFA JUMP JUMPDEST DUP1 CALLDATALOAD PUSH1 0x1 PUSH1 0x1 PUSH1 0xA0 SHL SUB DUP2 AND DUP2 EQ PUSH2 0x3E50 JUMPI PUSH1 0x0 DUP1 REVERT JUMPDEST SWAP2 SWAP1 POP JUMP JUMPDEST PUSH1 0x0 DUP1 PUSH1 0x40 DUP4 DUP6 SUB SLT ISZERO PUSH2 0x3E68 JUMPI PUSH1 0x0 DUP1 REVERT JUMPDEST PUSH2 0x3E71 DUP4 PUSH2 0x3E39 JUMP JUMPDEST SWAP5 PUSH1 0x20 SWAP4 SWAP1 SWAP4 ADD CALLDATALOAD SWAP4 POP POP POP JUMP JUMPDEST PUSH1 0x0 PUSH1 0x20 DUP3 DUP5 SUB SLT ISZERO PUSH2 0x3E91 JUMPI PUSH1 0x0 DUP1 REVERT JUMPDEST PUSH2 0x1789 DUP3 PUSH2 0x3E39 JUMP JUMPDEST PUSH1 0x0 PUSH1 0x20 DUP1 DUP4 ADD DUP2 DUP5 MSTORE DUP1 DUP6 MLOAD DUP1 DUP4 MSTORE PUSH1 0x40 SWAP3 POP DUP3 DUP7 ADD SWAP2 POP DUP3 DUP2 PUSH1 0x5 SHL DUP8 ADD ADD DUP5 DUP9 ADD PUSH1 0x0 JUMPDEST DUP4 DUP2 LT ISZERO PUSH2 0x3F2D JUMPI PUSH1 0x3F NOT DUP10 DUP5 SUB ADD DUP6 MSTORE DUP2 MLOAD PUSH1 0xA0 DUP2 MLOAD DUP6 MSTORE DUP9 DUP3 ADD MLOAD DUP2 DUP11 DUP8 ADD MSTORE PUSH2 0x3EEF DUP3 DUP8 ADD DUP3 PUSH2 0x3DFA JUMP JUMPDEST DUP4 DUP11 ADD MLOAD PUSH1 0x1 PUSH1 0x1 PUSH1 0xA0 SHL SUB SWAP1 DUP2 AND DUP9 DUP13 ADD MSTORE PUSH1 0x60 DUP1 DUP7 ADD MLOAD SWAP1 DUP10 ADD MSTORE PUSH1 0x80 SWAP5 DUP6 ADD MLOAD AND SWAP4 SWAP1 SWAP7 ADD SWAP3 SWAP1 SWAP3 MSTORE POP POP SWAP4 DUP7 ADD SWAP4 SWAP1 DUP7 ADD SWAP1 PUSH1 0x1 ADD PUSH2 0x3EC1 JUMP JUMPDEST POP SWAP1 SWAP9 SWAP8 POP POP POP POP POP POP POP POP JUMP JUMPDEST DUP1 ISZERO ISZERO DUP2 EQ PUSH2 0x1719 JUMPI PUSH1 0x0 DUP1 REVERT JUMPDEST PUSH1 0x0 PUSH1 0x20 DUP3 DUP5 SUB SLT ISZERO PUSH2 0x3F5B JUMPI PUSH1 0x0 DUP1 REVERT JUMPDEST DUP2 CALLDATALOAD PUSH2 0x1789 DUP2 PUSH2 0x3F3B JUMP JUMPDEST PUSH1 0x0 DUP1 PUSH1 0x0 PUSH1 0x60 DUP5 DUP7 SUB SLT ISZERO PUSH2 0x3F7B JUMPI PUSH1 0x0 DUP1 REVERT JUMPDEST PUSH2 0x3F84 DUP5 PUSH2 0x3E39 JUMP JUMPDEST SWAP3 POP PUSH2 0x3F92 PUSH1 0x20 DUP6 ADD PUSH2 0x3E39 JUMP JUMPDEST SWAP2 POP PUSH1 0x40 DUP5 ADD CALLDATALOAD SWAP1 POP SWAP3 POP SWAP3 POP SWAP3 JUMP JUMPDEST PUSH4 0x4E487B71 PUSH1 0xE0 SHL PUSH1 0x0 MSTORE PUSH1 0x41 PUSH1 0x4 MSTORE PUSH1 0x24 PUSH1 0x0 REVERT JUMPDEST PUSH1 0x40 MLOAD PUSH1 0x1F DUP3 ADD PUSH1 0x1F NOT AND DUP2 ADD PUSH1 0x1 PUSH1 0x1 PUSH1 0x40 SHL SUB DUP2 GT DUP3 DUP3 LT OR ISZERO PUSH2 0x3FE0 JUMPI PUSH2 0x3FE0 PUSH2 0x3FA2 JUMP JUMPDEST PUSH1 0x40 MSTORE SWAP2 SWAP1 POP JUMP JUMPDEST PUSH1 0x0 PUSH1 0x1 PUSH1 0x1 PUSH1 0x40 SHL SUB DUP4 GT ISZERO PUSH2 0x4001 JUMPI PUSH2 0x4001 PUSH2 0x3FA2 JUMP JUMPDEST PUSH2 0x4014 PUSH1 0x1F DUP5 ADD PUSH1 0x1F NOT AND PUSH1 0x20 ADD PUSH2 0x3FB8 JUMP JUMPDEST SWAP1 POP DUP3 DUP2 MSTORE DUP4 DUP4 DUP4 ADD GT ISZERO PUSH2 0x4028 JUMPI PUSH1 0x0 DUP1 REVERT JUMPDEST DUP3 DUP3 PUSH1 0x20 DUP4 ADD CALLDATACOPY PUSH1 0x0 PUSH1 0x20 DUP5 DUP4 ADD ADD MSTORE SWAP4 SWAP3 POP POP POP JUMP JUMPDEST PUSH1 0x0 DUP3 PUSH1 0x1F DUP4 ADD SLT PUSH2 0x4050 JUMPI PUSH1 0x0 DUP1 REVERT JUMPDEST PUSH2 0x1789 DUP4 DUP4 CALLDATALOAD PUSH1 0x20 DUP6 ADD PUSH2 0x3FE8 JUMP JUMPDEST PUSH1 0x0 PUSH1 0x20 DUP3 DUP5 SUB SLT ISZERO PUSH2 0x4071 JUMPI PUSH1 0x0 DUP1 REVERT JUMPDEST DUP2 CALLDATALOAD PUSH1 0x1 PUSH1 0x1 PUSH1 0x40 SHL SUB DUP2 GT ISZERO PUSH2 0x4087 JUMPI PUSH1 0x0 DUP1 REVERT JUMPDEST PUSH2 0x2C13 DUP5 DUP3 DUP6 ADD PUSH2 0x403F JUMP JUMPDEST PUSH1 0x0 PUSH1 0x20 DUP1 DUP4 ADD DUP2 DUP5 MSTORE DUP1 DUP6 MLOAD DUP1 DUP4 MSTORE PUSH1 0x40 DUP7 ADD SWAP2 POP PUSH1 0x40 DUP2 PUSH1 0x5 SHL DUP8 ADD ADD SWAP3 POP DUP4 DUP8 ADD PUSH1 0x0 JUMPDEST DUP3 DUP2 LT ISZERO PUSH2 0x40E8 JUMPI PUSH1 0x3F NOT DUP9 DUP7 SUB ADD DUP5 MSTORE PUSH2 0x40D6 DUP6 DUP4 MLOAD PUSH2 0x3DFA JUMP JUMPDEST SWAP5 POP SWAP3 DUP6 ADD SWAP3 SWAP1 DUP6 ADD SWAP1 PUSH1 0x1 ADD PUSH2 0x40BA JUMP JUMPDEST POP SWAP3 SWAP8 SWAP7 POP POP POP POP POP POP POP JUMP JUMPDEST PUSH1 0x20 DUP1 DUP3 MSTORE DUP3 MLOAD DUP3 DUP3 ADD DUP2 SWAP1 MSTORE PUSH1 0x0 SWAP2 SWAP1 DUP5 DUP3 ADD SWAP1 PUSH1 0x40 DUP6 ADD SWAP1 DUP5 JUMPDEST DUP2 DUP2 LT ISZERO PUSH2 0x4136 JUMPI DUP4 MLOAD PUSH1 0x1 PUSH1 0x1 PUSH1 0xA0 SHL SUB AND DUP4 MSTORE SWAP3 DUP5 ADD SWAP3 SWAP2 DUP5 ADD SWAP2 PUSH1 0x1 ADD PUSH2 0x4111 JUMP JUMPDEST POP SWAP1 SWAP7 SWAP6 POP POP POP POP POP POP JUMP JUMPDEST PUSH1 0x0 DUP1 PUSH1 0x0 PUSH1 0x60 DUP5 DUP7 SUB SLT ISZERO PUSH2 0x4157 JUMPI PUSH1 0x0 DUP1 REVERT JUMPDEST DUP4 CALLDATALOAD SWAP3 POP PUSH1 0x20 DUP5 ADD CALLDATALOAD SWAP2 POP PUSH2 0x416E PUSH1 0x40 DUP6 ADD PUSH2 0x3E39 JUMP JUMPDEST SWAP1 POP SWAP3 POP SWAP3 POP SWAP3 JUMP JUMPDEST PUSH1 0x0 DUP1 PUSH1 0x40 DUP4 DUP6 SUB SLT ISZERO PUSH2 0x418A JUMPI PUSH1 0x0 DUP1 REVERT JUMPDEST PUSH2 0x4193 DUP4 PUSH2 0x3E39 JUMP JUMPDEST SWAP2 POP PUSH1 0x20 DUP4 ADD CALLDATALOAD PUSH2 0x41A3 DUP2 PUSH2 0x3F3B JUMP JUMPDEST DUP1 SWAP2 POP POP SWAP3 POP SWAP3 SWAP1 POP JUMP JUMPDEST PUSH1 0x0 DUP1 PUSH1 0x0 DUP1 PUSH1 0x80 DUP6 DUP8 SUB SLT ISZERO PUSH2 0x41C4 JUMPI PUSH1 0x0 DUP1 REVERT JUMPDEST PUSH2 0x41CD DUP6 PUSH2 0x3E39 JUMP JUMPDEST SWAP4 POP PUSH2 0x41DB PUSH1 0x20 DUP7 ADD PUSH2 0x3E39 JUMP JUMPDEST SWAP3 POP PUSH1 0x40 DUP6 ADD CALLDATALOAD SWAP2 POP PUSH1 0x60 DUP6 ADD CALLDATALOAD PUSH1 0x1 PUSH1 0x1 PUSH1 0x40 SHL SUB DUP2 GT ISZERO PUSH2 0x41FD JUMPI PUSH1 0x0 DUP1 REVERT JUMPDEST DUP6 ADD PUSH1 0x1F DUP2 ADD DUP8 SGT PUSH2 0x420E JUMPI PUSH1 0x0 DUP1 REVERT JUMPDEST PUSH2 0x421D DUP8 DUP3 CALLDATALOAD PUSH1 0x20 DUP5 ADD PUSH2 0x3FE8 JUMP JUMPDEST SWAP2 POP POP SWAP3 SWAP6 SWAP2 SWAP5 POP SWAP3 POP JUMP JUMPDEST PUSH1 0x0 PUSH1 0x1 PUSH1 0x1 PUSH1 0x40 SHL SUB DUP3 GT ISZERO PUSH2 0x4242 JUMPI PUSH2 0x4242 PUSH2 0x3FA2 JUMP JUMPDEST POP PUSH1 0x5 SHL PUSH1 0x20 ADD SWAP1 JUMP JUMPDEST PUSH1 0x0 DUP3 PUSH1 0x1F DUP4 ADD SLT PUSH2 0x425D JUMPI PUSH1 0x0 DUP1 REVERT JUMPDEST DUP2 CALLDATALOAD PUSH1 0x20 PUSH2 0x4272 PUSH2 0x426D DUP4 PUSH2 0x4229 JUMP JUMPDEST PUSH2 0x3FB8 JUMP JUMPDEST DUP3 DUP2 MSTORE PUSH1 0x5 SWAP3 SWAP1 SWAP3 SHL DUP5 ADD DUP2 ADD SWAP2 DUP2 DUP2 ADD SWAP1 DUP7 DUP5 GT ISZERO PUSH2 0x4291 JUMPI PUSH1 0x0 DUP1 REVERT JUMPDEST DUP3 DUP7 ADD JUMPDEST DUP5 DUP2 LT ISZERO PUSH2 0x42D0 JUMPI DUP1 CALLDATALOAD PUSH1 0x1 PUSH1 0x1 PUSH1 0x40 SHL SUB DUP2 GT ISZERO PUSH2 0x42B4 JUMPI PUSH1 0x0 DUP1 DUP2 REVERT JUMPDEST PUSH2 0x42C2 DUP10 DUP7 DUP4 DUP12 ADD ADD PUSH2 0x403F JUMP JUMPDEST DUP5 MSTORE POP SWAP2 DUP4 ADD SWAP2 DUP4 ADD PUSH2 0x4295 JUMP JUMPDEST POP SWAP7 SWAP6 POP POP POP POP POP POP JUMP JUMPDEST PUSH1 0x0 PUSH1 0x20 DUP3 DUP5 SUB SLT ISZERO PUSH2 0x42ED JUMPI PUSH1 0x0 DUP1 REVERT JUMPDEST DUP2 CALLDATALOAD PUSH1 0x1 PUSH1 0x1 PUSH1 0x40 SHL SUB DUP2 GT ISZERO PUSH2 0x4303 JUMPI PUSH1 0x0 DUP1 REVERT JUMPDEST PUSH2 0x2C13 DUP5 DUP3 DUP6 ADD PUSH2 0x424C JUMP JUMPDEST PUSH1 0x0 DUP1 PUSH1 0x40 DUP4 DUP6 SUB SLT ISZERO PUSH2 0x4322 JUMPI PUSH1 0x0 DUP1 REVERT JUMPDEST PUSH2 0x432B DUP4 PUSH2 0x3E39 JUMP JUMPDEST SWAP2 POP PUSH1 0x20 DUP4 ADD CALLDATALOAD PUSH1 0x1 PUSH1 0x1 PUSH1 0x40 SHL SUB DUP2 GT ISZERO PUSH2 0x4346 JUMPI PUSH1 0x0 DUP1 REVERT JUMPDEST PUSH2 0x4352 DUP6 DUP3 DUP7 ADD PUSH2 0x403F JUMP JUMPDEST SWAP2 POP POP SWAP3 POP SWAP3 SWAP1 POP JUMP JUMPDEST PUSH1 0x0 DUP3 PUSH1 0x1F DUP4 ADD SLT PUSH2 0x436D JUMPI PUSH1 0x0 DUP1 REVERT JUMPDEST DUP2 CALLDATALOAD PUSH1 0x20 PUSH2 0x437D PUSH2 0x426D DUP4 PUSH2 0x4229 JUMP JUMPDEST DUP3 DUP2 MSTORE PUSH1 0x5 SWAP3 SWAP1 SWAP3 SHL DUP5 ADD DUP2 ADD SWAP2 DUP2 DUP2 ADD SWAP1 DUP7 DUP5 GT ISZERO PUSH2 0x439C JUMPI PUSH1 0x0 DUP1 REVERT JUMPDEST DUP3 DUP7 ADD JUMPDEST DUP5 DUP2 LT ISZERO PUSH2 0x42D0 JUMPI PUSH2 0x43B1 DUP2 PUSH2 0x3E39 JUMP JUMPDEST DUP4 MSTORE SWAP2 DUP4 ADD SWAP2 DUP4 ADD PUSH2 0x43A0 JUMP JUMPDEST PUSH1 0x0 DUP1 PUSH1 0x0 DUP1 PUSH1 0x80 DUP6 DUP8 SUB SLT ISZERO PUSH2 0x43D4 JUMPI PUSH1 0x0 DUP1 REVERT JUMPDEST DUP5 CALLDATALOAD PUSH1 0x1 PUSH1 0x1 PUSH1 0x40 SHL SUB DUP1 DUP3 GT ISZERO PUSH2 0x43EB JUMPI PUSH1 0x0 DUP1 REVERT JUMPDEST PUSH2 0x43F7 DUP9 DUP4 DUP10 ADD PUSH2 0x424C JUMP JUMPDEST SWAP6 POP PUSH1 0x20 SWAP2 POP DUP2 DUP8 ADD CALLDATALOAD DUP2 DUP2 GT ISZERO PUSH2 0x440E JUMPI PUSH1 0x0 DUP1 REVERT JUMPDEST PUSH2 0x441A DUP10 DUP3 DUP11 ADD PUSH2 0x435C JUMP JUMPDEST SWAP6 POP POP PUSH1 0x40 DUP8 ADD CALLDATALOAD DUP2 DUP2 GT ISZERO PUSH2 0x442F JUMPI PUSH1 0x0 DUP1 REVERT JUMPDEST DUP8 ADD SWAP1 POP PUSH1 0x1F DUP2 ADD DUP9 SGT PUSH2 0x4442 JUMPI PUSH1 0x0 DUP1 REVERT JUMPDEST DUP1 CALLDATALOAD PUSH2 0x4450 PUSH2 0x426D DUP3 PUSH2 0x4229 JUMP JUMPDEST DUP2 DUP2 MSTORE PUSH1 0x5 SWAP2 SWAP1 SWAP2 SHL DUP3 ADD DUP4 ADD SWAP1 DUP4 DUP2 ADD SWAP1 DUP11 DUP4 GT ISZERO PUSH2 0x446F JUMPI PUSH1 0x0 DUP1 REVERT JUMPDEST SWAP3 DUP5 ADD SWAP3 JUMPDEST DUP3 DUP5 LT ISZERO PUSH2 0x448D JUMPI DUP4 CALLDATALOAD DUP3 MSTORE SWAP3 DUP5 ADD SWAP3 SWAP1 DUP5 ADD SWAP1 PUSH2 0x4474 JUMP JUMPDEST DUP1 SWAP7 POP POP POP POP POP POP PUSH2 0x44A1 PUSH1 0x60 DUP7 ADD PUSH2 0x3E39 JUMP JUMPDEST SWAP1 POP SWAP3 SWAP6 SWAP2 SWAP5 POP SWAP3 POP JUMP JUMPDEST PUSH1 0x20 DUP1 DUP3 MSTORE DUP3 MLOAD DUP3 DUP3 ADD DUP2 SWAP1 MSTORE PUSH1 0x0 SWAP2 SWAP1 DUP5 DUP3 ADD SWAP1 PUSH1 0x40 DUP6 ADD SWAP1 DUP5 JUMPDEST DUP2 DUP2 LT ISZERO PUSH2 0x4136 JUMPI DUP4 MLOAD DUP4 MSTORE SWAP3 DUP5 ADD SWAP3 SWAP2 DUP5 ADD SWAP2 PUSH1 0x1 ADD PUSH2 0x44C8 JUMP JUMPDEST PUSH1 0x0 DUP1 PUSH1 0x40 DUP4 DUP6 SUB SLT ISZERO PUSH2 0x44F7 JUMPI PUSH1 0x0 DUP1 REVERT JUMPDEST PUSH2 0x4500 DUP4 PUSH2 0x3E39 JUMP JUMPDEST SWAP2 POP PUSH2 0x450E PUSH1 0x20 DUP5 ADD PUSH2 0x3E39 JUMP JUMPDEST SWAP1 POP SWAP3 POP SWAP3 SWAP1 POP JUMP JUMPDEST PUSH1 0x0 PUSH1 0x20 DUP3 DUP5 SUB SLT ISZERO PUSH2 0x4529 JUMPI PUSH1 0x0 DUP1 REVERT JUMPDEST DUP2 CALLDATALOAD PUSH1 0x1 PUSH1 0x1 PUSH1 0x40 SHL SUB DUP2 GT ISZERO PUSH2 0x453F JUMPI PUSH1 0x0 DUP1 REVERT JUMPDEST PUSH2 0x2C13 DUP5 DUP3 DUP6 ADD PUSH2 0x435C JUMP JUMPDEST PUSH1 0x0 DUP1 PUSH1 0x0 DUP1 PUSH1 0x0 DUP1 PUSH1 0x0 DUP1 PUSH2 0x100 DUP10 DUP12 SUB SLT ISZERO PUSH2 0x4568 JUMPI PUSH1 0x0 DUP1 REVERT JUMPDEST DUP9 CALLDATALOAD PUSH2 0x4573 DUP2 PUSH2 0x3F3B JUMP JUMPDEST SWAP8 POP PUSH1 0x20 DUP10 ADD CALLDATALOAD PUSH2 0x4583 DUP2 PUSH2 0x3F3B JUMP JUMPDEST SWAP7 POP PUSH1 0x40 DUP10 ADD CALLDATALOAD SWAP6 POP PUSH1 0x60 DUP10 ADD CALLDATALOAD PUSH2 0x459A DUP2 PUSH2 0x3F3B JUMP JUMPDEST SWAP5 POP PUSH1 0x80 DUP10 ADD CALLDATALOAD SWAP4 POP PUSH1 0xA0 DUP10 ADD CALLDATALOAD PUSH2 0x45B1 DUP2 PUSH2 0x3F3B JUMP JUMPDEST SWAP3 POP PUSH1 0xC0 DUP10 ADD CALLDATALOAD SWAP2 POP PUSH1 0xE0 DUP10 ADD CALLDATALOAD PUSH1 0x1 PUSH1 0x1 PUSH1 0x40 SHL SUB DUP2 GT ISZERO PUSH2 0x45D3 JUMPI PUSH1 0x0 DUP1 REVERT JUMPDEST PUSH2 0x45DF DUP12 DUP3 DUP13 ADD PUSH2 0x435C JUMP JUMPDEST SWAP2 POP POP SWAP3 SWAP6 SWAP9 POP SWAP3 SWAP6 SWAP9 SWAP1 SWAP4 SWAP7 POP JUMP JUMPDEST PUSH1 0x20 DUP1 DUP3 MSTORE PUSH1 0x11 SWAP1 DUP3 ADD MSTORE PUSH17 0x151C985919481B9BDD08185B1B1BDDD959 PUSH1 0x7A SHL PUSH1 0x40 DUP3 ADD MSTORE PUSH1 0x60 ADD SWAP1 JUMP JUMPDEST PUSH1 0x0 PUSH1 0x20 DUP3 DUP5 SUB SLT ISZERO PUSH2 0x462C JUMPI PUSH1 0x0 DUP1 REVERT JUMPDEST POP MLOAD SWAP2 SWAP1 POP JUMP JUMPDEST PUSH1 0x1 DUP2 DUP2 SHR SWAP1 DUP3 AND DUP1 PUSH2 0x4647 JUMPI PUSH1 0x7F DUP3 AND SWAP2 POP JUMPDEST PUSH1 0x20 DUP3 LT DUP2 SUB PUSH2 0x4667 JUMPI PUSH4 0x4E487B71 PUSH1 0xE0 SHL PUSH1 0x0 MSTORE PUSH1 0x22 PUSH1 0x4 MSTORE PUSH1 0x24 PUSH1 0x0 REVERT JUMPDEST POP SWAP2 SWAP1 POP JUMP JUMPDEST PUSH1 0x0 DUP2 SLOAD PUSH2 0x467A DUP2 PUSH2 0x4633 JUMP JUMPDEST DUP1 DUP6 MSTORE PUSH1 0x20 PUSH1 0x1 DUP4 DUP2 AND DUP1 ISZERO PUSH2 0x4697 JUMPI PUSH1 0x1 DUP2 EQ PUSH2 0x46B1 JUMPI PUSH2 0x46DF JUMP JUMPDEST PUSH1 0xFF NOT DUP6 AND DUP9 DUP5 ADD MSTORE DUP4 ISZERO ISZERO PUSH1 0x5 SHL DUP9 ADD DUP4 ADD SWAP6 POP PUSH2 0x46DF JUMP JUMPDEST DUP7 PUSH1 0x0 MSTORE DUP3 PUSH1 0x0 KECCAK256 PUSH1 0x0 JUMPDEST DUP6 DUP2 LT ISZERO PUSH2 0x46D7 JUMPI DUP2 SLOAD DUP11 DUP3 ADD DUP7 ADD MSTORE SWAP1 DUP4 ADD SWAP1 DUP5 ADD PUSH2 0x46BC JUMP JUMPDEST DUP10 ADD DUP5 ADD SWAP7 POP POP JUMPDEST POP POP POP POP POP SWAP3 SWAP2 POP POP JUMP JUMPDEST PUSH1 0x0 PUSH1 0x1 DUP1 PUSH1 0xA0 SHL SUB DUP1 DUP10 AND DUP4 MSTORE DUP1 DUP9 AND PUSH1 0x20 DUP5 ADD MSTORE DUP7 PUSH1 0x40 DUP5 ADD MSTORE PUSH1 0xC0 PUSH1 0x60 DUP5 ADD MSTORE PUSH2 0x471A PUSH1 0xC0 DUP5 ADD DUP8 PUSH2 0x466D JUMP JUMPDEST SWAP5 AND PUSH1 0x80 DUP4 ADD MSTORE POP PUSH1 0xA0 ADD MSTORE SWAP5 SWAP4 POP POP POP POP JUMP JUMPDEST PUSH4 0x4E487B71 PUSH1 0xE0 SHL PUSH1 0x0 MSTORE PUSH1 0x11 PUSH1 0x4 MSTORE PUSH1 0x24 PUSH1 0x0 REVERT JUMPDEST PUSH1 0x0 PUSH1 0x1 DUP3 ADD PUSH2 0x4756 JUMPI PUSH2 0x4756 PUSH2 0x472E JUMP JUMPDEST POP PUSH1 0x1 ADD SWAP1 JUMP JUMPDEST PUSH4 0x4E487B71 PUSH1 0xE0 SHL PUSH1 0x0 MSTORE PUSH1 0x32 PUSH1 0x4 MSTORE PUSH1 0x24 PUSH1 0x0 REVERT JUMPDEST PUSH1 0x20 DUP1 DUP3 MSTORE PUSH1 0x2D SWAP1 DUP3 ADD MSTORE PUSH32 0x4552433732313A2063616C6C6572206973206E6F7420746F6B656E206F776E65 PUSH1 0x40 DUP3 ADD MSTORE PUSH13 0x1C881BDC88185C1C1C9BDD9959 PUSH1 0x9A SHL PUSH1 0x60 DUP3 ADD MSTORE PUSH1 0x80 ADD SWAP1 JUMP JUMPDEST PUSH1 0x20 DUP1 DUP3 MSTORE PUSH1 0x21 SWAP1 DUP3 ADD MSTORE PUSH32 0x596F752068617665206E6F74207061696420656E6F75676820666F72206D696E PUSH1 0x40 DUP3 ADD MSTORE PUSH1 0x1D PUSH1 0xFA SHL PUSH1 0x60 DUP3 ADD MSTORE PUSH1 0x80 ADD SWAP1 JUMP JUMPDEST PUSH1 0x1 DUP1 PUSH1 0xA0 SHL SUB DUP5 AND DUP2 MSTORE DUP3 PUSH1 0x20 DUP3 ADD MSTORE PUSH1 0x60 PUSH1 0x40 DUP3 ADD MSTORE PUSH1 0x0 PUSH2 0x4828 PUSH1 0x60 DUP4 ADD DUP5 PUSH2 0x3DFA JUMP JUMPDEST SWAP6 SWAP5 POP POP POP POP POP JUMP JUMPDEST PUSH1 0x1 DUP1 PUSH1 0xA0 SHL SUB DUP5 AND DUP2 MSTORE DUP3 PUSH1 0x20 DUP3 ADD MSTORE PUSH1 0x60 PUSH1 0x40 DUP3 ADD MSTORE PUSH1 0x0 PUSH2 0x4828 PUSH1 0x60 DUP4 ADD DUP5 PUSH2 0x466D JUMP JUMPDEST PUSH1 0x1 PUSH1 0x1 PUSH1 0xA0 SHL SUB DUP7 DUP2 AND DUP3 MSTORE DUP6 AND PUSH1 0x20 DUP3 ADD MSTORE PUSH1 0x40 DUP2 ADD DUP5 SWAP1 MSTORE PUSH1 0xA0 PUSH1 0x60 DUP3 ADD DUP2 SWAP1 MSTORE PUSH1 0x0 SWAP1 PUSH2 0x488B SWAP1 DUP4 ADD DUP6 PUSH2 0x466D JUMP JUMPDEST SWAP1 POP DUP3 PUSH1 0x80 DUP4 ADD MSTORE SWAP7 SWAP6 POP POP POP POP POP POP JUMP JUMPDEST PUSH1 0x1F DUP3 GT ISZERO PUSH2 0x1264 JUMPI PUSH1 0x0 DUP2 DUP2 MSTORE PUSH1 0x20 DUP2 KECCAK256 PUSH1 0x1F DUP6 ADD PUSH1 0x5 SHR DUP2 ADD PUSH1 0x20 DUP7 LT ISZERO PUSH2 0x48C4 JUMPI POP DUP1 JUMPDEST PUSH1 0x1F DUP6 ADD PUSH1 0x5 SHR DUP3 ADD SWAP2 POP JUMPDEST DUP2 DUP2 LT ISZERO PUSH2 0x48E3 JUMPI DUP3 DUP2 SSTORE PUSH1 0x1 ADD PUSH2 0x48D0 JUMP JUMPDEST POP POP POP POP POP POP JUMP JUMPDEST DUP2 MLOAD PUSH1 0x1 PUSH1 0x1 PUSH1 0x40 SHL SUB DUP2 GT ISZERO PUSH2 0x4904 JUMPI PUSH2 0x4904 PUSH2 0x3FA2 JUMP JUMPDEST PUSH2 0x4918 DUP2 PUSH2 0x4912 DUP5 SLOAD PUSH2 0x4633 JUMP JUMPDEST DUP5 PUSH2 0x489D JUMP JUMPDEST PUSH1 0x20 DUP1 PUSH1 0x1F DUP4 GT PUSH1 0x1 DUP2 EQ PUSH2 0x494D JUMPI PUSH1 0x0 DUP5 ISZERO PUSH2 0x4935 JUMPI POP DUP6 DUP4 ADD MLOAD JUMPDEST PUSH1 0x0 NOT PUSH1 0x3 DUP7 SWAP1 SHL SHR NOT AND PUSH1 0x1 DUP6 SWAP1 SHL OR DUP6 SSTORE PUSH2 0x48E3 JUMP JUMPDEST PUSH1 0x0 DUP6 DUP2 MSTORE PUSH1 0x20 DUP2 KECCAK256 PUSH1 0x1F NOT DUP7 AND SWAP2 JUMPDEST DUP3 DUP2 LT ISZERO PUSH2 0x497C JUMPI DUP9 DUP7 ADD MLOAD DUP3 SSTORE SWAP5 DUP5 ADD SWAP5 PUSH1 0x1 SWAP1 SWAP2 ADD SWAP1 DUP5 ADD PUSH2 0x495D JUMP JUMPDEST POP DUP6 DUP3 LT ISZERO PUSH2 0x499A JUMPI DUP8 DUP6 ADD MLOAD PUSH1 0x0 NOT PUSH1 0x3 DUP9 SWAP1 SHL PUSH1 0xF8 AND SHR NOT AND DUP2 SSTORE JUMPDEST POP POP POP POP POP PUSH1 0x1 SWAP1 DUP2 SHL ADD SWAP1 SSTORE POP JUMP JUMPDEST PUSH1 0x0 PUSH1 0x1 DUP1 PUSH1 0xA0 SHL SUB DUP1 DUP9 AND DUP4 MSTORE DUP7 PUSH1 0x20 DUP5 ADD MSTORE PUSH1 0xA0 PUSH1 0x40 DUP5 ADD MSTORE PUSH2 0x49D2 PUSH1 0xA0 DUP5 ADD DUP8 PUSH2 0x466D JUMP JUMPDEST SWAP5 AND PUSH1 0x60 DUP4 ADD MSTORE POP PUSH1 0x80 ADD MSTORE SWAP4 SWAP3 POP POP POP JUMP JUMPDEST PUSH1 0x1 DUP1 PUSH1 0xA0 SHL SUB DUP6 AND DUP2 MSTORE DUP4 PUSH1 0x20 DUP3 ADD MSTORE PUSH1 0x80 PUSH1 0x40 DUP3 ADD MSTORE PUSH1 0x0 PUSH2 0x4A0C PUSH1 0x80 DUP4 ADD DUP6 PUSH2 0x466D JUMP JUMPDEST SWAP1 POP DUP3 PUSH1 0x60 DUP4 ADD MSTORE SWAP6 SWAP5 POP POP POP POP POP JUMP JUMPDEST PUSH1 0x0 DUP2 SLOAD PUSH2 0x4A2A DUP2 PUSH2 0x4633 JUMP JUMPDEST PUSH1 0x1 DUP3 DUP2 AND DUP1 ISZERO PUSH2 0x4A42 JUMPI PUSH1 0x1 DUP2 EQ PUSH2 0x4A57 JUMPI PUSH2 0x4A86 JUMP JUMPDEST PUSH1 0xFF NOT DUP5 AND DUP8 MSTORE DUP3 ISZERO ISZERO DUP4 MUL DUP8 ADD SWAP5 POP PUSH2 0x4A86 JUMP JUMPDEST DUP6 PUSH1 0x0 MSTORE PUSH1 0x20 DUP1 PUSH1 0x0 KECCAK256 PUSH1 0x0 JUMPDEST DUP6 DUP2 LT ISZERO PUSH2 0x4A7D JUMPI DUP2 SLOAD DUP11 DUP3 ADD MSTORE SWAP1 DUP5 ADD SWAP1 DUP3 ADD PUSH2 0x4A64 JUMP JUMPDEST POP POP POP DUP3 DUP8 ADD SWAP5 POP JUMPDEST POP POP POP POP SWAP3 SWAP2 POP POP JUMP JUMPDEST PUSH1 0x0 PUSH2 0x4A9C DUP3 DUP7 PUSH2 0x4A1D JUMP JUMPDEST DUP5 MLOAD PUSH2 0x4AAC DUP2 DUP4 PUSH1 0x20 DUP10 ADD PUSH2 0x3DD6 JUMP JUMPDEST PUSH2 0x3B7D DUP2 DUP4 ADD DUP7 PUSH2 0x4A1D JUMP JUMPDEST PUSH1 0x1 DUP1 PUSH1 0xA0 SHL SUB DUP6 AND DUP2 MSTORE DUP4 PUSH1 0x20 DUP3 ADD MSTORE PUSH1 0x80 PUSH1 0x40 DUP3 ADD MSTORE PUSH1 0x0 PUSH2 0x4A0C PUSH1 0x80 DUP4 ADD DUP6 PUSH2 0x3DFA JUMP JUMPDEST PUSH1 0x0 PUSH1 0x1 DUP1 PUSH1 0xA0 SHL SUB DUP1 DUP9 AND DUP4 MSTORE DUP7 PUSH1 0x20 DUP5 ADD MSTORE PUSH1 0xA0 PUSH1 0x40 DUP5 ADD MSTORE PUSH2 0x49D2 PUSH1 0xA0 DUP5 ADD DUP8 PUSH2 0x3DFA JUMP JUMPDEST PUSH1 0x0 PUSH1 0x20 DUP3 DUP5 SUB SLT ISZERO PUSH2 0x4B19 JUMPI PUSH1 0x0 DUP1 REVERT JUMPDEST DUP2 MLOAD PUSH2 0x1789 DUP2 PUSH2 0x3F3B JUMP JUMPDEST PUSH1 0x0 DUP3 PUSH2 0x4B41 JUMPI PUSH4 0x4E487B71 PUSH1 0xE0 SHL PUSH1 0x0 MSTORE PUSH1 0x12 PUSH1 0x4 MSTORE PUSH1 0x24 PUSH1 0x0 REVERT JUMPDEST POP DIV SWAP1 JUMP JUMPDEST DUP1 DUP3 MUL DUP2 ISZERO DUP3 DUP3 DIV DUP5 EQ OR PUSH2 0xBCF JUMPI PUSH2 0xBCF PUSH2 0x472E JUMP JUMPDEST DUP2 DUP2 SUB DUP2 DUP2 GT ISZERO PUSH2 0xBCF JUMPI PUSH2 0xBCF PUSH2 0x472E JUMP JUMPDEST PUSH1 0x20 DUP1 DUP3 MSTORE PUSH1 0x25 SWAP1 DUP3 ADD MSTORE PUSH32 0x4552433732313A207472616E736665722066726F6D20696E636F727265637420 PUSH1 0x40 DUP3 ADD MSTORE PUSH5 0x37BBB732B9 PUSH1 0xD9 SHL PUSH1 0x60 DUP3 ADD MSTORE PUSH1 0x80 ADD SWAP1 JUMP JUMPDEST DUP1 DUP3 ADD DUP1 DUP3 GT ISZERO PUSH2 0xBCF JUMPI PUSH2 0xBCF PUSH2 0x472E JUMP JUMPDEST PUSH1 0x20 DUP1 DUP3 MSTORE PUSH1 0x32 SWAP1 DUP3 ADD MSTORE PUSH32 0x4552433732313A207472616E7366657220746F206E6F6E204552433732315265 PUSH1 0x40 DUP3 ADD MSTORE PUSH18 0x31B2B4BB32B91034B6B83632B6B2B73A32B9 PUSH1 0x71 SHL PUSH1 0x60 DUP3 ADD MSTORE PUSH1 0x80 ADD SWAP1 JUMP JUMPDEST PUSH1 0x1 PUSH1 0x1 PUSH1 0xA0 SHL SUB DUP6 DUP2 AND DUP3 MSTORE DUP5 AND PUSH1 0x20 DUP3 ADD MSTORE PUSH1 0x40 DUP2 ADD DUP4 SWAP1 MSTORE PUSH1 0x80 PUSH1 0x60 DUP3 ADD DUP2 SWAP1 MSTORE PUSH1 0x0 SWAP1 PUSH2 0x4C4D SWAP1 DUP4 ADD DUP5 PUSH2 0x3DFA JUMP JUMPDEST SWAP7 SWAP6 POP POP POP POP POP POP JUMP JUMPDEST PUSH1 0x0 PUSH1 0x20 DUP3 DUP5 SUB SLT ISZERO PUSH2 0x4C69 JUMPI PUSH1 0x0 DUP1 REVERT JUMPDEST DUP2 MLOAD PUSH2 0x1789 DUP2 PUSH2 0x3D8A JUMP JUMPDEST PUSH1 0x0 DUP3 MLOAD PUSH2 0x4C86 DUP2 DUP5 PUSH1 0x20 DUP8 ADD PUSH2 0x3DD6 JUMP JUMPDEST SWAP2 SWAP1 SWAP2 ADD SWAP3 SWAP2 POP POP JUMP INVALID LOG2 PUSH5 0x6970667358 0x22 SLT KECCAK256 CALLVALUE SWAP14 LOG3 0xB8 0x28 PUSH12 0x9B2BB37764BCDC7498D7BA59 0x4B CHAINID RETURN LOG3 0x2D JUMP 0xDB 0xDA BLOCKHASH DIV PUSH13 0xE4E43564736F6C634300081300 CALLER "
		},
		"gasEstimates": {
			"creation": {
				"codeDepositCost": "3930800",
				"executionCost": "infinite",
				"totalCost": "infinite"
			},
			"external": {
				"MAX_SUPPLY()": "2385",
				"addBlackList(address)": "26865",
				"approve(address,uint256)": "infinite",
				"balanceOf(address)": "2723",
				"bankAmount()": "306",
				"bankAmountERC20(address)": "infinite",
				"burn(uint256)": "infinite",
				"buyNFT(uint256)": "infinite",
				"buyNFTbyERC20(uint256)": "infinite",
				"deSellNFT(uint256)": "infinite",
				"flushRandom(bytes32)": "59660",
				"getAllowMint()": "2427",
				"getAllowMintOur()": "2416",
				"getAllowTrade()": "2383",
				"getAllowUserSale()": "2393",
				"getAllowedERC20()": "infinite",
				"getApproved(uint256)": "4860",
				"getBaseURI()": "infinite",
				"getMintOwnPrice()": "2405",
				"getMintPrice()": "2360",
				"getMintUris()": "infinite",
				"getMyTokensAtSale()": "infinite",
				"getTokensAtSale()": "infinite",
				"getTradeFee()": "2405",
				"getUserTokensAtSale(address)": "infinite",
				"isAllowedERC20(address)": "infinite",
				"isApprovedForAll(address,address)": "infinite",
				"isBlacklisted(address)": "2648",
				"isNFTStakeToken()": "259",
				"maxSupply()": "2382",
				"mint(address,string)": "infinite",
				"mintNFT(address,string)": "infinite",
				"mintNFTForSell(string[],address[],uint256[],address)": "infinite",
				"mintRandom(bytes32)": "infinite",
				"name()": "infinite",
				"owner()": "2422",
				"ownerOf(uint256)": "2672",
				"removeBlackList(address)": "26835",
				"renounceOwnership()": "infinite",
				"safeTransferFrom(address,address,uint256)": "infinite",
				"safeTransferFrom(address,address,uint256,bytes)": "infinite",
				"sellNFT(uint256,uint256,address)": "infinite",
				"setAllowMint(bool)": "26799",
				"setAllowMintOwn(bool)": "26767",
				"setAllowTrade(bool)": "26755",
				"setAllowUserSale(bool)": "26792",
				"setAllowedERC20(address[])": "infinite",
				"setApprovalForAll(address,bool)": "26824",
				"setBaseURI(string)": "infinite",
				"setMaxSupply(uint256)": "24600",
				"setMintOwnPrice(uint256)": "24600",
				"setMintPrice(uint256)": "24599",
				"setMintUris(string[])": "infinite",
				"setNewOptions(bool,bool,uint256,bool,uint256,bool,uint256,address[])": "infinite",
				"setTradeFee(uint256)": "24601",
				"supportsInterface(bytes4)": "580",
				"symbol()": "infinite",
				"tokenURI(uint256)": "infinite",
				"totalSupply()": "2465",
				"transferFrom(address,address,uint256)": "infinite",
				"transferOwnership(address)": "28403",
				"version()": "2363",
				"withdrawBank()": "infinite",
				"withdrawBankERC20(address)": "infinite"
			},
			"internal": {
				"_clearSellToken(uint256)": "infinite",
				"fixTotalSupply()": "28512",
				"getAllowance(address)": "infinite",
				"getRandom(bytes32,uint256)": "infinite"
			}
		},
		"methodIdentifiers": {
			"MAX_SUPPLY()": "32cb6b0c",
			"addBlackList(address)": "0ecb93c0",
			"approve(address,uint256)": "095ea7b3",
			"balanceOf(address)": "70a08231",
			"bankAmount()": "b42a275e",
			"bankAmountERC20(address)": "476caa70",
			"burn(uint256)": "42966c68",
			"buyNFT(uint256)": "51ed8288",
			"buyNFTbyERC20(uint256)": "047a5d43",
			"deSellNFT(uint256)": "512ddcf9",
			"flushRandom(bytes32)": "f7e944ee",
			"getAllowMint()": "a6fde7ab",
			"getAllowMintOur()": "ddbfc0d2",
			"getAllowTrade()": "ad3ea47e",
			"getAllowUserSale()": "c399748d",
			"getAllowedERC20()": "69c57352",
			"getApproved(uint256)": "081812fc",
			"getBaseURI()": "714c5398",
			"getMintOwnPrice()": "1f05ad94",
			"getMintPrice()": "a7f93ebd",
			"getMintUris()": "65f5f661",
			"getMyTokensAtSale()": "a096c5a2",
			"getTokensAtSale()": "d55a34e4",
			"getTradeFee()": "952977f5",
			"getUserTokensAtSale(address)": "19c8c1c5",
			"isAllowedERC20(address)": "785fa7ce",
			"isApprovedForAll(address,address)": "e985e9c5",
			"isBlacklisted(address)": "fe575a87",
			"isNFTStakeToken()": "8c7eb38e",
			"maxSupply()": "d5abeb01",
			"mint(address,string)": "d0def521",
			"mintNFT(address,string)": "eacabe14",
			"mintNFTForSell(string[],address[],uint256[],address)": "e1e767e6",
			"mintRandom(bytes32)": "31af3886",
			"name()": "06fdde03",
			"owner()": "8da5cb5b",
			"ownerOf(uint256)": "6352211e",
			"removeBlackList(address)": "e4997dc5",
			"renounceOwnership()": "715018a6",
			"safeTransferFrom(address,address,uint256)": "42842e0e",
			"safeTransferFrom(address,address,uint256,bytes)": "b88d4fde",
			"sellNFT(uint256,uint256,address)": "7c237eea",
			"setAllowMint(bool)": "5e81078d",
			"setAllowMintOwn(bool)": "f9b45cc0",
			"setAllowTrade(bool)": "9fd5d2ab",
			"setAllowUserSale(bool)": "1a3074dc",
			"setAllowedERC20(address[])": "e9e4e160",
			"setApprovalForAll(address,bool)": "a22cb465",
			"setBaseURI(string)": "55f804b3",
			"setMaxSupply(uint256)": "6f8b44b0",
			"setMintOwnPrice(uint256)": "35d4abde",
			"setMintPrice(uint256)": "f4a0a528",
			"setMintUris(string[])": "bda8d370",
			"setNewOptions(bool,bool,uint256,bool,uint256,bool,uint256,address[])": "f3985f10",
			"setTradeFee(uint256)": "10603023",
			"supportsInterface(bytes4)": "01ffc9a7",
			"symbol()": "95d89b41",
			"tokenURI(uint256)": "c87b56dd",
			"totalSupply()": "18160ddd",
			"transferFrom(address,address,uint256)": "23b872dd",
			"transferOwnership(address)": "f2fde38b",
			"version()": "54fd4d50",
			"withdrawBank()": "ff7f0cf9",
			"withdrawBankERC20(address)": "fcf984a9"
		}
	},
	"abi": [
		{
			"inputs": [
				{
					"internalType": "string",
					"name": "__symbol",
					"type": "string"
				},
				{
					"internalType": "string",
					"name": "__name",
					"type": "string"
				},
				{
					"internalType": "string",
					"name": "__baseUri",
					"type": "string"
				},
				{
					"internalType": "uint256",
					"name": "__maxSupply",
					"type": "uint256"
				},
				{
					"internalType": "uint256",
					"name": "__mintPrice",
					"type": "uint256"
				},
				{
					"internalType": "bool",
					"name": "__allowTrade",
					"type": "bool"
				},
				{
					"internalType": "bool",
					"name": "__allowUserSale",
					"type": "bool"
				},
				{
					"internalType": "uint256",
					"name": "__tradeFee",
					"type": "uint256"
				},
				{
					"internalType": "bool",
					"name": "__allowMint",
					"type": "bool"
				},
				{
					"internalType": "address[]",
					"name": "__allowedERC20",
					"type": "address[]"
				}
			],
			"stateMutability": "nonpayable",
			"type": "constructor"
		},
		{
			"anonymous": false,
			"inputs": [
				{
					"indexed": true,
					"internalType": "address",
					"name": "owner",
					"type": "address"
				},
				{
					"indexed": true,
					"internalType": "address",
					"name": "approved",
					"type": "address"
				},
				{
					"indexed": true,
					"internalType": "uint256",
					"name": "tokenId",
					"type": "uint256"
				}
			],
			"name": "Approval",
			"type": "event"
		},
		{
			"anonymous": false,
			"inputs": [
				{
					"indexed": true,
					"internalType": "address",
					"name": "owner",
					"type": "address"
				},
				{
					"indexed": true,
					"internalType": "address",
					"name": "operator",
					"type": "address"
				},
				{
					"indexed": false,
					"internalType": "bool",
					"name": "approved",
					"type": "bool"
				}
			],
			"name": "ApprovalForAll",
			"type": "event"
		},
		{
			"anonymous": false,
			"inputs": [
				{
					"indexed": false,
					"internalType": "address",
					"name": "owner",
					"type": "address"
				},
				{
					"indexed": false,
					"internalType": "address",
					"name": "buyer",
					"type": "address"
				},
				{
					"indexed": false,
					"internalType": "uint256",
					"name": "tokenId",
					"type": "uint256"
				},
				{
					"indexed": false,
					"internalType": "string",
					"name": "tokenUri",
					"type": "string"
				},
				{
					"indexed": false,
					"internalType": "uint256",
					"name": "price",
					"type": "uint256"
				}
			],
			"name": "Buy",
			"type": "event"
		},
		{
			"anonymous": false,
			"inputs": [
				{
					"indexed": false,
					"internalType": "address",
					"name": "owner",
					"type": "address"
				},
				{
					"indexed": false,
					"internalType": "address",
					"name": "buyer",
					"type": "address"
				},
				{
					"indexed": false,
					"internalType": "uint256",
					"name": "tokenId",
					"type": "uint256"
				},
				{
					"indexed": false,
					"internalType": "string",
					"name": "tokenUri",
					"type": "string"
				},
				{
					"indexed": false,
					"internalType": "address",
					"name": "erc20",
					"type": "address"
				},
				{
					"indexed": false,
					"internalType": "uint256",
					"name": "price",
					"type": "uint256"
				}
			],
			"name": "BuyWithERC20",
			"type": "event"
		},
		{
			"anonymous": false,
			"inputs": [
				{
					"indexed": false,
					"internalType": "address",
					"name": "owner",
					"type": "address"
				},
				{
					"indexed": false,
					"internalType": "uint256",
					"name": "tokenId",
					"type": "uint256"
				},
				{
					"indexed": false,
					"internalType": "string",
					"name": "tokenUri",
					"type": "string"
				}
			],
			"name": "Mint",
			"type": "event"
		},
		{
			"anonymous": false,
			"inputs": [
				{
					"indexed": true,
					"internalType": "address",
					"name": "previousOwner",
					"type": "address"
				},
				{
					"indexed": true,
					"internalType": "address",
					"name": "newOwner",
					"type": "address"
				}
			],
			"name": "OwnershipTransferred",
			"type": "event"
		},
		{
			"anonymous": false,
			"inputs": [
				{
					"indexed": false,
					"internalType": "address",
					"name": "owner",
					"type": "address"
				},
				{
					"indexed": false,
					"internalType": "uint256",
					"name": "tokenId",
					"type": "uint256"
				},
				{
					"indexed": false,
					"internalType": "string",
					"name": "tokenUri",
					"type": "string"
				},
				{
					"indexed": false,
					"internalType": "uint256",
					"name": "price",
					"type": "uint256"
				}
			],
			"name": "PutUpForSale",
			"type": "event"
		},
		{
			"anonymous": false,
			"inputs": [
				{
					"indexed": false,
					"internalType": "address",
					"name": "owner",
					"type": "address"
				},
				{
					"indexed": false,
					"internalType": "uint256",
					"name": "tokenId",
					"type": "uint256"
				},
				{
					"indexed": false,
					"internalType": "string",
					"name": "tokenUri",
					"type": "string"
				},
				{
					"indexed": false,
					"internalType": "address",
					"name": "erc20",
					"type": "address"
				},
				{
					"indexed": false,
					"internalType": "uint256",
					"name": "price",
					"type": "uint256"
				}
			],
			"name": "PutUpForSaleWithERC20",
			"type": "event"
		},
		{
			"anonymous": false,
			"inputs": [
				{
					"indexed": true,
					"internalType": "address",
					"name": "from",
					"type": "address"
				},
				{
					"indexed": true,
					"internalType": "address",
					"name": "to",
					"type": "address"
				},
				{
					"indexed": true,
					"internalType": "uint256",
					"name": "tokenId",
					"type": "uint256"
				}
			],
			"name": "Transfer",
			"type": "event"
		},
		{
			"anonymous": false,
			"inputs": [
				{
					"indexed": false,
					"internalType": "address",
					"name": "to",
					"type": "address"
				},
				{
					"indexed": false,
					"internalType": "uint256",
					"name": "amount",
					"type": "uint256"
				}
			],
			"name": "WithdrawBank",
			"type": "event"
		},
		{
			"anonymous": false,
			"inputs": [
				{
					"indexed": false,
					"internalType": "address",
					"name": "owner",
					"type": "address"
				},
				{
					"indexed": false,
					"internalType": "uint256",
					"name": "tokenId",
					"type": "uint256"
				},
				{
					"indexed": false,
					"internalType": "string",
					"name": "tokenUri",
					"type": "string"
				}
			],
			"name": "WithdrawFromSale",
			"type": "event"
		},
		{
			"inputs": [],
			"name": "MAX_SUPPLY",
			"outputs": [
				{
					"internalType": "uint256",
					"name": "",
					"type": "uint256"
				}
			],
			"stateMutability": "view",
			"type": "function"
		},
		{
			"inputs": [
				{
					"internalType": "address",
					"name": "user",
					"type": "address"
				}
			],
			"name": "addBlackList",
			"outputs": [],
			"stateMutability": "nonpayable",
			"type": "function"
		},
		{
			"inputs": [
				{
					"internalType": "address",
					"name": "to",
					"type": "address"
				},
				{
					"internalType": "uint256",
					"name": "tokenId",
					"type": "uint256"
				}
			],
			"name": "approve",
			"outputs": [],
			"stateMutability": "nonpayable",
			"type": "function"
		},
		{
			"inputs": [
				{
					"internalType": "address",
					"name": "owner",
					"type": "address"
				}
			],
			"name": "balanceOf",
			"outputs": [
				{
					"internalType": "uint256",
					"name": "",
					"type": "uint256"
				}
			],
			"stateMutability": "view",
			"type": "function"
		},
		{
			"inputs": [],
			"name": "bankAmount",
			"outputs": [
				{
					"internalType": "uint256",
					"name": "",
					"type": "uint256"
				}
			],
			"stateMutability": "view",
			"type": "function"
		},
		{
			"inputs": [
				{
					"internalType": "address",
					"name": "erc20",
					"type": "address"
				}
			],
			"name": "bankAmountERC20",
			"outputs": [
				{
					"internalType": "uint256",
					"name": "",
					"type": "uint256"
				}
			],
			"stateMutability": "view",
			"type": "function"
		},
		{
			"inputs": [
				{
					"internalType": "uint256",
					"name": "tokenId",
					"type": "uint256"
				}
			],
			"name": "burn",
			"outputs": [],
			"stateMutability": "nonpayable",
			"type": "function"
		},
		{
			"inputs": [
				{
					"internalType": "uint256",
					"name": "_tokenId",
					"type": "uint256"
				}
			],
			"name": "buyNFT",
			"outputs": [],
			"stateMutability": "payable",
			"type": "function"
		},
		{
			"inputs": [
				{
					"internalType": "uint256",
					"name": "_tokenId",
					"type": "uint256"
				}
			],
			"name": "buyNFTbyERC20",
			"outputs": [],
			"stateMutability": "nonpayable",
			"type": "function"
		},
		{
			"inputs": [
				{
					"internalType": "uint256",
					"name": "_tokenId",
					"type": "uint256"
				}
			],
			"name": "deSellNFT",
			"outputs": [],
			"stateMutability": "nonpayable",
			"type": "function"
		},
		{
			"inputs": [
				{
					"internalType": "bytes32",
					"name": "_flushSeed",
					"type": "bytes32"
				}
			],
			"name": "flushRandom",
			"outputs": [],
			"stateMutability": "nonpayable",
			"type": "function"
		},
		{
			"inputs": [],
			"name": "getAllowMint",
			"outputs": [
				{
					"internalType": "bool",
					"name": "",
					"type": "bool"
				}
			],
			"stateMutability": "view",
			"type": "function"
		},
		{
			"inputs": [],
			"name": "getAllowMintOur",
			"outputs": [
				{
					"internalType": "bool",
					"name": "",
					"type": "bool"
				}
			],
			"stateMutability": "view",
			"type": "function"
		},
		{
			"inputs": [],
			"name": "getAllowTrade",
			"outputs": [
				{
					"internalType": "bool",
					"name": "",
					"type": "bool"
				}
			],
			"stateMutability": "view",
			"type": "function"
		},
		{
			"inputs": [],
			"name": "getAllowUserSale",
			"outputs": [
				{
					"internalType": "bool",
					"name": "",
					"type": "bool"
				}
			],
			"stateMutability": "view",
			"type": "function"
		},
		{
			"inputs": [],
			"name": "getAllowedERC20",
			"outputs": [
				{
					"internalType": "address[]",
					"name": "",
					"type": "address[]"
				}
			],
			"stateMutability": "view",
			"type": "function"
		},
		{
			"inputs": [
				{
					"internalType": "uint256",
					"name": "tokenId",
					"type": "uint256"
				}
			],
			"name": "getApproved",
			"outputs": [
				{
					"internalType": "address",
					"name": "",
					"type": "address"
				}
			],
			"stateMutability": "view",
			"type": "function"
		},
		{
			"inputs": [],
			"name": "getBaseURI",
			"outputs": [
				{
					"internalType": "string",
					"name": "",
					"type": "string"
				}
			],
			"stateMutability": "view",
			"type": "function"
		},
		{
			"inputs": [],
			"name": "getMintOwnPrice",
			"outputs": [
				{
					"internalType": "uint256",
					"name": "",
					"type": "uint256"
				}
			],
			"stateMutability": "view",
			"type": "function"
		},
		{
			"inputs": [],
			"name": "getMintPrice",
			"outputs": [
				{
					"internalType": "uint256",
					"name": "",
					"type": "uint256"
				}
			],
			"stateMutability": "view",
			"type": "function"
		},
		{
			"inputs": [],
			"name": "getMintUris",
			"outputs": [
				{
					"internalType": "string[]",
					"name": "",
					"type": "string[]"
				}
			],
			"stateMutability": "view",
			"type": "function"
		},
		{
			"inputs": [],
			"name": "getMyTokensAtSale",
			"outputs": [
				{
					"components": [
						{
							"internalType": "uint256",
							"name": "tokenId",
							"type": "uint256"
						},
						{
							"internalType": "string",
							"name": "uri",
							"type": "string"
						},
						{
							"internalType": "address",
							"name": "seller",
							"type": "address"
						},
						{
							"internalType": "uint256",
							"name": "price",
							"type": "uint256"
						},
						{
							"internalType": "address",
							"name": "erc20",
							"type": "address"
						}
					],
					"internalType": "struct StakeNFT.SelledNFT[]",
					"name": "ret",
					"type": "tuple[]"
				}
			],
			"stateMutability": "view",
			"type": "function"
		},
		{
			"inputs": [],
			"name": "getTokensAtSale",
			"outputs": [
				{
					"components": [
						{
							"internalType": "uint256",
							"name": "tokenId",
							"type": "uint256"
						},
						{
							"internalType": "string",
							"name": "uri",
							"type": "string"
						},
						{
							"internalType": "address",
							"name": "seller",
							"type": "address"
						},
						{
							"internalType": "uint256",
							"name": "price",
							"type": "uint256"
						},
						{
							"internalType": "address",
							"name": "erc20",
							"type": "address"
						}
					],
					"internalType": "struct StakeNFT.SelledNFT[]",
					"name": "ret",
					"type": "tuple[]"
				}
			],
			"stateMutability": "view",
			"type": "function"
		},
		{
			"inputs": [],
			"name": "getTradeFee",
			"outputs": [
				{
					"internalType": "uint256",
					"name": "",
					"type": "uint256"
				}
			],
			"stateMutability": "view",
			"type": "function"
		},
		{
			"inputs": [
				{
					"internalType": "address",
					"name": "seller",
					"type": "address"
				}
			],
			"name": "getUserTokensAtSale",
			"outputs": [
				{
					"components": [
						{
							"internalType": "uint256",
							"name": "tokenId",
							"type": "uint256"
						},
						{
							"internalType": "string",
							"name": "uri",
							"type": "string"
						},
						{
							"internalType": "address",
							"name": "seller",
							"type": "address"
						},
						{
							"internalType": "uint256",
							"name": "price",
							"type": "uint256"
						},
						{
							"internalType": "address",
							"name": "erc20",
							"type": "address"
						}
					],
					"internalType": "struct StakeNFT.SelledNFT[]",
					"name": "ret",
					"type": "tuple[]"
				}
			],
			"stateMutability": "view",
			"type": "function"
		},
		{
			"inputs": [
				{
					"internalType": "address",
					"name": "erc20",
					"type": "address"
				}
			],
			"name": "isAllowedERC20",
			"outputs": [
				{
					"internalType": "bool",
					"name": "",
					"type": "bool"
				}
			],
			"stateMutability": "view",
			"type": "function"
		},
		{
			"inputs": [
				{
					"internalType": "address",
					"name": "owner",
					"type": "address"
				},
				{
					"internalType": "address",
					"name": "operator",
					"type": "address"
				}
			],
			"name": "isApprovedForAll",
			"outputs": [
				{
					"internalType": "bool",
					"name": "",
					"type": "bool"
				}
			],
			"stateMutability": "view",
			"type": "function"
		},
		{
			"inputs": [
				{
					"internalType": "address",
					"name": "user",
					"type": "address"
				}
			],
			"name": "isBlacklisted",
			"outputs": [
				{
					"internalType": "bool",
					"name": "",
					"type": "bool"
				}
			],
			"stateMutability": "view",
			"type": "function"
		},
		{
			"inputs": [],
			"name": "isNFTStakeToken",
			"outputs": [
				{
					"internalType": "bool",
					"name": "",
					"type": "bool"
				}
			],
			"stateMutability": "view",
			"type": "function"
		},
		{
			"inputs": [],
			"name": "maxSupply",
			"outputs": [
				{
					"internalType": "uint256",
					"name": "",
					"type": "uint256"
				}
			],
			"stateMutability": "view",
			"type": "function"
		},
		{
			"inputs": [
				{
					"internalType": "address",
					"name": "recipient",
					"type": "address"
				},
				{
					"internalType": "string",
					"name": "tokenURI",
					"type": "string"
				}
			],
			"name": "mint",
			"outputs": [
				{
					"internalType": "uint256",
					"name": "",
					"type": "uint256"
				}
			],
			"stateMutability": "payable",
			"type": "function"
		},
		{
			"inputs": [
				{
					"internalType": "address",
					"name": "recipient",
					"type": "address"
				},
				{
					"internalType": "string",
					"name": "tokenURI",
					"type": "string"
				}
			],
			"name": "mintNFT",
			"outputs": [
				{
					"internalType": "uint256",
					"name": "",
					"type": "uint256"
				}
			],
			"stateMutability": "nonpayable",
			"type": "function"
		},
		{
			"inputs": [
				{
					"internalType": "string[]",
					"name": "tokenURIs",
					"type": "string[]"
				},
				{
					"internalType": "address[]",
					"name": "erc20",
					"type": "address[]"
				},
				{
					"internalType": "uint256[]",
					"name": "prices",
					"type": "uint256[]"
				},
				{
					"internalType": "address",
					"name": "seller",
					"type": "address"
				}
			],
			"name": "mintNFTForSell",
			"outputs": [
				{
					"internalType": "uint256[]",
					"name": "",
					"type": "uint256[]"
				}
			],
			"stateMutability": "nonpayable",
			"type": "function"
		},
		{
			"inputs": [
				{
					"internalType": "bytes32",
					"name": "_seed",
					"type": "bytes32"
				}
			],
			"name": "mintRandom",
			"outputs": [
				{
					"internalType": "uint256",
					"name": "",
					"type": "uint256"
				}
			],
			"stateMutability": "payable",
			"type": "function"
		},
		{
			"inputs": [],
			"name": "name",
			"outputs": [
				{
					"internalType": "string",
					"name": "",
					"type": "string"
				}
			],
			"stateMutability": "view",
			"type": "function"
		},
		{
			"inputs": [],
			"name": "owner",
			"outputs": [
				{
					"internalType": "address",
					"name": "",
					"type": "address"
				}
			],
			"stateMutability": "view",
			"type": "function"
		},
		{
			"inputs": [
				{
					"internalType": "uint256",
					"name": "tokenId",
					"type": "uint256"
				}
			],
			"name": "ownerOf",
			"outputs": [
				{
					"internalType": "address",
					"name": "",
					"type": "address"
				}
			],
			"stateMutability": "view",
			"type": "function"
		},
		{
			"inputs": [
				{
					"internalType": "address",
					"name": "user",
					"type": "address"
				}
			],
			"name": "removeBlackList",
			"outputs": [],
			"stateMutability": "nonpayable",
			"type": "function"
		},
		{
			"inputs": [],
			"name": "renounceOwnership",
			"outputs": [],
			"stateMutability": "nonpayable",
			"type": "function"
		},
		{
			"inputs": [
				{
					"internalType": "address",
					"name": "from",
					"type": "address"
				},
				{
					"internalType": "address",
					"name": "to",
					"type": "address"
				},
				{
					"internalType": "uint256",
					"name": "tokenId",
					"type": "uint256"
				}
			],
			"name": "safeTransferFrom",
			"outputs": [],
			"stateMutability": "nonpayable",
			"type": "function"
		},
		{
			"inputs": [
				{
					"internalType": "address",
					"name": "from",
					"type": "address"
				},
				{
					"internalType": "address",
					"name": "to",
					"type": "address"
				},
				{
					"internalType": "uint256",
					"name": "tokenId",
					"type": "uint256"
				},
				{
					"internalType": "bytes",
					"name": "data",
					"type": "bytes"
				}
			],
			"name": "safeTransferFrom",
			"outputs": [],
			"stateMutability": "nonpayable",
			"type": "function"
		},
		{
			"inputs": [
				{
					"internalType": "uint256",
					"name": "_tokenId",
					"type": "uint256"
				},
				{
					"internalType": "uint256",
					"name": "price",
					"type": "uint256"
				},
				{
					"internalType": "address",
					"name": "_erc20",
					"type": "address"
				}
			],
			"name": "sellNFT",
			"outputs": [],
			"stateMutability": "nonpayable",
			"type": "function"
		},
		{
			"inputs": [
				{
					"internalType": "bool",
					"name": "_newAllowMint",
					"type": "bool"
				}
			],
			"name": "setAllowMint",
			"outputs": [],
			"stateMutability": "nonpayable",
			"type": "function"
		},
		{
			"inputs": [
				{
					"internalType": "bool",
					"name": "_newValue",
					"type": "bool"
				}
			],
			"name": "setAllowMintOwn",
			"outputs": [],
			"stateMutability": "nonpayable",
			"type": "function"
		},
		{
			"inputs": [
				{
					"internalType": "bool",
					"name": "_newAllowTrade",
					"type": "bool"
				}
			],
			"name": "setAllowTrade",
			"outputs": [],
			"stateMutability": "nonpayable",
			"type": "function"
		},
		{
			"inputs": [
				{
					"internalType": "bool",
					"name": "_newAllowUserSale",
					"type": "bool"
				}
			],
			"name": "setAllowUserSale",
			"outputs": [],
			"stateMutability": "nonpayable",
			"type": "function"
		},
		{
			"inputs": [
				{
					"internalType": "address[]",
					"name": "newAllowedERC20",
					"type": "address[]"
				}
			],
			"name": "setAllowedERC20",
			"outputs": [],
			"stateMutability": "nonpayable",
			"type": "function"
		},
		{
			"inputs": [
				{
					"internalType": "address",
					"name": "operator",
					"type": "address"
				},
				{
					"internalType": "bool",
					"name": "approved",
					"type": "bool"
				}
			],
			"name": "setApprovalForAll",
			"outputs": [],
			"stateMutability": "nonpayable",
			"type": "function"
		},
		{
			"inputs": [
				{
					"internalType": "string",
					"name": "__baseUri",
					"type": "string"
				}
			],
			"name": "setBaseURI",
			"outputs": [],
			"stateMutability": "nonpayable",
			"type": "function"
		},
		{
			"inputs": [
				{
					"internalType": "uint256",
					"name": "_newMaxSupply",
					"type": "uint256"
				}
			],
			"name": "setMaxSupply",
			"outputs": [],
			"stateMutability": "nonpayable",
			"type": "function"
		},
		{
			"inputs": [
				{
					"internalType": "uint256",
					"name": "_newValue",
					"type": "uint256"
				}
			],
			"name": "setMintOwnPrice",
			"outputs": [],
			"stateMutability": "nonpayable",
			"type": "function"
		},
		{
			"inputs": [
				{
					"internalType": "uint256",
					"name": "_newMintPrice",
					"type": "uint256"
				}
			],
			"name": "setMintPrice",
			"outputs": [],
			"stateMutability": "nonpayable",
			"type": "function"
		},
		{
			"inputs": [
				{
					"internalType": "string[]",
					"name": "newMintUris",
					"type": "string[]"
				}
			],
			"name": "setMintUris",
			"outputs": [],
			"stateMutability": "nonpayable",
			"type": "function"
		},
		{
			"inputs": [
				{
					"internalType": "bool",
					"name": "__allowTrade",
					"type": "bool"
				},
				{
					"internalType": "bool",
					"name": "__allowUserSale",
					"type": "bool"
				},
				{
					"internalType": "uint256",
					"name": "__tradeFee",
					"type": "uint256"
				},
				{
					"internalType": "bool",
					"name": "__allowMint",
					"type": "bool"
				},
				{
					"internalType": "uint256",
					"name": "__mintPrice",
					"type": "uint256"
				},
				{
					"internalType": "bool",
					"name": "__allowOwnMint",
					"type": "bool"
				},
				{
					"internalType": "uint256",
					"name": "__ownMintPrice",
					"type": "uint256"
				},
				{
					"internalType": "address[]",
					"name": "__allowedERC20",
					"type": "address[]"
				}
			],
			"name": "setNewOptions",
			"outputs": [],
			"stateMutability": "nonpayable",
			"type": "function"
		},
		{
			"inputs": [
				{
					"internalType": "uint256",
					"name": "_newTradeFee",
					"type": "uint256"
				}
			],
			"name": "setTradeFee",
			"outputs": [],
			"stateMutability": "nonpayable",
			"type": "function"
		},
		{
			"inputs": [
				{
					"internalType": "bytes4",
					"name": "interfaceId",
					"type": "bytes4"
				}
			],
			"name": "supportsInterface",
			"outputs": [
				{
					"internalType": "bool",
					"name": "",
					"type": "bool"
				}
			],
			"stateMutability": "view",
			"type": "function"
		},
		{
			"inputs": [],
			"name": "symbol",
			"outputs": [
				{
					"internalType": "string",
					"name": "",
					"type": "string"
				}
			],
			"stateMutability": "view",
			"type": "function"
		},
		{
			"inputs": [
				{
					"internalType": "uint256",
					"name": "tokenId",
					"type": "uint256"
				}
			],
			"name": "tokenURI",
			"outputs": [
				{
					"internalType": "string",
					"name": "",
					"type": "string"
				}
			],
			"stateMutability": "view",
			"type": "function"
		},
		{
			"inputs": [],
			"name": "totalSupply",
			"outputs": [
				{
					"internalType": "uint256",
					"name": "",
					"type": "uint256"
				}
			],
			"stateMutability": "view",
			"type": "function"
		},
		{
			"inputs": [
				{
					"internalType": "address",
					"name": "from",
					"type": "address"
				},
				{
					"internalType": "address",
					"name": "to",
					"type": "address"
				},
				{
					"internalType": "uint256",
					"name": "tokenId",
					"type": "uint256"
				}
			],
			"name": "transferFrom",
			"outputs": [],
			"stateMutability": "nonpayable",
			"type": "function"
		},
		{
			"inputs": [
				{
					"internalType": "address",
					"name": "newOwner",
					"type": "address"
				}
			],
			"name": "transferOwnership",
			"outputs": [],
			"stateMutability": "nonpayable",
			"type": "function"
		},
		{
			"inputs": [],
			"name": "version",
			"outputs": [
				{
					"internalType": "uint256",
					"name": "",
					"type": "uint256"
				}
			],
			"stateMutability": "view",
			"type": "function"
		},
		{
			"inputs": [],
			"name": "withdrawBank",
			"outputs": [],
			"stateMutability": "nonpayable",
			"type": "function"
		},
		{
			"inputs": [
				{
					"internalType": "address",
					"name": "erc20",
					"type": "address"
				}
			],
			"name": "withdrawBankERC20",
			"outputs": [],
			"stateMutability": "nonpayable",
			"type": "function"
		}
	]
}